:020000040000fa
:080000000004040000000000f0
:020000040000fa
:10000800aa110000aa110000aa110000aa110000fc
:10001800aa110000aa110000aa110000aa110000ec
:10002800aa110000aa110000aa110000aa110000dc
:10003800aa110000aa110000aa110000aa110000cc
:020000040000fa
:020000040000fa
:100800002f0022000e7f24000e018800000000004f
:10081000000020000000e000020032000001200083
:10082000200288000c000700401321000100200076
:1008300011000700000020000000e000020032006c
:100840000000020000000000f210020000000000a2
:100850000040da000000fe004440a900c00520006e
:100860000000e0000300320000002000a00188002a
:100870004440a80000000600910188008000780034
:100880000000eb0015003700e280400032a0b40009
:100890009101ba00e280400032a0b4009102ba0097
:1008a000e280400032a0b4000002eb00472bde00e3
:1008b000f507b200602ce10004003a000059eb009b
:1008c0008301e900fdff3e00040037006128e100dc
:1008d000010032000082eb000b00070011c3ba00d8
:1008e0001101ba000604e00003003a000200e00033
:1008f000e5ff3a0000000600f607b2009601880006
:1009000082007800f5ff37003159ba008301e90011
:100910000c0032002159ba008301e90008003200be
:100920000400e00003003a00e280400032a0b4007e
:10093000f5ff370011d9ba008301e900faff3a0048
:100940008100e800e180400032a0b4000000060011
:100950003e0e040000000000420e040000000000f3
:100960003a0e0400000000006c0e040000000000bd
:100970003a050400000000002a0504000000000001
:100980008001780002003700b15978000201e900c7
:0c0990000200e000fcff3a00000006003e
:020000040000fa
:10099c00120100001001000002000000000800001d
:1009ac00d8040000fffa0000020000000102000061
:1009bc0003010000090200004300000002010000d6
:1009cc000080000064090000040000000001000029
:1009dc0002020000010000000524000000100000cd
:1009ec00010400002402000002050000240600009f
:1009fc0000010000052400000101000001070000b7
:100a0c0005810000030a00000040000009040000fa
:100a1c0001000000020a00000000000000070000b6
:100a2c000502000002400000004000000705000025
:100a3c008202000040000000400000004e4f000009
:080a4c00454d000053000000bd
:020000040000fa
:100a540019c8bf00030033000080fb00b0248800e5
:100a640019e8ef00c0c420000008eb0000000600f5
:100a7400e04080000000e0001a003200e80f50005f
:100a840028003e008040eb000000e0000900320036
:100a94008000eb002240800012019000d3408000cf
:100aa40063f178008100e800810f5000f9ff3e00f7
:100ab4008040780022408000014978002140800075
:100ac4001141900002c1ea000244b20083c8b3009d
:100ad40003417100924098001a28b4001c28b50004
:100ae40000000600606288008040eb000000eb001c
:100af400224080000149780021408000114190008b
:100b040002c1ea000244b20083c8b3000341710089
:100b1400924098001a28b4001c28b5000000060072
:100b2400f0ff3700800020008000eb00d9ff370081
:100b3400304088004140880052408800634088006b
:100b44009624ef009424a8009424a9009ec0a90030
:100b54008c24ef00f00f20007024880050248800bb
:100b6400a624ef00a824ef0003a020004818de000c
:100b7400c024880000082000302488008804a800cd
:100b84000e28ef001028ef001228ef00e0c4200028
:100b940002042000000141008000eb000008eb008b
:100ba40071b89f0064004000820f5000fbff3a00c0
:100bb4006162880071628800d0002000502588009e
:100bc4001428ef001868ef001628ef001968ef00ea
:100bd40080c0b3008049780080a1200010508800b4
:100be40081c8b30010a020000148780063004000d1
:100bf4000048eb0000a220003050880001c4b3007c
:100c040050a0200001487800000006009404ab00c6
:100c140003003a009404a8009404ab00fdff3200e2
:100c240094c4ab00feff3a00cd42a90000000600c8
:100c3400f00f200070248800000006006016800079
:100c440061168000008068000010b2006116800008
:100c54000180a10081007000611688001428ef0053
:100c640081002000512488001868ef00502480007f
:100c740068006000fbff3a001628ef001968ef00d7
:100c8400aa24ef00ac24ef00ae24ef00b024ef0060
:100c9400b224ef00b424ef00b624ef00b824ef0030
:100ca400ba24ef00bc24ef00be24ef00c024ef0000
:100cb400c224ef00c424ef00c624ef00c824ef00d0
:100cc4009624ef00f10f200051248800712488003d
:100cd40011a1200080487800d00020005025880011
:100ce40071805000810020000148780080a120001c
:100cf4001050880081c8b30010a02000014878007b
:100d0400630040000048eb0000a22000305088003f
:100d140001c4b30050a020000148780094a4a900a5
:100d2400000006009000900011409000e54f500034
:100d3400620032000f003600e84f50004b003200d2
:100d4400e94f500029003200e64f500034003200d1
:100d540081c0b30000a020000148780040c8b3005f
:100d640051a0200080487800e4805000804878003a
:100d740000000600e14f500047003200100031002f
:100d840020408000100090004181200091407800b4
:100d9400014878002040800010009000518120001c
:100da40091407800114098002040800021c0b30099
:100db4000148780081ccb30011409800000006007f
:100dc400e34f5000e2ff3a0021409000e14f500011
:100dd400dfff3a001428a800204080000048eb0000
:100de40081ccb3001140980000000600214090001f
:100df400e14f5000d6ff3e000080fb00b040880069
:100e0400b2003a0000c1b30018e8b70020408000e7
:100e14000048eb0081ccb3001140980000000600ac
:100e240031409000e24f50006a003200e34f50001e
:100e340040003200e14f50002e00320081c0b30068
:100e440000a020000148780040c8b30051a0200051
:100e540080487800e48050008048780004ff070050
:100e6400a05320006062880000000600204080003b
:100e740010009000618120009140780001487800c2
:100e84002040800011c0b3000148780081ccb30039
:100e9400114098000000060021409000e14f5000ee
:100ea400abff3a001428a900204080000048eb0062
:100eb40081ccb3001140980000000600314090003e
:100ec4000004e000a2ff3a00214090000004e0008a
:100ed4009fff350019e8b700204080000048eb0070
:100ee40081ccb30011409800a052200060628800b9
:100ef4000000060030408000d04088001081fb00d4
:100f0400e2408800714190000204e000d3ff3a00ff
:100f1400e140900090cf5000d0ff31008180fb0071
:100f2400e1408800d2fe0700a053200060628800e0
:100f3400000006008182e8001580fb000c08e30035
:100f440008003c0082c0b30000a0200002487800e2
:100f540040c8b30052a02000004978006401510049
:100f64000049780050408000d04088001081fb0088
:100f7400e24088001504e000090032008001eb0023
:100f840002004000d04088001081fb00e24088004d
:100f94008301e8001582fb00830f5200f8ff3c0038
:100fa400714090000004e000acff3a006140900002
:100fb400d1408000914f5000a8ff31000080fb0019
:100fc400e0408800aafe0700a05320006062880069
:100fd400000006000183e8003040800010509000bb
:100fe400964f10000800390082c0b30000a0200012
:100ff4000248780040c8b30052a02000004978009d
:10100400640151000049780040408000d0408800cd
:10101400630240009481fb00c819dd002041900068
:101024000281fb0002814100e24088001604e000d6
:101034000e0032008001eb0002004000d040880026
:10104400630240001481fb004811dd00a0429000bf
:101054008582fb0005014100e24088008301e8002d
:101064009682fb00838f5200f3ff3c007141900095
:1010740094417800834f510009003100e140900011
:101084008180fb004811dd0082804000e14088003f
:1010940077fe0700a053200060628800000006006d
:1010a400834f51006dff3a00e140900020409000d2
:1010b40080cf500069ff31008180fb004811dd00c2
:1010c40082804000e1408800f1ff370000c2b30095
:1010d40018e8b70058030700204080000048eb00e0
:1010e40081ccb300114098000000060090009000ed
:1010f400114090000004e0000c003a002140800000
:101104009100900080487800214080009100900078
:10111400904098002040800021c0b300014878002e
:1011240081ccb3001140980000000600ea4f500043
:101134000b003200eb4f50001500320081c0b300a9
:1011440000a020000148780040c8b30051a020004e
:1011540080487800e4805000804878000000060051
:1011640041409000e14f5000f4ff3e0020408000d9
:10117400100090000048eb002040800011c0b30034
:101184000148780081ccb3001140980000000600ab
:1011940041409000e14f5000e8ff3e0021409000a4
:1011a4000004e000e5ff3a00214080008048780018
:1011b40080ccb3009040980000000600900090009e
:1011c40011409000e14f5000330032000b00390011
:1011d400e34f50004600320081c0b30000a020005d
:1011e4000148780040c8b30051a02000804878002e
:1011f400e480500080487800000006002040800011
:10120400100090000048eb00204080001000900087
:101214000041eb001240980041409000ef00600054
:10122400818040000080fb004700de008080400099
:10123400c208dd0000a020008100400011409000a1
:101244000024a100904098000004e0004000320017
:10125400204080001000900012c0b30002487800c3
:10126400114090000024a100904098000004e00088
:1012740003003200204080001000900002487800f3
:101284002040800021c0b3000148780081ccb30025
:101294001140980000000600c14090000181fb004d
:1012a4004711de00ef806000818040000280fb0077
:1012b40080804000c208dd0000a0200081004000c2
:1012c400114090000024a100904098000204e00026
:1012d400180032000064a000904098002040800074
:1012e4000048eb0081ccb3001140980000000600d8
:1012f40041409000ef006000818040000080fb00ce
:101304004700de0080804000c208dd0000a020000d
:1013140081004000114090000024a00090409800fb
:10132400204080000048eb0081ccb30011409800bd
:10133400000006000064a100904098002040800056
:101344000048eb0081ccb300114098000000060077
:10135400904098002040800021c0b30001487800ec
:1013640081ccb300114098000000060082c0b30095
:1013740020408000124098001040800090009000af
:101384009181fb00830078000106b2000402200072
:10139400848f50002d00320004042000848f5000fc
:1013a400240032000100e0001a003a00e3816100e9
:1013b400e18f510030003200e28f510031003200e1
:1013c4000300e00013003a0056fe070010408000be
:1013d40081c0b300014878001140800011009000e2
:1013e40082c8b3001004e00007003500e04190001b
:1013f40082ccb3000304e00003003a007040900084
:101404000004e000170032009240980094a4a90060
:101414000000060001a020008248780041c8b30003
:1014240052a020000149780064015100014978006c
:10143400e7ff37001208e200e5ff32008040800039
:101444000000010010408000e1ff3700814080006f
:101454000100e000deff32000100010010408000c6
:10146400dbff370082c8b3009240980094a4a9001f
:1014740000000600e7ff37001cff07001040800053
:10148400d3ff37004dff070010408000d0ff370026
:1014940000c8bf004200de00c003b200c1c4200087
:1014a400610078000000e00001003200000001004b
:1014b4000000060000c8bf004200de00c003b20006
:1014c4000080e800c1c42000610078000000e00052
:1014d40001003200000001000000060060168000d8
:1014e40061168000808068000040200080806000d9
:1014f4006016800000a0a1000080700060168800c3
:101504009124800001407800028020000149780085
:101514008000d100c107b20002a0200082804000f8
:10152400114088000034a0000000d100c007b200c0
:10153400020040002040880011409000c003b20027
:1015440041022000810f500008003200f08040006a
:10155400810f500004003200e40f500001003200fb
:1015640000000600d3ff370080ff3700c8ff3700b4
:10157400881f78008a04ab001a003a008a24ab0062
:1015840011003a008aa4ab0021003a008a84ab001f
:101594001a003a008ae4ab0022003a008a44ab0005
:1015a40025003a00880020008a64ab000400320061
:1015b400caff0700582488008a64ab00fcff3a0085
:1015c4004f04780000000600f00f2000702488000b
:1015d40020002000502488004f04780000000600fa
:1015e400f9ff370095fd0700100020005024880003
:1015f4004f04780000000600f3ff370000012000cc
:10160400502488004f04780000000600eeff3700e5
:1016140000022000502488004f04780000000600d7
:10162400e9ff370000082000502488004f047800a8
:1016340000000600e4ff370040002000502488002a
:101644004f04780000000600dfff37007040880078
:1016540000000600804088000000060090408800da
:10166400000006004200dd00c2c420000131780001
:10167400000006004200dd00e2c4200001307900d1
:10168400000006009040900081c0ea000144b200ce
:1016940082c8b30082c070001140980000000600a8
:1016a4000048eb009040900081c0ea000144b20081
:1016b40082c8b30082c07000114098000000060088
:1016c4000148780081ccb300114098000000060066
:1016d40081c0b30000a020000148780040c8b300d6
:1016e40051a0200080487800e480500080487800b1
:1016f400000006000040eb008ec0ab000d0032007d
:101704008a04ab000c003a008a64ab000700320084
:101714009024800000e8b7000080fb004400de0055
:101724000a003a0080002000502488008ec0a900de
:101734000040eb000000060040fd07001000200000
:101744005024880000c0eb000000060063ff07007f
:10175400800020005024880000c0eb000000060038
:10176400d2418000e3418000e00f5100e08f590036
:1017740066003a0040c0b3006184200080487800cd
:101784008100e8008048eb008100e8008048780090
:101794000100e8000048eb000180e8000048eb008d
:1017a4000000e8000048eb00e08320001004e000a3
:1017b40062003a00d641800011002400013b8800f9
:1017c400458420009580fb00e18f50001a0034000e
:1017d400060178008001eb008040eb00e8814100c5
:1017e400e0c179008381fb000389bb008141e800eb
:1017f4008381fb00e881410060c279000482fb0020
:1018040081c1e8008381fb00e8814100e0c17900e7
:10181400c819dd0083017200e3c040000309bb0066
:101824000281e8008181fb001582fb000402e900cb
:10183400848f5100e9ff350051052000313b8800b9
:10184400a10a2000313b880061e7a80000000000e5
:101854000000000002002800043b800084006100b6
:10186400fdff3a0061c7a900f4832000b1c4b300ae
:10187400014a78009580fb00e18f5000220034007b
:10188400060178008001eb008040eb0066c5b300e0
:101894009283ba00e8814100e0c1790087cf51000a
:1018a40001003200064a78009201ba008143e80040
:1018b4008783fb00e8834300e0c37b0083cf5300ae
:1018c40001003200064a7800c899de0081c3e800ae
:1018d4008783fb00e8834300e0c37b0083cf53008e
:1018e40001003200064a7800e3c040008181fb0019
:1018f4009583fb008703e900878f510002003d00b8
:101904000281e800e2ff37000000060000c02f005b
:10191400f1ff2f000200400083804800f4bf210043
:10192400840f5000e08f580015003e0001c5b3003d
:10193400f083200001487800000006002104240000
:10194400013b88008080eb000109bb0051052000a9
:10195400313b8800a10a2000313b880061e7a800e0
:10196400000000000000000002002800033b80008b
:1019740083006100fdff3a00014878008dff3700c5
:10198400f07f2a0021002000800f5100818f590030
:1019940085ff340001c5b300f083200001487800be
:1019a40000000600e8874700889fbe008a9fbe00ab
:1019b4008c9fbe008e1f7800e8832000004ceb0053
:1019c40019ccb300eafe0700bd01070070832000b4
:1019d400cd0107000004e000faff320037c8bf0061
:1019e400894f5000f7ff3a005001070010cfb300b1
:1019f400619420008048780041c0b30070942000b6
:101a040001487800a1c0b3000000e8000148780054
:101a140031c0b3000080e9004f010700fb832000c0
:101a2400b0c4b300804d78000b05e8000a07e80055
:101a34008a86e80063064500e4044500ccfe0700fe
:101a44003a010700629420001b49780011c0b300da
:101a5400020078004001070000842000aa0107006a
:101a64009a4078001084200081bf9f00a6010700df
:101a74008fb897009ec040002084200081bf9f0043
:101a8400a10107008fb897009dc04000308420005a
:101a940081bf9f009c0107008fb897009cc0400045
:101aa4004084200081bf9f009701070019407800ff
:101ab4008fb8970080c040001a42780023032000aa
:101ac40084497800e14f5000190036008002eb0091
:101ad400e5b79f000080fb000000e9006fb19700ac
:101ae400820f500012003600efb197006880410069
:101af4000000440081bf9f00830107006fb297007c
:101b040068004200684078008fb8970080c04000a9
:101b1400efb297008502e800e5b79f001980fb004b
:101b24000000e9006fb19700820f5000eeff3e0005
:101b34005084200081bf9f00730107008fb8970075
:101b44005384200093c0400003003200e4c4b30077
:101b5400844d7800b9ff37001a80fb008000eb0049
:101b64004809dd00c801de00830171004801dd0081
:101b74001e80fb008000eb000200400083804800d0
:101b84004809dd00c801de00830171004801dd0061
:101b94001d80fb008000eb000202400083824800ad
:101ba400d4418800e54188001c407800e24f500091
:101bb4002b003200e14f400010003200e14f500092
:101bc4000a00320052c5b300824d78003648e20064
:101bd4009aff32004f0778004f06be004f05be0043
:101be4004f04be008f00b10000000600004c7800d6
:101bf4003648e20091ff3200f6ff37009404a90052
:101c04000080eb00f0b79f007fb097008000e900f0
:101c1400f1b79f000000e0000d0032008082eb006d
:101c2400e5b79f006fb097008000e900e1b79f001f
:101c34000000e000f4ff32006fb097008000e9007c
:101c4400e1b79f000000e000f6ff3a00eeff370026
:101c54000000fe0052c5b300824d7800dbff370060
:101c6400bffe07003648e20074ff3200d9ff370098
:101c74006000b8007bfe37006000b80079fe3700d2
:101c8400104080001000900001c0200009000900ed
:101c9400b0587800a000b1006000b80075fe0700dd
:101ca400e1e320000000eb006efe07008000eb0083
:101cb4002040800082fe070081c0b30010408000f5
:101cc4000148780081c8b30010408000114098009a
:101cd40000000600881f78006016800061168000ee
:101ce400008068000020b200611680000190a1000d
:101cf4008100700061168800104080009000900000
:101d04001180fb003006b20012022000820f500046
:101d1400030032006efe07004f0478000000060046
:101d240011419000e44f51000e003600804f5100e5
:101d34002100320020c2b300804f51001500320050
:101d440000c0e900804f5100f2ff3a0021e4200076
:101d54000000eb0047fe07004f0478000000060077
:101d6400efff3700e24f5100eaff31000204e000c8
:101d740002003200e14f5100e6ff3a008000eb0020
:101d8400204080004efe07004f047800000006004b
:101d9400e3ff37009100900001418800a1e3200097
:101da4000000eb002ffe07008000eb0020408000c5
:101db40043fe0700f4ff370031049000ea0f54009b
:101dc40001003600a8002000204080001000900090
:101dd4000801780001c02000e8fa070088007800b4
:101de4002040800036fe07004f0478000000060003
:101df400cbff370000202c00110020000060880079
:101e0400116088000000eb002060880030608800ca
:101e140081c0b30080c02000014878002008a900d8
:101e24002028a900c0e620000afe07002e28ef00a3
:101e34002c28ef0000000600889fbe008000eb0005
:101e44001000200007fe07008000eb0020002000a7
:101e540004fe07008000eb002000200005fe0700c0
:101e64005001200060258800d001200070258800e2
:101e74008040eb00c0a0200001487800609820005a
:101e84007050880080c4b300d2a0200000497800bc
:101e9400e304410002c4b300824c78006290200045
:101ea4009250880083c8b3000901e8000349780010
:101eb40064844400014c780061942000b15088008f
:101ec400e580440080487800c0e62000e1fd07007a
:101ed40089418800984188004f04be000000060034
:101ee4006000b800dffd3700a04180000000e00082
:101ef400020032000000e900a04188000000060052
:101f040080418000104090000004e0000100350092
:101f1400100005009ec0ab00feff3a00f5fd07006f
:101f24000004e000f6ff320000000500904180004c
:101f3400104090000004e00001003500100005008e
:101f44009ec0ab00feff3a00eafd07000004e0007b
:101f5400f6ff320000000500889fbe0000047800f0
:101f64008144780090418000904090000104e0009a
:101f740008003d009ec0ab00feff3a00ddfd0700f7
:101f84000004e000f7ff320000c0eb004f04be0085
:101f9400000006001800980009487800904180006d
:101fa4001041900002c1ea000244b20081c8b300ab
:101fb4008140710011409800cefd0700094078006f
:101fc4004f04be0000000600f2ff3700804180008d
:101fd4001040900000c0ea000080fb004700de00d3
:101fe40000000600904180001040900000c0ea000c
:101ff4000080fb004700de000000060000017800be
:102004002368ef0083418000134290000040eb00fe
:102014000404e0001a0035001340780080cf50001b
:1020240018003e000104e000080032000040eb000c
:10203400639020000080fb00637178002348ec006b
:1020440023e8b70080cf5000faff3e009ec0ab00eb
:102054000e00320001c4b3008041800001487800c2
:10206400804180001041900002c1ea0001416100fa
:1020740081c8b300814071001140980023c8bf009b
:102084000000060080407800e6ff370099fd070055
:1020940001c4b30080418000014878008041800081
:1020a4001041900002c1ea000141610081c8b300ff
:1020b400814071001140980023c8bf00f0ff370031
:1020c400889fbe00a9c42000194478000804e000d9
:1020d400020032004f04be000000060001c4b30039
:1020e40000fc2f0009004000c4ff0700804c78006a
:1020f4001ffd07000900e800084878004f04be00ef
:1021040000000600f5ff3700889fbe0080047800b9
:10211400a8c42000eaff0700a1c420001804e000be
:10212400fcff32000101e8001280fb0003fc2f00d9
:1021340081814100e34c78009148e9001249e800ac
:1021440010c0b3004f04be00000006004440a800c5
:102154003460ef004427ef003260ef000080eb00b2
:102164006019880021002000511988004016880059
:1021740080168800c0168800001788004017880061
:10218400801788004227a90000000600efff07001f
:10219400c902a900c922a900c942a900cd42a800c8
:1021a400cd02a900cd22a8004300200002992000fe
:1021b400014e2800e04c28005dfa070093fa07005e
:1021c4000cff0700cd22a900e9fc070018c8bf00d6
:1021d400ff4f5000fcff3600cd22a800f1fd370070
:1021e4000200fa002ca3ef00c8e2a8006f20a800a8
:1021f400ccc2a900c8c2a90080382100f0bf9f004a
:102204007fb897008000e900f1bf9f000000e00064
:10221400fbff3a00f0bf9f007fb89700f30f500018
:102224000a003c00cae2ab000200320001002200b6
:1022340001400100ffb897008100e800f1bf9f0052
:102244007fb89700f30f5000f6ff34006f20a90009
:10225400c8c2a800cdff07000000eb000080fa0010
:042264000000060070
:020000040000fa
:102268003e080000c800000000000000360800001a
:10227800080000000000000000200000020000002c
:1022880000000000000c00004c00000000000000ee
:102298001e080000180000000000000006090000e9
:1022a8008a000000000000009009000052000000b1
:1022b8000200000004030900042a0300440061002e
:1022c800006e000067006500007200006f00750076
:1022d8000073000020005000007200006f007400be
:1022e800006f000074007900007000006500730042
:1022f8000012030043004400004300002000540083
:102308000065000073007400001203003000300004
:102318000030000030003000003000003000310094
:10232800000000004c0c000040000000000000000d
:10233800000a000000020000000000000008000081
:0c2348001e00000000000000ae1180002c
:020000040000fa
:082354000040da000000fe0069
:020000040000fa
:04235c00000000007d
:020000040000fa
:043fec000a040000c3
:020000040000fa
:043ff00067f8370037
:020000040000fa
:020000040005f5
:0457f8009e230000ec
:020000040000fa
:020000040005f5
:0457fc007f3e0000ec
:00000001FF
