:020000040000fa
:080000000004040000000000f0
:020000040000fa
:100008002011000020110000201100002011000024
:100018002011000020110000201100002011000014
:100028002011000020110000201100002011000004
:1000380020110000201100002011000020110000f4
:020000040000fa
:020000040000fa
:100800002f0022000e7f24000e018800000000004f
:10081000000020000000e000020032000001200083
:10082000200288000c000700a00a2100010020001f
:1008300011000700000020000000e000020032006c
:100840000000020000000000621002000000000032
:100850000040da000000fe004440a900c00520006e
:100860000000e0000300320000002000a00188002a
:100870004440a80000000600910188008000780034
:100880000000eb0015003700e280400032a0b40009
:100890009101ba00e280400032a0b4009102ba0097
:1008a000e280400032a0b4000002eb00472bde00e3
:1008b000f507b200602ce10004003a000059eb009b
:1008c0008301e900fdff3e00040037006128e100dc
:1008d000010032000082eb000b00070011c3ba00d8
:1008e0001101ba000604e00003003a000200e00033
:1008f000e5ff3a0000000600f607b2009601880006
:1009000082007800f5ff37003159ba008301e90011
:100910000c0032002159ba008301e90008003200be
:100920000400e00003003a00e280400032a0b4007e
:10093000f5ff370011d9ba008301e900faff3a0048
:100940008100e800e180400032a0b4000000060011
:10095000a20d040000000000a80d0400000000002b
:100960009c0d040000000000d20d040000000000f7
:100970003806040000000000f80504000000000034
:100980008001780002003700b15978000201e900c7
:0c0990000200e000fcff3a00000006003e
:020000040000fa
:10099c00120100001001000002000000000800001d
:1009ac00d8040000fffa0000020000000102000061
:1009bc0003010000090200004300000002010000d6
:1009cc000080000064090000040000000001000029
:1009dc0002020000010000000524000000100000cd
:1009ec00010400002402000002050000240600009f
:1009fc0000010000052400000101000001070000b7
:100a0c0005810000030a00000040000009040000fa
:100a1c0001000000020a00000000000000070000b6
:100a2c000502000002400000004000000705000025
:100a3c008202000040000000400000004e4f000009
:080a4c00454d000053000000bd
:020000040000fa
:100a54009404ab0003003a009404a8009404ab008f
:100a6400fdff320001042000a22480000280600007
:100a7400fdff3a00cd42a90000000600f00f20005f
:100a84007024880000000600601680006116800053
:100a9400008068000010b200f1ef2f0062168000a1
:100aa4008280600081007000611688001428ef00c5
:100ab400810020000040eb005124880018e8b700b2
:100ac4008a64ab00fcff3a001628ef001968ef00b7
:100ad400aa24ef00ac24ef00ae24ef00b024ef0012
:100ae400b224ef00b424ef00b624ef00b824ef00e2
:100af400ba24ef00bc24ef00be24ef00c024ef00b2
:100b0400c224ef00c424ef00c624ef00c824ef0081
:100b14009624ef00f00f20005024880070248800f1
:100b24000040eb0011a1200080487800d100200093
:100b34005125880082c0b30001a0200082487800bb
:100b440081a120001150880082c8b30011a02000a8
:100b540082487800e38040008048780000a22000aa
:100b64003050880001c4b30050a020000148780030
:100b740094a4a9000000060000c8bf004200de00e3
:100b8400c003b200c1c42000610078000000e0008e
:100b940001003200000001000000060000c8bf0090
:100ba4004200de00c003b2000080e800c1c420009f
:100bb400610078000000e000010032000000010044
:100bc4000000060070408800000006008040880095
:100bd4000000060090408800000006004200dd008e
:100be400c2c420000131780000000600e04080000b
:100bf4000000e0000e003200e80f50000100360053
:100c0400800020000000e0000c0032008000eb00b7
:100c14002240800012019000d340800063f17800ec
:100c24008100e800810f5000f9ff3e000300370007
:100c34006000b800e9ff07000000eb0021408000dd
:100c440080487800214080009141900083c1ea00ef
:100c54000344b20082c8b30002c1710092409800fc
:100c64001a28b4001c28b5000000060019c8bf00eb
:100c7400030033000080fb00b024880019e8ef0073
:100c84006000b800d5ff0700000006004200dd0048
:100c9400e2c42000013079000000060030408800e2
:100ca4004140880052408800634088009624ef0049
:100cb4009424a8009424a9009ec0a9008c24ef00c9
:100cc400f00f20007024880050248800a624ef0030
:100cd400a824ef0000a020004800de00c024880003
:100ce40000082000302488008804a8000e28ef00a3
:100cf4001028ef001228ef00e0c4200002042000b6
:100d0400000141008000eb000108780071b89f00e9
:100d140064004000820f5000fbff3a006000b800fe
:100d2400aeff07006000b800d8ff0700d000200025
:100d3400502588001428ef001868ef001628ef00eb
:100d44001968ef0081c0b30000a0200001487800ba
:100d540080a120001050880081c8b30010a020009a
:100d640001487800630040000048eb0000a2200026
:100d74003050880001c4b30050a02000014878001e
:100d8400000006009040900081c0ea000144b200d7
:100d940082c8b30082c070001140980000000600b1
:100da4000048eb009040900081c0ea000144b2008a
:100db40082c8b30082c07000114098000000060091
:100dc4000148780081ccb30011409800000006006f
:100dd40081c0b30000a020000148780040c8b300df
:100de40051a0200080487800e480500080487800ba
:100df400000006009000900011409000e14f500068
:100e04002c00320003003900e34f500055003a0033
:100e14004400370020408000100190000040eb00a7
:100e2400004978002240800012019000104198008f
:100e3400c14090006f806000000040008180fb0092
:100e4400c708de0001004000c200dd0002a020004f
:100e540001014100924090000124a1001141980039
:100e64000104e00041003200214080009100900024
:100e740012c0b300824878004200dd0001a02000c7
:100e840000804000904090000124a100114098008f
:100e94000104e000030032002040800010009000b4
:100ea400024878002100200020408000c4ff070091
:100eb40034003700c14090000181fb004711de007f
:100ec400ef806000818040000280fb008080400051
:100ed4004208dd0003a020008081410013409000ff
:100ee4000024a100904198000204e00004003200b4
:100ef400830078000064a00090409800050037004b
:100f0400c208dd0002a02000810041000064a100ad
:100f1400904098008000eb0020408000a8ff07006c
:100f240018003700c14090006f806000000040004e
:100f34008180fb00c708de00010040004200dd00a4
:100f440001a0200000804000904090000124a000f7
:100f5400114098008000eb002040800098ff0700bb
:100f6400080037009aff0700060037004200dd0042
:100f740001a02000008040008040eb001140980058
:100f8400c8ff370000000600900090001140900058
:100f94000004e00005003200ea4f50000e00320069
:100fa400eb4f500024003a00170037002040800027
:100fb400900090000040eb008048780021408000c1
:100fc4009100900090409800210020002040800073
:100fd4007bff07001900370041409000e14f5000ab
:100fe40007003e0020408000100090000048eb0005
:100ff400110020002040800071ff07000f0037001f
:1010040073ff07000d00370041409000e14f50008e
:1010140007003e00214090000004e00004003a0074
:101024008000eb002040800065ff070003003700cc
:1010340067ff07000100370065ff07000000060096
:10104400889fbe001004900018409000e54f5000a7
:101054003000320006003e00e14f5000190032001b
:101064000a003900e34f5000bc003a001f0037006b
:10107400e84f50009e003200e94f5000a5003200b6
:10108400e64f5000b5003a0032003700204080009f
:1010940010009000418120009140780001487800c0
:1010a4002040800010009000518120009140780081
:1010b40011409800210020002040800040ff0700dc
:1010c400a700370028409000e14f500005003a0087
:1010d4001428a9008000eb002040800038ff07009e
:1010e4009f0037003aff07009d003700284090001a
:1010f400e14f500005003a001428a8008000eb00de
:10110400204080002eff07009500370030ff0700c5
:1011140093003700384090000004e0000b003a00d0
:10112400284090000004e0000800350019e8b700ea
:101134008000eb002040800021ff07008163200035
:101144000000eb00a5fe07008500370020ff070024
:101154008300370038409000e24f50001100320005
:10116400e34f50003d003200e14f50005a003a0076
:1011740030408000d04088009080fb00e14088002f
:10118400f84090000104e00054003a00e840900068
:1011940090cf5000510031008180fb00e140880075
:1011a4004e0037008884e8003040800010509000e2
:1011b400994f10000100390005ff070040408000ee
:1011c400d0408800b0409000c808dd002040900066
:1011d4000080fb0000804000e04088001904e0002b
:1011e4000e0032008000eb00e04080001a08b400da
:1011f400d0408800304190004811dd00204090002c
:101204000080fb0000004100e04088008100e8000d
:101214001980fb00810f5000f3ff3c0078409000e0
:10122400d2408000b2409000814f50000500390048
:101234002a003a00e8419000a240900081cf51007a
:10124400260031004800dd00e84090008180fb006a
:1012540001004000e0408800200037008884e80056
:101264001980fb000c08e30001003c00d8fe0700d5
:1012740050408000d04088001080fb00e04088008f
:101284001904e0000a0032008000eb00e040800016
:101294001a08b400d04088001080fb00e0408800a9
:1012a4008100e8001980fb00810f5000f7ff3c002b
:1012b400784090000004e00008003a006840900084
:1012c400d1408000914f5000040031000080fb00a9
:1012d400e040880001003700bdfe070043fe070020
:1012e400815f20000000eb003cfe07001c0037007b
:1012f400204080001000900061812000914078001f
:10130400014878001100200020408000acfe070056
:101314001300370028409000e14f50000d003e00bc
:101324000080fb00b04088000400320000c2b3001b
:1013340018e8b700790207000200370000c1b300c3
:1013440018e8b7008000eb00204080009cfe0700f6
:10135400030037009efe0700010037009cfe0700d3
:101364004f04be000000060081c0b300204080008e
:101374001140980010408000900090001181fb0003
:10138400820078000106b20003022000838f50001f
:101394001400320003042000838f50001600320032
:1013a4000100e00019003a0063016100e10f5100ff
:1013b40006003200e20f5100060032000200e00095
:1013c40006003a001eff070011003700eefe07007a
:1013d4000f00370087fe07000d0037007cfe070072
:1013e4000b003700804080000000e000080032005d
:1013f40000000100060037001208e2000400320079
:1014040080408000000001000100370070fe0700ea
:1014140081c0b30010408000014878001240800071
:101424009200900080c8b3001104e0000800350069
:10143400e141900080ccb3000304e00004003a00d2
:10144400f14090000104e00001003a0080c8b300bc
:101454001041980094a4a9000000060060168000c2
:1014640061168000008068000140200001006000d7
:10147400f1bf2f006216800082806000810070003e
:1014840061168800902480000041780000e8b700cd
:101494000200d100c007b20001a0200001004000fa
:1014a400104088000234a0000201d100c207b2003b
:1014b400810041002140880010409000c003b20028
:1014c40041022000810f50000a003200f0804000e9
:1014d400810f500003003200e40f500006003a0070
:1014e40002003700a0ff070003003700abfd070030
:1014f40001003700a0fd070000000600881f7800e7
:101504008a04ab00040032005ffd070010002000d5
:1015140050248800220037008a24ab0004003200e3
:1015240056fd070020002000502488001c003700ce
:101534008aa4ab000300320000022000502488007b
:10154400170037008a84ab0003003200000120003a
:1015540050248800120037008ae4ab0003003200f4
:1015640000082000502488000d0037008a44ab0096
:1015740004003a00880020008a64ab0004003a00aa
:101584000700370040002000502488000400370082
:10159400b2ff0700582488008a64ab00fcff3a00bd
:1015a4004f047800000006000040eb008ec0ab0042
:1015b400170032008a04ab000500320032fd070038
:1015c400100020005024880000c0eb0010003700f9
:1015d4008a64ab000c0032009024800000e8b7005d
:1015e4000080fb004400de00050032009bff070082
:1015f400800020005024880000c0eb000400370065
:1016040080002000502488008ec0a9000040eb0018
:1016140000000600889fbe00d0418000e1418000a8
:10162400e00f5000e08f58000f003a0043c0b300b1
:1016340062842000034978000041eb007484200098
:10164400024a78000402e800034a78008401e800b2
:10165400824978008301e800824978008301e80028
:10166400824978001600370004c02f00f5ff2f00d0
:101674000002420081824a000041eb00f3bf2100d6
:10168400830f5200e08f5a0004003e0003c5b300ec
:10169400f28320000349780012c0b300f47f2a00cb
:1016a40025002000840f5000858f5800040034006a
:1016b40001c5b300f08320000148780079003700a9
:1016c4000204e00077003a00e28320001204e00004
:1016d4001100320022042400023b88000081eb0048
:1016e4000208bb0050052000303b8800a00a2000ff
:1016f400303b880061e7a800000000000000000003
:1017040001002800023b800002806000fdff3a00d7
:10171400e08320000048eb00d2418000e3418000d8
:1017240010002400003b8800408420001080fb004f
:101734000000e9004240a9001c0034008200780047
:101744008001eb000040eb00e2832000e602410050
:10175400e8814100e2c179008381fb008388bb00fa
:101764008041e8008381fb00e881410062c2790086
:101774000482fb0080c1e8008381fb00e881410012
:10178400e2c17900c819dd008301720063404000a2
:101794008308bb008180e8008081fb001582fb0088
:1017a4000402e900848f5100e9ff35005005200050
:1017b400303b8800a00a2000303b880061e7a80085
:1017c400000000000000000001002800033b80002e
:1017d40003806000fdff3a0061c7a900d441800086
:1017e400e5418000b2c4b300f083200002487800d1
:1017f400650040001080fb000000e9004240a900a1
:1018040028003400840078008001eb000040eb00e5
:10181400e2832000f80f20008202e80064c5b300d0
:10182400e60341009184ba00e881410062c3790073
:101834000683fb0088816400830f5300010032009b
:10184400844a78009101ba000043e8000683fb0053
:101854006803430062437b00834f5300010032005e
:10186400844a7800c899de0000c3e8000683fb00c0
:101874006803430062437b00834f5300010032003e
:10188400844a7800634040008081fb001783fb009a
:101894000603e900868f510002003d008180e800c4
:1018a400e0ff37004f04be0000000600e687470053
:1018b400889fbe008a9fbe008c9fbe008e1f78004a
:1018c400e08320000048eb007883200019ccb300ab
:1018d4000aff0700b701070008007800c1010700ec
:1018e4000004e000faff320037c8bf00894f5000ff
:1018f400f7ff3a004e0107006094200011cfb300b7
:101904000148780042c0b3008000e80082487800b3
:10191400a2c0b3008100e8008248780031c0b3005f
:1019240055010700b1c4b300f083200001487800da
:101934006b942000000678008004e9005ec5b300c3
:10194400edc4b300edfe0700390107009c4d78009b
:1019540011c0b3000b007800470107000084200089
:10196400a00107000a8420001a4478000a00e80055
:101974009c0107000a00e800104444000000e8004d
:10198400980107000a80e800104444000000e800c1
:101994009401070063004500104444000000e8007f
:1019a40090010700640045001040780000444400a2
:1019b4001a4178002103200082487800e14f50004a
:1019c400180036000002eb00f4b79f000080fb0013
:1019d4000000e900ffb29700850f500011003600a7
:1019e40064054500ffb0970068804000090040008e
:1019f4007c0107007fb197006800410069407800ce
:101a0400004444007fb297000402e800f4b79f004a
:101a14001a80fb000000e900ffb29700850f500018
:101a2400f0ff3e00508420006e0107005084200027
:101a340010444400020032000d4e7800c1ff37000c
:101a4400008420001080fb008000eb004809dd00ca
:101a5400c801de00830171004801dd00108420000c
:101a64001080fb008000eb000200400083804800ef
:101a74004809dd00c801de00830171004801dd0072
:101a8400208420001080fb008000eb000202400054
:101a940083824800d4418800e541880030842000d6
:101aa40010407800e24f500006003200e14f400041
:101ab40006003200e14f500015003a00804c7800d7
:101ac40014003700d3fe0700120037009404a90065
:101ad4000080eb0080bf9f000081eb000600370010
:101ae400f2b79f007fb097008002e900f5b79f002e
:101af4000000e000fbff3a000fb897008000e90007
:101b040081bf9f000000e000f5ff3a000000fe00e6
:101b14000e4e78003648e2008aff32004f07780004
:101b24004f06be004f05be004f04be006f00b1005b
:101b3400000006006000b80028fc07000000060052
:101b44006000b80025fc070000000600104080007b
:101b54001000900001c0200009000900b05878006e
:101b6400a000b1006000b80048fc070021da2000a2
:101b74000000eb0019fc07008000eb00204080000f
:101b84008ffc070081c0b30010408000014878003a
:101b940081c8b30010408000114098000000060086
:101ba400881f78006016800061168000008068003d
:101bb4000020b200f1df2f006216800082806000f6
:101bc40081007000611688001040800010009000b1
:101bd4001081fb003206b20011022000810f510077
:101be4003a003a0090409000e4cf500007003e00d5
:101bf400e2cf5000170031000104e0000d00320074
:101c0400e1cf50002f003a000e00370012c2b3009b
:101c140082cf5000150032000241e80082cf50000c
:101c24001f00320000c2b30080cf500025003a00ec
:101c34000a0037008000eb002040800060fc0700b1
:101c4400230037008000eb00204080005cfc07008c
:101c54001f0037005efc07001d00370081da2000fa
:101c64000000eb0009fc0700190037003004900065
:101c7400ea0f540001003600a80020002040800034
:101c8400100090000801780001c020003bfb070011
:101c9400880078002040800049fc07000c003700d1
:101ca4001000900000418800c1d920000000eb0022
:101cb400cafb07008000eb002040800040fc0700c6
:101cc4000300370042fc07000100370040fc070016
:101cd4004f0478000000060000202c0011002000b2
:101ce40000608800116088000000eb00206088001c
:101cf4003060880081c0b30080c0200001487800b3
:101d04002008a9002028a90020dd2000affb07003f
:101d14002e28ef002c28ef0000000600889fbe004c
:101d24008000eb0010002000acfb07008000eb00fb
:101d340020002000a9fb07008000eb002000200009
:101d4400d2fb07005001200060258800d00120004c
:101d5400702588008040eb00c0a020000148780076
:101d6400609820007050880080c4b300d2a0200086
:101d7400004978006304410002c4b300024c7800b7
:101d8400629020009250880083c8b3000801e800e4
:101d940003497800e3044100814c780061942000f9
:101da400b1508800e40041008048780020dd200024
:101db40086fb070088418800994188004f04be00d3
:101dc400000006006000b80084fb07000000060065
:101dd400a04180000000e000020032000000e900a1
:101de400a041880000000600881f78000804200035
:101df40006003700f104800001006400fdff3a0092
:101e0400e9fd07000004e00006003a00804180007c
:101e1400104090000004e000f6ff350010c0b3004d
:101e2400010037000040eb004f047800000006007a
:101e3400881f78000804200006003700f1048000a1
:101e440001006400fdff3a00d7fd07000004e00034
:101e540006003a0090418000104090000004e00029
:101e6400f6ff350010c0b300010037000040eb005e
:101e74004f04780000000600889fbe008a1f780087
:101e8400000578008144780008042000060037002b
:101e9400f104800001006400fdff3a00c2fd070068
:101ea4000004e0000f003a00904180009040900050
:101eb4000104e000f6ff35001a0098000948780094
:101ec400904180001041900002c1ea000244b20037
:101ed40081c8b3008140710011409800b2fd070031
:101ee4000100370080c4eb00094078004f057800fa
:101ef4004f04be00000006008041800010409000a6
:101f040000c0ea000080fb004700de00000006007d
:101f1400904180001040900000c0ea000080fb0067
:101f24004700de0000000600000178002368ef008f
:101f340080418000904190000304e0001b003500c4
:101f44001040780080cf50000100360080407800b7
:101f54000104e000080032000040eb006390200020
:101f64000080fb00637178002348ec0023e8b7008d
:101f740080cf5000faff3e009ec0ab0001003a0043
:101f840089fd070001c4b300804180000148780046
:101f9400804180001041900002c1ea0001416100cb
:101fa40081c8b300814071001140980023c8bf006c
:101fb40000000600a0c420001004e00008003a005d
:101fc40001c4b3000004b100d7ff0700a1c420007e
:101fd4008048780049fd0700b0c420000048eb00a9
:101fe40000000600889fbe0080047800a8c420007a
:101ff400f0ff07001804e000fdff3200b0c4200029
:102004009080fb00f2fb2f0000014100e2cc78003d
:102014008000e9009148e9001048e80010c0b300ce
:102024004f04be00000006004440a8003460ef00e6
:102034004427ef003260ef000080eb006019880055
:10204400210020005119880040168800801688005d
:10205400c016880000178800401788008017880081
:102064004227a90000000600efff0700c902a900eb
:10207400c922a900c942a900cd42a800cd02a900e5
:10208400cd22a8004300200002992000014e280020
:10209400e04c280001fb07006dfa07000eff070063
:1020a400cd22a90015fd070018c8bf00ff4f50003e
:1020b400fcff3600cd22a800fcfd0700000006004e
:1020c4000200fa002ca3ef00c8e2a8006f20a800c9
:1020d400ccc2a900c8c2a90080382100f0bf9f006b
:1020e4007fb897008000e900f1bf9f000000e00086
:1020f400fbff3a000001eb00f2bf9f007fb897009e
:10210400f30f50000c003c00010820005216800020
:102114000280600002003200010022000140010040
:102124007fb897000000e800f0bf9f007fb99700d8
:10213400f30f5100f5ff34006f20a900c8c2a800b6
:10214400c9ff07000000eb000080fa000000060051
:020000040000fa
:102154003e080000c800000000000000360800002f
:102164000800000000000000002000000200000041
:1021740000000000000c00004c0000000000000003
:102184001e080000180000000000000006090000fe
:102194008a000000000000009009000052000000c6
:1021a4000200000004030900042a03004400610043
:1021b400006e000067006500007200006f0075008b
:1021c4000073000020005000007200006f007400d3
:1021d400006f000074007900007000006500730057
:1021e4000012030043004400004300002000540098
:1021f400006500007300740000120300300030001a
:1022040000300000300030000030000030003100a9
:10221400000000004c0c0000400000000000000022
:10222400000a000000020000000000000008000096
:0c2234001e0000000000000024118000cb
:020000040000fa
:082240000040da000000fe007e
:020000040000fa
:042248000000000092
:020000040000fa
:043fec000a040000c3
:020000040000fa
:083ff0001ef8070000000600a6
:020000040000fa
:020000040005f5
:0457f8009e230000ec
:020000040000fa
:020000040005f5
:0457fc007f3e0000ec
:00000001FF
