:020000040000fa
:080000000004040000000000f0
:020000040000fa
:10000800ee0f0000ee0f0000ee0f0000ee0f0000f4
:10001800ee0f0000ee0f0000ee0f0000ee0f0000e4
:10002800ee0f0000ee0f0000ee0f0000ee0f0000d4
:10003800ee0f0000ee0f0000ee0f0000ee0f0000c4
:020000040000fa
:020000040000fa
:100800002f0022000e7f24000e018800000000004f
:10081000000020000000e000020032000001200083
:10082000200288000c00070080f720000100200053
:1008300011000700000020000000e000020032006c
:1008400000000200000000003c0f02000000000059
:100850000040da000000fe004440a900c00520006e
:100860000000e0000300320000002000a00188002a
:100870004440a80000000600910188008000780034
:100880000000eb0015003700e280400032a0b40009
:100890009101ba00e280400032a0b4009102ba0097
:1008a000e280400032a0b4000002eb00472bde00e3
:1008b000f507b200602ce10004003a000059eb009b
:1008c0008301e900fdff3e00040037006128e100dc
:1008d000010032000082eb000b00070011c3ba00d8
:1008e0001101ba000604e00003003a000200e00033
:1008f000e5ff3a0000000600f607b2009601880006
:1009000082007800f5ff37003159ba008301e90011
:100910000c0032002159ba008301e90008003200be
:100920000400e00003003a00e280400032a0b4007e
:10093000f5ff370011d9ba008301e900faff3a0048
:100940008100e800e180400032a0b4000000060011
:10095000c40c040000000000c80c040000000000eb
:10096000c00c040000000000f20c040000000000b5
:100970002e050400000000003c05040000000000fb
:100980008001780002003700b15978000201e900c7
:0c0990000200e000fcff3a00000006003e
:020000040000fa
:10099c00120100001001000002000000000800001d
:1009ac00d8040000fffa0000020000000102000061
:1009bc0003010000090200004300000002010000d6
:1009cc000080000064090000040000000001000029
:1009dc0002020000010000000524000000100000cd
:1009ec00010400002402000002050000240600009f
:1009fc0000010000052400000101000001070000b7
:100a0c0005810000030a00000040000009040000fa
:100a1c0001000000020a00000000000000070000b6
:100a2c000502000002400000004000000705000025
:100a3c008202000040000000400000004e4f000009
:080a4c00454d000053000000bd
:020000040000fa
:100a5400606288000000060019c8bf00030033006c
:100a64000080fb00b024880019e8ef000000eb00d0
:100a7400f7ff3700e04080000000e0000d00320086
:100a8400e80f500001003600800020008000eb00d9
:100a9400050037002240800012019000d3408000fe
:100aa40063f178008100e800808f5000f9ff39007d
:100ab400030037000000eb00e5ff07000000eb0037
:100ac400214080008048780021408000114190003e
:100ad40002c1ea000244b20083c8b30003417100ba
:100ae400924098001a28b4001c28b50000000600a3
:100af400010037009404a8009404ab00fdff320009
:100b040094c4ab00feff3a00cd42a90000000600e9
:100b1400f00f20007024880000000600601680009a
:100b240061168000008068000010b2006116800029
:100b34000180a10081007000611688001428ef0074
:100b440080002000502488001868ef008a64ab00fd
:100b5400fbff3a001628ef001968ef00aa24ef0003
:100b6400ac24ef00ae24ef00b024ef00b224ef0079
:100b7400b424ef00b624ef00b824ef00ba24ef0049
:100b8400bc24ef00be24ef00c024ef00c224ef0019
:100b9400c424ef00c624ef00c824ef009624ef001d
:100ba400f00f200050248800702488000000eb001f
:100bb40001a02000010140008041eb001341980096
:100bc4007000400002022000820f5000f8ff3a003b
:100bd400d00020005025880080c0b30080487800f1
:100be40080a120001050880081c8b30010a020000c
:100bf40001487800630040000048eb0000a2200098
:100c04003050880001c4b30050a02000014878008f
:100c140094a4a9000000060000c8bf004200de0042
:100c2400c003b200c1c42000610078000000e000ed
:100c340001003200000001000000060000c8bf00ef
:100c44004200de00c003b2000080e800c1c42000fe
:100c5400610078000000e0000100320000000100a3
:100c640000000600704088000000060080408800f4
:100c74000000060090408800000006004200dd00ed
:100c8400c2c4200001317800000006004200dd00eb
:100c9400e2c42000013079000000060030408800e2
:100ca4004140880052408800634088009624ef0049
:100cb4009424a8009424a9009ec0a9008c24ef00c9
:100cc400f00f20007024880050248800a624ef0030
:100cd400a824ef0000a020004800de00c024880003
:100ce40000082000302488008804a8000e28ef00a3
:100cf4001028ef001228ef00e0c4200001042000b7
:100d040080804000040037000008eb000001eb0085
:100d140072b89f0064004000810f5000faff3a004f
:100d24000000eb004aff07006000b800d7ff07008f
:100d3400d0002000502588001428ef001868ef0028
:100d44001628ef001968ef0081c0b30000a020004e
:100d54000148780080a120001050880081c8b300a9
:100d640010a0200001487800630040000048eb0018
:100d740000a220003050880001c4b30050a020001d
:100d840001487800000006009040900081c0ea000d
:100d94000144b20082c8b30082c0700011409800c0
:100da400000006000048eb009040900081c0ea007b
:100db4000144b20082c8b30082c0700011409800a0
:100dc400000006000148780081ccb300114098006f
:100dd4000000060081c0b30000a020000148780094
:100de40040c8b30051a0200080487800e48050003f
:100df40080487800000006001000900090409000a9
:100e0400e1cf50002a00320003003900e3cf500044
:100e140049003a00390037002140800091009000d9
:100e24008048eb0021408000910090000041eb00dd
:100e34009240980040409000ef00600081804000a4
:100e44000080fb004700de0080804000c208dd0017
:100e540002a0200001014100124090000024a100e2
:100e6400104198000004e00004003200204080009b
:100e74001000900012c0b3000248780000a02000c7
:100e840081004000114090000024a100904098008f
:100e94000004e000040032002040800010009000b4
:100ea40011c0b30001487800210020002000370061
:100eb400c04090000181fb004711de00ef8060001c
:100ec400818040000280fb0080804000c208dd0079
:100ed40000a0200081004000114090000024a100e7
:100ee400904098000204e000020032000064a00078
:100ef4000d0037000064a1000b0037004040900053
:100f0400ef006000818040000080fb004700de00ad
:100f140080804000c208dd0000a020008100400065
:100f2400114090000024a000904098008000eb0045
:100f340020408000a3ff3700a6ff370090009000f8
:100f4400114090000004e00005003200ea4f500018
:100f54000b003200eb4f50001a003a00100037002b
:100f6400214080009100900080487800214080005a
:100f74009100900090409800210020000f0037005d
:100f840041409000e14f50000e003e0020408000a0
:100f9400100090000048eb0011002000070037000b
:100fa40041409000e14f500006003e002140900077
:100fb4000004e00003003a008000eb0020408000c1
:100fc40080ff370083ff3700889fbe001004900025
:100fd400184090000080fb008000eb00e90f5000f7
:100fe400e08f5800a7003e000060010009003700b0
:100ff40014003700a300370017003700a1003700a2
:101004001a003700250037009e003700860037009d
:101014008c003700204080001000900041812000a7
:101024009140780001487800204080001000900032
:101034005181200091407800114098002100200047
:101044008d00370028409000e14f50008d003a0099
:101054001428a9008700370028409000e14f500071
:1010640088003a001428a800820037003840900015
:101074000004e00083003a00284090000004e000ef
:101084008000350019e8b7008000eb0020408000a4
:101094004cff0700e0522000610037003840900008
:1010a400e24f500011003200e34f50003b00320089
:1010b400e14f500057003a0030408000d040880093
:1010c4009080fb00e1408800f84090000104e000bb
:1010d40051003a00e840900090cf50004e0031009b
:1010e4008180fb00e14088004b0037008884e800e1
:1010f4003040800010509000994f100001003900da
:1011040034ff070040408000d0408800b040900089
:10111400c808dd00204090000080fb0000804000f3
:10112400e04088000000eb000a003700e240800045
:1011340082804000d1408800314190004811dd0098
:10114400a14090008180fb0081004100e1408800c3
:101154000000e8001981fb00d1408000820f50009c
:10116400f2ff35007840900031419000824f5000ea
:101174000500390028003a0068419000a140900021
:10118400814f5100240031004800dd00e840900008
:101194008180fb00010040001c0037008884e800c7
:1011a4001980fb000c08e30001003c0009ff070064
:1011b40050408000d04088001080fb00e040880050
:1011c4008000eb0006003700e04080001a08b400fd
:1011d400d04088001080fb00e04088008100e800d7
:1011e4001980fb00808f5000f7ff35007840900095
:1011f4000004e00008003a0068409000d1408000fc
:10120400914f5000040031000080fb00e040880052
:1012140001003700effe070016fe0700c053200050
:101224000bfe0700180037002040800010009000db
:10123400618120009140780001487800110020006d
:101244000d00370028409000e14f50000d003e0093
:101254000080fb00b04088000400320000c2b300ec
:1012640018e8b7002c0207000200370000c1b300e1
:1012740018e8b7008000eb0020408000d1fe070092
:1012840001003700d3fe07004f04be000000060033
:1012940081c0b300204080001140980010408000bd
:1012a400900090009180fb00010178000206b200da
:1012b40003022000830f51001200320003042000b7
:1012c400830f5100130032000200e00016003a00c0
:1012d400e3806000e18f500006003200e28f50008e
:1012e400060032000100e0000f003a0036ff07005c
:1012f4000e00370011ff07000c003700befe070088
:101304000a003700804080000000e00004003a003a
:10131400060037001208e20004003200804080001a
:101324000000010001003700aafe070081c0b300dd
:101334001040800001487800124080009200900024
:1013440080c8b3001104e00008003500e1419000ba
:1013540080ccb3000304e00004003a00f1409000a4
:101364000104e00001003a0080c8b3001041980075
:1013740094a4a90000000600601680006116800095
:10138400808068000040200080806000601680003b
:1013940000a0a100008070006016880091248000e5
:1013a4000140780002802000014978008000d100cb
:1013b400c107b20002a020008280400011408800d2
:1013c4000034a0000000d100c007b20002004000b9
:1013d4002040880011409000c003b2004102200068
:1013e400810f500008003200f0804000810f50004f
:1013f40003003200e40f500004003a0001003700fb
:10140400a3ff37000dfe370003fe070000000600af
:101414008a04ab0003003200c0fd07001000200066
:10142400110037008a24ab0003003200b8fd070026
:10143400200020000c003700000220008aa4ab002a
:1014440009003a00000120008a84ab0006003a003b
:10145400000820008ae4ab0003003a008a44ab0091
:1014640006003200400020005024880000000600de
:10147400c1ff070080002000502488008a64ab006c
:10148400fbff3a00000006000040eb008ec0ab00fa
:10149400150032008a04ab00030032009ffd0700f0
:1014a40010002000090037008a64ab000c003200f1
:1014b4009024800000e8b7000080fb004400de00b8
:1014c40005003200acff0700800020005024880093
:1014d40000c0eb00000006008000200050248800bb
:1014e4008ec0a9000040eb0000000600d04180003f
:1014f400e1418000e00f5000e08f58000d003a00f9
:1015040042c0b30063842000824978008301e8006c
:101514008049eb008301e800824978000301e80078
:101524000049eb000381e8000049eb000201e800f8
:101534000049eb0002c02f00f3ff2f00000141001f
:1015440081814900f4bf2100840f5100e08f5900cc
:1015540005003600f27f2a0023002000820f50008d
:10156400838f58006a00340001c5b300f083200063
:10157400014878000000060022042400023b880091
:101584000081eb000208bb0050052000303b8800be
:10159400a00a2000303b880061e7a800000000009a
:1015a40000000000000028006007b600fdff3a00bc
:1015b400e183200080487800d1418000100024009d
:1015c400003b88000040eb0013003700e8014100b5
:1015d400e2832000e2c179008381fb008388bb00a1
:1015e4008041e8008381fb00e8814100e2c1790089
:1015f4008381fb0000c2e8000482fb006802420011
:1016040062417a004811dd000281710063404000ac
:101614008208bb008180e8000081fb004384200035
:101624009381fb008301e900830f5100e7ff35003c
:1016340050052000303b8800a00a2000303b880081
:1016440061e7a80000000000000000006007e2005d
:10165400feff350061c7a900d1418000b2c4b300c8
:10166400f0832000024878000040eb00210037009e
:101674009181ba0068014100e4832000644179004b
:10168400834f51000300320063c5b3000401e80036
:10169400034978001101ba008041e8008381fb000e
:1016a400e8814100e4832000e4c1790082cf510045
:1016b4000300320064c5b300f3832000844978003a
:1016c4004891de0080c1e8008381fb00e88141008d
:1016d400e4832000e4c1790082cf5100030032008a
:1016e40063c5b3000401e800034978006340400087
:1016f4008180e8000081fb00438420009381fb008b
:101704008301e900830f5100d9ff35000000060072
:10171400e28320001204e000a7ff320096ff3700a6
:101724000400fa00889fbe00e08320000048eb001c
:1017340037ff07008b010700708320009801070022
:101744000004e000faff320010ccb3003748e30095
:10175400f7ff3a002e0107006094200011cfb30078
:101764000148780042c0b3008000e8008248780055
:10177400a2c0b3008080e8008248780031c0b30082
:101784002f010700b1c4b300f083200001487800a2
:101794001fff07001e01070060942000f183200052
:1017a4001148780011c0b30025010700008420000f
:1017b4007b01070009842000194478000900e8002f
:1017c400770107000900e800104444000980e8009c
:1017d400730107000980e80010444400638044005a
:1017e4006f01070063804400104444006480440097
:1017f4006b010700648044001040780000444400fa
:10180400194178002103200082487800e14f5000fc
:10181400150036000002eb00c4bf9f000c00370027
:10182400cfba970068804200e98320000900400095
:101834005b010700cfb897006880400069407800da
:10184400004444004fb997000201e800c2bf9f0062
:10185400408420001080fb000000e9004fba97008c
:10186400800f5200eeff3900508420004c01070025
:10187400508420001044440003003200e1c4b3004b
:1018840066005000c1ff3700008420001080fb0078
:101894008000eb004809dd00c801de00830171000f
:1018a4004801dd00108420001080fb008000eb0064
:1018b40002004000838048004809dd00c801de00c2
:1018c400830171004801dd00208420001080fb00aa
:1018d4008000eb000202400083824800d44188006b
:1018e400e54188003084200010407800e24f500029
:1018f40007003200e14f400007003200e14f500082
:1019040016003a00e1832000804878001600370072
:10191400f6fe0700140037009404a9000080eb00d1
:10192400d0bf9f00070037008082eb00c5bf9f0037
:101934004fb897008000e900c1bf9f000000e0009d
:10194400fbff3a005fb897008000e900d1bf9f0019
:101954000000e000f4ff3a000000fe0051c5b300af
:10196400f0832000014878003648e20088ff320006
:101974004f04be000080fa00000006006000b800ba
:10198400befc37006000b800bcfc3700104080008b
:101994001000900001c0200009000900b058780030
:1019a400a000b1006000b800b8fc070041cc2000e2
:1019b4000000eb00b1fc07008000eb002040800039
:1019c40000fd070081c0b30010408000014878008a
:1019d40081c8b30010408000114098000000060048
:1019e400881f7800601680006116800000806800ff
:1019f4000020b200611680000190a10081007000f7
:101a04006116880010408000900090001181fb0056
:101a14003206b20010022000800f51002a003a0062
:101a240011409000e44f500007003e00e24f500088
:101a3400250031000004e0001f003200e14f500097
:101a440021003a001c003700824f50000a00320087
:101a540022c2b300824f50001200320001c2b30010
:101a6400814f500018003a0081cc20000000eb00a8
:101a740086fc07001500370031049000ea0f54007b
:101a840001003600a80020002040800010009000d3
:101a94000801780001c02000b8fb07008800780026
:101aa40006003700910090000141880001cc20001d
:101ab4000000eb0071fc07008000eb002040800078
:101ac400c0fc070001003700c2fc07004f04780087
:101ad4000000060000202c00110020000060880097
:101ae400116088000000eb002060880030608800ee
:101af40081c0b30080c02000014878002008a900fc
:101b04002028a90020cf200058fc07002e28ef0031
:101b14002c28ef0000000600889fbe008000eb0028
:101b24001000200055fc07008000eb00200020007e
:101b340052fc07008000eb002000200053fc07004b
:101b44005001200060258800d00120007025880005
:101b54008040eb00c0a0200001487800609820007d
:101b64007050880080c4b300d2a0200000497800df
:101b7400e304410002c4b300824c78006290200068
:101b84009250880083c8b3000901e8000349780033
:101b940064844400014c780061942000b1508800b2
:101ba400e58044008048780020cf20002ffc070007
:101bb40089418800984188004f04be000000060057
:101bc4006000b8002dfc3700a04180000000e00058
:101bd400020032000000e900a04188000000060075
:101be400050037009ec0ab00feff3a0026fe07004a
:101bf4000004e00005003a0080418000104090009d
:101c04000004e000f7ff35001000050000000500a7
:101c1400050037009ec0ab00feff3a001afe070025
:101c24000004e00005003a0090418000104090005c
:101c34000004e000f7ff3500100005000000050077
:101c4400889fbe00000478008144780005003700b6
:101c54009ec0ab00feff3a000bfe07000004e0004c
:101c64000f003a0090418000904090000104e00091
:101c7400f7ff35001800980009487800904180006b
:101c84009040900081c0ea000144b20082c8b300d1
:101c940082c0700011409800fbfd0700010037006e
:101ca40080c4eb00094078004f04be000000060029
:101cb400804180001040900000c0ea000080fb00da
:101cc4004700de00000006009041800010409000b4
:101cd40000c0ea000080fb004700de0000000600b0
:101ce400000178002368ef0080418000904190005b
:101cf4000304e000190035001040780080cf500044
:101d04000600360080407800040037000080fb00a5
:101d140063902000637178002368ec0023c8bf003f
:101d2400814f5000f9ff39009ec0ab0001003a001a
:101d3400d5fd070001c4b30080418000014878004c
:101d4400804180009040900081c0ea000144b200cc
:101d540082c8b30082c070001140980023c8bf003d
:101d640000000600889fbe00a9c420001944780022
:101d74000804e00008003a0001c4b30000fc2f008e
:101d840009004000d6ff0700804c7800a0fd070042
:101d94000900e800084878004f04be00000006006f
:101da400881f780000047800eeff0700a2c420001a
:101db4001204e000fcff32008200e8001180fb0006
:101dc40003fc2f0082814100634c78001249e90032
:101dd4009148e80010c0b3004f04780000000600ea
:101de4004440a8003460ef004427ef003260ef0065
:101df4000080eb0060198800210020005119880040
:101e04004016880080168800c016880000178800d5
:101e140040178800801788004227a90000000600a8
:101e2400efff0700c902a900c922a900c942a900fd
:101e3400cd42a800cd02a900cd22a8004300200075
:101e440002992000014e2800e04c280093fb070073
:101e540027fb07001fff0700cd22a9006cfd070028
:101e640018c8bf00ff4f5000fcff3600cd22a80069
:101e74002bfe37000200fa002ca3ef00c8e2a800f2
:101e84006f20a800ccc2a900c8c2a90080382100d4
:101e9400f0bf9f007fb897008000e900f1bf9f006a
:101ea4000000e000fbff3a0006003700cae2ab0086
:101eb4000200320001002200014001007fb89700b7
:101ec4000000e800f0bf9f00ffb89700f38f5000b8
:101ed400f6ff34006f20a900c8c2a800d0ff070095
:0c1ee4000000eb000080fa000000060087
:020000040000fa
:101ef0003e080000c8000000000000003608000096
:101f000008000000000000000020000002000000a7
:101f100000000000000c00004c0000000000000069
:101f20001e08000018000000000000000609000064
:101f30008a0000000000000090090000520000002c
:101f40000200000004030900042a030044006100a9
:101f5000006e000067006500007200006f007500f1
:101f60000073000020005000007200006f00740039
:101f7000006f0000740079000070000065007300bd
:101f800000120300430044000043000020005400fe
:101f90000065000073007400001203003000300080
:101fa0000030000030003000003000003000310010
:101fb000000000004c0c0000400000000000000089
:101fc000000a0000000200000000000000080000fd
:0c1fd0001e00000000000000f20f800066
:020000040000fa
:081fdc000040da000000fe00e5
:020000040000fa
:041fe40000000000f9
:020000040000fa
:043fec000a040000c3
:020000040000fa
:043ff0008cf7370013
:020000040000fa
:020000040005f5
:0457f8009e230000ec
:020000040000fa
:020000040005f5
:0457fc007f3e0000ec
:00000001FF
