:020000040000fa
:080000000004040000000000f0
:020000040000fa
:1000080028150000281500002815000028150000f4
:1000180028150000281500002815000028150000e4
:1000280028150000281500002815000028150000d4
:1000380028150000281500002815000028150000c4
:020000040000fa
:020000040000fa
:100800002f0022000e7f24000e018800000000004f
:10081000000020000000e000020032000001200083
:10082000200288000c000700204b2100010020005e
:1008300011000700000020000000e000020032006c
:100840000000020000000000ca13020000000000c7
:100850000040da000000fe004440a900c00520006e
:100860000000e0000300320000002000a00188002a
:100870004440a80000000600910188008000780034
:100880000000eb0015003700e280400032a0b40009
:100890009101ba00e280400032a0b4009102ba0097
:1008a000e280400032a0b4000002eb00472bde00e3
:1008b000f507b200602ce10004003a000059eb009b
:1008c0008301e900fdff3e00040037006128e100dc
:1008d000010032000082eb000b00070011c3ba00d8
:1008e0001101ba000604e00003003a000200e00033
:1008f000e5ff3a0000000600f607b2009601880006
:1009000082007800f5ff37003159ba008301e90011
:100910000c0032002159ba008301e90008003200be
:100920000400e00003003a00e280400032a0b4007e
:10093000f5ff370011d9ba008301e900faff3a0048
:100940008100e800e180400032a0b4000000060011
:10095000040e040000000000080e04000000000067
:10096000000e040000000000320e04000000000031
:100970003a050400000000002a0504000000000001
:100980008001780002003700b15978000201e900c7
:0c0990000200e000fcff3a00000006003e
:020000040000fa
:10099c00120100001001000002000000000800001d
:1009ac00d8040000fffa0000020000000102000061
:1009bc0003010000090200004300000002010000d6
:1009cc000080000064090000040000000001000029
:1009dc0002020000010000000524000000100000cd
:1009ec00010400002402000002050000240600009f
:1009fc0000010000052400000101000001070000b7
:100a0c0005810000030a00000040000009040000fa
:100a1c0001000000020a00000000000000070000b6
:100a2c000502000002400000004000000705000025
:100a3c008202000040000000400000004e4f000009
:080a4c00454d000053000000bd
:020000040000fa
:100a54001ac8bf00030033000080fb00b0248800e4
:100a64001ae8ef00c0c420000008eb0000000600f4
:100a7400f04080000000e0001a003200e80f50004f
:100a840028003e008040eb000000e0000900320036
:100a94008000eb002240800012019000e3408000bf
:100aa40063f178008100e800810f5000f9ff3e00f7
:100ab4008040780022408000014978002140800075
:100ac4001141900002c1ea000244b20083c8b3009d
:100ad40003417100924098001c28b4001e28b50000
:100ae40000000600606288008040eb000000eb001c
:100af400224080000149780021408000114190008b
:100b040002c1ea000244b20083c8b3000341710089
:100b1400924098001c28b4001e28b500000006006e
:100b2400f0ff3700800020008000eb00d9ff370081
:100b3400304088004140880052408800634088006b
:100b44009624ef009424a8009424a9009ec0a90030
:100b54008c24ef00f00f20007024880050248800bb
:100b6400a624ef00a824ef0001a020004808de001e
:100b7400c024880000082000302488008804a800cd
:100b84000e28ef001028ef001228ef000000eb0001
:100b94009062880080628800b0628800a062880049
:100ba400d0628800c0628800f0628800e062880039
:100bb4001063880000638800306388002063880025
:100bc4005063880040638800706388006063880015
:100bd4009063880080638800b0638800a063880005
:100be400d0638800c0638800f0638800e0638800f5
:100bf40010648800006488003064880020648800e1
:100c040050648800406488006062880070628800d4
:100c1400d2002000522588001428ef001868ef0045
:100c24001628ef001a68ef0082c0b30082487800eb
:100c340081a120001150880082c8b30011a02000b7
:100c440082487800e38040008048780000a22000b9
:100c54003050880001c4b30050a02000014878003f
:100c6400000006009404ab0003003a009404a800ba
:100c74009404ab00fdff320094c4ab00feff3a00c5
:100c8400cd42a90000000600f00f20007024880067
:100c94000000060060168000611680000080680075
:100ca4000010b200611680000180a1008100700074
:100cb400611688001428ef00810020005124880068
:100cc4001868ef005024800068006000fbff3a00c1
:100cd4001628ef001a68ef00aa24ef00ac24ef00f6
:100ce400ae24ef00b024ef00b224ef00b424ef00f0
:100cf400b624ef00b824ef00ba24ef00bc24ef00c0
:100d0400be24ef00c024ef00c224ef00c424ef008f
:100d1400c624ef00c824ef009624ef00f10f200052
:100d2400512488007124880011a120008048780093
:100d3400d0002000502588007180500081002000e0
:100d44000148780080a120001050880081c8b300b9
:100d540010a0200001487800630040000048eb0028
:100d640000a220003050880001c4b30050a020002d
:100d74000148780094a4a9000000060090009000a7
:100d840011409000e54f50007e0032000f00360005
:100d9400e84f500067003200e94f5000290032004c
:100da400e64f50003400320081c0b30000a02000a0
:100db4000148780040c8b30051a020008048780062
:100dc400e48050008048780000000600e14f5000a5
:100dd40063003200100031002040800010009000b9
:100de4004181200091407800014878002040800033
:100df400100090005181200091407800114098002b
:100e04002040800021c0b3000148780081ccb300a9
:100e14001140980000000600e34f5000e2ff3a0042
:100e240021409000e14f5000dfff3a001428a80051
:100e3400204080000048eb0081ccb30011409800b2
:100e44000000060021409000e14f5000d6ff3e0014
:100e54000080fb00b0408800c8003a0000c1b30025
:100e640018e8b700204080000048eb0081ccb300b4
:100e7400114098000000060031409000e24f5000fd
:100e840084003200e34f50005e003200e14f500016
:100e94004a00320081c0b30000a02000014878005d
:100ea40040c8b30051a0200080487800e48050007e
:100eb40080487800f24080008040eb000000eb00a6
:100ec4000200e0000d00320002007800e80f50003c
:100ed40047003600800020008000eb0022408000a4
:100ee40012019000e340800063f178008100e80083
:100ef400810f5000f9ff3e008040780022408000be
:100f040001497800214080009141900083c1ea00aa
:100f14000344b20082c8b30002c171009240980039
:100f24001c28b4001e28b500a0532000606288006d
:100f34000000060020408000100090006181200025
:100f440091407800014878002040800011c0b3002f
:100f54000148780081ccb3001140980000000600dd
:100f640021409000e14f50008fff3a001428a9005f
:100f7400204080000048eb0081ccb3001140980071
:100f840000000600314090000004e00086ff3a00b3
:100f9400214090000004e00083ff35001ae8b70008
:100fa400204080000048eb0081ccb3001140980041
:100fb400a0522000606288000000060030408000db
:100fc400e04088001081fb00f2408800f14190006d
:100fd4000304e000b8ff3a00e140900090cf5000d5
:100fe400b5ff31000181fb00f2408800b2ff3700f9
:100ff4008040eb000000e000c0ff32008000eb0006
:10100400b6ff37008182e8001580fb000c08e3007e
:1010140008003c0082c0b30000a020000248780011
:1010240040c8b30052a02000004978006401510078
:101034000049780050408000e04088001081fb00a7
:10104400f24088001504e000090032008001eb0042
:1010540002004000e04088001081fb00f24088005c
:101064008301e8001582fb00830f5200f8ff3c0067
:10107400714190000204e0008eff3a00614190004b
:10108400904f51008bff31000281fb00f240880039
:1010940089ff37008183e8003040800010509000c1
:1010a400974f10000800390082c0b30000a0200050
:1010b4000248780040c8b30052a0200000497800dc
:1010c400640151000049780040408000e0408800fd
:1010d4008082e800630240009481fb00c819dd00af
:1010e4001581fb0002814100f24088001704e000f2
:1010f4000e0032008001eb0002004000e040880056
:101104008082e800630240001481fb004811dd0086
:101114001583fb0006014100f24088008301e800ca
:101124001783fb00830f5300f3ff3c0071409000d2
:1011340014417800824f5000060031006141900054
:101144000281fb004800dd0000014100f2408800fc
:1011540059ff3700824f500056ff3a00614190001a
:10116400954f510053ff31000281fb004800dd0020
:1011740000014100f24088004fff370000c2b30075
:1011840018e8b7000f030700204080000048eb0078
:1011940081ccb3001140980000000600900090003c
:1011a400114090000004e0000c003a00214080004f
:1011b40091009000804878002140800091009000c8
:1011c400904098002040800021c0b300014878007e
:1011d40081ccb3001140980000000600ea4f500093
:1011e4000b003200eb4f50001500320081c0b300f9
:1011f40000a020000148780040c8b30051a020009e
:1012040080487800e48050008048780000000600a0
:1012140041409000e14f5000f4ff3e002040800028
:10122400100090000048eb002040800011c0b30083
:101234000148780081ccb3001140980000000600fa
:1012440041409000e14f5000e8ff3e0021409000f3
:101254000004e000e5ff3a00214080008048780067
:1012640080ccb300904098000000060090009000ed
:1012740011409000e14f5000330032000b00390060
:10128400e34f50004600320081c0b30000a02000ac
:101294000148780040c8b30051a02000804878007d
:1012a400e480500080487800000006002040800060
:1012b400100090000048eb002040800010009000d7
:1012c4000041eb001240980041409000ef006000a4
:1012d400818040000080fb004700de0080804000e9
:1012e400c208dd0000a020008100400011409000f1
:1012f4000024a100904098000004e0004000320067
:10130400204080001000900012c0b3000248780012
:10131400114090000024a100904098000004e000d7
:101324000300320020408000100090000248780042
:101334002040800021c0b3000148780081ccb30074
:101344001140980000000600c14090000181fb009c
:101354004711de00ef806000818040000280fb00c6
:1013640080804000c208dd0000a020008100400011
:10137400114090000024a100904098000204e00075
:10138400180032000064a0009040980020408000c3
:101394000048eb0081ccb300114098000000060027
:1013a40041409000ef006000818040000080fb001d
:1013b4004700de0080804000c208dd0000a020005d
:1013c40081004000114090000024a000904098004b
:1013d400204080000048eb0081ccb300114098000d
:1013e400000006000064a1009040980020408000a6
:1013f4000048eb0081ccb3001140980000000600c7
:10140400904098002040800021c0b300014878003b
:1014140081ccb300114098000000060082c0b300e4
:1014240020408000124098001040800090009000fe
:101434009181fb00830078000106b20004022000c1
:10144400848f50002d00320004042000848f50004b
:10145400240032000100e0001a003a00e381610038
:10146400e18f510030003200e28f51003100320030
:101474000300e00013003a0040fe07001040800023
:1014840081c0b30001487800114080001100900031
:1014940082c8b3001004e00007003500e04190006a
:1014a40082ccb3000304e00003003a0070409000d3
:1014b4000004e000170032009240980094a4a900b0
:1014c4000000060001a020008248780041c8b30053
:1014d40052a02000014978006401510001497800bc
:1014e400e7ff37001208e200e5ff32008040800089
:1014f4000000010010408000e1ff370081408000bf
:101504000100e000deff3200010001001040800015
:10151400dbff370082c8b3009240980094a4a9006e
:1015240000000600e7ff37001cff070010408000a2
:10153400d3ff37004dff070010408000d0ff370075
:1015440060168000611680008080680000402000e2
:10155400808060006016800000a0a1000080700000
:1015640060168800912480000140780002802000e9
:10157400014978008181fb00c318de00c208dd0048
:1015840002a0200082804000114088000034a000a6
:101594000000d100c007b2000200400020408800d3
:1015a40011409000c003b20041022000810f50009e
:1015b4000f003200f0804000810f50000b00320019
:1015c400e40f50000100320000000600c419de00e0
:1015d400c219dd008381e800c0c420006080790066
:1015e4000000e000f8ff3200004001008bff3700ec
:1015f400c419de00c219dd00c0c420006080790077
:101604000000e000f0ff320000400100889fbe00af
:101614008a1f78008a04ab003e003a008a24ab009b
:1016240034003a008aa4ab008b003a008a84ab00f1
:1016340077003a008ae4ab009a003a008a44ab008f
:101644009e003a0008a020008a64ab002600320005
:1016540049022000cac42000601680006116800080
:101664008080680000402000808060006016800058
:1016740000a0a10000807000601688009124800002
:101684000140780002802000014978000181fb00bc
:10169400c310de00c208dd00810044001140880050
:1016a4000034a0000000d100c007b20000004400d4
:1016b4002040880011409000c003b200890f500000
:1016c4007100320041032000810f50006800320095
:1016d400e40f5000540032008000200050248800a1
:1016e4008a64ab00dcff3a004f0578004f04be006b
:1016f40000000600f00f2000702488002000200065
:10170400502488004f0578004f04be0000000600f6
:10171400f8ff3700601680006116800000806800c2
:101724000010b200611680000180a10081007000e9
:10173400611688001428ef008100200051248800dd
:101744001868ef005024800068006000fbff3a0036
:101754001628ef001a68ef00aa24ef00ac24ef006b
:10176400ae24ef00b024ef00b224ef00b424ef0065
:10177400b624ef00b824ef00ba24ef00bc24ef0035
:10178400be24ef00c024ef00c224ef00c424ef0005
:10179400c624ef00c824ef009624ef00f10f2000c8
:1017a400512488007124880011a120008048780009
:1017b400d000200050258800718050008100200056
:1017c4000148780080a120001050880081c8b3002f
:1017d40010a0200001487800630040000048eb009e
:1017e40000a220003050880001c4b30050a02000a3
:1017f4000148780094a4a900100020005024880017
:101804004f0578004f04be0000000600b9ff370002
:1018140000012000502488004f0578004f04be00ca
:1018240000000600b3ff37004411de004211dd0062
:101834000281e8006a0079000000e000a6ff32009f
:101844000000010080002000502488008a64ab005e
:1018540081ff3a00a4ff37000002200050248800d2
:101864004f0578004f04be0000000600a1ff3700ba
:10187400eafe070080002000502488008a64ab0040
:1018840075ff3a0098ff37004411de004211dd0075
:101894006a0079000000e0008fff320000000100c0
:1018a400e8ff370000082000502488004f05780026
:1018b4004f04be00000006008eff370040002000e9
:1018c400502488004f0578004f04be000000060035
:1018d40088ff370000c8bf004200de00c003b2002a
:1018e400c1c42000610078000000e0000100320063
:1018f400000001000000060000c8bf004200de0036
:10190400c003b2000080e800c1c420006100780078
:101914000000e000010032000000010000000600a9
:101924007040880000000600804088000000060027
:1019340090408800000006004200dd00c2c4200080
:1019440001317800000006004200dd00e2c42000fe
:1019540001307900000006009040900081c0ea0048
:101964000144b20082c8b30082c0700011409800e4
:10197400000006000048eb009040900081c0ea009f
:101984000144b20082c8b30082c0700011409800c4
:10199400000006000148780081ccb3001140980093
:1019a4000000060081c0b30000a0200001487800b8
:1019b40040c8b30051a0200080487800e480500063
:1019c40080487800000006000040eb008ec0ab00a9
:1019d4000d0032008a04ab000c003a008a64ab00ac
:1019e400070032009024800000e8b7000080fb006c
:1019f4004400de0042003a008000200050248800a9
:101a04008ec0a9000040eb000000060060168000b4
:101a140061168000008068000010b200611680002a
:101a24000180a10081007000611688001428ef0075
:101a340081002000512488001868ef0050248000a1
:101a440068006000fbff3a001628ef001a68ef00f8
:101a5400aa24ef00ac24ef00ae24ef00b024ef0082
:101a6400b224ef00b424ef00b624ef00b824ef0052
:101a7400ba24ef00bc24ef00be24ef00c024ef0022
:101a8400c224ef00c424ef00c624ef00c824ef00f2
:101a94009624ef00f10f200051248800712488005f
:101aa40011a1200080487800d00020005025880033
:101ab40071805000810020000148780080a120003e
:101ac4001050880081c8b30010a02000014878009d
:101ad400630040000048eb0000a220003050880062
:101ae40001c4b30050a020000148780094a4a900c8
:101af400100020005024880000c0eb000000060005
:101b0400601680006116800080806800004020001c
:101b1400808060006016800000a0a100008070003a
:101b24006016880091248000014078000280200023
:101b3400014978008181fb00c318de00c208dd0082
:101b440002a0200082804000114088000034a000e0
:101b54000000d100c007b20002004000204088000d
:101b640011409000c003b20041022000810f5000d8
:101b74001a003200f0804000810f5000060032004d
:101b8400e40f500009003200800020005024880037
:101b940000c0eb000000060020fe070080002000cb
:101ba4005024880000c0eb00000006004418de004a
:101bb4004200dd000080e800c1c42000610078001c
:101bc4000000e000f0ff320000000100800020006f
:101bd4005024880000c0eb00000006004418de001a
:101be4004200dd00c1c42000610078000000e00074
:101bf400e5ff320000000100f4ff37006000b80088
:101c04004dff37006000b8004bff370010408000e4
:101c14001000900001c0200009000900b0587800ad
:101c2400a000b1006000b80047ff070041e02000b9
:101c34000000eb0040ff07008000eb002040800024
:101c440054ff070081c0b3001040800001487800b1
:101c540081c8b300104080001140980000000600c5
:101c6400881f78006016800061168000008068007c
:101c74000020b200611680000190a1008100700074
:101c84006116880010408000900090001180fb00d5
:101c94003006b20012022000820f5000030032000e
:101ca40040ff07004f047800000006001141900037
:101cb400e44f51000e003600804f510021003200e5
:101cc40020c2b300804f51001500320000c0e9006b
:101cd400804f5100f2ff3a0081e020000000eb0049
:101ce40019ff07004f04780000000600efff3700db
:101cf400e24f5100eaff31000204e000020032002a
:101d0400e14f5100e6ff3a008000eb0020408000e4
:101d140020ff07004f04780000000600e3ff3700af
:101d2400910090001141880001e020000000eb00c8
:101d340001ff07008000eb002040800015ff070032
:101d4400f4ff370031049000ea0f5400010036001c
:101d5400a8002000204080001000900008017800b6
:101d640001c0200005fb07008800780020408000a7
:101d740008ff07004f04780000000600cbff37007f
:101d840000202c00110020000060880011608800f1
:101d94000000eb00206088003060880081c0b30040
:101da40080c02000014878002208a9002228a90048
:101db40020e32000dcfe07003228ef003028ef008b
:101dc40000000600889fbe008000eb001000200089
:101dd400d9fe07008000eb0020002000d6fe07009b
:101de4008000eb0020002000d7fe070050012000f7
:101df40060258800d0012000702588008040eb0019
:101e0400c0a0200001487800a098200070508800ed
:101e140080c4b300d2a0200000497800e30441004c
:101e240002c4b300824c7800a29020009250880033
:101e340083c8b3000901e8000349780064844400be
:101e4400014c7800a1942000b1508800e580440042
:101e54008048780020e32000b3fe0700a9418800f1
:101e6400b84188004f04be00000006006000b800be
:101e7400b1fe3700c04180000000e00002003200e3
:101e84000000e900c041880000000600a041800075
:101e9400104090000004e00006003d009ec0ab002e
:101ea400feff3a00c8fe07000004e000f7ff32001e
:101eb4000000050010000500b041800010409000b3
:101ec4000004e00006003d009ec0ab00feff3a00a7
:101ed400bdfe07000004e000f7ff3200000005002b
:101ee40010000500889fbe0000047800814478003b
:101ef400b0418000904090000104e00008003d00e3
:101f04009ec0ab00feff3a00affe07000004e000f5
:101f1400f7ff320000c0eb004f04be0000000600d3
:101f24001800980009487800b041800010419000e2
:101f340002c1ea000244b20081c8b30081407100ca
:101f440011409800a0fe0700094078004f04be002d
:101f540000000600f2ff3700a0418000104090000e
:101f640000c0ea000080fb004700de00000006001d
:101f7400b04180001040900000c0ea000080fb00e7
:101f84004700de0000000600000178002668ef002c
:101f9400a3418000134290000040eb000404e000e1
:101fa4001a0035001340780080cf500018003e001e
:101fb4000104e000080032000040eb00a390200080
:101fc4000080fb00637178002648ec0026e8b70027
:101fd40080cf5000faff3e009ec0ab000e003200de
:101fe40001c4b300a041800001487800a0418000f2
:101ff4001041900002c1ea000141610081c8b300b0
:10200400814071001140980026c8bf0000000600fe
:1020140080407800e6ff37006bfe070001c4b30080
:10202400a041800001487800a04180001041900048
:1020340002c1ea000141610081c8b300814071001e
:102044001140980026c8bf00f0ff3700881f7800b1
:10205400a8c420001804e000020032004f047800f5
:10206400000006002668ef00a5418000954090001e
:102074000040eb000104e0001b003500154178002e
:10208400f0c3b300804f51001e003e000204e00084
:10209400090032000040eb00a4c02000a3902000ff
:1020a4008080fb0063f278000040e800824f50001b
:1020b400fbff390026e8b7009ec0ab0016003200d3
:1020c40000c4b300804a7800a04180001041900011
:1020d40002c1ea000244b20081c8b3008140710029
:1020e4001140980026c8bf00004c780047fd070047
:1020f400b0c420000048eb004f0478000000060044
:10210400d8ff370002c4b3000040eb00a4c0200095
:10211400a3902000e2ff37002bfe0700a5418000ba
:1021240000c4b300804a7800a041800010419000b0
:1021340002c1ea000244b20081c8b30081407100c8
:102144001140980026c8bf00e7ff3700889fbe00f3
:102154008a9fbe008c9fbe0080067800aac420001f
:102164001a04e0000c00320008fc2f000a044400aa
:102174008a05e8001b80fb00e84e78001a4de90050
:102184009b4de80010c0b3004f06be004f05be00d3
:102194004f04be0000000600a8c020001b0420005d
:1021a40088854500fcc3b300a99020002668ef0091
:1021b400a3418000934090000040eb000104e00044
:1021c40017003500134178008c4f51003000360061
:1021d40002c4b3000040eb008080fb0069f4780087
:1021e4000040e800804f5100fbff3e0026e8b700a6
:1021f4009ec0ab001900320000c4b30080497800cf
:10220400a04180001041900002c1ea000244b200e3
:1022140081c8b300814071001140980026c8bf00f6
:10222400004d7800f9fc0700804deb001a04e00033
:10223400deff32001b80fb00e84e78001a4de900f7
:102244009b4de80010c0b3004f06be004f05be0012
:102254004f04be0000000600cfff3700dafd070080
:10226400a341800000c4b30080497800a0418000ed
:102274001041900002c1ea000244b20081c8b300d8
:10228400814071001140980026c8bf00e4ff370068
:102294000204e000d6ff32000040eb00ceff37001e
:1022a400f241800003428000e00f5100e08f5900aa
:1022b4005e003a00400020005042880060428800de
:1022c400e08420000008eb00208420001004e000db
:1022d40062003a00f641800011002400013b8800ae
:1022e400858420009580fb00e18f50001a003400a3
:1022f400060178008001eb008040eb00e88141009a
:10230400e0c179008381fb000389bb008141e800bf
:102314008381fb00e881410060c279000482fb00f4
:1023240081c1e8008381fb00e8814100e0c17900bc
:10233400c819dd0083017200e3c040000309bb003b
:102344000281e8008181fb001582fb000402e900a0
:10235400848f5100e9ff350051052000313b88008e
:10236400a10a2000313b880061e7a80000000000ba
:102374000000000002002800043b8000840061008b
:10238400fdff3a0061c7a90034842000b1c4b30042
:10239400014a78009580fb00e18f50002200340050
:1023a400060178008001eb008040eb0066c5b300b5
:1023b4009283ba00e8814100e0c1790087cf5100df
:1023c40001003200064a78009201ba008143e80015
:1023d4008783fb00e8834300e0c37b0083cf530083
:1023e40001003200064a7800c899de0081c3e80083
:1023f4008783fb00e8834300e0c37b0083cf530063
:1024040001003200064a7800e3c040008181fb00ed
:102414009583fb008703e900878f510002003d008c
:102424000281e800e2ff37000000060000c02f0030
:10243400f1ff2f000200400083804800f4bf210018
:10244400840f5000e08f580015003e0001c5b30012
:102454003084200001487800000006002104240094
:10246400013b88008080eb000109bb00510520007e
:10247400313b8800a10a2000313b880061e7a800b5
:10248400000000000000000002002800033b800060
:1024940083006100fdff3a00014878008dff37009a
:1024a400f07f2a0021002000800f5100818f590005
:1024b40085ff340001c5b300308420000148780052
:1024c40000000600e8874700889fbe008a9fbe0080
:1024d4008c9fbe008e1f780028842000004ceb00e7
:1024e40019ccb30049fc0700d8fe0700c0832000c4
:1024f40016ff07000004e000faff32003cc8bf00ea
:10250400894f5000f7ff3a006bfe070010cfb3006d
:10251400a19420008048780041c0b300b09420000a
:1025240001487800a1c0b3000000e8000148780029
:1025340031c0b3000080e9006afe07003b8420003c
:10254400b0c4b300804d78000b05e8000a07e8002a
:102554008a86e80063064500e40445002bfc070076
:1025640055fe0700a29420001b49780011c0b30057
:10257400020078005bfe070040842000f3fe0700a1
:102584009a4078005084200081bf9f00effe07002e
:102594008fb897009ec040006084200081bf9f00d8
:1025a400eafe07008fb897009dc0400070842000a9
:1025b40081bf9f00e5fe07008fb897009cc04000d4
:1025c4008084200081bf9f00e0fe0700194078004e
:1025d4008fb8970080c040001a427800230320007f
:1025e40084497800e14f5000190036008002eb0066
:1025f400e5b79f000080fb000000e9006fb1970081
:10260400820f500012003600efb19700688041003d
:102614000000440081bf9f00ccfe07006fb297000a
:1026240068004200684078008fb8970080c040007e
:10263400efb297008502e800e5b79f001980fb0020
:102644000000e9006fb19700820f5000eeff3e00da
:102654009084200081bf9f00bcfe07008fb89700c4
:102664009384200093c0400003003200e4c4b3000c
:10267400844d7800b9ff37001a80fb008000eb001e
:102684004809dd00c801de00830171004801dd0056
:102694001e80fb008000eb000200400083804800a5
:1026a4004809dd00c801de00830171004801dd0036
:1026b4001d80fb008000eb00020240008382480082
:1026c400f4418800054288001c407800e24f500025
:1026d4002b003200e14f400010003200e14f500067
:1026e4000a00320052c5b300824d78003a48e20035
:1026f4009aff32004f0778004f06be004f05be0018
:102704004f04be008f00b10000000600004c7800aa
:102714003a48e20091ff3200f6ff37009404a90022
:102724000080eb00f0b79f007fb097008000e900c5
:10273400f1b79f000000e0000d0032008082eb0042
:10274400e5b79f006fb097008000e900e1b79f00f4
:102754000000e000f4ff32006fb097008000e90051
:10276400e1b79f000000e000f6ff3a00eeff3700fb
:102774000000fe0052c5b300824d7800dbff370035
:10278400c7fe07003a48e20074ff3200d9ff370061
:102794000200fa002ca3ef00c8e2a8006f20a800f2
:1027a400ccc2a900c8c2a90080382100f0bf9f0094
:1027b4007fb897008000e900f1bf9f000000e000af
:1027c400fbff3a00f0bf9f007fb89700f30f500063
:1027d4000a003c00cae2ab00020032000100220001
:1027e40001400100ffb897008100e800f1bf9f009d
:1027f4007fb89700f30f5000f6ff34006f20a90054
:10280400c8c2a8004440a8003460ef004427ef0089
:102814003260ef002ca3ef00200020005019880044
:10282400c8a2ef00d0a2ef00d8a2ef00e0a2ef0010
:10283400e8a2ef00f0a2ef004227a900c902a90014
:10284400c922a900c942a900cd42a800cd02a9000d
:10285400cd22a8004300200042992000014e280008
:10286400e04c2800b2f80700fef8070044fd07001a
:10287400cd22a90065fb070018c8bf00ff4f500018
:10288400fcff3600cd22a8000eff07000000eb007d
:102894000080fa00000006004440a8003460ef0005
:1028a4004427ef003260ef002ca3ef00200020004b
:1028b40050198800c8a2ef00d0a2ef00d8a2ef0000
:1028c400e0a2ef00e8a2ef00f0a2ef004227a90087
:1028d400c902a900c922a900c942a900cd42a80081
:1028e400cd02a900cd22a800430020004299200077
:1028f400014e2800e04c28008df80700d9f80700a5
:102904001ffd0700cd22a90040fb070018c8bf0027
:10291400ff4f5000fcff3600cd22a800e9fe37002f
:102924004440a8003460ef004427ef003260ef0019
:102934000080eb00601988002100200051198800f4
:102944004016880080168800c0168800001788008a
:1029540040178800801788004227a900000006005d
:020000040000fa
:1029640042080000c8000000000000003a0800000f
:102974000800000000000000002000000200000029
:1029840000000000000c00004c00000000000000eb
:10299400200800001a000000000000000a090000de
:1029a4008a000000000000009409000052000000aa
:1029b4000200000004030900042a0300440061002b
:1029c400006e000067006500007200006f00750073
:1029d4000073000020005000007200006f007400bb
:1029e400006f00007400790000700000650073003f
:1029f4000012030043004400004300002000540080
:102a04000065000073007400001203003000300001
:102a14000030000030003000003000003000310091
:102a2400000000004c0c000040000000000000000a
:102a3400000a00000002000000000000000800007e
:0c2a440020000000000000002c158000a5
:020000040000fa
:082a50000040da000000fe0066
:020000040000fa
:042a5800000000007a
:020000040000fa
:043fec000a040000c3
:020000040000fa
:103ff0004440a8003460ef004427ef003260ef0037
:104000002ca3ef002000200050198800c8a2ef0068
:10401000d0a2ef00d8a2ef00e0a2ef00e8a2ef00ec
:10402000f0a2ef004227a900c902a900c922a900f5
:10403000c942a900cd42a800cd02a900cd22a80006
:104040004300200042992000014e2800e04c280047
:10405000b8f2070004f307004af70700cd22a900d1
:104060006bf5070018c8bf00ff4f5000fcff36007b
:08407000cd22a80014f937006d
:020000040000fa
:020000040005f5
:0457f8009e230000ec
:020000040000fa
:020000040005f5
:0457fc007f3e0000ec
:00000001FF
