:020000040000fa
:080000000020040000000000d4
:020000040000fa
:04000800c022000012
:020000040000fa
:04000c00c02200000e
:020000040000fa
:04001000c02200000a
:020000040000fa
:04001400c022000006
:020000040000fa
:04001800c022000002
:020000040000fa
:04001c00c0220000fe
:020000040000fa
:04002000c0220000fa
:020000040000fa
:04002400c0220000f6
:020000040000fa
:04002800c0220000f2
:020000040000fa
:04002c00c0220000ee
:020000040000fa
:04003000c0220000ea
:020000040000fa
:04003400c0220000e6
:020000040000fa
:04003800c0220000e2
:020000040000fa
:04003c00c0220000de
:020000040000fa
:04004000c0220000da
:020000040000fa
:04004400c0220000d6
:020000040000fa
:04004800c0220000d2
:020000040000fa
:04004c00c0220000ce
:020000040000fa
:04005000c0220000ca
:020000040000fa
:04005400c0220000c6
:020000040000fa
:04005800c0220000c2
:020000040000fa
:04005c0034860100e5
:020000040000fa
:04006000c0220000ba
:020000040000fa
:04006400c0220000b6
:020000040000fa
:04006800c0220000b2
:020000040000fa
:04006c00c0220000ae
:020000040000fa
:04007000c0220000aa
:020000040000fa
:04007400c0220000a6
:020000040000fa
:04007800c0220000a2
:020000040000fa
:04007c00c02200009e
:020000040000fa
:04008000c02200009a
:020000040000fa
:04008400c022000096
:020000040000fa
:04008800c022000092
:020000040000fa
:04008c00c02200008e
:020000040000fa
:04009000c02200008a
:020000040000fa
:04009400c022000086
:020000040000fa
:04009800c022000082
:020000040000fa
:04009c00c02200007e
:020000040000fa
:0400a000c02200007a
:020000040000fa
:0400a400c022000076
:020000040000fa
:0400a800c022000072
:020000040000fa
:0400ac00c02200006e
:020000040000fa
:0400b000c02200006a
:020000040000fa
:0400b400c022000066
:020000040000fa
:0400b800c022000062
:020000040000fa
:0400bc00c02200005e
:020000040000fa
:0400c000c02200005a
:020000040000fa
:0400c400c022000056
:020000040000fa
:0400c800c022000052
:020000040000fa
:0400cc00c02200004e
:020000040000fa
:0400d000c02200004a
:020000040000fa
:0400d400c022000046
:020000040000fa
:0400d800c022000042
:020000040000fa
:0400dc00c02200003e
:020000040000fa
:0400e000c02200003a
:020000040000fa
:0400e400c022000036
:020000040000fa
:0400e800c022000032
:020000040000fa
:0400ec00c02200002e
:020000040000fa
:0400f000c02200002a
:020000040000fa
:0400f400c022000026
:020000040000fa
:0400f800c022000022
:020000040000fa
:0400fc00c02200001e
:020000040000fa
:04010000c022000019
:020000040000fa
:04010400c022000015
:020000040000fa
:04010800c022000011
:020000040000fa
:04010c00c02200000d
:020000040000fa
:04011000c022000009
:020000040000fa
:04011400c022000005
:020000040000fa
:04011800c022000001
:020000040000fa
:04011c00c0220000fd
:020000040000fa
:04012000c0220000f9
:020000040000fa
:04012400c0220000f5
:020000040000fa
:04012800c0220000f1
:020000040000fa
:04012c00c0220000ed
:020000040000fa
:04013000c0220000e9
:020000040000fa
:04013400c0220000e5
:020000040000fa
:04013800c0220000e1
:020000040000fa
:04013c00c0220000dd
:020000040000fa
:04014000c0220000d9
:020000040000fa
:04014400c0220000d5
:020000040000fa
:04014800c0220000d1
:020000040000fa
:04014c00c0220000cd
:020000040000fa
:04015000c0220000c9
:020000040000fa
:04015400c0220000c5
:020000040000fa
:04015800c0220000c1
:020000040000fa
:04015c00c0220000bd
:020000040000fa
:04016000c0220000b9
:020000040000fa
:04016400c0220000b5
:020000040000fa
:04016800c0220000b1
:020000040000fa
:04016c00c0220000ad
:020000040000fa
:04017000c0220000a9
:020000040000fa
:04017400c0220000a5
:020000040000fa
:04017800c0220000a1
:020000040000fa
:04017c00c02200009d
:020000040000fa
:04018000f084010006
:020000040000fa
:04018400c022000095
:020000040000fa
:04018800c022000091
:020000040000fa
:04018c00c02200008d
:020000040000fa
:04019000c022000089
:020000040000fa
:04019400c022000085
:020000040000fa
:04019800c022000081
:020000040000fa
:04019c00c02200007d
:020000040000fa
:04020800c022000010
:020000040000fa
:04020c00c02200000c
:020000040000fa
:04021000c022000008
:020000040000fa
:04021400c022000004
:020000040000fa
:04021800c022000000
:020000040000fa
:04021c00c0220000fc
:020000040000fa
:04022000c0220000f8
:020000040000fa
:04022400c0220000f4
:020000040000fa
:04022800c0220000f0
:020000040000fa
:04022c00c0220000ec
:020000040000fa
:04023000c0220000e8
:020000040000fa
:04023400c0220000e4
:020000040000fa
:04023800c0220000e0
:020000040000fa
:04023c00c0220000dc
:020000040000fa
:04024000c0220000d8
:020000040000fa
:04024400c0220000d4
:020000040000fa
:04024800c0220000d0
:020000040000fa
:04024c00c0220000cc
:020000040000fa
:04025000c0220000c8
:020000040000fa
:04025400c0220000c4
:020000040000fa
:04025800c0220000c0
:020000040000fa
:04025c00c0220000bc
:020000040000fa
:04026000c0220000b8
:020000040000fa
:04026400c0220000b4
:020000040000fa
:04026800c0220000b0
:020000040000fa
:04026c00c0220000ac
:020000040000fa
:04027000c0220000a8
:020000040000fa
:04027400c0220000a4
:020000040000fa
:04027800c0220000a0
:020000040000fa
:04027c00c02200009c
:020000040000fa
:04028000c022000098
:020000040000fa
:04028400c022000094
:020000040000fa
:04028800c022000090
:020000040000fa
:04028c00c02200008c
:020000040000fa
:04029000c022000088
:020000040000fa
:04029400c022000084
:020000040000fa
:04029800c022000080
:020000040000fa
:04029c00c02200007c
:020000040000fa
:0402a000c022000078
:020000040000fa
:0402a400c022000074
:020000040000fa
:0402a800c022000070
:020000040000fa
:0402ac00c02200006c
:020000040000fa
:0402b000c022000068
:020000040000fa
:0402b400c022000064
:020000040000fa
:0402b800c022000060
:020000040000fa
:0402bc00c02200005c
:020000040000fa
:0402c000c022000058
:020000040000fa
:0402c400c022000054
:020000040000fa
:0402c800c022000050
:020000040000fa
:0402cc00c02200004c
:020000040000fa
:0402d000c022000048
:020000040000fa
:0402d400c022000044
:020000040000fa
:0402d800c022000040
:020000040000fa
:0402dc00c02200003c
:020000040000fa
:0402e000c022000038
:020000040000fa
:0402e400c022000034
:020000040000fa
:0402e800c022000030
:020000040000fa
:0402ec00c02200002c
:020000040000fa
:0402f000c022000028
:020000040000fa
:0402f400c022000024
:020000040000fa
:0402f800c022000020
:020000040000fa
:0402fc00c02200001c
:020000040000fa
:04030000c022000017
:020000040000fa
:04030400c022000013
:020000040000fa
:04030800c02200000f
:020000040000fa
:04030c00c02200000b
:020000040000fa
:04031000c022000007
:020000040000fa
:04031400c022000003
:020000040000fa
:04031800c0220000ff
:020000040000fa
:04031c00c0220000fb
:020000040000fa
:04032000c0220000f7
:020000040000fa
:04032400c0220000f3
:020000040000fa
:04032800c0220000ef
:020000040000fa
:04032c00c0220000eb
:020000040000fa
:04033000c0220000e7
:020000040000fa
:04033400c0220000e3
:020000040000fa
:04033800c0220000df
:020000040000fa
:04033c00c0220000db
:020000040000fa
:04034000c0220000d7
:020000040000fa
:04034400c0220000d3
:020000040000fa
:04034800c0220000cf
:020000040000fa
:04034c00c0220000cb
:020000040000fa
:04035000c0220000c7
:020000040000fa
:04035400c0220000c3
:020000040000fa
:04035800c0220000bf
:020000040000fa
:04035c00c0220000bb
:020000040000fa
:04036000c0220000b7
:020000040000fa
:04036400c0220000b3
:020000040000fa
:04036800c0220000af
:020000040000fa
:04036c00c0220000ab
:020000040000fa
:04037000c0220000a7
:020000040000fa
:04037400c0220000a3
:020000040000fa
:04037800c02200009f
:020000040000fa
:04037c00c02200009b
:020000040000fa
:04038000c022000097
:020000040000fa
:04038400c022000093
:020000040000fa
:04038800c02200008f
:020000040000fa
:04038c00c02200008b
:020000040000fa
:04039000c022000087
:020000040000fa
:04039400c022000083
:020000040000fa
:04039800c02200007f
:020000040000fa
:04039c00c02200007b
:020000040000fa
:10400000af5223000e7f24000e0188000000000044
:10401000000020000000e00002003200000120004b
:10402000200288000c00070080aa27001100200051
:1040300011000700000020000000e0000200320034
:1040400000000200000000004484020001000000a3
:104050000040da000000fe004440a900c05d2000de
:104060000000e0000300320000002000a0018800f2
:104070004440a800000006009101880080007800fc
:104080000000eb0015003700e280400032a0b400d1
:104090009101ba00e280400032a0b4009102ba005f
:1040a000e280400032a0b4000002eb00472bde00ab
:1040b000f507b200602ce10004003a000059eb0063
:1040c0008301e900fdff3e00040037006128e100a4
:1040d000010032000082eb000b00070011c3ba00a0
:1040e0001101ba000604e00003003a000200e000fb
:1040f000e5ff3a0000000600f607b20096018800ce
:1041000082007800f5ff37003159ba008301e900d9
:104110000c0032002159ba008301e9000800320086
:104120000400e00003003a00e280400032a0b40046
:10413000f5ff370011d9ba008301e900faff3a0010
:104140008100e800e180400032a0b40000000600d9
:10415000c863040001000000d463040001000000f3
:10416000c263040001000000ce63040001000000ef
:104170003a64040001000000cefb040000000000cf
:1041800078fc040000000000180704000100000093
:10419000480604000100000082fc0400000000004a
:1041a000c6fb04000000000052fc040000000000f8
:1041b000a0fc040000000000ae09040001000000a3
:1041c0005afc040000000000740704000100000015
:1041d0006009040001000000fa080400010000006a
:1041e0003a00040001000000f0fb040000000000a1
:1041f0008806040001000000d4fb04000000000059
:10420000e4ff040000000000f46604000100000068
:104210000e3e040001000000e03d0400010000002b
:1042200004eb0400000000003e87040001000000d1
:104230002e870400010000001e870400010000001a
:104240000e87040001000000fe860400010000004b
:10425000e486040001000000f6860400010000006e
:10426000f0860400010000001c7204000000000041
:10427000645e040000000000025c04000000000016
:104280008461040000000000786104000000000068
:1042900070610400000000001e61040000000000c6
:1042a000f2600400000000009e61040000000000b5
:1042b000906104000000000014720400000000007f
:1042c00088e40400000000009ae4040000000000fc
:1042d00032dc040000000000ccdb04000000000021
:1042e000aae4040000000000ace3040000000000a9
:1042f0000edd0400000000007ee00400000000006d
:10430000a8e304000000000034e504000000000001
:1043100038dc040000000000fc290400010000005b
:10432000a22a0400010000003a2904000100000054
:10433000b428040001000000462e04000100000023
:10434000562b0400010000001c2c0400010000009a
:10435000502c040001000000622c04000100000049
:104360002a2b040001000000b0c604000000000079
:1043700088c6040000000000d8c604000000000049
:1043800010c7040000000000fcc60400000000008c
:10439000bace040000000000a2c704000000000024
:1043a000c0c9040000000000a4ca0400000000000e
:1043b000c0ca0400000000002ec704000000000076
:1043c0006c77040001000000807704000100000009
:1043d000667704000100000062770400010000001d
:1043e000ae77040001000000a8770400010000007f
:1043f000c077040001000000ba770400010000004b
:10440000a077040001000000b47704000100000060
:104410009477040001000000527a040001000000bb
:10442000f677040001000000ae78040001000000ef
:10443000c078040001000000c677040001000000fd
:10444000bc7d040001000000767d04000100000036
:10445000027e040001000000667d040001000000ef
:10446000607d040001000000627e04000100000085
:10447000687e0400010000006e7e04000100000060
:10448000747e040001000000547e0400010000005e
:104490005c7e040001000000487e04000100000072
:1044a000b67e040001000000c67f04000100000089
:1044b000de7f0400010000007a7e0400010000009d
:1044c000cc7304000100000022720400010000000f
:1044d000b8710400010000002a6f04000100000010
:1044e000306f040001000000f24f040001000000e2
:1044f000fe4f040001000000164f04000100000000
:104500001c520400010000000a50040001000000d9
:10451000105004000100000094cb040000000000d3
:104520004850040001000000a60c04000100000037
:10453000c80c040001000000081104000100000084
:10454000da0c040001000000301904000100000032
:10455000d60b0400010000009a0c040001000000ca
:10456000a00c040001000000341a04000100000047
:1045700052870400010000004e8704000100000083
:104580000040da000000fe0003f0a200889fbe0099
:104590008a9fbe008c1f780059010700600133001c
:1045a0006450e1004f0032006420e100520032000c
:1045b00003826c0007003b000905d0000306d00011
:1045c000820f54000c065d00020039000200320028
:1045d00089017800030678008582550004003d00bb
:1045e0000003fd008103fd008502ea008b85420087
:1045f000840f720002003b0060001000e080180091
:104600006011b8000005eb007a28e1000a003900cb
:1046100006007800c75ddd00f707b20087807500ef
:104620002d003700828171000a0178006105600069
:104630008180d1000080d3008502e900f9ff3b00b2
:10464000060440008784480002003b006004140018
:10465000e0841c000988a300070032008a817100f1
:1046600082817100610164008904d1000884d30053
:104670008b05e800170037000978a30013003a0003
:104680000b00e000130034008b05e900080444002f
:1046900089844c000a4474000978a3000d003a0094
:1046a0000b00e000070034008b05e900080444001b
:1046b00089844c0001003a000b0020000978a30017
:1046c000f7ff32000001eb00020037008281710029
:1046d0000a017800cf0007000cf0a70001f0a0004d
:1046e000180137006420e10002003a00838f6c005b
:1046f000180133000801be000200be00110137009e
:10470000889fbe008a9fbe008c1f7800fc000700b7
:104710000301330003866c006450e1002e00320078
:104720006420e100330032006150e1002f003200cc
:104730006120e1003100320085855500eb07b000b3
:104740000900200008042000050037000804440088
:1047500089844c000a0031000603430087834b0024
:104760000001530081815b00f8ff33000203be00ab
:104770000800a0000804440089844c00f6ff3900ba
:10478000c639dd00830173000100320013002000f0
:104790008904d1000884d3000998a30005003200e1
:1047a0000800a7000300a0008904d1000884d300fa
:1047b0008b05e8008904d1000884d3000001eb00d8
:1047c0000281d2009300070001f0a1000cf0a700c5
:1047d00001f0a000db0037006420e100dd003200c2
:1047e0000801be000200be00f7ff37006120e100b3
:1047f000d80032006000b800f3ff3700000020004e
:1048000001f82700f0ff3700839f68000100e000f7
:1048100002003d0060001000e08018000300e0008e
:1048200002003d0060011100e08119000001070055
:104830004f00e00002003b0060001000e080180024
:1048400000000600140020000e023700f4ff2f00c5
:104850000c0237000003be00940007006011b8008e
:104860000470a70007f0a10007f8a30017003a00a2
:104870006509b1000d0032000d00350086022000f0
:104880000628e10003003500030028006000b8009e
:10489000020005000000400081804800020149003c
:1048a000838149008502e900faff3a000000060012
:1048b000f88f4200050034008100d1000080d30051
:1048c0008502e800fcff3a00000006006011b80015
:1048d0008000eb00000005000001be00730007002f
:1048e0000470a70003f0a10003f8a30013003a002e
:1048f0006509b10010003200090035006928e100a7
:104900000200350001002800000005000000400002
:10491000818048008502e900fcff3a0000000600a3
:10492000f88f4200050035008100d1000080d300df
:104930008502e800fcff3a00000006008000eb0062
:10494000000005004f89de0082017800e801370091
:10495000889fbe008a9fbe00008270000402710022
:1049600004827100260032000004be000200be0076
:104970006011b8006b092000950220000182cf0071
:104980000a0039000541b1000082cf00070039005c
:104990000541b1000982cf00040039000541b10092
:1049a0000882cf00010039000541b10005425200e4
:1049b000120032000a003b00828171006101640034
:1049c0008100d1000080d3008984d3000884d30003
:1049d0008b05e8000442e800f7ff3a0007003700c3
:1049e0000804440089844c0000004800818048008d
:1049f0008b05e9000442e900f9ff3a0005000700d1
:104a00004f05be004f04be00000006006011b80054
:104a1000cfff370081002000618055000b003d0072
:104a20000b00200061fe2f000100e1001d0034009a
:104a300082817100610164008904d1000884d3007f
:104a40000000e800faff3a007100200061006400f5
:104a5000030070000200600009003200610444009d
:104a6000e0844c000988a500050032008b05e800b1
:104a70006808e10002003a008904d1000884d300ec
:104a8000f20f20000258e10005003d00c75ddd0087
:104a9000f907b20089807500080078000000060060
:104aa0000bf827008b00780000000500c70ade0025
:104ab000f107b200f50fb20008003200e1cf42006a
:104ac000020032000170a00024000500810f700078
:104ad000010032000408050044000500810f700049
:104ae00002003a00140005008502e90000004000c1
:104af00081c04800fcff3b000170a00024000500bd
:104b00000004be00e9ff07000003be000405be006c
:104b10000200be00e5ff0700844f7500000006009c
:104b20000200be006450e100050036006420e10090
:104b3000020036000968a30001003a000800be0028
:104b40000160a0004f0678004f05be004f04be0074
:104b500000000600f0ff2f00f1ff2700f9ff3700eb
:104b6000889fbe008a9fbe008c1f7800e4ff07006c
:104b7000ebff330003866c006450e1002400320038
:104b80006420e100270032006150e1002200320081
:104b90006120e100210032008b854200eb07b1006b
:104ba0000134b800003ab8000804420089844a0081
:104bb000013ab8000030b8008880400009014a007e
:104bc00004003300000040008180480002014900d9
:104bd0008b05e900c909dd00830170000100320086
:104be00013002000c814de004814dd004709de0071
:104bf0001200b200c808de000884700085ff0700bc
:104c000001f0a1000cf0a70001f0a000cdff3700db
:104c10006120e100cfff32000801be000200be00ab
:104c2000f7ff37006150e100fcff3a00c9ff370091
:104c30006022b800060220000000d0008180d2006f
:104c40000482d2008582d2000000a000020252003d
:104c500083825a00030031000202420083824a002c
:104c60000000a1000603e900f3ff3a00000006007f
:104c7000efff07000400be0000000600889fbe0092
:104c80008a9fbe0030044200b0844a0030054b00c9
:104c900090854b006000b1000898be000a90be00ed
:104ca0000440e10005c8e10006d0e10007d8e100ba
:104cb00002003100680040001008e8004f05be0007
:104cc0004f04be0000000600889fbe008a9fbe0001
:104cd0003004be002005be000418540005985c0096
:104ce00006185d0007985d00110020000440e100f7
:104cf00005c8e10006d0e10007d8e1000100390055
:104d00008000eb00108810004f05be004f04be006d
:104d1000000006001200fa00889fbe008a9fbe00b5
:104d20008c9fbe00e0b79f00f1b79f0082bf9f003d
:104d300093bf9f000605be000404be000000eb0008
:104d4000d0b79f00c0b79f00b0b79f00a0b79f002b
:104d500090b79f000006eb005fb19700cfb09700bf
:104d6000820141003fb097000200e00004003d00d6
:104d7000370007007e805700c0ff070003003700a0
:104d8000330007007e805700cfff0700dfb6970093
:104d90000d00e0000c0035006fb29700ffb29700e5
:104da0000fbb97009fbb9700100020000100200060
:104db0006011b80000027200818272000203730069
:104dc000838373001b0007000c06e8000104200029
:104dd000810f5600e0ff3a000d00e00004003d00a6
:104de0000802be000a03be007e805700a3ff070032
:104df0005fa897000000e00005003a001fb297008e
:104e0000afb297003fb39700cfb3970009000700f8
:104e10006fb09700ffb097000fb997009fb9970048
:104e20004f06be004f05be004f04be000080fa00d2
:104e3000000006000100070000000600a4b79f0064
:104e4000b5b79f00c6b79f00d7b79f000000060008
:104e50004f09de0082817100b3b79f004f01de0071
:104e60008180400082807000a1b79f008fb09700c2
:104e70004f09de00000040000200700090b79f0064
:104e80007fa897004f01de00818040008280700083
:104e900081b79f000d0007004f3ade000000400080
:104ea00004007000f0af9f000800070004024200f9
:104eb00085824a0006034b0087834b00dfff070013
:104ec0000802be000a03be00000006002fb29700d1
:104ed000bfb297004fb39700dfb397000000060002
:104ee000881f780018002000881f780089ff0700bd
:104ef0008f87e9004f04780000000600801feb0058
:104f000084ff07008f87e90000000600889fbe002d
:104f10008a9fbe00e00f5000e08f5800e00f59005c
:104f2000e08f59000c003d006044b8006055b800a7
:104f30000000540081805c0002015d0083815d00ff
:104f4000180020001500070008003d0018000700a9
:104f50000004eb00050037000004eb000f00070021
:104f600002003d001200070018002000dcff0700cf
:104f70000800e000060032006022b8006033b8008c
:104f80000000520081805a0002015b0083815b00b7
:104f90004f05be004f04be0000000600e00f5200a7
:104fa000e08f5a00e00f5b00e08f5b00000006001e
:104fb0006044b8006055b8000402540085825c006b
:104fc00006035d0087835d0000000600889fbe0029
:104fd0008a9fbe008c1f7800e00f5000e08f5800c1
:104fe000e00f5900e08f59000d003d006044b8000b
:104ff0006055b8000000540081805c0002015d0033
:1050000083815d001c0020000820e10009a8e10068
:105010000ab0e1000bb8e1000d003d0008003700c8
:105020000006eb00e00f5200e08f5a00e00f5b003b
:10503000e08f5b0006003d006044b8006055b8009a
:105040000402540085825c0006035d0087835d00d6
:10505000aaff07000c00e000060032006022b80042
:105060006033b8000000520081805a0002015b00ea
:1050700083815b004f0678004f05be004f04be00e1
:1050800000000600889fbe008a9fbe00841f780033
:105090009bfe07004f00780011003300f0ff2f0047
:1050a000838f6c0006003b00040565000a00a70022
:1050b0000800370009f0a6001000200008003700a3
:1050c000820f5400838f5c00030039001000200021
:1050d00001003e000000200009f0a7000000ea00e7
:1050e0004f05be004f04be000000e00000000600b7
:1050f000881f7800030478000300e00007003d00eb
:1051000060001000e080180060011900e0811900c3
:1051100002003b0001f02d00030037000cfe0700e9
:1051200008f0a70001f0a0004f047800000006007e
:105130008001780002003700b15978000201e900cf
:0c5140000200e000fcff3a000000060046
:020000040000fa
:10514c000d0a00002800000078000000293e000035
:10515c000008000020080000000000002e200000c5
:10516c0000200000004300006c7500007463000018
:10517c006820000064690000736500006e67000021
:10518c00616700006564000021210000210000001f
:10519c00546f000020660000696e00006973000007
:1051ac00682000007365000074750000702c00000e
:1051bc002073000074610000727400002075000000
:1051cc00702000007468000065200000706f000003
:1051dc00776500007220000073750000707000008d
:1051ec006c69000065730000207700006974000092
:1051fc0068200000636f00006d6d0000616e0000a0
:10520c006420000027570000270d00000a00000052
:10521c0042750000732000005069000072610000ac
:10522c00746500002076000034000000436f00001d
:10523c006d6d0000756e000069740000792000002f
:10524c0046690000726d0000776100007265000015
:10525c0020760000372e0000302000002d200000aa
:10526c00676f00006f2e0000676c00002f67000056
:10527c00437a0000516e000057200000002000000f
:10528c0028320000344600004a3200003536000057
:10529c004742000031300000362000000041000081
:1052ac003300000041350000005500004e4b00005b
:1052bc000029000000490000090000004f0900000f
:1052cc0000480000090000004c09000000430000e9
:1052dc0046470000303a00002000000056700000e5
:1052ec00753d0000355600002c20000000560000d3
:1052fc00707500003d330000563300002c20000078
:10530c00004500006e740000657200002072000001
:10531c006177000020760000616c0000756500006c
:10532c00206600006f72000020420000524700000f
:10533c0000570000617200006e6900006e6700008b
:10534c003a200000616c000072650000616400008e
:10535c007920000061200000766f00006c74000062
:10536c0061670000652000006f6e00002056000091
:10537c00707500006c6c00007570000020700000ef
:10538c00696e0000003e0000001b00005b44000042
:10539c00001b00005b000000440000001b5b0000d1
:1053ac00430000001b5b0000324b00000d000000ae
:1053bc00430000001b5b000032440000005700005b
:1053cc00617200006e6900006e6700003a200000f8
:1053dc006e6f0000207600006f6c0000746100009e
:1053ec0067650000206f00006e2000005670000002
:1053fc00756c00006c750000702000007069000076
:10540c006e000000203d000020000000524500000e
:10541c0053450000540d00000a000000436c0000ce
:10542c007574000063680000206500006e67000062
:10543c00616700006564000021210000210000006c
:10544c005652000045470000207400006f6f0000aa
:10545c00206c00006f7700002c20000069730000a6
:10546c002074000068650000726500002061000077
:10547c0020730000686f0000727400003f00000091
:10548c002e2000003c0000003a200000000000002c
:10549c002e0000003157000030310000005e00008b
:1054ac00bce20000613f0000dd830000c29c0000f4
:1054bc007e200000a3fd00001f4100009dc30000e2
:1054cc00217f0000fca20000401e00005f010000d4
:1054dc00e3bd00003e60000082dc0000237d000084
:1054ec009fc10000421c0000fea00000e1bf0000b4
:1054fc005d03000080de00003c620000bee00000a6
:10550c00025c0000df810000633d00007c22000093
:10551c00c09e00001d430000a1ff000046180000c3
:10552c00faa40000277900009bc5000084da000073
:10553c0038660000e5bb000059070000db85000061
:10554c0067390000bae40000065800001947000053
:10555c00a5fb000078260000c49a0000653b000003
:10556c00d9870000045a0000b8e60000a7f9000033
:10557c001b450000c69800007a240000f8a6000025
:10558c00441a000099c70000257b00003a64000013
:10559c0086d800005b050000e7b900008cd2000043
:1055ac00306e0000edb30000510f00004e100000f3
:1055bc00f2ac00002f71000093cd0000114f0000e1
:1055cc00adf30000702e0000cc920000d38d0000d3
:1055dc006f310000b2ec00000e500000aff1000083
:1055ec00134d0000ce900000722c00006d330000b3
:1055fc00d18f00000c520000b0ee0000326c0000a5
:10560c008ed00000530d0000efb10000f0ae000092
:10561c004c12000091cf00002d730000ca940000c2
:10562c0076280000abf50000174900000856000072
:10563c00b4ea000069370000d58b00005709000060
:10564c00ebb50000366800008ad4000095cb000052
:10565c0029770000f4aa000048160000e9b7000002
:10566c00550b000088d60000346a00002b75000032
:10567c0097c900004a140000f6a80000742a000024
:10568c00c8960000154b0000a9f70000b6e8000012
:10569c000a540000d78900006b3500005245000009
:1056ac0054550000524e00000000000052550000fe
:1056bc004e0000004c49000053540000004500000f
:1056cc0058490000540000004e45000057000000ef
:1056dc004445000042550000470000004c450000c6
:1056ec0054000000494600000054000048450000ea
:1056fc004e000000454c00005345000000470000e0
:10570c004f5400004f000000474f0000535500005d
:10571c0042000000524500004d00000050520000b5
:10572c00494e000054000000494e00005055000046
:10573c0054000000464f000052000000544f00007f
:10574c00004e000045580000540000005245000077
:10575c00414400000044000041540000410000009e
:10576c0053540000415200005452000000530000fa
:10577c00544100005254000000530000544f0000ec
:10578c005052000000530000544f00005000000025
:10579c00534500004e4400000052000045430000f9
:1057ac004549000056450000004300004c4b0000ea
:1057bc000044000041540000004200004954000025
:1057cc0052450000414400000041000044430000e9
:1057dc000041000055580000504900004e000000e8
:1057ec005053000055000000505500004c4c000078
:1057fc005550000000440000454c00004159000089
:10580c0000410000555800000046000052450000c1
:10581c00510000004455000054590000004d000098
:10582c0041430000524f0000004500004e44000070
:10583c000000000012010000000200000200000045
:10584c0000080000d804000000fb0000020000006b
:10585c0001020000030100000902000043000000e7
:10586c000201000000800000640900000400000038
:10587c0000010000020200000100000005240000ed
:10588c0000100000010400002402000002050000ca
:10589c0024060000000100000524000001010000a6
:1058ac000107000005810000030a00000040000011
:1058bc000904000001000000020a000000000000c2
:1058cc00000700000502000002400000000000007c
:1058dc0007050000820200004000000000040000e8
:1058ec0003090000042a00000344000000610000ca
:1058fc00006e0000006700000065000000720000f0
:10590c00006f000000750000007300000020000014
:10591c000050000000720000006f000000740000d6
:10592c00006f00000074000000790000007000009f
:10593c000065000000730000001e00000342000020
:10594c0000750000007300000020000000500000f3
:10595c00006900000072000000610000007400008b
:10596c00006500000020000000560000003400001c
:10597c000020000000120000033000000030000086
:10598c00003000000030000000300000003000004b
:10599c0000300000003100000000000042610000f7
:1059ac0075640000206400006574000065630000ed
:1059bc00746900006f6e000020730000656c0000bd
:1059cc006563000074650000642e00002e0000006a
:1059dc002000000000410000525400003100000083
:1059ec0014340000040d0000820600004003000087
:1059fc00a0010000cf0000007f0000006700000045
:105a0c004400000022000000000000000000000024
:105a1c002c010000000000005802000000000000f3
:105a2c00b00400000000000060090000000000004d
:105a3c00c0120000000000008025000000000000e3
:105a4c004038000000000000004b00000000000087
:105a5c0080700000000000000096000000000000b4
:105a6c00c0da00000000000000e1000000000000af
:105a7c0000c200000100000000f400000100000062
:105a8c0000e800000300000014340000040d0000c6
:105a9c008206000040030000a0010000cf000000bf
:105aac006700000044000000220000007f0000009e
:105abc0000290000002000005700000020520000c8
:105acc00004e00006f770000207500007369000025
:105adc006e670000206f00006e2d0000626f0000ea
:105aec006172000064200000454500005052000027
:105afc004f4d000020490000324300002069000097
:105b0c006e74000065720000666100006365000041
:105b1c00004f00006e2d0000626f000061720000eb
:105b2c006420000045450000505200004f4d00001d
:105b3c00207700007269000074650000207000007e
:105b4c00726f000074650000637400002064000034
:105b5c0069730000616200006c6500006400000065
:105b6c004932000043310000009d0000250d00006b
:105b7c00204800007a0000004672000065710000a9
:105b8c00756500006e6300006965000073200000fd
:105b9c003c200000314800007a20000061720000b7
:105bac00652000006e6f000074200000737500000b
:105bbc00707000006f72000074650000642e0000ad
:105bcc0000000000436f0000756c0000646e000064
:105bdc0027740000206b0000656500007020000039
:105bec0075700000000000005350000049310000a7
:105bfc0000000000181c00001d0300000b13000027
:105c0c001b000000181c00001d000000306200008a
:105c1c0000300000303000002c000000303000005c
:105c2c000030000031320000333400003536000003
:105c3c003738000039410000424300004445000061
:105c4c0046000000314100004c53000001420000ae
:105c5c00507600003400000021000000001000000d
:105c6c0000230000000f000042400000400500002f
:105c7c004102000000000000290000000075000037
:105c8c006e6b00006e6f0000776e0000206d0000e0
:105c9c006f640000650000005049000043310000b3
:105cac000000000042420000494f0000310000009b
:105cbc005853000056310000000000000808000096
:105ccc00080800000800000000000000524100001d
:105cdc0057310000000000004e4f0000454d000001
:105cec00530000000000000000000000290000002c
:085cfc000000000000000000a0
:020000040000fa
:105d0400881f7800a84f2300d1a78100638060001a
:105d1400e20f500028003200e30f50004000320030
:105d2400e10f500022003200da82a900d882a900d3
:105d3400400120006476020001000000d1a7810028
:105d4400c208de00e1c06000014178000204a20044
:105d5400610161004211dd00c01680000020a10035
:105d640000007100c0168800e1806000c208dd00f8
:105d7400d01680000020a10000807000d01688009a
:105d8400400620006476020001000000da42a90007
:105d9400d842a900400620006476020001000000f9
:105da400184078000000a0000014a100004c780006
:105db4004f04780000000600184078000038a30063
:105dc400170032000048a3007d003200c208de0044
:105dd400e1c06000014078000004a200610060009e
:105de40000014000c01680000010a10000007100f6
:105df400c01688006180600080004000d0168000da
:105e04000010a10000807000d0168800400120001e
:105e140064760200010000001834a100d1a78100bb
:105e2400c208de00e1c06000014178000204a20063
:105e3400610161004411dd00c01680000040a10032
:105e440000007100c0168800e1806000c408dd0015
:105e5400d01680000040a10000807000d016880099
:105e6400400120006476020001000000d1a78100f7
:105e7400c208de00e1c06000014178000204a20013
:105e8400610161004211dd00c01680000020a10004
:105e940000007100c0168800e1806000c208dd00c7
:105ea400d01680000020a10000807000d016880069
:105eb400400620006476020001000000da42a900d6
:105ec400d842a900400620006476020001000000c8
:105ed400d1a78100c208de00e1c060000141780062
:105ee4000204a200610161004211dd00c0168000bd
:105ef4000020a10000007100c0168800e18060004d
:105f0400c208dd00d01680000020a10000807000cf
:105f1400d0168800400620006476020001000000cc
:105f2400da42a900d842a9004006200064760200a3
:105f340001000000da82a900d882a90040012000f3
:105f44006476020001000000d1a78100c208de00cf
:105f5400e1c06000014178000204a2006101610017
:105f64004211dd00c01680000020a1000000710075
:105f7400c0168800e1806000c208dd00d0168000f1
:105f84000020a10000807000d01688004006200088
:105f94006476020001000000da42a900d842a90098
:105fa40040062000647602000100000018407800da
:105fb4000000a0000014a100004c78007cff370012
:105fc400da22a900d822a900400120006476020048
:105fd400010000001834a100d1a7810090ff370010
:105fe400889fbe008a9fbe008c1f7800d862a800dc
:105ff400d842a900d822a900d882a900da62a9004f
:10600400da42a900da22a900da82a900a84f230003
:10601400984078000124a00070ceb30000cc60004a
:10602400eb4f2300fa4f2300a028020001000000d8
:10603400804d7800e24f50001f013200e34f5000c2
:1060440018093200e14f5000f7ff3a00d1a7810050
:10605400c208de00e1c06000014178000204a20031
:10606400610161004411dd00c01680000040a10000
:1060740000007100c0168800e1806000c408dd00e3
:10608400d01680000040a10000807000d016880067
:10609400400120006476020001000000d1a78100c5
:1060a400c208de00e1c06000014178000204a200e1
:1060b400610161004211dd00c01680000020a100d2
:1060c40000007100c0168800e1806000c208dd0095
:1060d400d01680000020a10000807000d016880037
:1060e400400620006476020001000000da42a900a4
:1060f400d842a90040062000647602000100000096
:10610400d1a78100c208de00e1c06000014178002f
:106114000204a200610161004211dd00c01680008a
:106124000020a10000007100c0168800e18060001a
:10613400c208dd00d01680000020a100008070009d
:10614400d01688004006200064760200010000009a
:10615400da42a900d842a900400620006476020071
:1061640001000000d1a78100c208de00e1c0600088
:10617400014178000204a200610161004211dd00c6
:10618400c01680000020a10000007100c016880025
:10619400e1806000c208dd00d01680000020a1006c
:1061a40000807000d016880040062000647602004b
:1061b40001000000da42a900d842a90040062000ec
:1061c4006476020001000000d1a78100c208de004d
:1061d400e1c06000014178000204a2006101610095
:1061e4004211dd00c01680000020a10000007100f3
:1061f400c0168800e1806000c208dd00d01680006f
:106204000020a10000807000d01688004006200005
:106214006476020001000000da42a900d842a90015
:10622400400620006476020001000000d1a781002e
:10623400c208de00e1c06000014178000204a2004f
:10624400610161004211dd00c01680000020a10040
:1062540000007100c0168800e1806000c208dd0003
:10626400d01680000020a10000807000d0168800a5
:10627400400620006476020001000000da42a90012
:10628400d842a90040062000647602000100000004
:10629400d1a78100c208de00e1c06000014178009e
:1062a4000204a200610161004211dd00c0168000f9
:1062b4000020a10000007100c0168800e180600089
:1062c400c208dd00d01680000020a100008070000c
:1062d400d016880040062000647602000100000009
:1062e400da42a900d842a9004006200064760200e0
:1062f40001000000d1a78100c208de00e1c06000f7
:10630400014178000204a200610161004211dd0034
:10631400c01680000020a10000007100c016880093
:10632400e1806000c208dd00d01680000020a100da
:1063340000807000d01688004006200064760200b9
:1063440001000000da42a900d842a900400620005a
:106354006476020001000000d1a78100c208de00bb
:10636400e1c06000014178000204a2006101610003
:106374004211dd00c01680000020a1000000710061
:10638400c0168800e1806000c208dd00d0168000dd
:106394000020a10000807000d01688004006200074
:1063a4006476020001000000da42a900d842a90084
:1063b400400620006476020001000000d1a781009d
:1063c400c208de00e1c06000014178000204a200be
:1063d400610161004211dd00c01680000020a100af
:1063e40000007100c0168800e1806000c208dd0072
:1063f400d01680000020a10000807000d016880014
:10640400400620006476020001000000da42a90080
:10641400d842a90040062000647602000100000072
:10642400d1a78100c208de00e1c06000014178000c
:106434000204a200610161004211dd00c016800067
:106444000020a10000007100c0168800e1806000f7
:10645400c208dd00d01680000020a100008070007a
:10646400d016880040062000647602000100000077
:10647400da42a900d842a90040062000647602004e
:1064840001000000da82a900d882a900400120009e
:106494006476020001000000c0cfb300184c600015
:1064a40017fe0700a028020001000000804d7800bc
:1064b400e24f5000e1fe3a00d1a78100c208de009d
:1064c400e1c06000014178000204a20061016100a2
:1064d4004411dd00c01680000040a10000007100de
:1064e400c0168800e1806000c408dd00d01680007a
:1064f4000040a10000807000d016880040012000f8
:106504006476020001000000d1a78100c208de0009
:10651400e1c06000014178000204a2006101610051
:106524004211dd00c01680000020a10000007100af
:10653400c0168800e1806000c208dd00d01680002b
:106544000020a10000807000d016880040062000c2
:106554006476020001000000da42a900d842a900d2
:10656400400620006476020001000000d1a78100eb
:10657400c208de00e1c06000014178000204a2000c
:10658400610161004211dd00c01680000020a100fd
:1065940000007100c0168800e1806000c208dd00c0
:1065a400d01680000020a10000807000d016880062
:1065b400400620006476020001000000da42a900cf
:1065c400d842a900400620006476020001000000c1
:1065d400d1a78100c208de00e1c06000014178005b
:1065e4000204a200610161004211dd00c0168000b6
:1065f4000020a10000007100c0168800e180600046
:10660400c208dd00d01680000020a10000807000c8
:10661400d0168800400620006476020001000000c5
:10662400da42a900d842a90040062000647602009c
:1066340001000000d1a78100c208de00e1c06000b3
:10664400014178000204a200610161004211dd00f1
:10665400c01680000020a10000007100c016880050
:10666400e1806000c208dd00d01680000020a10097
:1066740000807000d0168800400620006476020076
:1066840001000000da42a900d842a9004006200017
:106694006476020001000000d1a78100c208de0078
:1066a400e1c06000014178000204a20061016100c0
:1066b4004211dd00c01680000020a100000071001e
:1066c400c0168800e1806000c208dd00d01680009a
:1066d4000020a10000807000d01688004006200031
:1066e4006476020001000000da42a900d842a90041
:1066f400400620006476020001000000d1a781005a
:10670400c208de00e1c06000014178000204a2007a
:10671400610161004211dd00c01680000020a1006b
:1067240000007100c0168800e1806000c208dd002e
:10673400d01680000020a10000807000d0168800d0
:10674400400620006476020001000000da42a9003d
:10675400d842a9004006200064760200010000002f
:10676400d1a78100c208de00e1c0600001417800c9
:106774000204a200610161004211dd00c016800024
:106784000020a10000007100c0168800e1806000b4
:10679400c208dd00d01680000020a1000080700037
:1067a400d016880040062000647602000100000034
:1067b400da42a900d842a90040062000647602000b
:1067c40001000000d1a78100c208de00e1c0600022
:1067d400014178000204a200610161004211dd0060
:1067e400c01680000020a10000007100c0168800bf
:1067f400e1806000c208dd00d01680000020a10006
:1068040000807000d01688004006200064760200e4
:1068140001000000da42a900d842a9004006200085
:106824006476020001000000d1a78100c208de00e6
:10683400e1c06000014178000204a200610161002e
:106844004211dd00c01680000020a100000071008c
:10685400c0168800e1806000c208dd00d016800008
:106864000020a10000807000d0168800400620009f
:106874006476020001000000da42a900d842a900af
:10688400400620006476020001000000d1a78100c8
:10689400c208de00e1c06000014178000204a200e9
:1068a400610161004211dd00c01680000020a100da
:1068b40000007100c0168800e1806000c208dd009d
:1068c400d01680000020a10000807000d01688003f
:1068d400400620006476020001000000da42a900ac
:1068e400d842a9004006200064760200010000009e
:1068f400da82a900d882a90040012000647602004f
:1069040001000000c0cfb300184c6000d1a7810083
:10691400c208de00e1c06000014078000004a2006b
:106924006100600000014000c01680000010a1005a
:1069340000007100c0168800618060008000400083
:10694400d01680000010a10000807000d0168800ce
:10695400400120006476020001000000e8fc07000a
:10696400d1a78100c208de00e1c0600001417800c7
:106974000204a200610161004411dd00c016800020
:106984000040a10000007100c0168800e180600092
:10699400c408dd00d01680000040a1000080700013
:1069a400d016880040012000647602000100000037
:1069b400d1a78100c208de00e1c060000141780077
:1069c4000204a200610161004211dd00c0168000d2
:1069d4000020a10000007100c0168800e180600062
:1069e400c208dd00d01680000020a10000807000e5
:1069f400d0168800400620006476020001000000e2
:106a0400da42a900d842a9004006200064760200b8
:106a140001000000d1a78100c208de00e1c06000cf
:106a2400014178000204a200610161004211dd000d
:106a3400c01680000020a10000007100c01688006c
:106a4400e1806000c208dd00d01680000020a100b3
:106a540000807000d0168800400620006476020092
:106a640001000000da42a900d842a9004006200033
:106a74006476020001000000da82a900d882a9002d
:106a8400400120006476020001000000d1a78100cb
:106a9400c208de00e1c06000014178000204a200e7
:106aa400610161004211dd00c01680000020a100d8
:106ab40000007100c0168800e1806000c208dd009b
:106ac400d01680000020a10000807000d01688003d
:106ad400400620006476020001000000da42a900aa
:106ae400d842a9004006200064760200010000009c
:106af400d1a78100c208de00e1c060000141780036
:106b04000204a200610161004211dd00c016800090
:106b14000020a10000007100c0168800e180600020
:106b2400c208dd00d01680000020a10000807000a3
:106b3400d0168800400620006476020001000000a0
:106b4400da42a900d842a900400620006476020077
:106b540001000000184078000000a1000014a0000b
:106b6400004c780080c4eb00d1a78100c208de008d
:106b7400e1c06000014178000204a20061016100eb
:106b84004211dd00c01680000020a1000000710049
:106b9400c0168800e1806000c208dd00d0168000c5
:106ba4000020a10000807000d0168800400620005c
:106bb4006476020001000000da42a900d842a9006c
:106bc4004006200064760200010000008944e900c8
:106bd400e5ff3a0080c4eb00ac4f2300d1a781004d
:106be400c208de00e1c06000014178000204a20096
:106bf400610161004211dd00c01680000020a10087
:106c040000007100c0168800e1806000c208dd0049
:106c1400d01680000020a10000807000d0168800eb
:106c2400400620006476020001000000da42a90058
:106c3400d842a9004006200064760200010000004a
:106c44008944e900e4ff3a002dfc0700d1a7810044
:106c5400c208de00e1c06000014178000204a20025
:106c6400610161004411dd00c01680000040a100f4
:106c740000007100c0168800e1806000c408dd00d7
:106c8400d01680000040a10000807000d01688005b
:106c9400400120006476020001000000d1a78100b9
:106ca400c208de00e1c06000014178000204a200d5
:106cb400610161004211dd00c01680000020a100c6
:106cc40000007100c0168800e1806000c208dd0089
:106cd400d01680000020a10000807000d01688002b
:106ce400400620006476020001000000da42a90098
:106cf400d842a9004006200064760200010000008a
:106d0400da82a900d882a90040012000647602003a
:106d140001000000d1a78100c208de00e1c06000cc
:106d2400014178000204a200610161004211dd000a
:106d3400c01680000020a10000007100c016880069
:106d4400e1806000c208dd00d01680000020a100b0
:106d540000807000d016880040062000647602008f
:106d640001000000da42a900d842a9004006200030
:106d74006476020001000000d1a78100c208de0091
:106d8400e1c06000014178000204a20061016100d9
:106d94004211dd00c01680000020a1000000710037
:106da400c0168800e1806000c208dd00d0168000b3
:106db4000020a10000807000d0168800400620004a
:106dc4006476020001000000da42a900d842a9005a
:106dd4004006200064760200010000001c40780098
:106de400634e70000000eb00e0a789009c0f2000b8
:106df400d1a78100c208de00e1c060000141780033
:106e04000204a200610161004211dd00c01680008d
:106e14000020a10000007100c0168800e18060001d
:106e2400c208dd00d01680000020a10000807000a0
:106e3400d01688004006200064760200010000009d
:106e4400d9168000c34cde00e1c46400da42a90014
:106e5400d842a90040062000647602000100000028
:106e64000904e00005003a00e0a781000000e80002
:106e7400e0a789008c0f5000ddff3e00a0fb070057
:106e8400d1a78100c208de00e1c0600001417800a2
:106e94000204a200610161004411dd00c0168000fb
:106ea4000040a10000007100c0168800e18060006d
:106eb400c408dd00d01680000040a10000807000ee
:106ec400d016880040012000647602000100000012
:106ed400d1a78100c208de00e1c060000141780052
:106ee4000204a200610161004211dd00c0168000ad
:106ef4000020a10000007100c0168800e18060003d
:106f0400c208dd00d01680000020a10000807000bf
:106f1400d0168800400620006476020001000000bc
:106f2400da42a900d842a900400620006476020093
:106f340001000000d1a78100c208de00e1c06000aa
:106f4400014178000204a200610161004211dd00e8
:106f5400c01680000020a10000007100c016880047
:106f6400e1806000c208dd00d01680000020a1008e
:106f740000807000d016880040062000647602006d
:106f840001000000da42a900d842a900400620000e
:106f94006476020001000000d1a78100c208de006f
:106fa400e1c06000014178000204a20061016100b7
:106fb4004211dd00c01680000020a1000000710015
:106fc400c0168800e1806000c208dd00d016800091
:106fd4000020a10000807000d01688004006200028
:106fe4006476020001000000da42a900d842a90038
:106ff400400620006476020001000000d1a7810051
:10700400c208de00e1c06000014178000204a20071
:10701400610161004211dd00c01680000020a10062
:1070240000007100c0168800e1806000c208dd0025
:10703400d01680000020a10000807000d0168800c7
:10704400400620006476020001000000da42a90034
:10705400d842a90040062000647602000100000026
:10706400d1a78100c208de00e1c0600001417800c0
:107074000204a200610161004211dd00c01680001b
:107084000020a10000007100c0168800e1806000ab
:10709400c208dd00d01680000020a100008070002e
:1070a400d01688004006200064760200010000002b
:1070b400da42a900d842a900400620006476020002
:1070c40001000000d1a78100c208de00e1c0600019
:1070d400014178000204a200610161004211dd0057
:1070e400c01680000020a10000007100c0168800b6
:1070f400e1806000c208dd00d01680000020a100fd
:1071040000807000d01688004006200064760200db
:1071140001000000da42a900d842a900400620007c
:107124006476020001000000d1a78100c208de00dd
:10713400e1c06000014178000204a2006101610025
:107144004211dd00c01680000020a1000000710083
:10715400c0168800e1806000c208dd00d0168000ff
:107164000020a10000807000d01688004006200096
:107174006476020001000000da42a900d842a900a6
:10718400400620006476020001000000d1a78100bf
:10719400c208de00e1c06000014178000204a200e0
:1071a400610161004211dd00c01680000020a100d1
:1071b40000007100c0168800e1806000c208dd0094
:1071c400d01680000020a10000807000d016880036
:1071d400400620006476020001000000da42a900a3
:1071e400d842a90040062000647602000100000095
:1071f400d1a78100c208de00e1c06000014178002f
:107204000204a200610161004211dd00c016800089
:107214000020a10000007100c0168800e180600019
:10722400c208dd00d01680000020a100008070009c
:10723400d016880040062000647602000100000099
:10724400da42a900d842a900400620006476020070
:1072540001000000d1a78100c208de00e1c0600087
:10726400014178000204a200610161004211dd00c5
:10727400c01680000020a10000007100c016880024
:10728400e1806000c208dd00d01680000020a1006b
:1072940000807000d016880040062000647602004a
:1072a40001000000da42a900d842a90040062000eb
:1072b4006476020001000000da82a900d882a900e5
:1072c400400120006476020001000000c0cfb3003a
:1072d400184c60008afa0700d1a78100c208de00ba
:1072e400e1c06000014178000204a2006101610074
:1072f4004411dd00c01680000040a10000007100b0
:10730400c0168800e1806000c408dd00d01680004b
:107314000040a10000807000d016880040012000c9
:107324006476020001000000d1a78100c208de00db
:10733400e1c06000014178000204a2006101610023
:107344004211dd00c01680000020a1000000710081
:10735400c0168800e1806000c208dd00d0168000fd
:107364000020a10000807000d01688004006200094
:107374006476020001000000da42a900d842a900a4
:10738400400620006476020001000000da82a900b1
:10739400d882a900400120006476020001000000a8
:1073a400d1a78100c208de00e1c06000014178007d
:1073b4000204a200610161004211dd00c0168000d8
:1073c4000020a10000007100c0168800e180600068
:1073d400c208dd00d01680000020a10000807000eb
:1073e400d0168800400620006476020001000000e8
:1073f400da42a900d842a9004006200064760200bf
:1074040001000000d1a78100c208de00e1c06000d5
:10741400014178000204a200610161004211dd0013
:10742400c01680000020a10000007100c016880072
:10743400e1806000c208dd00d01680000020a100b9
:1074440000807000d0168800400620006476020098
:1074540001000000da42a900d842a9004006200039
:1074640064760200010000009840780063cc70004c
:1074740020002000e1a781000008dd006828020048
:1074840001000000004deb00e0a781000000e000d7
:1074940002043200da42a900d842a90040062000c2
:1074a40064760200010000009840780068c0600023
:1074b400f1043a00d1a78100c208de00e1c06000f7
:1074c400014178000204a200610161004211dd0063
:1074d400c01680000020a10000007100c0168800c2
:1074e400e1806000c208dd00d01680000020a10009
:1074f40000807000d01688004006200064760200e8
:1075040001000000da62ab0022053a008044eb007f
:1075140009467800da42a900d842a90040062000b2
:107524006476020001000000d1a78100c208de00d9
:10753400e1c06000014178000204a2006101610021
:107544004211dd00c01680000020a100000071007f
:10755400c0168800e1806000c208dd00d0168000fb
:107564000020a10000807000d01688004006200092
:107574006476020001000000da62ab00040032000d
:1075840009c8b300894446008984fb008904d100fa
:10759400da42a900d842a90040062000647602001d
:1075a40001000000d1a78100c208de00e1c0600034
:1075b400014178000204a200610161004211dd0072
:1075c400c01680000020a10000007100c0168800d1
:1075d400e1806000c208dd00d01680000020a10018
:1075e40000807000d01688004006200064760200f7
:1075f40001000000da62ab000200320000c8b300f0
:1076040080c44400da42a900d842a9004006200000
:107614006476020001000000d1a78100c208de00e8
:10762400e1c06000014178000204a2006101610030
:107634004211dd00c01680000020a100000071008e
:10764400c0168800e1806000c208dd00d01680000a
:107654000020a10000807000d016880040062000a1
:1076640064760200010000008984fb008904d100d3
:10767400da62ab000200320000c8b30080c44400e8
:10768400da42a900d842a90040062000647602002c
:1076940001000000d1a78100c208de00e1c0600043
:1076a400014178000204a200610161004211dd0081
:1076b400c01680000020a10000007100c0168800e0
:1076c400e1806000c208dd00d01680000020a10027
:1076d40000807000d0168800400620006476020006
:1076e400010000008984fb008904d100da62ab0048
:1076f4000200320000c8b30080c44400da42a9008a
:10770400d842a9004006200064760200010000006f
:10771400d1a78100c208de00e1c060000141780009
:107724000204a200610161004211dd00c016800064
:107734000020a10000007100c0168800e1806000f4
:10774400c208dd00d01680000020a1000080700077
:10775400d016880040062000647602000100000074
:107764008984fb008904d100da62ab000200320094
:1077740000c8b30080c44400da42a900d842a9007a
:10778400400620006476020001000000d1a78100b9
:10779400c208de00e1c06000014178000204a200da
:1077a400610161004211dd00c01680000020a100cb
:1077b40000007100c0168800e1806000c208dd008e
:1077c400d01680000020a10000807000d016880030
:1077d4004006200064760200010000008984fb005a
:1077e4008904d100da62ab000200320000c8b300a1
:1077f40080c44400da42a900d842a900400620000f
:107804006476020001000000d1a78100c208de00f6
:10781400e1c06000014178000204a200610161003e
:107824004211dd00c01680000020a100000071009c
:10783400c0168800e1806000c208dd00d016800018
:107844000020a10000807000d016880040062000af
:1078540064760200010000008984fb008904d100e1
:10786400da62ab000200320000c8b30080c44400f6
:10787400da42a900d842a90040062000647602003a
:10788400010000000940780068280200010000009f
:10789400da42a900d842a90040062000647602001a
:1078a400010000009840780068c06000a8033a0016
:1078b400d1a78100c208de00e1c060000141780068
:1078c4000204a200610161004211dd00c0168000c3
:1078d4000020a10000007100c0168800e180600053
:1078e400c208dd00d01680000020a10000807000d6
:1078f400d0168800400620006476020001000000d3
:10790400da62ab00d9033a008044eb000946780000
:10791400da42a900d842a900400620006476020099
:1079240001000000d1a78100c208de00e1c06000b0
:10793400014178000204a200610161004211dd00ee
:10794400c01680000020a10000007100c01688004d
:10795400e1806000c208dd00d01680000020a10094
:1079640000807000d0168800400620006476020073
:1079740001000000da62ab000400320009c8b30061
:10798400894446008984fb008904d100da42a900b5
:10799400d842a900400620006476020001000000dd
:1079a400d1a78100c208de00e1c060000141780077
:1079b4000204a200610161004211dd00c0168000d2
:1079c4000020a10000007100c0168800e180600062
:1079d400c208dd00d01680000020a10000807000e5
:1079e400d0168800400620006476020001000000e2
:1079f400da62ab000200320000c8b30080c4440065
:107a0400da42a900d842a9004006200064760200a8
:107a140001000000d1a78100c208de00e1c06000bf
:107a2400014178000204a200610161004211dd00fd
:107a3400c01680000020a10000007100c01688005c
:107a4400e1806000c208dd00d01680000020a100a3
:107a540000807000d0168800400620006476020082
:107a6400010000008984fb008904d100da62ab00c4
:107a74000200320000c8b30080c44400da42a90006
:107a8400d842a900400620006476020001000000ec
:107a9400d1a78100c208de00e1c060000141780086
:107aa4000204a200610161004211dd00c0168000e1
:107ab4000020a10000007100c0168800e180600071
:107ac400c208dd00d01680000020a10000807000f4
:107ad400d0168800400620006476020001000000f1
:107ae4008984fb008904d100da62ab000200320011
:107af40000c8b30080c44400da42a900d842a900f7
:107b0400400620006476020001000000d1a7810035
:107b1400c208de00e1c06000014178000204a20056
:107b2400610161004211dd00c01680000020a10047
:107b340000007100c0168800e1806000c208dd000a
:107b4400d01680000020a10000807000d0168800ac
:107b54004006200064760200010000008984fb00d6
:107b64008904d100da62ab000200320000c8b3001d
:107b740080c44400da42a900d842a900400620008b
:107b84006476020001000000d1a78100c208de0073
:107b9400e1c06000014178000204a20061016100bb
:107ba4004211dd00c01680000020a1000000710019
:107bb400c0168800e1806000c208dd00d016800095
:107bc4000020a10000807000d0168800400620002c
:107bd40064760200010000008984fb008904d1005e
:107be400da62ab000200320000c8b30080c4440073
:107bf400da42a900d842a9004006200064760200b7
:107c040001000000d1a78100c208de00e1c06000cd
:107c1400014178000204a200610161004211dd000b
:107c2400c01680000020a10000007100c01688006a
:107c3400e1806000c208dd00d01680000020a100b1
:107c440000807000d0168800400620006476020090
:107c5400010000008984fb008904d100da62ab00d2
:107c64000200320000c8b30080c44400da42a90014
:107c7400d842a900400620006476020001000000fa
:107c8400094078006828020001000000da42a900d7
:107c9400d842a900400620006476020001000000da
:107ca4009840780068c060005f023a00d1a7810064
:107cb400c208de00e1c06000014178000204a200b5
:107cc400610161004211dd00c01680000020a100a6
:107cd40000007100c0168800e1806000c208dd0069
:107ce400d01680000020a10000807000d01688000b
:107cf400400620006476020001000000da62ab0056
:107d040090023a008044eb0009467800da42a90068
:107d1400d842a90040062000647602000100000059
:107d2400d1a78100c208de00e1c0600001417800f3
:107d34000204a200610161004211dd00c01680004e
:107d44000020a10000007100c0168800e1806000de
:107d5400c208dd00d01680000020a1000080700061
:107d6400d01688004006200064760200010000005e
:107d7400da62ab000400320009c8b300894446004b
:107d84008984fb008904d100da42a900d842a90001
:107d9400400620006476020001000000d1a78100a3
:107da400c208de00e1c06000014178000204a200c4
:107db400610161004211dd00c01680000020a100b5
:107dc40000007100c0168800e1806000c208dd0078
:107dd400d01680000020a10000807000d01688001a
:107de400400620006476020001000000da62ab0065
:107df4000200320000c8b30080c44400da42a90083
:107e0400d842a90040062000647602000100000068
:107e1400d1a78100c208de00e1c060000141780002
:107e24000204a200610161004211dd00c01680005d
:107e34000020a10000007100c0168800e1806000ed
:107e4400c208dd00d01680000020a1000080700070
:107e5400d01688004006200064760200010000006d
:107e64008984fb008904d100da62ab00020032008d
:107e740000c8b30080c44400da42a900d842a90073
:107e8400400620006476020001000000d1a78100b2
:107e9400c208de00e1c06000014178000204a200d3
:107ea400610161004211dd00c01680000020a100c4
:107eb40000007100c0168800e1806000c208dd0087
:107ec400d01680000020a10000807000d016880029
:107ed4004006200064760200010000008984fb0053
:107ee4008904d100da62ab000200320000c8b3009a
:107ef40080c44400da42a900d842a9004006200008
:107f04006476020001000000d1a78100c208de00ef
:107f1400e1c06000014178000204a2006101610037
:107f24004211dd00c01680000020a1000000710095
:107f3400c0168800e1806000c208dd00d016800011
:107f44000020a10000807000d016880040062000a8
:107f540064760200010000008984fb008904d100da
:107f6400da62ab000200320000c8b30080c44400ef
:107f7400da42a900d842a900400620006476020033
:107f840001000000d1a78100c208de00e1c060004a
:107f9400014178000204a200610161004211dd0088
:107fa400c01680000020a10000007100c0168800e7
:107fb400e1806000c208dd00d01680000020a1002e
:107fc40000807000d016880040062000647602000d
:107fd400010000008984fb008904d100da62ab004f
:107fe4000200320000c8b30080c44400da42a90091
:107ff400d842a90040062000647602000100000077
:10800400d1a78100c208de00e1c060000141780010
:108014000204a200610161004211dd00c01680006b
:108024000020a10000007100c0168800e1806000fb
:10803400c208dd00d01680000020a100008070007e
:10804400d01688004006200064760200010000007b
:108054008984fb008904d100da62ab00020032009b
:1080640000c8b30080c44400da42a900d842a90081
:1080740040062000647602000100000009407800f8
:108084006828020001000000da42a900d842a900d1
:108094004006200064760200010000009840780049
:1080a40068c0600016013a00d1a78100c208de0052
:1080b400e1c06000014178000204a2006101610096
:1080c4004211dd00c01680000020a10000007100f4
:1080d400c0168800e1806000c208dd00d016800070
:1080e4000020a10000807000d01688004006200007
:1080f4006476020001000000da62ab0047013a0036
:108104008044eb0009467800da42a900d842a9006d
:10811400400620006476020001000000d1a781001f
:10812400c208de00e1c06000014178000204a20040
:10813400610161004211dd00c01680000020a10031
:1081440000007100c0168800e1806000c208dd00f4
:10815400d01680000020a10000807000d016880096
:10816400400620006476020001000000da62ab00e1
:108174000400320009c8b300894446008984fb0026
:108184008904d100da42a900d842a900400620009f
:108194006476020001000000d1a78100c208de005d
:1081a400e1c06000014178000204a20061016100a5
:1081b4004211dd00c01680000020a1000000710003
:1081c400c0168800e1806000c208dd00d01680007f
:1081d4000020a10000807000d01688004006200016
:1081e4006476020001000000da62ab000200320093
:1081f40000c8b30080c44400da42a900d842a900f0
:10820400400620006476020001000000d1a781002e
:10821400c208de00e1c06000014178000204a2004f
:10822400610161004211dd00c01680000020a10040
:1082340000007100c0168800e1806000c208dd0003
:10824400d01680000020a10000807000d0168800a5
:108254004006200064760200010000008984fb00cf
:108264008904d100da62ab000200320000c8b30016
:1082740080c44400da42a900d842a9004006200084
:108284006476020001000000d1a78100c208de006c
:10829400e1c06000014178000204a20061016100b4
:1082a4004211dd00c01680000020a1000000710012
:1082b400c0168800e1806000c208dd00d01680008e
:1082c4000020a10000807000d01688004006200025
:1082d40064760200010000008984fb008904d10057
:1082e400da62ab000200320000c8b30080c444006c
:1082f400da42a900d842a9004006200064760200b0
:1083040001000000d1a78100c208de00e1c06000c6
:10831400014178000204a200610161004211dd0004
:10832400c01680000020a10000007100c016880063
:10833400e1806000c208dd00d01680000020a100aa
:1083440000807000d0168800400620006476020089
:10835400010000008984fb008904d100da62ab00cb
:108364000200320000c8b30080c44400da42a9000d
:10837400d842a900400620006476020001000000f3
:10838400d1a78100c208de00e1c06000014178008d
:108394000204a200610161004211dd00c0168000e8
:1083a4000020a10000007100c0168800e180600078
:1083b400c208dd00d01680000020a10000807000fb
:1083c400d0168800400620006476020001000000f8
:1083d4008984fb008904d100da62ab000200320018
:1083e40000c8b30080c44400da42a900d842a900fe
:1083f400400620006476020001000000d1a781003d
:10840400c208de00e1c06000014178000204a2005d
:10841400610161004211dd00c01680000020a1004e
:1084240000007100c0168800e1806000c208dd0011
:10843400d01680000020a10000807000d0168800b3
:108444004006200064760200010000008984fb00dd
:108454008904d100da62ab000200320000c8b30024
:1084640080c44400da42a900d842a9004006200092
:1084740064760200010000000940780068280200c8
:10848400010000001a40e800004d78000080fb0065
:10849400e1a78100810f5000fefb390018f60700a8
:1084a400e1f63700da22a900d822a9004001200011
:1084b4006476020001000000da42a900d842a90053
:1084c400400620006476020001000000da82a90060
:1084d400d882a90040012000647602000100000057
:1084e4008282020001000000600b02000100000013
:1084f400e0a789006828020001000000caf63700de
:10850400d0a781000048a300670132004200de00ca
:1085140061406000804078000104a200e1806000b6
:1085240001814000c11680000110a100810071008a
:10853400c11688006100600080004000d0168000f1
:108544000010a10000807000d016880040012000b7
:108554006476020001000000d1a78100c208de0099
:10856400e1c06000014178000204a20061016100e1
:108574004211dd00c01680000020a100000071003f
:10858400c0168800e1806000c208dd00d0168000bb
:108594000020a10000807000d01688004006200052
:1085a4006476020001000000d0168000da42a900bf
:1085b400d842a900400620006476020001000000b1
:1085c4001834a100d1a78100c208de00e1c0600018
:1085d400014178000204a200610161004211dd0042
:1085e400c01680000020a10000007100c0168800a1
:1085f400e1806000c208dd00d01680000020a100e8
:1086040000807000d01688004006200064760200c6
:1086140001000000da62ab00b9fe320009c2b30007
:108624000cc4b300b8fe3700d0a781000048a300f3
:108634003e0132004200de0061406000804078006c
:108644000104a200e180600001814000c1168000a5
:108654000110a10081007100c11688006100600052
:1086640080004000d01680000010a100008070003f
:10867400d01688004001200064760200010000004a
:10868400d1a78100c208de00e1c06000014178008a
:108694000204a200610161004211dd00c0168000e5
:1086a4000020a10000007100c0168800e180600075
:1086b400c208dd00d01680000020a10000807000f8
:1086c400d0168800400620006476020001000000f5
:1086d400d0168000da42a900d842a9004006200042
:1086e40064760200010000001834a100d1a78100c3
:1086f400c208de00e1c06000014178000204a2006b
:10870400610161004211dd00c01680000020a1005b
:1087140000007100c0168800e1806000c208dd001e
:10872400d01680000020a10000807000d0168800c0
:10873400400620006476020001000000da62ab000b
:1087440070fd320009c2b3000cc4b3006ffd3700e2
:10875400d0a781000048a300910032004200de004f
:1087640061406000804078000104a200e180600064
:1087740001814000c11680000110a1008100710038
:10878400c11688006100600080004000d01680009f
:108794000010a10000807000d01688004001200065
:1087a4006476020001000000d1a78100c208de0047
:1087b400e1c06000014178000204a200610161008f
:1087c4004211dd00c01680000020a10000007100ed
:1087d400c0168800e1806000c208dd00d016800069
:1087e4000020a10000807000d01688004006200000
:1087f4006476020001000000d0168000da42a9006d
:10880400d842a9004006200064760200010000005e
:108814001834a100d1a78100c208de00e1c06000c5
:10882400014178000204a200610161004211dd00ef
:10883400c01680000020a10000007100c01688004e
:10884400e1806000c208dd00d01680000020a10095
:1088540000807000d0168800400620006476020074
:1088640001000000da62ab0027fc320009c2b30049
:108874000cc4b30026fc3700d0a781000048a30035
:10888400680032004200de006140600080407800f1
:108894000104a200e180600001814000c116800053
:1088a4000110a10081007100c11688006100600000
:1088b40080004000d01680000010a10000807000ed
:1088c400d0168800400120006476020001000000f8
:1088d400d1a78100c208de00e1c060000141780038
:1088e4000204a200610161004211dd00c016800093
:1088f4000020a10000007100c0168800e180600023
:10890400c208dd00d01680000020a10000807000a5
:10891400d0168800400620006476020001000000a2
:10892400d0168000da42a900d842a90040062000ef
:1089340064760200010000001834a100d1a7810070
:10894400c208de00e1c06000014178000204a20018
:10895400610161004211dd00c01680000020a10009
:1089640000007100c0168800e1806000c208dd00cc
:10897400d01680000020a10000807000d01688006e
:10898400400620006476020001000000da62ab00b9
:10899400defa320009c2b3000cc4b300ddfa3700ba
:1089a400da22a900d822a90040012000647602003e
:1089b40001000000d1a78100c208de00e1c0600010
:1089c400014178000204a200610161004211dd004e
:1089d400c01680000020a10000007100c0168800ad
:1089e400e1806000c208dd00d01680000020a100f4
:1089f40000807000d01688004006200064760200d3
:108a040001000000d0168000da42a900d842a90073
:108a14004006200064760200010000001834a10022
:108a24007cff3700da22a900d822a90040012000e7
:108a34006476020001000000d1a78100c208de00b4
:108a4400e1c06000014178000204a20061016100fc
:108a54004211dd00c01680000020a100000071005a
:108a6400c0168800e1806000c208dd00d0168000d6
:108a74000020a10000807000d0168800400620006d
:108a84006476020001000000d0168000da42a900da
:108a9400d842a900400620006476020001000000cc
:108aa4001834a100a5ff3700da22a900d822a900b2
:108ab400400120006476020001000000d1a781007b
:108ac400c208de00e1c06000014178000204a20097
:108ad400610161004211dd00c01680000020a10088
:108ae40000007100c0168800e1806000c208dd004b
:108af400d01680000020a10000807000d0168800ed
:108b0400400620006476020001000000d0168000b8
:108b1400da42a900d842a900400620006476020087
:108b2400010000001834a100a6fe3700da22a900d3
:108b3400d822a90040012000647602000100000050
:108b4400d1a78100c208de00e1c0600001417800c5
:108b54000204a200610161004211dd00c016800020
:108b64000020a10000007100c0168800e1806000b0
:108b7400c208dd00d01680000020a1000080700033
:108b8400d016880040062000647602000100000030
:108b9400d0168000da42a900d842a900400620007d
:108ba40064760200010000001834a100cffe3700f3
:108bb400889fbe00a94f230099007800c208de00f8
:108bc400e1c06000014178000204a200610161007b
:108bd4004411dd00f0fe2f00c41680008401600003
:108be40083017100c3168800e1806000c408dd00c1
:108bf400da02b60000807000d01688004001200020
:108c04006476020001000000190078004200de00d2
:108c140061406000804078000104a200e1806000af
:108c2400c208dd00b8ff2f00c316800003016400f2
:108c340002817000c2168800610060004200dd00fd
:108c4400d41680008400640081007000d11688006e
:108c5400400620006476020001000000da42a90008
:108c6400d842a900400620006476020001000000fa
:108c7400190078004200de00614060008040780006
:108c84000104a200e1806000c208dd00c316800078
:108c94000301640002817000c21688006100600054
:108ca4004200dd00d416800084006400810070005e
:108cb400d1168800400620006476020001000000fe
:108cc400da42a900d842a9004006200064760200d6
:108cd40001000000190078004200de0061406000dd
:108ce400804078000104a200e1806000c208dd0039
:108cf400c31680000301640002817000c21688005c
:108d0400610060004200dd00d4168000840064002d
:108d140081007000d11688004006200064760200ad
:108d240001000000da42a900d842a9004006200050
:108d34006476020001000000190078004200de00a1
:108d440061406000804078000104a200e18060007e
:108d5400c208dd00c31680000301640002817000b4
:108d6400c2168800610060004200dd00d416800055
:108d74008400640081007000d11688004006200041
:108d84006476020001000000da42a900d842a9007a
:108d940040062000647602000100000019007800fb
:108da4004200de0061406000804078000104a200bf
:108db400e1806000c208dd00c31680000301640086
:108dc40002817000c2168800610060004200dd006c
:108dd400d41680008400640081007000d1168800dd
:108de400400620006476020001000000da42a90077
:108df400d842a90040062000647602000100000069
:108e0400190078004200de00614060008040780074
:108e14000104a200e1806000c208dd00c3168000e6
:108e24000301640002817000c216880061006000c2
:108e34004200dd00d41680008400640081007000cc
:108e4400d11688004006200064760200010000006c
:108e5400da42a900d842a900400620006476020044
:108e640001000000190078004200de00614060004b
:108e7400804078000104a200e1806000c208dd00a7
:108e8400c31680000301640002817000c2168800ca
:108e9400610060004200dd00d4168000840064009c
:108ea40081007000d116880040062000647602001c
:108eb40001000000da42a900d842a90040062000bf
:108ec4006476020001000000190078004200de0010
:108ed40061406000804078000104a200e1806000ed
:108ee400c208dd00c3168000030164000281700023
:108ef400c2168800610060004200dd00d4168000c4
:108f04008400640081007000d116880040062000af
:108f14006476020001000000da42a900d842a900e8
:108f24004006200064760200010000001900780069
:108f34004200de0061406000804078000104a2002d
:108f4400e1806000c208dd00c316800003016400f4
:108f540002817000c2168800610060004200dd00da
:108f6400d41680008400640081007000d11688004b
:108f7400400620006476020001000000da42a900e5
:108f8400d842a900400620006476020001000000d7
:108f9400190078004200de006140600080407800e3
:108fa4000104a200e1806000c208dd00c316800055
:108fb4000301640002817000c21688006100600031
:108fc4004200dd00d416800004046400080470002c
:108fd400d8168800400620006476020001000000d4
:108fe400da42a900d842a9004006200064760200b3
:108ff40001000000da82a900d882a9004001200003
:109004006476020001000000c0cfb300994c6000f8
:109014004f04be0000000600881f7800e24f500095
:1090240089013200e34f50001d0132000004e000ca
:10903400020032004f04780000000600a84f23000d
:10904400d1a78100c208de00e1c0600001417800c0
