:020000040000fa
:080000000020040000000000d4
:020000040000fa
:04000800c022000012
:020000040000fa
:04000c00c02200000e
:020000040000fa
:04001000c02200000a
:020000040000fa
:04001400c022000006
:020000040000fa
:04001800c022000002
:020000040000fa
:04001c00c0220000fe
:020000040000fa
:04002000c0220000fa
:020000040000fa
:04002400c0220000f6
:020000040000fa
:04002800c0220000f2
:020000040000fa
:04002c00c0220000ee
:020000040000fa
:04003000c0220000ea
:020000040000fa
:04003400c0220000e6
:020000040000fa
:04003800c0220000e2
:020000040000fa
:04003c00c0220000de
:020000040000fa
:04004000c0220000da
:020000040000fa
:04004400c0220000d6
:020000040000fa
:04004800c0220000d2
:020000040000fa
:04004c00c0220000ce
:020000040000fa
:04005000c0220000ca
:020000040000fa
:04005400c0220000c6
:020000040000fa
:04005800c0220000c2
:020000040000fa
:04005c0082c200005c
:020000040000fa
:04006000c0220000ba
:020000040000fa
:04006400c0220000b6
:020000040000fa
:04006800c0220000b2
:020000040000fa
:04006c00c0220000ae
:020000040000fa
:04007000c0220000aa
:020000040000fa
:04007400c0220000a6
:020000040000fa
:04007800c0220000a2
:020000040000fa
:04007c00c02200009e
:020000040000fa
:04008000c02200009a
:020000040000fa
:04008400c022000096
:020000040000fa
:04008800c022000092
:020000040000fa
:04008c00c02200008e
:020000040000fa
:04009000c02200008a
:020000040000fa
:04009400c022000086
:020000040000fa
:04009800c022000082
:020000040000fa
:04009c00c02200007e
:020000040000fa
:0400a000c02200007a
:020000040000fa
:0400a400c022000076
:020000040000fa
:0400a800c022000072
:020000040000fa
:0400ac00c02200006e
:020000040000fa
:0400b000c02200006a
:020000040000fa
:0400b400c022000066
:020000040000fa
:0400b800c022000062
:020000040000fa
:0400bc00c02200005e
:020000040000fa
:0400c000c02200005a
:020000040000fa
:0400c400c022000056
:020000040000fa
:0400c800c022000052
:020000040000fa
:0400cc00c02200004e
:020000040000fa
:0400d000c02200004a
:020000040000fa
:0400d400c022000046
:020000040000fa
:0400d800c022000042
:020000040000fa
:0400dc00c02200003e
:020000040000fa
:0400e000c02200003a
:020000040000fa
:0400e400c022000036
:020000040000fa
:0400e800c022000032
:020000040000fa
:0400ec00c02200002e
:020000040000fa
:0400f000c02200002a
:020000040000fa
:0400f400c022000026
:020000040000fa
:0400f800c022000022
:020000040000fa
:0400fc00c02200001e
:020000040000fa
:04010000c022000019
:020000040000fa
:04010400c022000015
:020000040000fa
:04010800c022000011
:020000040000fa
:04010c00c02200000d
:020000040000fa
:04011000c022000009
:020000040000fa
:04011400c022000005
:020000040000fa
:04011800c022000001
:020000040000fa
:04011c00c0220000fd
:020000040000fa
:04012000c0220000f9
:020000040000fa
:04012400c0220000f5
:020000040000fa
:04012800c0220000f1
:020000040000fa
:04012c00c0220000ed
:020000040000fa
:04013000c0220000e9
:020000040000fa
:04013400c0220000e5
:020000040000fa
:04013800c0220000e1
:020000040000fa
:04013c00c0220000dd
:020000040000fa
:04014000c0220000d9
:020000040000fa
:04014400c0220000d5
:020000040000fa
:04014800c0220000d1
:020000040000fa
:04014c00c0220000cd
:020000040000fa
:04015000c0220000c9
:020000040000fa
:04015400c0220000c5
:020000040000fa
:04015800c0220000c1
:020000040000fa
:04015c00c0220000bd
:020000040000fa
:04016000c0220000b9
:020000040000fa
:04016400c0220000b5
:020000040000fa
:04016800c0220000b1
:020000040000fa
:04016c00c0220000ad
:020000040000fa
:04017000c0220000a9
:020000040000fa
:04017400c0220000a5
:020000040000fa
:04017800c0220000a1
:020000040000fa
:04017c00c02200009d
:020000040000fa
:04018000cabf0000f2
:020000040000fa
:04018400c022000095
:020000040000fa
:04018800c022000091
:020000040000fa
:04018c00c02200008d
:020000040000fa
:04019000c022000089
:020000040000fa
:04019400c022000085
:020000040000fa
:04019800c022000081
:020000040000fa
:04019c00c02200007d
:020000040000fa
:04020800c022000010
:020000040000fa
:04020c00c02200000c
:020000040000fa
:04021000c022000008
:020000040000fa
:04021400c022000004
:020000040000fa
:04021800c022000000
:020000040000fa
:04021c00c0220000fc
:020000040000fa
:04022000c0220000f8
:020000040000fa
:04022400c0220000f4
:020000040000fa
:04022800c0220000f0
:020000040000fa
:04022c00c0220000ec
:020000040000fa
:04023000c0220000e8
:020000040000fa
:04023400c0220000e4
:020000040000fa
:04023800c0220000e0
:020000040000fa
:04023c00c0220000dc
:020000040000fa
:04024000c0220000d8
:020000040000fa
:04024400c0220000d4
:020000040000fa
:04024800c0220000d0
:020000040000fa
:04024c00c0220000cc
:020000040000fa
:04025000c0220000c8
:020000040000fa
:04025400c0220000c4
:020000040000fa
:04025800c0220000c0
:020000040000fa
:04025c00c0220000bc
:020000040000fa
:04026000c0220000b8
:020000040000fa
:04026400c0220000b4
:020000040000fa
:04026800c0220000b0
:020000040000fa
:04026c00c0220000ac
:020000040000fa
:04027000c0220000a8
:020000040000fa
:04027400c0220000a4
:020000040000fa
:04027800c0220000a0
:020000040000fa
:04027c00c02200009c
:020000040000fa
:04028000c022000098
:020000040000fa
:04028400c022000094
:020000040000fa
:04028800c022000090
:020000040000fa
:04028c00c02200008c
:020000040000fa
:04029000c022000088
:020000040000fa
:04029400c022000084
:020000040000fa
:04029800c022000080
:020000040000fa
:04029c00c02200007c
:020000040000fa
:0402a000c022000078
:020000040000fa
:0402a400c022000074
:020000040000fa
:0402a800c022000070
:020000040000fa
:0402ac00c02200006c
:020000040000fa
:0402b000c022000068
:020000040000fa
:0402b400c022000064
:020000040000fa
:0402b800c022000060
:020000040000fa
:0402bc00c02200005c
:020000040000fa
:0402c000c022000058
:020000040000fa
:0402c400c022000054
:020000040000fa
:0402c800c022000050
:020000040000fa
:0402cc00c02200004c
:020000040000fa
:0402d000c022000048
:020000040000fa
:0402d400c022000044
:020000040000fa
:0402d800c022000040
:020000040000fa
:0402dc00c02200003c
:020000040000fa
:0402e000c022000038
:020000040000fa
:0402e400c022000034
:020000040000fa
:0402e800c022000030
:020000040000fa
:0402ec00c02200002c
:020000040000fa
:0402f000c022000028
:020000040000fa
:0402f400c022000024
:020000040000fa
:0402f800c022000020
:020000040000fa
:0402fc00c02200001c
:020000040000fa
:04030000c022000017
:020000040000fa
:04030400c022000013
:020000040000fa
:04030800c02200000f
:020000040000fa
:04030c00c02200000b
:020000040000fa
:04031000c022000007
:020000040000fa
:04031400c022000003
:020000040000fa
:04031800c0220000ff
:020000040000fa
:04031c00c0220000fb
:020000040000fa
:04032000c0220000f7
:020000040000fa
:04032400c0220000f3
:020000040000fa
:04032800c0220000ef
:020000040000fa
:04032c00c0220000eb
:020000040000fa
:04033000c0220000e7
:020000040000fa
:04033400c0220000e3
:020000040000fa
:04033800c0220000df
:020000040000fa
:04033c00c0220000db
:020000040000fa
:04034000c0220000d7
:020000040000fa
:04034400c0220000d3
:020000040000fa
:04034800c0220000cf
:020000040000fa
:04034c00c0220000cb
:020000040000fa
:04035000c0220000c7
:020000040000fa
:04035400c0220000c3
:020000040000fa
:04035800c0220000bf
:020000040000fa
:04035c00c0220000bb
:020000040000fa
:04036000c0220000b7
:020000040000fa
:04036400c0220000b3
:020000040000fa
:04036800c0220000af
:020000040000fa
:04036c00c0220000ab
:020000040000fa
:04037000c0220000a7
:020000040000fa
:04037400c0220000a3
:020000040000fa
:04037800c02200009f
:020000040000fa
:04037c00c02200009b
:020000040000fa
:04038000c022000097
:020000040000fa
:04038400c022000093
:020000040000fa
:04038800c02200008f
:020000040000fa
:04038c00c02200008b
:020000040000fa
:04039000c022000087
:020000040000fa
:04039400c022000083
:020000040000fa
:04039800c02200007f
:020000040000fa
:04039c00c02200007b
:020000040000fa
:10400000cf5123000e7f24000e0188000000000025
:10401000000020000000e00002003200000120004b
:10402000200288000c000700e0c32a0001002000e5
:1040300011000700000020000000e0000200320034
:104040000000020000000000a0bf0200000000000d
:104050000040da000000fe004440a900e05d2000be
:104060000000e0000300320000002000a0018800f2
:104070004440a800000006009101880080007800fc
:104080000000eb0015003700e280400032a0b400d1
:104090009101ba00e280400032a0b4009102ba005f
:1040a000e280400032a0b4000002eb00472bde00ab
:1040b000f507b200602ce10004003a000059eb0063
:1040c0008301e900fdff3e00040037006128e100a4
:1040d000010032000082eb000b00070011c3ba00a0
:1040e0001101ba000604e00003003a000200e000fb
:1040f000e5ff3a0000000600f607b20096018800ce
:1041000082007800f5ff37003159ba008301e900d9
:104110000c0032002159ba008301e9000800320086
:104120000400e00003003a00e280400032a0b40046
:10413000f5ff370011d9ba008301e900faff3a0010
:104140008100e800e180400032a0b40000000600d9
:10415000069d040000000000129d04000000000005
:104160000c9d040000000000009d04000000000001
:10417000729d040000000000967004000000000022
:104180001e710400000000008075040000000000a3
:10419000e2740400000000002c7104000000000024
:1041a0008e70040000000000f870040000000000a1
:1041b00088710400000000009076040000000000f8
:1041c00000710400000000002677040000000000d9
:1041d0005e76040000000000267604000000000067
:1041e0004c73040000000000b870040000000000e0
:1041f00022750400000000009c7004000000000014
:10420000f6720400000000006c9f04000000000033
:1042100034980400000000005098040000000000e2
:1042200028450400000000008cc3040000000000ca
:104230007cc30400000000006cc304000000000008
:104240005cc30400000000004cc304000000000038
:1042500032c304000000000044c30400000000005a
:104260003ec30400000000003c9004000000000079
:10427000f68f040000000000ee8f04000000000034
:104280001a900400000000000e90040000000000de
:104290000690040000000000fe8f040000000000f3
:1042a000fa8f0400000000000491040000000000e8
:1042b000269004000000000034900400000000007c
:1042c000366b040000000000486b04000000000092
:1042d000e06804000000000098680400000000008e
:1042e000586b040000000000146d04000000000082
:1042f0006669040000000000be6d040000000000bc
:10430000326b040000000000be6b040000000000df
:10431000e6680400000000001e7a040000000000af
:10432000d4790400000000009e7a04000000000020
:104330002e7b040000000000ac7c040000000000a4
:10434000ac78040000000000907b04000000000036
:1043500042790400000000005479040000000000cd
:1043600080780400000000007e600400000000006f
:104370005e600400000000009e6004000000000079
:104380008a630400000000009c6304000000000039
:1043900054650400000000002e61040000000000cd
:1043a00042630400000000007a6304000000000083
:1043b000c862040000000000ba60040000000000b1
:1043c0007eb104000000000092b104000000000073
:1043d00078b104000000000074b104000000000087
:1043e000c0b1040000000000bab1040000000000e9
:1043f000d2b1040000000000ccb1040000000000b5
:10440000b2b1040000000000c6b1040000000000ca
:10441000a6b1040000000000c4b3040000000000c6
:1044200008b204000000000088b204000000000090
:104430009ab2040000000000d8b10400000000009f
:10444000b2b804000000000082b8040000000000c0
:10445000e2b804000000000072b804000000000090
:104460006cb80400000000002cb90400000000003b
:1044700032b904000000000038b904000000000058
:104480003eb90400000000001eb904000000000056
:1044900026b904000000000012b90400000000006a
:1044a00080b904000000000046ba040000000000cb
:1044b0005eba04000000000044b9040000000000df
:1044c0003cb00400000000006ab1040000000000dd
:1044d0001cb1040000000000f6ae04000000000063
:1044e00054af0400000000003eb6040000000000cd
:1044f0004ab604000000000016b7040000000000e7
:104500005cb704000000000056b604000000000084
:104510005cb60400000000005e63040000000000c0
:1045200094b6040000000000ea93040000000000bc
:104530000c94040000000000d2940400000000006d
:104540001e940400000000003c96040000000000df
:104550004093040000000000de930400000000000f
:10456000e493040000000000c09604000000000076
:10457000a0c30400000000009cc304000000000071
:104580000040da000000fe0003f0a200889fbe0099
:104590008a9fbe008c1f780059010700600133001c
:1045a0006450e1004f0032006420e100520032000c
:1045b00003826c0007003b000905d0000306d00011
:1045c000820f54000c065d00020039000200320028
:1045d00089017800030678008582550004003d00bb
:1045e0000003fd008103fd008502ea008b85420087
:1045f000840f720002003b0060001000e080180091
:104600006011b8000005eb007a28e1000a003900cb
:1046100006007800c75ddd00f707b20087807500ef
:104620002d003700828171000a0178006105600069
:104630008180d1000080d3008502e900f9ff3b00b2
:10464000060440008784480002003b006004140018
:10465000e0841c000988a300070032008a817100f1
:1046600082817100610164008904d1000884d30053
:104670008b05e800170037000978a30013003a0003
:104680000b00e000130034008b05e900080444002f
:1046900089844c000a4474000978a3000d003a0094
:1046a0000b00e000070034008b05e900080444001b
:1046b00089844c0001003a000b0020000978a30017
:1046c000f7ff32000001eb00020037008281710029
:1046d0000a017800cf0007000cf0a70001f0a0004d
:1046e000180137006420e10002003a00838f6c005b
:1046f000180133000801be000200be00110137009e
:10470000889fbe008a9fbe008c1f7800fc000700b7
:104710000301330003866c006450e1002e00320078
:104720006420e100330032006150e1002f003200cc
:104730006120e1003100320085855500eb07b000b3
:104740000900200008042000050037000804440088
:1047500089844c000a0031000603430087834b0024
:104760000001530081815b00f8ff33000203be00ab
:104770000800a0000804440089844c00f6ff3900ba
:10478000c639dd00830173000100320013002000f0
:104790008904d1000884d3000998a30005003200e1
:1047a0000800a7000300a0008904d1000884d300fa
:1047b0008b05e8008904d1000884d3000001eb00d8
:1047c0000281d2009300070001f0a1000cf0a700c5
:1047d00001f0a000db0037006420e100dd003200c2
:1047e0000801be000200be00f7ff37006120e100b3
:1047f000d80032006000b800f3ff3700000020004e
:1048000001f82700f0ff3700839f68000100e000f7
:1048100002003d0060001000e08018000300e0008e
:1048200002003d0060011100e08119000001070055
:104830004f00e00002003b0060001000e080180024
:10484000000006001400200014023700f4ff2f00bf
:10485000120237000003be00940007006011b80088
:104860000470a70007f0a10007f8a30017003a00a2
:104870006509b1000d0032000d00350086022000f0
:104880000628e10003003500030028006000b8009e
:10489000020005000000400081804800020149003c
:1048a000838149008502e900faff3a000000060012
:1048b000f88f4200050034008100d1000080d30051
:1048c0008502e800fcff3a00000006006011b80015
:1048d0008000eb00000005000001be00730007002f
:1048e0000470a70003f0a10003f8a30013003a002e
:1048f0006509b10010003200090035006928e100a7
:104900000200350001002800000005000000400002
:10491000818048008502e900fcff3a0000000600a3
:10492000f88f4200050035008100d1000080d300df
:104930008502e800fcff3a00000006008000eb0062
:10494000000005004f89de0082017800ee0137008b
:10495000889fbe008a9fbe00008270000402710022
:1049600004827100260032000004be000200be0076
:104970006011b8006b092000950220000182cf0071
:104980000a0039000541b1000082cf00070039005c
:104990000541b1000982cf00040039000541b10092
:1049a0000882cf00010039000541b10005425200e4
:1049b000120032000a003b00828171006101640034
:1049c0008100d1000080d3008984d3000884d30003
:1049d0008b05e8000442e800f7ff3a0007003700c3
:1049e0000804440089844c0000004800818048008d
:1049f0008b05e9000442e900f9ff3a0005000700d1
:104a00004f05be004f04be00000006006011b80054
:104a1000cfff370081002000618055000b003d0072
:104a20000b00200061fe2f000100e1001d0034009a
:104a300082817100610164008904d1000884d3007f
:104a40000000e800faff3a007100200061006400f5
:104a5000030070000200600009003200610444009d
:104a6000e0844c000988a500050032008b05e800b1
:104a70006808e10002003a008904d1000884d300ec
:104a8000f20f20000258e10005003d00c75ddd0087
:104a9000f907b20089807500080078000000060060
:104aa0000bf827008b00780000000500c70ade0025
:104ab000f107b200f50fb20008003200e1cf42006a
:104ac000020032000170a00024000500810f700078
:104ad000010032000408050044000500810f700049
:104ae00002003a00140005008502e90000004000c1
:104af00081c04800fcff3b000170a00024000500bd
:104b00000004be00e9ff07000003be000405be006c
:104b10000200be00e5ff0700844f7500000006009c
:104b20000200be006450e100050036006420e10090
:104b3000020036000968a30001003a000800be0028
:104b40000160a0004f0678004f05be004f04be0074
:104b500000000600f0ff2f00f1ff2700f9ff3700eb
:104b6000889fbe008a9fbe008c1f7800e4ff07006c
:104b7000ebff330003866c006450e1002400320038
:104b80006420e100270032006150e1002200320081
:104b90006120e100210032008b854200eb07b1006b
:104ba0000134b800003ab8000804420089844a0081
:104bb000013ab8000030b8008880400009014a007e
:104bc00004003300000040008180480002014900d9
:104bd0008b05e900c909dd00830170000100320086
:104be00013002000c814de004814dd004709de0071
:104bf0001200b200c808de000884700085ff0700bc
:104c000001f0a1000cf0a70001f0a000cdff3700db
:104c10006120e100cfff32000801be000200be00ab
:104c2000f7ff37006150e100fcff3a00c9ff370091
:104c30006022b800060220000000d0008180d2006f
:104c40000482d2008582d2000000a000020252003d
:104c500083825a00030031000202420083824a002c
:104c60000000a1000603e900f3ff3a00000006007f
:104c7000efff07000400be0000000600020ab900b2
:104c8000001bb9000200b80081004200810043000f
:104c900000000600889fbe008a9fbe0030044200cc
:104ca000b0844a0030054b0090854b006000b10095
:104cb0000898be000a90be000440e10005c8e1006b
:104cc00006d0e10007d8e100020031006800400092
:104cd0001008e8004f05be004f04be0000000600ab
:104ce000889fbe008a9fbe003004be002005be0023
:104cf0000418540005985c0006185d0007985d00d4
:104d0000110020000440e10005c8e10006d0e100e8
:104d100007d8e100010039008000eb001088100086
:104d20004f05be004f04be00000006001200fa004e
:104d3000889fbe008a9fbe008c9fbe00e0b79f0088
:104d4000f1b79f0082bf9f0093bf9f000605be0082
:104d50000404be000000eb00d0b79f00c0b79f0066
:104d6000b0b79f00a0b79f0090b79f000006eb0070
:104d70005fb19700cfb09700820141003fb097002c
:104d80000200e00004003d00370007007e8057006d
:104d9000c0ff070003003700330007007e80570084
:104da000cfff0700dfb697000d00e0000c003500d4
:104db0006fb29700ffb297000fbb97009fbb9700a1
:104dc00010002000010020006011b80000027200f5
:104dd0008182720002037300838373001b0007004b
:104de0000c06e80001042000810f5600e0ff3a00a5
:104df0000d00e00004003d000802be000a03be00f2
:104e00007e805700a3ff07005fa897000000e00026
:104e100005003a001fb29700afb297003fb397006a
:104e2000cfb39700090007006fb09700ffb097005d
:104e30000fb997009fb997004f06be004f05be00ff
:104e40004f04be000080fa000000060001000700c9
:104e500000000600a4b79f00b5b79f00c6b79f002b
:104e6000d7b79f00000006004f09de008281710065
:104e7000b3b79f004f01de00818040008280700048
:104e8000a1b79f008fb097004f09de0000004000df
:104e90000200700090b79f007fa897004f01de00ce
:104ea000818040008280700081b79f000d00070064
:104eb0004f3ade000000400004007000f0af9f0099
:104ec000080007000402420085824a0006034b00e6
:104ed00087834b00dfff07000802be000a03be0005
:104ee000000006002fb29700bfb297004fb39700a3
:104ef000dfb3970000000600881f7800180020002c
:104f0000881f780089ff07008f87e9004f04780029
:104f100000000600801feb0084ff07008f87e90078
:104f200000000600889fbe008a9fbe00e00f500070
:104f3000e08f5800e00f5900e08f59000c003d0051
:104f40006044b8006055b8000000540081805c00e7
:104f500002015d0083815d0018002000150007003c
:104f600008003d00180007000004eb0005003700b2
:104f70000004eb000f00070002003d0012000700d4
:104f800018002000dcff07000800e00006003200e7
:104f90006022b8006033b8000000520081805a00df
:104fa00002015b0083815b004f05be004f04be0021
:104fb00000000600e00f5200e08f5a00e00f5b0097
:104fc000e08f5b00000006006044b8006055b80048
:104fd0000402540085825c0006035d0087835d0047
:104fe00000000600889fbe008a9fbe008c1f7800cc
:104ff000e00f5000e08f5800e00f5900e08f59009b
:105000000d003d006044b8006055b8000000540039
:1050100081805c0002015d0083815d001c00200036
:105020000820e10009a8e1000ab0e1000bb8e100a6
:105030000d003d00080037000006eb00e00f5200b5
:10504000e08f5a00e00f5b00e08f5b0006003d0040
:105050006044b8006055b8000402540085825c00ca
:1050600006035d0087835d00aaff07000c00e000d7
:10507000060032006022b8006033b8000000520021
:1050800081805a0002015b0083815b004f0678003b
:105090004f05be004f04be0000000600889fbe0002
:1050a0008a9fbe00841f780095fe07004f0078009d
:1050b00011003300f0ff2f00838f6c0006003b00cf
:1050c000040565000a00a7000800370009f0a600e3
:1050d0001000200008003700820f5400838f5c000e
:1050e000030039001000200001003e0000002000f5
:1050f00009f0a7000000ea004f05be004f04be0003
:105100000000e00000000600881f7800030478001b
:105110000300e00007003d0060001000e080180080
:1051200060011900e081190002003b0001f02d0030
:105130000300370006fe070008f0a70001f0a000fa
:105140004f0478000000060080017800020037005c
:10515000b15978000201e9000200e000fcff3a00ca
:045160000000060045
:020000040000fa
:105164000d0a00002800000078000000293e00001d
:105174000008000020080000000000002e200000ad
:1051840000200000004300006c7500007463000000
:105194006820000064690000736500006e67000009
:1051a4006167000065640000212100002100000007
:1051b400546f000020660000696e000069730000ef
:1051c400682000007365000074750000702c0000f6
:1051d40020730000746100007274000020750000e8
:1051e400702000007468000065200000706f0000eb
:1051f4007765000072200000737500007070000075
:105204006c69000065730000207700006974000079
:1052140068200000636f00006d6d0000616e000087
:105224006420000027570000270d00000a0000003a
:105234004275000073200000506900007261000094
:10524400746500002076000034000000436f000005
:105254006d6d0000756e0000697400007920000017
:1052640046690000726d00007761000072650000fd
:1052740020760000372e0000302000002d20000092
:10528400676f00006f2e0000676c00002f6700003e
:10529400437a0000516e00005720000000200000f7
:1052a40028320000344600004a320000353600003f
:1052b4004742000031300000362000000041000069
:1052c4003300000041350000005500004e4b000043
:1052d4000029000000490000090000004f090000f7
:1052e40000480000090000004c09000000430000d1
:1052f40046470000303a00002000000056700000cd
:10530400753d0000355600002c20000000560000ba
:10531400707500003d330000563300002c2000005f
:10532400004500006e7400006572000020720000e9
:105334006177000020760000616c00007565000054
:10534400206600006f7200002042000052470000f7
:1053540000570000617200006e6900006e67000073
:105364003a200000616c0000726500006164000076
:105374007920000061200000766f00006c7400004a
:1053840061670000652000006f6e00002056000079
:10539400707500006c6c00007570000020700000d7
:1053a400696e0000003e0000001b00005b4400002a
:1053b400001b00005b000000440000001b5b0000b9
:1053c400430000001b5b0000324b00000d00000096
:1053d400430000001b5b0000324400000057000043
:1053e400617200006e6900006e6700003a200000e0
:1053f4006e6f0000207600006f6c00007461000086
:1054040067650000206f00006e20000056700000e9
:10541400756c00006c75000070200000706900005d
:105424006e000000203d00002000000052450000f6
:1054340053450000540d00000a000000436c0000b6
:105444007574000063680000206500006e6700004a
:105454006167000065640000212100002100000054
:105464005652000045470000207400006f6f000092
:10547400206c00006f7700002c200000697300008e
:10548400207400006865000072650000206100005f
:1054940020730000686f0000727400003f00000079
:1054a4002e2000003c000000002e0000003a000006
:1054b400200000003157000030310000005e000081
:1054c400bce20000613f0000dd830000c29c0000dc
:1054d4007e200000a3fd00001f4100009dc30000ca
:1054e400217f0000fca20000401e00005f010000bc
:1054f400e3bd00003e60000082dc0000237d00006c
:105504009fc10000421c0000fea00000e1bf00009b
:105514005d03000080de00003c620000bee000008d
:10552400025c0000df810000633d00007c2200007b
:10553400c09e00001d430000a1ff000046180000ab
:10554400faa40000277900009bc5000084da00005b
:1055540038660000e5bb000059070000db85000049
:1055640067390000bae4000006580000194700003b
:10557400a5fb000078260000c49a0000653b0000eb
:10558400d9870000045a0000b8e60000a7f900001b
:105594001b450000c69800007a240000f8a600000d
:1055a400441a000099c70000257b00003a640000fb
:1055b40086d800005b050000e7b900008cd200002b
:1055c400306e0000edb30000510f00004e100000db
:1055d400f2ac00002f71000093cd0000114f0000c9
:1055e400adf30000702e0000cc920000d38d0000bb
:1055f4006f310000b2ec00000e500000aff100006b
:10560400134d0000ce900000722c00006d3300009a
:10561400d18f00000c520000b0ee0000326c00008c
:105624008ed00000530d0000efb10000f0ae00007a
:105634004c12000091cf00002d730000ca940000aa
:1056440076280000abf5000017490000085600005a
:10565400b4ea000069370000d58b00005709000048
:10566400ebb50000366800008ad4000095cb00003a
:1056740029770000f4aa000048160000e9b70000ea
:10568400550b000088d60000346a00002b7500001a
:1056940097c900004a140000f6a80000742a00000c
:1056a400c8960000154b0000a9f70000b6e80000fa
:1056b4000a540000d78900006b35000052450000f1
:1056c40054550000524e00000000000052550000e6
:1056d4004e0000004c4900005354000000450000f7
:1056e40058490000540000004445000042550000a1
:1056f400470000004e450000570000004c450000e4
:1057040054000000494600000054000048450000d1
:105714004e000000454c00005345000000470000c7
:105724004f5400004f000000474f00005355000045
:1057340042000000524500004d000000505200009d
:10574400494e000054000000494e0000505500002e
:1057540054000000464f000052000000544f000067
:10576400004e00004558000054000000524500005f
:105774004144000000440000415400004100000086
:1057840053540000415200005452000000530000e2
:10579400544100005254000000530000544f0000d4
:1057a4005052000000530000544f0000500000000d
:1057b400534500004e4400000052000045430000e1
:1057c4004549000056450000004300004c4b0000d2
:1057d400004400004154000000420000495400000d
:1057e40052450000414400000041000044430000d1
:1057f4000041000055580000504900004e000000d0
:105804005053000055000000505500004c4c00005f
:105814005550000000440000454c00004159000070
:1058240000410000555800000046000052450000a9
:10583400510000004455000054590000004d000080
:1058440041430000524f0000004500004e44000058
:10585400000000001201000000020000020000002d
:1058640000080000d804000000fb00000200000053
:1058740001020000030100000902000043000000cf
:105884000201000000800000640900000400000020
:1058940000010000020200000100000005240000d5
:1058a40000100000010400002402000002050000b2
:1058b400240600000001000005240000010100008e
:1058c4000107000005810000030a000000400000f9
:1058d4000904000001000000020a000000000000aa
:1058e4000007000005020000024000000000000064
:1058f40007050000820200004000000000040000d0
:1059040003090000042a00000344000000610000b1
:10591400006e0000006700000065000000720000d7
:10592400006f0000007500000073000000200000fc
:105934000050000000720000006f000000740000be
:10594400006f000000740000007900000070000087
:105954000065000000730000001e00000342000008
:1059640000750000007300000020000000500000db
:105974000069000000720000006100000074000073
:105984000065000000200000005600000034000004
:10599400002000000012000003300000003000006e
:1059a4000030000000300000003000000030000033
:1059b40000300000003100000000000042610000df
:1059c40075640000206400006574000065630000d5
:1059d400746900006f6e000020730000656c0000a5
:1059e4006563000074650000642e00002e00000052
:1059f400002000000041000052540000310000006b
:105a040014340000040d000082060000400300006e
:105a1400a0010000cf0000007f000000670000002c
:105a2400440000002200000000000000000000000c
:105a34002c010000000000005802000000000000db
:105a4400b004000000000000600900000000000035
:105a5400c0120000000000008025000000000000cb
:105a64004038000000000000004b0000000000006f
:105a7400807000000000000000960000000000009c
:105a8400c0da00000000000000e100000000000097
:105a940000c200000100000000f40000010000004a
:105aa40000e800000300000014340000040d0000ae
:105ab4008206000040030000a0010000cf000000a7
:105ac4006700000044000000220000007f00000086
:105ad40029000000002000005700000020520000b0
:105ae400004e00006f77000020750000736900000d
:105af4006e670000206f00006e2d0000626f0000d2
:105b0400617200006420000045450000505200000e
:105b14004f4d00002049000032430000206900007e
:105b24006e74000065720000666100006365000029
:105b3400004f00006e2d0000626f000061720000d3
:105b44006420000045450000505200004f4d000005
:105b54002077000072690000746500002070000066
:105b6400726f00007465000063740000206400001c
:105b740069730000616200006c650000640000004d
:105b84004932000043310000009d0000250d000053
:105b9400204800007a000000467200006571000091
:105ba400756500006e6300006965000073200000e5
:105bb4003c200000314800007a200000617200009f
:105bc400652000006e6f00007420000073750000f3
:105bd400707000006f72000074650000642e000095
:105be40000000000436f0000756c0000646e00004c
:105bf40027740000206b0000656500007020000021
:105c0400757000000000000053500000493100008e
:105c140000000000181c00001d0300000b1300000e
:105c24001b000000181c00001d00000030300000a4
:105c3400302c000000300000300000003062000012
:105c440000300000783000003132000033340000ae
:105c54003536000037380000394100004243000067
:105c64004445000046000000314100004c53000050
:105c740001420000507600003400000021000000c2
:105c84000010000000230000000f0000424000004c
:105c9400400500004102000000000000290000004f
:105ca400007500006e6b00006e6f0000776e0000e0
:105cb400206d00006f640000650000005049000082
:105cc400433100000000000042420000494f000040
:105cd400310000005853000056310000000000005d
:105ce4000808000008080000080000000000000088
:105cf4005241000057310000000000004e4f0000e8
:105d0400454d0000530000000000000000000000aa
:0c5d14002900000000000000000000005a
:020000040000fa
:105d20001398810003007800f00fb20002202300d6
:105d300062407800f1ccb30081404000e8cf5000d1
:105d400013003e000000fb000003b1001100200022
:105d5000060037006a02b90000fd2f000400400071
:105d60000201fb00020040008100e80003814000c6
:105d7000f20fb200042023006441790004cdb30087
:105d800004424100e94f5200f2ff36006000370044
:105d900001c3b300814f500059003a008300e8006e
:105da000f10fb20062c1780021c6b300814f5100eb
:105db00003003a000000eb0021002000090037003a
:105dc00021c4b300814f51000f003a00f9ff3700a2
:105dd000000040000003b1000201fb00020040008f
:105de0008100e80003814000f20fb200042023008c
:105df0006441790004cdb30004424100e14f5200f8
:105e0000f3ff36004200370081c7b300814f5100d5
:105e100003003a000000eb002100200010003700d2
:105e200081c5b300814f51001e003a00f9ff3700d1
:105e30004400dd00e9cf520002003e000003b10043
:105e4000040037000254a0000520230082727a006b
:105e50007005b1000201fb00020040008100e80073
:105e600003824000f40fb2000220230062417a0056
:105e700005cdb30085424100e9cf5200ecff36006a
:105e8000f6cbb30006434100e54f5300e8ff360070
:105e9000f6c9b30006434100e54f5300e4ff360066
:105ea0001b003700004251000000eb0011002000f1
:105eb000e94f520016003e000200fb000003b10053
:105ec000060037006a02b90000fd2f000400400000
:105ed0000201fb00020040008100e8000381400055
:105ee000f20fb200042023006441790004cdb30016
:105ef00004424100e94f5200f2ff3600040037002f
:105f000011c0b300403023000148780000000500b4
:105f10001298810082804000f10fb2001198890030
:105f200000000600129881008200e800f10fb20024
:105f300000202300e0c1780010002000a1c3b300be
:105f400081cf510008003a000280e800f00fb20053
:105f50001098890072ff0700119881008100e90004
:105f6000f10fb2001198890000000600129881001c
:105f70008200e800f10fb20000202300e0c17800a9
:105f80000000eb00b1c3b30081cf510008003a001c
:105f90000280e800f00fb2001098890060ff07004f
:105fa000119881008100e900f10fb2001198890079
:105fb00000000600119881008100e800f10fb20096
:105fc0000020230060c1780080c7b300804f5100db
:105fd00002003a00119889001000050040c6b30085
:105fe000804f510002003a001198890020000500fe
:105ff00020c6b300804f510002003a00119889007a
:10600000300005000040eb0073c7b300834f510020
:1060100002003a001198890040c0b3000000060059
:1060200010988100020037000000e800f00fb20075
:10603000012023006141780001c2b300814f51006b
:10604000f9ff32001098890000000600e887470039
:10605000889fbe008a9fbe008c9fbe008e1f780066
:106060000004be000205be00208b2a00c8a4020066
:10607000000000000800e00004003d00608b2a00e2
:10608000c8a40200000000000300370008407800a8
:106090009aa3020000000000808b2a00c8a402001e
:1060a000000000000007eb000006eb002d003700a9
:1060b0000c00e000050032000c06e900b08b2a005d
:1060c000c8a4020000000000260037000e00e00017
:1060d00021003200b08b2a00c8a40200000000009a
:1060e0000007eb001f0037000c00e0001a003a0028
:1060f0000d4078008ca30200000000001e0020006c
:10610000180037000b00e00043003a0000cdb30058
:1061100000c04600e94f50000f003e00e30f56005c
:106120000500340070c0b3008ca302000000000022
:106130004c0020000b0037000d4078008ca30200bb
:10614000000000008d4078007480570001707e00d0
:106150000c06e8000300370070c0b3008ca30200f7
:106160000000000060a602000000000080467800e9
:10617000edcf56000d00320005003c00e8cf560080
:10618000cbff3200eacf5600e0ff3a0007003700ad
:10619000d0c2b30080cf5600d3ff320080c7b30017
:1061a00080cf5600d9ff3a00d6ff3700f08b2a0087
:1061b000aea40200000000000c00e0001900320054
:1061c000f58057000000eb00040037006a01b900b9
:1061d0005100fb000003b100020040000c06e90082
:1061e000faff3b00890f5000060035008a0f50006f
:1061f00004003c000e00e000090032000004ea0048
:1062000008003700b101200060fe20008abd0200b6
:106210000000000094ff37000084eb00010037000d
:1062200000047800080078004f0778004f06be0091
:106230004f05be004f04be008f00b10000000600f5
:106240001e00fa00889fbe008a9fbe001998810038
:106250008904e900f90fb200180020002700370078
:1062600000202300e0c07c000104e00021003a008f
:106270000905e800fa0fb20060407d000004e0006c
:106280001c003200084078009aa3020000000000c1
:10629000008c2a00c8a40200000000001b0020009f
:1062a000030037008ca30200000000008b05e8000b
:1062b00009804500f00fb200012023006140780002
:1062c0000004e000f7ff3a00080044000a017800eb
:1062d000a1fd2f008f804000823078000804e80084
:1062e000ef0f540008003200f08b2a00aea4020029
:1062f000000000008904e900f90fb2001098810045
:10630000808f5400d6ff3a00308c2a00aea40200e1
:106310000000000071002000708220008abd020091
:1063200000000000130020000801780083007800be
:106330000000eb0045ff07008000e800e18f5000ff
:106340000700360000004000a1fd2f008f804000b4
:10635000e1027800049881000000eb00090037009a
:10636000f08b2a00aea40200000000001000200004
:106370001600370084004000f10fb20003f17800ee
:106380000000e80085004000f10fb2000220230069
:10639000e2c178000304e000f6ff3a0001988100b2
:1063a0008100e900f10fb200119889008180e800b6
:1063b00000804000f00fb200009889000000e90062
:1063c000f00fb200037178000000eb004f05be0033
:1063d0004f04be000080fa0000000600889fbe0047
:1063e0008a9fbe00109881000000e800f00fb20004
:1063f000109889000aff070049fe07000000e0002e
:1064000039003a000005eb000a40e8009aa30200b8
:1064100000000000008c2a00c8a402000000000058
:106420000903200009d0b9008002b000c8c62200cc
:1064300008004000aea40200000000000a05e800c9
:10644000eb0f5500f0ff3a0071012000c07b2000e7
:106450008abd020000000000403023000048eb002d
:10646000130020000a017800830078000300780000
:10647000f6fe07000005e9000000e800e10f50000b
:1064800003003e00e1002000307d20002f00370097
:1064900080a681000980b9002002b0006800780061
:1064a0000000010074ba0200000000008aa6890002
:1064b00009d0b900fe04400068807c0000000100a3
:1064c000508c2a00aea40200000000000a00e00088
:1064d00019003200cb02a800a08d2a00aea4020051
:1064e00000000000140037000004e900ea0f540027
:1064f00014003c000a03200080a681000a80b90035
:106500002002b000c9c62200690078000000010026
:1065100074ba02000000000088a689000ac5b9000c
:106520007e05450069007d00000001000800e000d4
:1065300001003200cb02a80051002000b06520000d
:106540000200370051012000208120008abd020096
:1065500000000000009881000000e900f00fb20088
:10656000109889004f05be004f04be0000000600d1
:10657000f2874700889fbe008a9fbe008c9fbe00a6
:106580008e1f78000004be0002057800f4b79f005b
:1065900085bf9f0003077800208b2a00c8a4020053
:1065a00000000000e00f5400e08f5c0004003d009c
:1065b000608b2a00c8a4020000000000030037001e
:1065c0000800be004aa4020000000000808b2a00e0
:1065d000c8a40200000000008005eb000006eb00ec
:1065e0002d0037000c00e000050032000c06e90029
:1065f000b08b2a00c8a4020000000000260037006b
:106600000b00e00021003200b08b2a00c8a4020079
:10661000000000008005eb001f0037000c00e000c8
:106620001a003a000d4078008ca302000000000020
:106630001b002000180037000e00e0004e003a005a
:1066400000cdb30000c04600e94f50000f003e00ef
:10665000e90f56000500340070c0b3008ca302009f
:1066600000000000ac0020000b0037000d40780057
:106670008ca30200000000000d417800fe8057004e
:1066800082707e000c06e8000300370070c0b30083
:106690008ca302000000000060a6020000000000c1
:1066a00080467800edcf56000d00320005003c001a
:1066b000e8cf5600cbff3200eacf5600e0ff3a00a9
:1066c00007003700d0c2b30080cf5600d3ff32009e
:1066d00080c7b30080cf5600d9ff3a00d6ff3700fd
:1066e000f08b2a00aea40200000000000c00e000c5
:1066f00025003200ff8657006000b800090037000f
:10670000a2002000030020003e260200000000003e
:106710005d01fb000203b100cf91de0000004100eb
:10672000818049000c06e900f5ff3b006151b9008a
:10673000820f5000838f58000a0035007fb1970008
:106740008fb99700820f5000838f580005003c00de
:106750000b00e0000b00320060041000e084180021
:1067600009003700b101200060fe20008abd020050
:106770000000000088ff37000084eb008084eb00fd
:10678000010037000004be000800be004f0778007b
:106790004f06be004f05be004f04be002f01b100e2
:1067a00000000600881f7800a0912a00aea4020015
:1067b0000000000080922a00c8a40200000000002f
:1067c000b0c5b3008ca30200000000000004eb0081
:1067d000050037000800e0000300320000c2b300eb
:1067e0008ca30200000000000203200002c1b900d7
:1067f00041c9220001004100c8a4020000000000bd
:106800000804e800eb0f5400f2ff3a00d0c5b300d3
:106810008ca3020000000000f08b2a00aea402004e
:1068200000000000610020009084200044bd0200b0
:106830000000000090a68100cea50200000000002c
:1068400071002000f0fd200044bd020000000000a7
:10685000a0a68100cea502000000000010952a002d
:10686000c8a4020000000000a0a68100e10f5000b3
:1068700003003200e30f500005003a000200370029
:1068800010962a000300370040962a0001003700c6
:1068900070962a00c8a4020000000000b0962a00ea
:1068a000aea4020000000000e1012000f0842000fe
:1068b0008abd0200000000004f04780000000600be
:1068c000d802b60002003200d0962a00010037003c
:1068d00000972a00c8a4040000000000da02b600f5
:1068e0000200320030972a000100370060972a002a
:1068f000c8a4040000000000a1002000201921000d
:106900008abd02000000000061052000703a2100ed
:106910008abd02000000000041022000d03f21009b
:1069200044bd0200000000000003200081a6810099
:106930000088b9004002b000c1c6220061007800a2
:1069400000000100a1002000601b210044bd0200e6
:106950000000000010002000d9ff070000102000f8
:10696000d7ff070000022000d5ff0700000120002c
:10697000d3ff070080002000d1ff07004000200067
:10698000cfff070020002000cdff0700f08b2a007a
:10699000aea40200000000004100200000232100fe
:1069a00044bd02000000000021e3a80020002000f8
:1069b000d0ba020000000000e2a3020000000000c4
:1069c00011002000b037200044bd0200000000008c
:1069d00090c0b3008ca30200000000000000eb0098
:1069e000d0ba020000000000e2a302000000000094
:1069f00011002000b037200044bd0200000000005c
:106a000090c0b3008ca302000000000050002000e2
:106a1000d0ba020000000000e2a302000000000063
:106a200011002000b037200044bd0200000000002b
:106a300090c0b3008ca302000000000010002000f2
:106a4000d0ba020000000000e2a302000000000033
:106a500011002000b037200044bd020000000000fb
:106a600090c0b3008ca302000000000021e3a90045
:106a70001000200099ff07000010200097ff07007a
:106a80000002200095ff07000001200093ff07008f
:106a90008000200091ff0700400020008fff0700ca
:106aa000200020008dff0700f08b2a00aea4040018
:106ab0000000000090972a00c8a402000000000017
:106ac000a17f25001000200078a302000000000034
:106ad000cea502000000000000c2b3008ca302009b
:106ae0000000000051002000c0a3200044bd0200af
:106af00000000000c17f25001000200078a30200e4
:106b000000000000cea5020000000000610020008f
:106b100010a4200044bd020000000000e17f250019
:106b20001000200078a3020000000000cea50200a3
:106b300000000000f08b2a00aea40200000000005c
:106b4000c1002000d08620008abd020000000000a5
:106b500069ff0700cb22ab000300320011012000c7
:106b60000071200002003700210120001072200077
:106b700044bd020000000000c0c2b3008ca30200ac
:106b80000000000000c2b3008ca30200000000005f
:106b9000e282ab000300320041012000d06b2000f4
:106ba0000200370051012000806a200044bd02002d
:106bb00000000000c0c2b3008ca30200000000006f
:106bc00000c2b3008ca3020000000000e8a2ab00ea
:106bd00003003a0000982a00c8a402000000000048
:106be000e882ab0003003a0090982a00c8a4020093
:106bf00000000000404b230010407800704060000f
:106c0000030032002102200090872000020037009c
:106c1000e1012000b08920008abd020000000000d0
:106c2000404b2300104078006840600003003a00a9
:106c3000b1012000908b200002003700c10120002c
:106c4000408d200044bd020000000000c0c2b3001f
:106c50008ca302000000000000c2b3008ca302005d
:106c600000000000b10120000035210044bd0200f9
:106c700000000000304a2300104078009aa3020070
:106c800000000000f08b2a00aea40200000000000b
:106c9000404b230010407800634060000080fb0000
:106ca000e20f50000a003200e30f50000b003200e8
:106cb000e10f500003003200510120006067200006
:106cc0000800370061012000006620000500370041
:106cd00071012000b0452100020037007101200041
:106ce000204721008abd02000000000000032000b0
:106cf00081a681000088b9006002b000c1c62200f0
:106d00006100780000000100c1002000d086200052
:106d10008abd040000000000109881000000e80017
:106d2000f00fb20010988900bdfc0700fcfb0700c3
:106d30000000e900e30f500002003e0070a6890049
:106d40000d003700403023000048eb0021022000f6
:106d5000d08f20008abd0200000000008001eb00ff
:106d6000420020001100200010002000b7fc0700a6
:106d7000e14c23008008e90021012000f09120006f
:106d80008abd040000000000881f78001098810070
:106d90000000e800f00fb20010988900a0fc070086
:106da000dffb07000040e900e94f500003003e0010
:106db000c14c2300804878000d003700403023008c
:106dc0000048eb00e10b2000c09520008abd0200c6
:106dd000000000008001eb00a20020001100200054
:106de0009000200099fc0700c14c23008048e90076
:106df0000044eb00c04c230091c0b30090cf1000c2
:106e000010003a0086fc0700c5fb0700004478002c
:106e10000004e0000b003a00413023008048780075
:106e200030992a00aea40200000000008001eb00af
:106e3000f2ff27008000eb002002200083fc070007
:106e40000044780041012000a0a120008abd02007a
:106e50000000000011012000f03321008abd020073
:106e6000000000004aa60200000000000004e0004c
:106e7000fcff3200c04c230091c0b30090cf100043
:106e800003003a000840780072a6020000000000eb
:106e900070a602000000000060a6020000000000d2
:106ea00001c2b300814f5000fbff3a004f0478004d
:106eb0000000060080a681000000e00003003a0008
:106ec000d1012000b068200006003700404b2300ad
:106ed000104078007040600008003a002102200055
:106ee000d0fb20008abd02000000000011c0b300ea
:106ef000403023000148780000000600e8a2a80006
:106f0000e882a80020002000f6bb0200000000007c
:106f100021e3a80050002000d0ba020000000000c9
:106f200001102000810f500003003600b09a2a00a3
:106f3000aea402000000000021e3a9001098810027
:106f40000000e800f00fb2001098890034fc070040
:106f500073fb0700413023001104e0000a003200f7
:106f60008048eb0071052000504a21008abd0200d4
:106f7000000000008001eb00320020001100200022
:106f80001000200031fc0700e20f50000300320027
:106f9000e30f500015003a0006003700e8a2a800f1
:106fa000ea82a900e882a9004100200000c6200072
:106fb00005003700e882a800eaa2a900e8a2a9001b
:106fc00021002000b0c5200044bd020000000000e8
:106fd00091012000c04f210044bd020000000000cc
:106fe000710020005051210008003700e8a2a800dd
:106ff000e882a80091012000c04f210044bd02009a
:107000000000000081002000c05121008abd040062
:1070100000000000ec874700889fbe008a9fbe00ea
:107020008c9fbe008e1f78000000eb001098890036
:1070300000988900004d23000008eb004030230039
:107040000048eb000000eb00080037000069eb008f
:107050008100e80003022000838f5000fbff3a000c
:107060000000e800e50f5000050032004501dd009a
:1070700041302300010141008000eb00f3ff3700a5
:107080000000eb00309d890080ef9f008005eb0041
:107090008004eb006066b800dcb79f000007eb00df
:1070a0000004eb000003200082a681000091b900db
:1070b00041c9220001004100c8a4020000000000f4
:1070c00000402000614d23001100600004003200e8
:1070d000710020004065200044bd02000000000057
:1070e000509d2a00c8a4020000000000309d8100cd
:1070f0000000e000410032000000e900309d8900fe
:107100000005eb000a0037000198810002202300ef
:1071100000f178008ca30200000000000a05e800de
:10712000009881000000e800f00fb200009889008c
:10713000309d81004500dd000000450051302300f6
:10714000614078000004e000efff3a000000eb002f
:10715000309d890029003700404b23001040780003
:1071600064406000240032000103200082a68100f8
:107170000191b9007a004100cac622006a00780075
:10718000f1b79f0000000100ffb097000004e0008d
:107190001900320080a681000180b9008102200020
:1071a000808040008a80400001007800c8a402006e
:1071b00000000000509d2a00c8a40200000000004a
:1071c0001a98810000988100800f550007003a004e
:1071d000090037000020230060407d008ca30200de
:1071e00000000000fa0fb2000a05e80000988100d4
:1071f000800f5500f7ff3a00901680004ca6020061
:10720000000000000004e000d3ff320068a6020086
:1072100000000000804078000104e000030032001c
:107220006ea6020000000000b0ff3700f1b79f001b
:1072300060a602000000000000457800ffb0970043
:10724000e84f5500200032000f003e00e24f55008d
:107250008d00320005003e000a04e000b701320054
:10726000e14f5500bc013a007f013700e54f550062
:107270008c013200e64f550090003200e44f55007b
:10728000b5013a0038003700ee4f5500f1003200ea
:1072900005003e00ea4f550091013200ed4f5500c8
:1072a000ad013a008e013700fb4f5500500032000f
:1072b000f0c7b300804f55002b003200f04f55004f
:1072c000a5013a008400370010988100808f540097
:1072d000e90132000900e90002988100828f540020
:1072e00007003a0080047800f90fb200099889007d
:1072f0000020230001f07c00b08b2a0079ff3700ca
:1073000080047800f90fb200709d2a00c8a4020022
:1073100000000000890078000005eb000e00370037
:107320000101e800e2b79f0002202300efb19700bf
:1073300062c0790000f178000004e00001003a002a
:1073400000c2b3008ca30200000000000a05e800a0
:10735000efb09700f10fb20000988100808f5000cd
:10736000efff3a001700370000988100808f54002b
:10737000c1013200890078000005eb000e003700e3
:107380000100e800e0b79f000220230080017800a0
:1073900062c0790000f178000004e00001003a00ca
:1073a00000c2b3008ca30200000000000a05e80040
:1073b000efb09700f10fb20000988100808f50006d
:1073c000efff3a008100e900f10fb2000198890057
:1073d000b09d2a00c8a40200000000000a40780006
:1073e0009aa3020000000000e09d2a003dff370044
:1073f00060a6020000000000b1c5b300814f50003c
:107400003aff3a0060a602000000000011c4b30079
:10741000814f50003000320007003e00f0c05000a5
:10742000814f50000c003200e3c04000814f5000fb
:107430002eff3a000e00370031c4b300814f5000d8
:107440001e003200830039008140e800814f500067
:1074500026ff3a000c00370060a602000000000082
:10746000e1c7b300814f500020ff3a00fe00370013
:1074700060a6020000000000e1c7b300814f500089
:107480001aff3a0007013700e48f56000400340069
:107490001ebd0200000000008006eb0013ff370055
:1074a00010988100808f5400730132008904e90034
:1074b000f90fb200709d2a000aff37000098810082
:1074c000808f54006c0132008904e800f90fb2008b
:1074d000009e2a0003ff3700129881000205e90090
:1074e000fa0fb200019881008001eb0053003700d1
:1074f0000420230064407d000004e0004d003a00b9
:107500000a00e900f00fb200644278000404e000d1
:10751000480032008301e8008b8f5100450036009f
:107520008b05e800810f510005003a000a00370082
:107530000042eb0084f178008100e900f10fb20015
:1075400003202300828f5000f9ff3a000198890040
:107550000041eb0082f178000198810009003700ba
:1075600002202300624178000204e00003003a0098
:107570000006e800fc0fb200040037000000e9003c
:10758000f00fb200810f5000f5ff3a00409e2a0034
:10759000c8a40200000000000003200082a68100b1
:1075a0000091b90041c9220001004100c8a40200b5
:1075b0000000000000402000614d23001100600029
:1075c00004003200710020004065200044bd02002c
:1075d00000000000509d2a00c8a402000000000026
:1075e0008c0478000c00370061c07c00f1b79f006c
:1075f0008ca302000000000000988100ffb09700fb
:1076000069f078000000e800f00fb20000988900ef
:107610008904e800f90fb200012023008a8f54008a
:10762000f1ff3a00099881000040eb0080f07c00f7
:10763000040037000a05e900fa0fb200810f550077
:10764000abff3a0000988100800f5500a7fe3a007a
:1076500009013700139881000305e900fa0fb20011
:10766000019881000001eb00540037000420230042
:1076700064407d000004e0004e003a000a00e9008a
:10768000f00fb200644278000404e00049003200c8
:107690000201e8000b02e900840f510045003a00a6
:1076a00082057800818f510005003a000a003700fa
:1076b0000042eb0004f178008100e900f10fb20014
:1076c00002202300838f5000f9ff3a0001988900bf
:1076d0008041eb0003f17800019881000900370038
:1076e00002202300624178000204e00003003a0017
:1076f0000006e800fc0fb200040037000000e900bb
:10770000f00fb200810f5000f5ff3a00409e2a00b2
:10771000c8a40200000000000003200082a681002f
:107720000091b90041c9220001004100c8a4020033
:107730000000000000402000614d230011006000a7
:1077400004003200710020004065200044bd0200aa
:1077500000000000509d2a00c8a4020000000000a4
:107760008c0478000c00370061c07c00f1b79f00ea
:107770008ca302000000000000988100ffb0970079
:1077800069f078000000e800f00fb200009889006e
:107790008904e800f90fb200012023008a8f540009
:1077a000f1ff3a00099881000040eb0080f07c0076
:1077b000040037000a05e900fa0fb200810f5500f6
:1077c000aaff3a0000988100800f550047fe3a005a
:1077d000e18f5500a8003a00409e2a00c8a402008c
:1077e000000000000003200082a681000091b90083
:1077f00041c9220001004100c8a4020000000000ad
:1078000000402000614d23001100600004003200a0
:10781000710020004065200044bd0200000000000f
:10782000509d2a00c8a402000000000011988100a9
:1078300009988100040037000041eb0002f07c0051
:107840008904e900f90fb20000202300818f540061
:10785000f9ff3a00099889008040eb0001f07c00b4
:107860008005eb0021fe37001a9881008a8f5400b2
:1078700081003200b09d2a00c8a402000000000070
:107880000a805400f00fb2009aa30200000000002a
:10789000e09d2a00c8a402000000000019988100a1
:1078a00012fe37000a9881008a8f5400720032005d
:1078b000b09d2a00c8a40200000000000900550085
:1078c000f00fb2009aa3020000000000a09e2a0060
:1078d000c8a40200000000000998810003fe3700e0
:1078e000099881008040eb000020230001f07c001b
:1078f0008904e800f90fb20009988900f08b2a008a
:10790000aea40200000000000e98810010988100d3
:10791000d0b79f00403023000048eb00004020001b
:10792000614d23001100600057003a008005eb0014
:107930008040eb0081ef9f005d0037008d06e8007e
:10794000f48f5600e9fd3a00ceaa020000000000c4
:107950008006eb0085013700019881000100e800f6
:10796000f00fb20012988100820f500042003200e6
:10797000ff4f550040003600e0c7b300804f550070
:107980003d003e00898f50000c003a000a4078000c
:107990008ca3020000000000099881000020230051
:1079a0000af07c008904e800f90fb2000998890008
:1079b0008040eb0001f07c00ccfd3700b09d2a0038
:1079c000f1b79f00c8a4020000000000ffb09700bc
:1079d00009805000f00fb2009aa3020000000000de
:1079e000a09e2a00c8a402000000000001988100a7
:1079f0000f00370001004100e2c1780013409800f9
:107a000062c078000004e00007003200f1b79f0078
:107a10008ca3020000000000c09e2a00c8a402003f
:107a200000000000ffb097008100e900f10fb200f4
:107a30000900e900f00fb20002202300808f5000ff
:107a4000ecff3a000a40780082bf9f008ca302003e
:107a5000000000000fb997000af17c008904e800db
:107a6000f90fb200009881000000e800f00fb200aa
:107a7000009889009dfd370070c0b3008ca3020000
:107a80000000000099fd37009a5e0200000000002f
:107a900051002000b06520008abd020000000000f7
:107aa0008005eb000040eb0080ef9f00e60337000d
:107ab000109881000004eb00012023006141780050
:107ac0000281fb008001eb00e1072000810f5100e3
:107ad000e08f5900b9033e0002600100bb0337008c
:107ae000b6033700b5033700b4033700b3033700dc
:107af000b2033700b1033700b0033700af033700dc
:107b0000ae033700b1033700ac033700ab033700d7
:107b1000ae033700a9033700a8033700a7033700d7
:107b2000a6033700a5033700a4033700a3033700db
:107b3000a2033700a1033700a00337009f033700db
:107b40009e0337009d0337009c0337009b033700db
:107b50009a03370099033700980337009b033700d7
:107b60007a03370039023700fc0037000101370083
:107b70009a01370088013700900337001702370059
:107b80008e0337008d0337008c0337008f033700d7
:107b900033033700470337001f03370074023700f1
:107ba000730237007202370071023700700237002b
:107bb0006f0237006e0237006d0237006c0237002b
:107bc0006b0237007d0337007c033700a7013700c5
:107bd000b800370079033700470037000c01370041
:107be0000201370075033700660037006701370070
:107bf0007203370071033700700337006f033700db
:107c00006e0337006d0337006e00370073003700d6
:107c10006a033700690337006803370086003700be
:107c200066033700650337008101370063033700bf
:107c30006203370061033700070137005f03370035
:107c40005e0337005d03370034023700fb02370064
:107c50003d023700250337000a033700570337007a
:107c6000d9003700300037003e0037003e013700b2
:107c70008e0037003200370034003700160037001e
:107c8000200037004d03370046003700580037000a
:107c90002300370049033700250037005e00370016
:107ca00046033700920237005d0137004303370077
:107cb00042033700200037001a0137003f03370026
:107cc0003e0337003d0337001a0237007f003700bc
:107cd000220237009600370059f907000004eb0034
:107ce0000000e00039033a0012988100d2b79f00eb
:107cf0000e9881003503370092bd0200000000009d
:107d000031033700a7fa07000004eb0080a68100ca
:107d10000000e0002d03320066fb07002b03370054
:107d2000aef907002803370017fc070026033700c9
:107d3000f9fb070024033700effa0700220337009e
:107d4000d0820200000000001f03370080a68100df
:107d50000000e000390132006680020000000000ef
:107d600019033700404b2300c1cfb30010c8600097
:107d700061012000006620008abd020000000000b2
:107d800011033700414b2300114078000000a00090
:107d90000014a10080487800510120006067200095
:107da000f5ff3700414b2300114078000000a1008f
:107db0000014a0008048780071012000b045210027
:107dc000edff3700404b23009041780063c87100fd
:107dd0007101200020472100e7ff3700404b2300be
:107de0001034a000c1012000408d200004003700a5
:107df000404b23001034a100b1012000908b2000e3
:107e000044bd020000000000f08b2a00aea4020076
:107e100000000000ec02370080a681000000e000b6
:107e200006013200e282a900e082a900510120008f
:107e3000806a2000f2ff370080a681000000e00089
:107e4000fe003200404b230010407800704060007c
:107e500004003a0021022000d0fb20008abd02006d
:107e600000000000e082a800e282a9004101200099
:107e7000d06b200044bd020000000000f08b2a00ff
:107e8000aea402000000000021e3a8005000200082
:107e9000d0ba020000000000f1042000810f500061
:107ea0009e003e00109f2a009a00370001fc070048
:107eb000c50237000000e800f00fb20010988900fa
:107ec00057f8070096f70700080037000000e800a1
:107ed000f00fb2001098890051f8070090f70700e2
:107ee0000080fb0018bc02000000000000047800c5
:107ef00008007800faa502000000000040a12a0056
:107f0000c8a4020000000000084078009aa3020004
:107f10000000000040a12a00c8a4020000000000e8
:107f20000840780088a5020000000000b6ff370076
:107f300080a681000000e00005003a0011c0b300f7
:107f40000140780010a10200000000009e023700ee
:107f5000a1012000106d200087ff370080a12a00ba
:107f6000c8a40200000000000004eb000dfa0700a6
:107f7000960237001cbe0200000000000004eb0067
:107f80000004e00091023200a1002000006f2000f8
:107f90008abd02000000000040062000f6bb02007f
:107fa0000000000074ba0200000000004aa60200af
:107fb000000000000004e000fcff320081bf2a0046
:107fc0000140010080023700d6f707000004780066
:107fd00003003700f8850200000000000804e900f3
:107fe0000800e000fbff3a0078023700cdf70700f9
:107ff0000004780003003700c6850200000000007e
:108000000804e9000800e000fbff3a006f023700b7
:10801000c4f70700000478000c003700610120005d
:10802000a06f200044bd0200000000002a8602006c
:108030000000000018a6020000000000f08b2a00db
:10804000aea40200000000000804e9000800e000ff
:10805000f2ff3a005d02370080a681000000e000d8
:1080600076003200c922a900cb22a80021e3a80093
:1080700020002000f6bb0200000000000000eb0022
:10808000d0ba020000000000011b2000810f500048
:108090001600360020002000d0ba020000000000c8
:1080a000712b2000810f50001000360011012000bc
:1080b0000071200044bd020000000000f08b2a0087
:1080c000aea40200000000000003200081a6810091
:1080d0000088b9000002b000c1c62200610078002b
:1080e0000000010000a22a000a003700c922a900ee
:1080f000cb22a90020a32a00aea4020000000000a9
:10810000210120001072200044bd02000000000088
:10811000f08b2a00aea402000000000021e3a900b9
:108120002902370080a681000000e00043003200f1
:10813000010320000180b9002002b000c1c6220066
:108140006100780000000100508c2a00aea40200fb
:1081500000000000c922a900cb22a90021012000b3
:108160001072200026ff3700f1002000c0362000ea
:1081700044bd020000000000deba02000000000062
:1081800011002000b03720001dff3700ecba0200bc
:10819000000000000c02370062f7070000047800be
:1081a00061002000f073200044bd020000000000c8
:1081b000080078000aa4020000000000210020004e
:1081c000507420008abd0200000000000800780002
:1081d000cabb020000000000fb01370051f7070096
:1081e0000004780061002000f073200044bd02000c
:1081f00000000000080078000aa40200000000004f
:1082000021002000100021008abd020000000000b3
:1082100008007800f6bb020000000000ea01370009
:10822000b0a6810000a0a000b0a68900e60137003a
:1082300080a681000000e00003003a00d101200088
:10824000b0682000ccfe37007086020000000000fd
:10825000dd013700e4c3b300844f510001003a0050
:108260008041eb008100e8000200370013c0b3003a
:108270001100200000814000f20fb2000420230012
:10828000644179000204e000f2ff3a00423023002a
:108290000349780023022000838f5000020034003d
:1082a00011c0b300014978000004eb004a302300fc
:1082b0001a04e000c5013a000000e800f00fb20027
:1082c0001098890096f60700000478001098810045
:1082d00080007800f10fb2000220230062c1780014
:1082e000d1c3b300814f51001c003a000804e900db
:1082f000e40f540036003e000000e800f00fb2002a
:10830000109889004544dd004030230000044400fb
:10831000880078000000eb008068eb000000e800b7
:1083200002022000820f5000fbff3a0010988100eb
:1083300003003700016c78000000e800f00fb20085
:1083400001202300e1407800e2c3b30082cf500057
:10835000f8ff3a00109889009b0137000800e00000
:1083600013003a005a30230018002000084078001b
:108370009aa302000000000020a52a00c8a4020061
:10838000000000000a007800c8a4020000000000fd
:10839000509d2a00aea40200000000000804e8007e
:1083a0000a02b000e60f5400f0ff3a0086013700e1
:1083b0000800e900e40f500005003e00f08b2a00a1
:1083c000aea4020000000000389d89007e01370045
:1083d00010c0b300004d78007b0137000000e800ba
:1083e000f00fb200109889004df6070000047800e5
:1083f0000bf7070011988100f10fb2000020230055
:10840000e0c0780090c2b30080cf50006b013a000a
:108410000003200081a681000088b9007c00400094
:10842000c1c62200e10078000800780001000100c8
:1084300075fe370024c2b30084cf510001003a001a
:108440008040eb000201e8000200370011c0b300d9
:108450001200200080014100f30fb200042023002d
:10846000e4c179000304e000f2ff3a004030230049
:10847000014878000004eb000104e00053013a00d9
:10848000710020007074200044bd02000000000054
:1084900020c2b3008ca302000000000013003700cc
:1084a000119889008ca30200000000001098810040
:1084b000684078000000fb00414b230091407800a9
:1084c000e8c060000200320018bc0200000000009a
:1084d0000103200082a681000191b900e80041005b
:1084e000c2c62200e28078000100010011988100dc
:1084f0008100e800f10fb2000820230068c0780076
:1085000022c2b300824f5000e5ff3a001198890063
:108510008ca30200000000003bfe37000003200097
:1085200081a681000088b900c2c6220062007800de
:10853000de0037000003200081a681000088b9001a
:108540000080e800d70037000003200081a68100ea
:108550000088b90064004000d2003700000320000a
:1085600081a681000088b90066004000cd00370078
:10857000710020007074200044bd02000000000063
:10858000e7f5070000047800109881000000e9007a
:10859000f00fb2001098890062f60700000578001d
:1085a00072f607000000e0004e003200314a23005e
:1085b00080487800f1804000e80f5000020034004d
:1085c0001154a000470037001154a10045003700a6
:1085d000080078003ebb020000000000404b230072
:1085e00002c2b30090406100710050000104e0003d
:1085f00004003a0083c0b30090cf110004003a0099
:108600000a00370001c1b30090cf1000070032000c
:10861000b0c3b3008ca3020000000000304a230066
:10862000104078009aa3020000000000404b230095
:1086300010407800684060000400320008007800b4
:1086400018bc0200000000000004780000032000b5
:1086500081a681000088b90068004000c1c62200e0
:10866000e1007800080078000100010000017800b6
:1086700000c2b30082bf9f008ca302000000000074
:10868000434b230001c4b30013c060001400320048
:1086900061002000e0742000f3b79f0044bd020099
:1086a00000000000ffb197009341780068c06100ae
:1086b0000fb99700040032000200780018bc0200d5
:1086c0000000000000017800020078003ebb0200bc
:1086d0000000000000c2b3008ca3020000000000f4
:1086e0000a05e9000a00e000b9ff3a00c6fd3700bc
:1086f00061002000e074200044bd02000000000082
:108700002cf607000044780006f607000005780004
:1087100016f607000000e00008003200314a23008e
:1087200080487800f1804000e80f500002003400db
:108730001154a000010037001154a1000804e0000a
:108740002d00320070a6810080ef9f008880fb0022
:10875000e04c23000108e900270037000003200057
:1087600081a681000088b9006a004000c1c62200cd
:108770006100780000000100414b23009140780027
:10878000e8c060000200320018bc020000000000d7
:108790003ebb020000000000404b230002c2b300b9
:1087a00090406100710050000104e00004003a00b4
:1087b00083c0b30090cf110004003a000a003700d4
:1087c00001c1b30090cf100007003200b0c3b30066
:1087d0008ca3020000000000304a23001040780003
:1087e0009aa302000000000000c2b3008ca30200a4
:1087f000000000000a05e9000a00e000d7ff3a0087
:108800000804e00080fd32000fe997000280fb00c1
:1088100070a689007cfd3700810020004075200093
:108820008abd0200000000000003200081a6810034
:108830000088b9006c0040001a0037008100200059
:10884000c07520008abd0200000000000003200067
:1088500081a681000088b9006e0040001100370039
:10886000e1002000407620008abd020000000000e8
:108870000003200081a681000088b900700040003c
:1088800008003700e1002000207720008abd0200a8
:10889000000000000003200081a681000088b900cc
:1088a00072004000c1c62200610078000000010093
:1088b00045003700c10020003073200044bd020095
:1088c000000000000003200081a681000088b9009c
:1088d00074004000c1c62200610078000000010061
:1088e00018a6020000000000370037008df50700d1
:1088f00000047800d10020000079200044bd02006f
:1089000000000000080078003ebb020000000000ec
:10891000080037000003200081a681000088b9000c
:1089200076004000c1c6220061007800000001000e
:108930000804e9000800e000f6ff3a00f08b2a0086
:10894000aea40200000000002000370075f507000b
:1089500000047800a1002000d079200044bd02006e
:10896000000000000e0037000003200081a68100f7
:108970000088b90078004000c1c62200610078007c
:10898000000001000080fb0018a6020000000000ab
:1089900000c2b3008ca30200000000000804e9003c
:1089a0000800e000f0ff3a000101200000782000fc
:1089b0008abd0200000000000400370011c0b300af
:1089c00040302300014878000004eb00109881003b
:1089d0000000e800f00fb20010988900403023003a
:1089e0001004e0000f00320051012000707a2000d6
:1089f00044bd02000000000011988100afe997001b
:108a000003c050009aa30200000000004030230081
:108a10000048eb00f08b2a00aea40200000000002a
:108a2000180020000098810011988100808f50006c
:108a3000050032000800e0001dfc32001e9889008d
:108a40000e98890097f9370018002000fbff3700c7
:108a50005752490054452000424954003a20200012
:108a60002a6e650078742000636c6f00636b2000d1
:108a7000285e2900207769006c6c20007573650002
:108a8000207468006973200076616c0075654e0083
:108a90006f2064006576690063652c0020747200a5
:108aa00079202800414c4100524d290020534500b7
:108ab0004152430048206d00616372006f206600e0
:108ac00069727300744144004452450053532000be
:108ad0004d414300524f200020302e004d61630075
:108ae000726f20006d656e00754d610063726f00de
:108af00020202000202031005749520045206100ed
:108b000064647200657373000d0a200020202a003f
:108b10003157490052452000524f4d0020434f002d
:108b20004d4d41004e4420004d414300524f7300d3
:108b30003a0d0a00203531002e52450041442000f4
:108b4000524f4d00202830007833330029202a006e
:108b5000666f7200207369006e676c0065206400a8
:108b60006576690063652000627573000d0a200058
:108b700038352e004d41540043482000524f4d00df
:108b8000202830007835350029202a00666f6c00d7
:108b90006c6f7700656420006279200036346200d3
:108ba000697420006164640072657300730d0a00cb
:108bb00020323000342e53004b49500020524f00d9
:108bc0004d20280030784300432920002a666f009a
:108bd0006c6c6f00776564002062790020636f0021
:108be0006d6d61006e640d000a20320033362e0078
:108bf000414c4100524d2000534541005243480032
:108c00002028300078454300290d0a002032340026
:108c1000302e53004541520043482000524f4d0032
:108c2000202830007846300029414c0041524d0048
:108c30002053450041524300482028003078450029
:108c40004329530045415200434820002830780012
:108c50004630290044657600696365002049440078
:108c6000732061007265200061766100696c6100ab
:108c7000626c650020627900204d410043524f0034
:108c80002c20730065652000283029002e524500f5
:108c900041442000524f4d002028300078333300eb
:108ca000293a20004d41540043482000524f4d00c6
:108cb000202830007835350029534b0049502000da
:108cc000524f4d00202830007843430029556e0054
:108cd0006b6e6f00776e20006d616300726f2c0009
:108ce0002074720079203f00206f7200202830002d
:108cf000292066006f72200068656c007042550084
:108d000053205200455345005420570061726e00b5
:108d1000696e67003a202a0053686f007274200061
:108d20006f7220006e6f200070756c006c2d7500e6
:108d300070202a004e6f200064657600696365002c
:108d4000206465007465630074656400204453000a
:108d500031385300323020004869670068205000e5
:108d600072657300204469006720540068657200d2
:108d70006d445300313842003230200050726f0091
:108d80006720520065732000446967002054680022
:108d900065726d0044533100383232002045630063
:108da0006f6e2000446967002054680065726d0092
:108db0004453320034303400204563006f6e72003b
:108dc000616d200074696d00652043006869700062
:108dd000445332003433310020314b0020454500ec
:108de00050524f004d556e006b6e6f00776e200035
:108df000646576006963650050574d002064690022
:108e0000736162006c656400314b48007a2d340058
:108e10002c303000304b48007a205000574d46002f
:108e20007265710075656e0063792000696e2000bf
:108e30004b487a002050720065736300616c6500d6
:108e40003a505200323a4400757479002063790038
:108e5000636c650020696e002025200050574d008e
:108e6000206163007469760065455200524f5200dc
:108e70003a205000574d2000616374006976650008
:108e80002c20670020746f00206469007361620009
:108e90006c6541005558200046726500717565008b
:108ea0006e6379003a20410055582000494e500029
:108eb00055542f0048492d005a415500582048006c
:108ec0004947480041555800204c4f0057564f0025
:108ed0004c544d004554450052204d004f44450030
:108ee000564f4c005441470045205000524f42001d
:108ef000453a200056457200726f72002829200002
:108f0000406c69006e653a0020407000676d730028
:108f100070616300653a20006279740065732e0009
:108f2000546f6f00206c6f006e67210053796e00e4
:108f30007461780020657200726f72004e6f2000bd
:108f400045455000524f4d004572610073696e00f7
:108f500067646f006e655300617669006e6720007c
:108f6000746f2000736c6f00742049006e7661008e
:108f70006c69640020736c006f744c006f61640056
:108f8000696e6700206672006f6d2000736c6f0061
:108f90007420450052524f00523a2000636f6d001a
:108fa0006d616e0064206800617320006e6f2000a8
:108fb000656666006563740020686500726541003f
:108fc000434b4e0041434b00493243002053540071
:108fd000415254002042490054493200432053007a
:108fe000544f5000204249005449320043206d0044
:108ff0006f6465003a0d0a0020312e0020536f0087
:1090000066747700617265000d0a2000322e200020
:1090100048617200647761007265530065742000d6
:109020007370650065643a000d0a2000312e20003f
:109030007e354b00487a0d000a2032002e207e003b
:1090400035304b00487a0d000a2033002e207e0078
