:020000040000fa
:080000000002040000000000f2
:020000040000fa
:040008004c030000a5
:020000040000fa
:04000c004c030000a1
:020000040000fa
:040010004c0300009d
:020000040000fa
:040014004c03000099
:020000040000fa
:040018004c03000095
:020000040000fa
:04001c004c03000091
:020000040000fa
:040020004c0300008d
:020000040000fa
:040024004c03000089
:020000040000fa
:040028004c03000085
:020000040000fa
:04002c004c03000081
:020000040000fa
:040030004c0300007d
:020000040000fa
:040034004c03000079
:020000040000fa
:040038004c03000075
:020000040000fa
:04003c004c03000071
:020000040000fa
:040040004c0300006d
:020000040000fa
:040044004c03000069
:020000040000fa
:040048004c03000065
:020000040000fa
:04004c004c03000061
:020000040000fa
:040050004c0300005d
:020000040000fa
:040054003a55000019
:020000040000fa
:040058005c550000f3
:020000040000fa
:04005c004c03000051
:020000040000fa
:040060004c0300004d
:020000040000fa
:040064004c03000049
:020000040000fa
:040068004c03000045
:020000040000fa
:04006c004c03000041
:020000040000fa
:040070004c0300003d
:020000040000fa
:040074004c03000039
:020000040000fa
:040078004c03000035
:020000040000fa
:04007c004c03000031
:020000040000fa
:040080004c0300002d
:020000040000fa
:040084004c03000029
:020000040000fa
:040088004c03000025
:020000040000fa
:04008c004c03000021
:020000040000fa
:040090004c0300001d
:020000040000fa
:040094004c03000019
:020000040000fa
:040098004c03000015
:020000040000fa
:04009c004c03000011
:020000040000fa
:0400a0004c0300000d
:020000040000fa
:0400a4004c03000009
:020000040000fa
:0400a8004c03000005
:020000040000fa
:0400ac004c03000001
:020000040000fa
:0400b0004c030000fd
:020000040000fa
:0400b4004c030000f9
:020000040000fa
:0400b8004c030000f5
:020000040000fa
:0400bc004c030000f1
:020000040000fa
:0400c0004c030000ed
:020000040000fa
:0400c4004c030000e9
:020000040000fa
:0400c8004c030000e5
:020000040000fa
:0400cc004c030000e1
:020000040000fa
:0400d0004c030000dd
:020000040000fa
:0400d4004c030000d9
:020000040000fa
:0400d8004c030000d5
:020000040000fa
:0400dc004c030000d1
:020000040000fa
:0400e0004c030000cd
:020000040000fa
:0400e4004c030000c9
:020000040000fa
:0400e8004c030000c5
:020000040000fa
:0400ec004c030000c1
:020000040000fa
:0400f0004c030000bd
:020000040000fa
:0400f4004c030000b9
:020000040000fa
:0400f8004c030000b5
:020000040000fa
:0400fc004c030000b1
:020000040000fa
:040100004c030000ac
:020000040000fa
:040104004c030000a8
:020000040000fa
:040108004c030000a4
:020000040000fa
:04010c004c030000a0
:020000040000fa
:040110004c0300009c
:020000040000fa
:040114004c03000098
:020000040000fa
:040118004c03000094
:020000040000fa
:04011c004c03000090
:020000040000fa
:040120004c0300008c
:020000040000fa
:040124004c03000088
:020000040000fa
:040128004c03000084
:020000040000fa
:04012c004c03000080
:020000040000fa
:040130004c0300007c
:020000040000fa
:040134004c03000078
:020000040000fa
:040138004c03000074
:020000040000fa
:04013c004c03000070
:020000040000fa
:040140004c0300006c
:020000040000fa
:040144004c03000068
:020000040000fa
:040148004c03000064
:020000040000fa
:040208004c030000a3
:020000040000fa
:04020c004c0300009f
:020000040000fa
:040210004c0300009b
:020000040000fa
:040214004c03000097
:020000040000fa
:040218004c03000093
:020000040000fa
:04021c004c0300008f
:020000040000fa
:040220004c0300008b
:020000040000fa
:040224004c03000087
:020000040000fa
:040228004c03000083
:020000040000fa
:04022c004c0300007f
:020000040000fa
:040230004c0300007b
:020000040000fa
:040234004c03000077
:020000040000fa
:040238004c03000073
:020000040000fa
:04023c004c0300006f
:020000040000fa
:040240004c0300006b
:020000040000fa
:040244004c03000067
:020000040000fa
:040248004c03000063
:020000040000fa
:04024c004c0300005f
:020000040000fa
:040250004c0300005b
:020000040000fa
:040254004c03000057
:020000040000fa
:040258004c03000053
:020000040000fa
:04025c004c0300004f
:020000040000fa
:040260004c0300004b
:020000040000fa
:040264004c03000047
:020000040000fa
:040268004c03000043
:020000040000fa
:04026c004c0300003f
:020000040000fa
:040270004c0300003b
:020000040000fa
:040274004c03000037
:020000040000fa
:040278004c03000033
:020000040000fa
:04027c004c0300002f
:020000040000fa
:040280004c0300002b
:020000040000fa
:040284004c03000027
:020000040000fa
:040288004c03000023
:020000040000fa
:04028c004c0300001f
:020000040000fa
:040290004c0300001b
:020000040000fa
:040294004c03000017
:020000040000fa
:040298004c03000013
:020000040000fa
:04029c004c0300000f
:020000040000fa
:0402a0004c0300000b
:020000040000fa
:0402a4004c03000007
:020000040000fa
:0402a8004c03000003
:020000040000fa
:0402ac004c030000ff
:020000040000fa
:0402b0004c030000fb
:020000040000fa
:0402b4004c030000f7
:020000040000fa
:0402b8004c030000f3
:020000040000fa
:0402bc004c030000ef
:020000040000fa
:0402c0004c030000eb
:020000040000fa
:0402c4004c030000e7
:020000040000fa
:0402c8004c030000e3
:020000040000fa
:0402cc004c030000df
:020000040000fa
:0402d0004c030000db
:020000040000fa
:0402d4004c030000d7
:020000040000fa
:0402d8004c030000d3
:020000040000fa
:0402dc004c030000cf
:020000040000fa
:0402e0004c030000cb
:020000040000fa
:0402e4004c030000c7
:020000040000fa
:0402e8004c030000c3
:020000040000fa
:0402ec004c030000bf
:020000040000fa
:0402f0004c030000bb
:020000040000fa
:0402f4004c030000b7
:020000040000fa
:0402f8004c030000b3
:020000040000fa
:0402fc004c030000af
:020000040000fa
:040300004c030000aa
:020000040000fa
:040304004c030000a6
:020000040000fa
:040308004c030000a2
:020000040000fa
:04030c004c0300009e
:020000040000fa
:040310004c0300009a
:020000040000fa
:040314004c03000096
:020000040000fa
:040318004c03000092
:020000040000fa
:04031c004c0300008e
:020000040000fa
:040320004c0300008a
:020000040000fa
:040324004c03000086
:020000040000fa
:040328004c03000082
:020000040000fa
:04032c004c0300007e
:020000040000fa
:040330004c0300007a
:020000040000fa
:040334004c03000076
:020000040000fa
:040338004c03000072
:020000040000fa
:04033c004c0300006e
:020000040000fa
:040340004c0300006a
:020000040000fa
:040344004c03000066
:020000040000fa
:040348004c03000062
:020000040000fa
:10040000cfa221000e7f22000e0188000000000014
:10041000000020000000e000020032000001200087
:10042000200288000c0007008049260001002000ff
:1004300011000700000020000000e0000200320070
:100440000000020000000000206702000000000021
:100450000040da000000fe004440a900002b20000c
:100460000000e0000300320000002000a00188002e
:100470004440a80000000600910188008000780038
:100480000000eb0015003700e280400032a0b4000d
:100490009101ba00e280400032a0b4009102ba009b
:1004a000e280400032a0b4000002eb00472bde00e7
:1004b000f507b200602ce10004003a000059eb009f
:1004c0008301e900fdff3e00040037006128e100e0
:1004d000010032000082eb000b00070011c3ba00dc
:1004e0001101ba000604e00003003a000200e00037
:1004f000e5ff3a0000000600f607b200960188000a
:1005000082007800f5ff37003159ba008301e90015
:100510000c0032002159ba008301e90008003200c2
:100520000400e00003003a00e280400032a0b40082
:10053000f5ff370011d9ba008301e900faff3a004c
:100540008100e800e180400032a0b4000000060015
:10055000000000000000000000000000000000009b
:10056000000000000000000000000000000000008b
:10057000000000000000000000000000000000007b
:10058000000000000000000000000000000000006b
:10059000000000000000000000000000000000005b
:1005a000000000000000000000000000000000004b
:1005b000000000000000000000000000000000003b
:1005c000000000000000000000000000000000002b
:1005d000000000000000000000000000000000001b
:1005e000000000000000000000000000000000000b
:1005f00000000000000000000000000000000000fb
:1006000000000000000000000000000000000000ea
:1006100000000000000000000000000000000000da
:1006200000000000000000000000000000000000ca
:1006300000000000000000000000000000000000ba
:1006400000000000000000000000000000000000aa
:10065000000000000000000000000000000000009a
:10066000000000000000000000000000000000008a
:10067000000000000000000000000000000000007a
:10068000000000000000000000000000000000006a
:1006900000000000000000000040da000000fe0042
:1006a00003f0a200889fbe008a9fbe008c1f7800c6
:1006b0004a010700510133006450e1004f0032004d
:1006c0006420e1005200320003826c0007003b000e
:1006d0000905d0000306d000820f54000c065d000f
:1006e0000200390002003200890178000306780018
:1006f0008582550004003d000003fd008103fd00dc
:100700008502ea008b854200840f720002003b00e4
:1007100060001000e08018006011b8000005eb00d8
:100720007a28e1000a00390006007800c75ddd0084
:10073000f707b200878075002d00370082817100b5
:100740000a017800610560008180d1000080d3003b
:100750008502e900f9ff3b00060440008784480059
:1007600002003b0060041400e0841c000988a30020
:10077000070032008a81710082817100610164008a
:100780008904d1000884d3008b05e80017003700e6
:100790000978a30013003a000b00e00013003400b6
:1007a0008b05e9000804440089844c000a44740065
:1007b0000978a3000d003a000b00e00007003400a8
:1007c0008b05e9000804440089844c0001003a00cc
:1007d0000b0020000978a300f7ff32000001eb00b6
:1007e00002003700828171000a017800c000070012
:1007f0000cf0a70001f0a000090137006420e1001f
:1008000002003a00838f6c00090133000801be002a
:100810000200be0002013700889fbe008a9fbe0012
:100820008c1f7800ed000700f400330003866c0095
:100830006450e1002e0032006420e10033003200f9
:100840006150e1002f0032006120e10031003200f0
:1008500085855500eb07b000090020000804200042
:10086000050037000804440089844c000a00310068
:100870000603430087834b000001530081815b0026
:10088000f8ff33000203be000800a0000804440083
:1008900089844c00f6ff3900c639dd0083017300fe
:1008a00001003200130020008904d1000884d30025
:1008b0000998a300050032000800a7000300a0006b
:1008c0008904d1000884d3008b05e8008904d10095
:1008d0000884d3000001eb000281d20084000700ed
:1008e00001f0a1000cf0a70001f0a000cc0037003f
:1008f0006420e100ce0032000801be000200be000c
:10090000f7ff37006120e100c90032006000b80045
:10091000f3ff37000000200001f82700f0ff370048
:100920001400200014023700f4ff2f0012023700d9
:100930000003be00940007006011b8000470a70017
:1009400007f0a10007f8a30017003a006509b100fd
:100950000d0032000d003500860220000628e1005f
:1009600003003500030028006000b8000200050005
:100970000000400081804800020149008381490055
:100980008502e900faff3a0000000600f88f4200f5
:10099000050034008100d1000080d3008502e8000a
:1009a000fcff3a00000006006011b8008000eb0078
:1009b000000005000001be00730007000470a700de
:1009c00003f0a10003f8a30013003a006509b10089
:1009d00010003200090035006928e10002003500ee
:1009e0000100280000000500000040008180480050
:1009f0008502e900fcff3a0000000600f88f420083
:100a0000050035008100d1000080d3008502e80098
:100a1000fcff3a00000006008000eb00000005002b
:100a20004f89de0082017800ee013700889fbe000a
:100a30008a9fbe000082700004027100048271006f
:100a4000260032000004be000200be006011b800a3
:100a50006b092000950220000182cf000a003900b6
:100a60000541b1000082cf00070039000541b10007
:100a70000982cf00040039000541b1000882cf008f
:100a8000010039000541b100054252001200320058
:100a90000a003b0082817100610164008100d10085
:100aa0000080d3008984d3000884d3008b05e8003c
:100ab0000442e800f7ff3a0007003700080444004a
:100ac00089844c0000004800818048008b05e900c3
:100ad0000442e900f9ff3a00050007004f05be0097
:100ae0004f04be00000006006011b800cfff3700c1
:100af00081002000618055000b003d000b002000ac
:100b000061fe2f000100e1001d00340082817100b0
:100b1000610164008904d1000884d3000000e8006a
:100b2000faff3a00710020006100640003007000c9
:100b3000020060000900320061044400e0844c00bf
:100b40000988a500050032008b05e8006808e1006f
:100b500002003a008904d1000884d300f20f20007b
:100b60000258e10005003d00c75ddd00f907b20055
:100b70008980750008007800000006000bf8270047
:100b80008b00780000000500c70ade00f107b20004
:100b9000f50fb20008003200e1cf4200020032003f
:100ba0000170a00024000500810f700001003200d8
:100bb0000408050044000500810f700002003a009f
:100bc000140005008502e9000000400081c04800d3
:100bd000fcff3b000170a000240005000004be00e3
:100be000e9ff07000003be000405be000200be00ce
:100bf000e5ff0700844f7500000006000200be00fc
:100c00006450e100050036006420e1000200360077
:100c10000968a30001003a000800be000160a000be
:100c20004f0678004f05be004f04be0000000600ce
:100c3000f0ff2f00f1ff2700f9ff3700889fbe006b
:100c40008a9fbe008c1f7800e4ff0700ebff330093
:100c500003866c006450e100240032006420e1004f
:100c6000270032006150e100220032006120e100e3
:100c7000210032008b854200eb07b1000134b8003f
:100c8000003ab8000804420089844a00013ab800da
:100c90000030b8008880400009014a000400330099
:100ca0000000400081804800020149008b05e900f6
:100cb000c909dd008301700001003200130020002b
:100cc000c814de004814dd004709de001200b2003f
:100cd000c808de000884700085ff070001f0a1004d
:100ce0000cf0a70001f0a000cdff37006120e1006b
:100cf000cfff32000801be000200be00f7ff370040
:100d00006150e100fcff3a00c9ff37006022b800e3
:100d1000060220000000d0008180d2000482d200b0
:100d20008582d2000000a0000202520083825a0095
:100d3000030031000202420083824a000000a10049
:100d40000603e900f3ff3a0000000600efff07008a
:100d50000400be0000000600020ab900001bb90032
:100d60000200b8008100420081004300000006003c
:100d7000889fbe008a9fbe0030044200b0844a00b3
:100d800030054b0090854b006000b1000898be0014
:100d90000a90be000440e10005c8e10006d0e10071
:100da00007d8e10002003100680040001008e800a8
:100db0004f05be004f04be0000000600889fbe0025
:100dc0008a9fbe003004be002005be0004185400f7
:100dd00005985c0006185d0007985d001100200072
:100de0000440e10005c8e10006d0e10007d8e100b9
:100df000010039008000eb00108810004f05be0094
:100e00004f04be00000006001200fa00889fbe00da
:100e10008a9fbe008c9fbe00e0b79f00f1b79f0085
:100e200082bf9f0093bf9f000605be000404be0062
:100e30000000eb00d0b79f00c0b79f00b0b79f0085
:100e4000a0b79f0090b79f000006eb005fb197002e
:100e5000cfb09700820141003fb097000200e00050
:100e600004003d00370007007e805700c0ff0700e8
:100e700003003700330007007e805700cfff0700d4
:100e8000dfb697000d00e0000c0035006fb2970050
:100e9000ffb297000fbb97009fbb97001000200088
:100ea000010020006011b80000027200818272000f
:100eb00002037300838373001b0007000c06e80025
:100ec00001042000810f5600e0ff3a000d00e00011
:100ed00004003d000802be000a03be007e805700e9
:100ee000a3ff07005fa897000000e00005003a009c
:100ef0001fb29700afb297003fb39700cfb39700f0
:100f0000090007006fb09700ffb097000fb9970076
:100f10009fb997004f06be004f05be004f04be00ac
:100f20000080fa0000000600010007000000060033
:100f3000a4b79f00b5b79f00c6b79f00d7b79f0063
:100f4000000006004f09de0082817100b3b79f00e8
:100f50004f01de008180400082807000a1b79f00b9
:100f60008fb097004f09de000000400002007000c3
:100f700090b79f007fa897004f01de00818040005e
:100f80008280700081b79f000d0007004f3ade009d
:100f90000000400004007000f0af9f000800070050
:100fa0000402420085824a0006034b0087834b00ff
:100fb000dfff07000802be000a03be0000000600b3
:100fc0002fb29700bfb297004fb39700dfb39700df
:100fd00000000600881f780018002000881f780095
:100fe00089ff07008f87e9004f04780000000600a2
:100ff000801feb0084ff07008f87e90000000600d8
:10100000889fbe008a9fbe00e00f5000e08f58000e
:10101000e00f5900e08f59000c003d006044b8001b
:101020006055b8000000540081805c0002015d0042
:1010300083815d00180020001500070008003d00b6
:10104000180007000004eb00050037000004eb0067
:101050000f00070002003d001200070018002000ea
:10106000dcff07000800e000060032006022b80044
:101070006033b8000000520081805a0002015b001a
:1010800083815b004f05be004f04be0000000600d8
:10109000e00f5200e08f5a00e00f5b00e08f5b0032
:1010a000000006006044b8006055b8000402540017
:1010b00085825c0006035d0087835d0000000600fa
:1010c000889fbe008a9fbe008c1f7800e00f5000f2
:1010d000e08f5800e00f5900e08f59000d003d00ef
:1010e0006044b8006055b8000000540081805c0086
:1010f00002015d0083815d001c0020000820e100ea
:1011000009a8e1000ab0e1000bb8e1000d003d00c4
:10111000080037000006eb00e00f5200e08f5a0095
:10112000e00f5b00e08f5b0006003d006044b8000c
:101130006055b8000402540085825c0006035d001f
:1011400087835d00aaff07000c00e0000600320064
:101150006022b8006033b8000000520081805a005d
:1011600002015b0083815b004f0678004f05be00e3
:101170004f04be0000000600889fbe008a9fbe008c
:10118000841f780095fe07004f007800110033009f
:10119000f0ff2f00838f6c0006003b000405650004
:1011a0000a00a7000800370009f0a6001000200080
:1011b00008003700820f5400838f5c000300390061
:1011c0001000200001003e000000200009f0a700f0
:1011d0000000ea004f05be004f04be000000e00022
:1011e00000000600881f7800030478000300e00078
:1011f00007003d0060001000e08018006001190049
:10120000e081190002003b0001f02d0003003700cf
:1012100006fe070008f0a70001f0a0004f047800c8
:0412200000000600c4
:020000040000fa
:101224000d0a00002800000078000000293e00009c
:101234000008000020080000000000002e2000002c
:1012440000200000004300006c750000746300007f
:101254006820000064690000736500006e67000088
:101264006167000065640000212100002100000086
:10127400546f000020660000696e0000697300006e
:10128400682000007365000074750000702c000075
:101294002073000074610000727400002075000067
:1012a400702000007468000065200000706f00006a
:1012b40077650000722000007375000070700000f4
:1012c4006c690000657300002077000069740000f9
:1012d40068200000636f00006d6d0000616e000007
:1012e4006420000027570000270d00000a000000ba
:1012f4004275000073200000506900007261000014
:1013040074650000207600003300000020630000b4
:101314006c6f00006e650000207700002f640000f1
:101324006966000066650000726500006e74000066
:101334002050000049430000004300006f6d00008e
:101344006d7500006e69000074790000204600008d
:10135400697200006d770000617200006520000072
:10136400763700002e300000202d0000206700009a
:101374006f6f00002e6700006c2f000067430000b1
:101384007a5100006e570000200000002028000061
:1013940032340000464a0000363400004741000061
:1013a4003030000000340000200000003220000033
:1013b40000410000330000004234000000420000fd
:1013c4003500000042380000005500004e4b00007c
:1013d4000029000000490000090000004f09000036
:1013e40000480000090000004c090000004500000e
:1013f4006e740000657200002072000061770000c6
:1014040020760000616c0000756500002066000015
:101414006f7200002042000052470000003e0000ae
:10142400001b00005b440000001b00005b00000088
:10143400440000001b5b0000430000001b5b000035
:10144400324b00000d000000430000001b5b000055
:101454003244000000570000617200006e69000011
:101464006e6700003a2000006e6f000020760000d6
:101474006f6c00007461000067650000206f00005d
:101484006e20000056700000756c00006c75000042
:1014940070200000706900006e000000203d000014
:1014a40020000000436c00007574000063680000b5
:1014b400206500006e67000061670000656400003d
:1014c4002121000021000000565200004547000081
:1014d400207400006f6f0000206c00006f77000024
:1014e4002c2000006973000020740000686500006f
:1014f400726500002061000020730000686f000026
:10150400727400003f0000002e2000003c00000028
:101514000041000052540000310000001434000067
:10152400040d00008206000040030000a00100003a
:10153400cf0000007f0000006700000044000000ae
:101544002200000000000000000000002c01000048
:10155400000000005802000000000000b004000079
:10156400000000006009000000000000c01200003c
:10157400000000008025000000000000403800004a
:1015840000000000004b000000000000807000001c
:10159400000000000096000000000000c0da000017
:1015a4000000000000e100000000000000c2000094
:1015b4000100000000f400000100000000e8000049
:1015c4000300000014340000040d00008206000033
:1015d40040030000a0010000cf00000067000000ed
:1015e40044000000220000007f00000030300000b2
:1015f400302c000000300000300000003062000099
:101604000000000014340000040d000082060000f5
:1016140040030000a0010000cf00000067000000ac
:101624004400000022000000307800003031000047
:1016340032330000343500003637000038390000fa
:101644004142000043440000454600002048000099
:101654007a000000467200006571000075650000a4
:101664006e63000069650000732000003c200000e8
:10167400314800007a2000006172000065200000fb
:101684006e6f00007420000073750000707000001d
:101694006f72000074650000642e000000000000fa
:1016a400436f0000756c0000646e00002774000036
:1016b400206b00006565000070200000757000005c
:1016c40000000000535000004931000000000000f9
:1016d400181c00001d0300000b1300001b00000079
:1016e400181c00001d000000314100004c53000094
:1016f4000142000050760000330000002100000089
:101704000010000000230000000f00004240000011
:101714004005000041020000000000000029000014
:101724000020000057000000205200000049000083
:1017340032430000310000000808000008080000df
:10174400080000000000000042420000494f000071
:101754003100000052410000573100000000000039
:10176400003500003f620000610000004f430000ac
:1017740044310000000000000000000000000000f0
:020000040000fa
:1017840013c4800003007800f007b2000280210037
:1017940062407800f1ccb30081404000e8cf5000b3
:1017a40013003e000000fb000003b1001100200004
:1017b400060037006a02b90000fd2f000400400053
:1017c4000201fb00020040008100e80003814000a8
:1017d400f207b200048021006441790004cdb30013
:1017e40004424100e94f5200f2ff36006000370026
:1017f40001c3b300814f500059003a008300e80050
:10180400f107b20062c1780021c6b300814f5100d4
:1018140003003a000000eb0021002000090037001b
:1018240021c4b300814f51000f003a00f9ff370083
:10183400000040000003b1000201fb000200400070
:101844008100e80003814000f207b2000480210017
:101854006441790004cdb30004424100e14f5200d9
:10186400f3ff36004200370081c7b300814f5100b7
:1018740003003a000000eb002100200010003700b4
:1018840081c5b300814f51001e003a00f9ff3700b3
:101894004400dd00e9cf520002003e000003b10025
:1018a400040037000254a0000580210082727a00ef
:1018b4007005b1000201fb00020040008100e80055
:1018c40003824000f407b2000280210062417a00e2
:1018d40005cdb30085424100e9cf5200ecff36004c
:1018e400f6cbb30006434100e54f5300e8ff360052
:1018f400f6c9b30006434100e54f5300e4ff360048
:101904001b003700004251000000eb0011002000d2
:10191400e94f520016003e000200fb000003b10034
:10192400060037006a02b90000fd2f0004004000e1
:101934000201fb00020040008100e8000381400036
:10194400f207b200048021006441790004cdb300a1
:1019540004424100e94f5200f2ff36000400370010
:1019640011c0b30040882100014878000000050040
:1019740012c4800082804000f107b20011c48800c4
:101984000000060012c480008200e800f107b200e3
:1019940000802100e0c1780010002000a1c3b30042
:1019a40081cf510008003a000280e800f007b2003d
:1019b40010c4880072ff070011c480008100e90090
:1019c400f107b20011c488000000060012c48000b0
:1019d4008200e800f107b20000802100e0c1780035
:1019e4000000eb00b1c3b30081cf510008003a00fe
:1019f4000280e800f007b20010c4880060ff07000e
:101a040011c480008100e900f107b20011c488000c
:101a14000000060011c480008100e800f107b20054
:101a24000080210060c1780080c7b300804f51005e
:101a340002003a0011c488001000050040c6b3003b
:101a4400804f510002003a0011c4880020000500b4
:101a540020c6b300804f510002003a0011c4880030
:101a6400300005000040eb0073c7b300834f510002
:101a740002003a0011c4880040c0b3000000060010
:101a840010c48000020037000000e800f007b20034
:101a9400018021006141780001c2b300814f5100ef
:101aa400f9ff320010c4880000000600e8874700f0
:101ab400889fbe008a9fbe008c9fbe008e1f780048
:101ac4000004be000205be0020912800b0530200ad
:101ad400000000000800e00004003d0060912800c0
:101ae400b0530200000000000300370008407800f3
:101af400825202000000000080912800b0530200ce
:101b0400000000000007eb000006eb002d0037008a
:101b14000c00e000050032000c06e900b09128003a
:101b2400b053020000000000260037000e00e00061
:101b340021003200b0912800b053020000000000e0
:101b44000007eb001f0037000c00e0001a003a0009
:101b54000d40780070520200000000001e002000ba
:101b6400180037000b00e00043003a0000cdb3003a
:101b740000c04600e94f50000f003e00e30f56003e
:101b84000500340070c0b300705202000000000071
:101b94004c0020000b0037000d407800705202000a
:101ba400000000008d4078007480570001707e00b2
:101bb4000c06e8000300370070c0b3007052020046
:101bc400000000006252020000000000804678001d
:101bd400edcf56000d00320005003c00e8cf560062
:101be400cbff3200eacf5600e0ff3a00070037008f
:101bf400d0c2b30080cf5600d3ff320080c7b300f9
:101c040080cf5600d9ff3a00d6ff3700f091280064
:101c140096530200000000000c00e000190032009e
:101c2400f58057000000eb00040037006a01b9009a
:101c34005100fb000003b100020040000c06e90063
:101c4400faff3b00890f5000060035008a0f500050
:101c540004003c000e00e000090032000004ea0029
:101c640008003700b101200080ec2000de6502008e
:101c74000000000094ff37000084eb0001003700ef
:101c840000047800080078004f0778004f06be0073
:101c94004f05be004f04be008f00b10000000600d7
:101ca4000e00fa00889fbe008a9fbe0019c48000ff
:101cb4008904e900f907b200180020002600370063
:101cc40000802100e0c07c000104e00020003a0014
:101cd4000905e800fa07b20060407d000004e00056
:101ce4001b0032000840780082520200000000000d
:101cf40000922800b0530200000000001b002000e6
:101d04000300370070520200000000008b05e80059
:101d140009804500f007b20001802100614078008d
:101d24000004e000f7ff3a00080044000a017800cc
:101d3400f6805700823078000804e800e70f54006a
:101d440008003200f09128009653020000000000c1
:101d54008904e900f907b20010c48000808f5400a0
:101d6400d7ff3a003092280096530200000000008a
:101d74007100200010742000de65020000000000e5
:101d84001300200008017800830078000000eb00b5
:101d940046ff07008000e800e18f5000060036008f
:101da40000004000f6805700e102780004c480007f
:101db4000000eb0009003700f09128009653020060
:101dc40000000000100020001600370084004000ce
:101dd400f107b20003f178000000e800850040003c
:101de400f107b20002802100e2c178000304e000a0
:101df400f6ff3a0001c480008100e900f107b20057
:101e040011c488008180e80000804000f007b2001f
:101e140000c488000000e900f007b20003717800f4
:101e24000000eb004f05be004f04be000080fa0026
:101e340000000600889fbe008a9fbe0010c4800078
:101e44000000e800f007b20010c488000cff07008f
:101e54004bfe07000000e00039003a000005eb00eb
:101e64000a40e800825202000000000000922800ac
:101e7400b0530200000000000903200009d0b9009b
:101e84008002b000088d2100080040009653020033
:101e9400000000000a05e800e40f5500f0ff3a00d6
:101ea40071012000606d2000de650200000000006a
:101eb400408821000048eb00130020000a0178004c
:101ec4008300780003007800f8fe07000005e900ad
:101ed4000000e800e10f500003003e00e100200094
:101ee400d06e20002f00370020cf80000980b90079
:101ef4002002b0006800780000000100ea610200de
:101f0400000000002acf880009d0b900fe04400078
:101f140068807c0000000100509228009653020063
:101f2400000000000a00e00019003200c222a800ec
:101f3400a09328009653020000000000140037000c
:101f44000004e900e30f540014003c000a032000dd
:101f540020cf80000a80b9002002b000098d210042
:101f64006900780000000100ea610200000000003e
:101f740028cf88000ac5b9007e05450069007d00a8
:101f8400000001000800e00001003200c222a800a5
:101f9400510020005057200002003700510120005a
:101fa400c0722000de6502000000000000c4800052
:101fb4000000e900f007b20010c488004f05be001d
:101fc4004f04be0000000600881f7800a097280078
:101fd400b053020000000000e0c2b30070520200df
:101fe40000000000a09e2100104078007052020002
:101ff4000000000031cf8000f0442000808f5000aa
:1020040003003a0080982800b0530200000000004a
:10201400f09128009653020000000000f099280077
:10202400b053020000000000b0c5b30070520200bb
:10203400000000000004eb00050037000800e00089
:102044000300320000c2b30070520200000000001e
:102054000203200002c1b900818f21000100410068
:10206400b0530200000000000804e800e40f54002c
:10207400f2ff3a00d0c5b300705202000000000025
:10208400d1002000a080200098650200000000001c
:10209400a1bf2a000000eb008251020000000000f2
:1020a400000478004840de00825202000000000074
:1020b400e0c2b30070520200000000000840780043
:1020c4008252020000000000f091280096530200a2
:1020d40000000000610020003076200098650200b6
:1020e4000000000030cf8000b65402000000000061
:1020f4007100200010ec2000986502000000000030
:1021040040cf8000b654020000000000809c2800ec
:10211400b05302000000000031cf8000f0442000e2
:10212400808f500002003a00509d280001003700c3
:10213400809d2800b05302000000000040cf8000c2
:1021440021042300810f50000e00320004003e00e1
:10215400f103b100810f500010003a00070037006e
:1021640031042300810f500008003200e380400056
:10217400810f500009003a0006003700b09d280086
:1021840007003700e09d280005003700109e280056
:1021940003003700409e280001003700709e28008d
:1021a400b053020000000000b09e280096530200c5
:1021b40000000000e101200090762000de650200ae
:1021c400000000004f04780000000600c802b600ba
:1021d40002003200d09e280001003700009f280032
:1021e400b053040000000000ca02b600020032002e
:1021f400309f280001003700609f2800b05304007e
:1022040000000000a100200040072100de6502005c
:102214000000000061042000c00c2100de65020003
:1022240000000000a1012000e007210098650200e1
:10223400000000000003200021cf80000088b900c6
:102244004002b000018d210061007800000001000f
:10225400a100200080092100986502000000000010
:1022640000402000d9ff070000102000d7ff07001e
:1022740000202000d5ff070000042000d3ff070042
:1022840000082000d1ff0700f091280096530200b7
:102294000000000041002000201121009865020088
:1022a4000000000021e3a800a00020002262020038
:1022b40000000000ca5202000000000011002000cb
:1022c400b0372000986502000000000090c0b30001
:1022d4007052020000000000900020002262020000
:1022e40000000000ca52020000000000110020009b
:1022f400b0372000986502000000000090c0b300d1
:102304007052020000000000c0002000226202009f
:1023140000000000ca52020000000000110020006a
:10232400b0372000986502000000000090c0b300a0
:102334007052020000000000b0002000226202007f
:1023440000000000ca52020000000000110020003a
:10235400b0372000986502000000000090c0b30070
:10236400705202000000000021e3a9000040200098
:102374009dff0700001020009bff070000202000a5
:1023840099ff07000004200097ff070000082000c1
:1023940095ff0700f0912800965304000000000008
:1023a40051002000509220009865020000000000b7
:1023b400c1bf2a000000eb008251020000000000af
:1023c400b65402000000000061002000a09220002a
:1023d4009865020000000000e1bf2a000000eb0045
:1023e4008251020000000000b65402000000000008
:1023f400f09128009653020000000000c100200064
:1024040070782000de650200000000007dff0700f8
:10241400c202ab000300320011012000a0622000c0
:102424000200370021012000b063200098650200fb
:1024340000000000c0c2b30070520200000000009f
:1024440000c2b3007052020000000000cb62ab0077
:102454000300320041012000705d200002003700bb
:1024640051012000205c200098650200000000005b
:10247400c0c2b300705202000000000000c2b300ea
:102484007052020000000000809c2100104078007f
:1024940070406000030032002102200030792000e7
:1024a40002003700e1012000507b2000de650200bd
:1024b40000000000809c210010407800684060000b
:1024c40003003a00b1012000307d200002003700f3
:1024d400c1012000e07e2000986502000000000099
:1024e400c0c2b300705202000000000000c2b3007a
:1024f4007052020000000000b1012000b01a210057
:102504009865020000000000709b210010407800d4
:102514008252020000000000f0912800965302004d
:1025240000000000809c210010407800634060009f
:10253400e14f500003003a005101200000592000ef
:102544000200370061012000a0572000de65020070
:10255400000000000003200021cf80000088b900a3
:102564006002b000018d21006100780000000100cc
:10257400c100200070782000de6504000000000027
:1025840010c480000000e800f007b20010c4880006
:102594003bfd07007afc07000000e900e30f500050
:1025a40002003e0010cf88000d0037004088210053
:1025b4000048eb002102200070812000de6502004b
:1025c400000000008001eb00420020001100200008
:1025d4001000200035fd0700219e21008008e9003d
:1025e4002101200090832000de650400000000002b
:1025f400881f780010c480000000e800f007b200d3
:1026040010c488001efd07005dfc07000040e900bf
:10261400e94f500003003e00019e210080487800ed
:102624000d003700408821000048eb00d10820004d
:1026340060872000de650200000000008001eb00de
:10264400a2002000110020009000200017fd0700c8
:10265400019e21008048e9000044eb00009e210017
:1026640091c0b30090cf100010003a0004fd0700a1
:1026740043fc0700004478000004e0000b003a002b
:102684004188210080487800909f280096530200da
:10269400000000008001eb00f2ff27008000eb0047
:1026a4002002200001fd07000044780041012000c1
:1026b40030902000de6502000000000011012000bf
:1026c400a0192100de65020000000000b6510200de
:1026d400000000000004e000fcff3200009e210026
:1026e40091c0b30090cf100003003a000840780076
:1026f4000c5502000000000096510200000000008a
:10270400625202000000000001c2b300814f500079
:10271400fbff3a004f04780000000600e8874700fa
:10272400889fbe008a9fbe008c9fbe008e1f7800cb
:102734000000eb0010c4880000c48800409e210003
:102744000008eb00408821000048eb000000eb008b
:10275400080037000069eb008100e8000302200054
:10276400838f5000fbff3a000000e800e30f5000a5
:10277400050032007801b9004188210001014100bf
:102784008000eb00f3ff37000000eb0070c6880008
:102794000004eb000005eb008004eb0000032000c4
:1027a40022cf80000091b900818f210001004100f7
:1027b400b05302000000000010a12800b053020032
:1027c400000000008006eb0070c680000000e000fe
:1027d4003c0032000000e90070c688008005eb0070
:1027e4000a00370001c480000280210000f1780053
:1027f40070520200000000008b05e80000c4800055
:102804000000e800f007b20000c4880070c6800031
:102814007800b900008045005188210061407800ab
:102824000004e000efff3a000000eb0070c68800ef
:1028340024003700809c2100104078006440600030
:10284400200032000c03200020cf80000c80b9004f
:102854007a0040000b8d21006b007800000001001d
:102864000004e0001700320020cf80000c80b90083
:102874008002b0000b004000b053020000000000d2
:1028840010a12800b0530200000000001bc4800007
:1028940000c48000808f55000a0032000600370013
:1028a4000080210060c07d00705202000000000022
:1028b400fb07b2008b05e80000c48000808f550040
:1028c400f7ff3a00be510200000000000004e000df
:1028d400d8ff3200125502000000000000467800c4
:1028e4000c04e00003003200185502000000000050
:1028f400b5ff3700625202000000000080457800f6
:10290400e8cf5500200032000f003e00e2cf550012
:102914008b00320005003e000b04e00092013200ff
:10292400e1cf550096013a0060013700e5cf55002c
:102934006d013200e6cf55008e003200e4cf550021
:102944008f013a0042003700eecf5500e500320017
:1029540005003e00eacf550072013200edcf55006c
:1029640087013a006f013700fbcf55004e0032005b
:10297400f0c7b30080cf550035003200f0cf5500ca
:102984007f013a008200370010c48000800f540099
:10299400bd0132000800e90001c48000810f540029
:1029a40007003a0000047800f807b20008c4880061
:1029b400008021000c707c00b091280021003700b9
:1029c40000047800f807b20030a12800b0530200d8
:1029d40000000000880078008005eb000c00370040
:1029e4000106e8000280210062407e0000f17800c8
:1029f4000004e00001003a0000c2b300705202007b
:102a0400000000008b05e8008c007800f107b2009c
:102a140000c48000808f5000f1ff3a008100e9007b
:102a2400f107b20001c4880070a12800b05302006d
:102a3400000000000b4078008252020000000000f9
:102a4400a0a12800b0530200000000005eff370080
:102a540000c48000800f54008b013200880078008d
:102a64008005eb000c0037000106e800028021001d
:102a740062407e0000f178000004e00001003a00aa
:102a840000c2b30070520200000000008b05e80091
:102a94008c007800f107b20000c48000808f5000e1
:102aa400f1ff3a00ddff370062520200000000002f
:102ab400b1c5b300814f500043ff3a006252020097
:102ac4000000000011c4b300814f500030003200f8
:102ad40007003e00f0c05000814f50000c0032004f
:102ae400e3c04000814f500037ff3a000e0037002a
:102af40031c4b300814f50001e0032007900390008
:102b04008140e800814f50002fff3a000c0037004d
:102b14006252020000000000e1c7b300814f500080
:102b240029ff3a00e1003700625202000000000071
:102b3400e1c7b300814f500023ff3a00ea00370099
:102b4400e40f55000400340070640200000000002b
:102b54000005eb001cff370010c48000800f5400f8
:102b6400490132000804e900f807b20030a1280046
:102b7400b4ff370000c48000800f540042013200cb
:102b84000804e800f807b200c0a12800adff370030
:102b940012c480008205e900fb07b20001c4800072
:102ba4008001eb00490037000480210064c07d00ef
:102bb4000004e00043003a000b00e900f007b20013
:102bc400644278000404e0003e0032008301e8001f
:102bd4008d8f51003b0036008d06e800810f5100b7
:102be40005003a000a0037000042eb0084f1780047
:102bf4008100e900f107b20003802100828f5000b8
:102c0400f9ff3a0001c488000041eb0082f178002a
:102c140001c480000900370002802100624178006d
:102c24000204e00003003a008004e800f907b2005f
:102c3400040037000000e900f007b200810f5000e3
:102c4400f5ff3a0000a22800b05302000000000083
:102c54000003200022cf80000091b900818f210061
:102c640001004100b05302000000000010a1280040
:102c7400b053020000000000090478000a00370085
:102c84006c407c00705202000000000000c4800010
:102c940068707e000000e800f007b20000c48800fd
:102ca4000804e800f807b2000c8021008b0f5400e0
:102cb400f3ff3a0008c480000040eb0000767c007b
:102cc400040037008b05e900fb07b200818f550033
:102cd400b5ff3a0000c48000808f5500bafe3a0068
:102ce400e900370013c480008305e900fb07b20044
:102cf40001c480000001eb004a0037000480210079
:102d040064c07d000004e00044003a000b00e900c8
:102d1400f007b200644278000404e0003f0032008f
:102d24000201e8000d02e900840f51003b003a0063
:102d340082067800818f510005003a000a003700ae
:102d44000042eb0004f178008100e900f107b200d1
:102d540002802100838f5000f9ff3a0001c48800eb
:102d64008041eb0003f1780001c4800009003700c2
:102d740002802100624178000204e00003003a006e
:102d84008004e800f907b200040037000000e900fd
:102d9400f007b200810f5000f5ff3a0000a22800ae
:102da400b0530200000000000003200022cf800086
:102db4000091b900818f210001004100b05302004d
:102dc4000000000010a12800b05302000000000021
:102dd400090478000a0037006c407c00705202003d
:102de4000000000000c4800068707e000000e8005d
:102df400f007b20000c488000804e800f807b20035
:102e04000c8021008b0f5400f3ff3a0008c48000ab
:102e14000040eb0000767c00040037008b05e900dd
:102e2400fb07b200818f5500b4ff3a0000c4800054
:102e3400808f550064fe3a00e18f560092003a00fc
:102e440000a22800b053020000000000000320008c
:102e540022cf80000091b900818f21000100410040
:102e6400b05302000000000010a12800b05302007b
:102e74000000000011c4800008c480000400370072
:102e84000041eb0002707c000804e900f807b2007e
:102e940000802100810f5400f9ff3a0008c4880023
:102ea4008040eb0001707c0046fe37001bc48000ac
:102eb4008b0f54007400320070a12800b05302003c
:102ec400000000000b005400f007b2008252020020
:102ed40000000000a0a12800b05302000000000080
:102ee40018c4800038fe37000bc480008b0f5400d8
:102ef4006500320070a12800b053020000000000f9
:102f040008805500f007b200825202000000000061
:102f140060a22800b05302000000000008c4800032
:102f240029fe370008c480008040eb0000802100a7
:102f340001707c000804e800f807b20008c48800a7
:102f4400f091280096530200000000000dc4800098
:102f54001bc48000408821000048eb000040eb00c7
:102f6400c0ef9f004c0037000a05e800f40f55003d
:102f740015fe3a00c05902000000000012fe37009e
:102f84000cc480000c00e800f007b20011c48000fb
:102f9400810f50003c003200ffcf55003a0036004c
:102fa400e0c7b30080cf550037003e00880f5600bd
:102fb4000c003a000b407800705202000000000040
:102fc40008c48000008021000b707c000804e80025
:102fd400f807b20008c488008040eb0001707c0050
:102fe400f9fd370070a12800b05302000000000072
:102ff40008005600f007b2008252020000000000f0
:1030040060a22800b0530200000000000cc480003d
:103014000d0037000c004700ee407e001140980080
:103024006e407e000004e000050032007052020091
:103034000000000080a22800b0530200000000003d
:103044000c06e900fc07b2000800e900f007b20032
:103054000e802100800f5600eeff3a000b407800ee
:1030640070520200000000000b777c000804e800a6
:10307400f807b20000c480000000e800f007b200c6
:1030840000c48800d0fd370070c0b3007052020045
:1030940000000000ccfd370010c480000180210036
:1030a400614178000281fb008001eb00e107200010
:1030b400810f5100e08f59009d033e000260010022
:1030c4009e0337009a0337009903370098033700ab
:1030d40097033700960337009503370094033700ae
:1030e40093033700920337009403370090033700ab
:1030f4008f033700910337008d0337008c033700ab
:103104008b0337008a0337008903370088033700ad
:1031140087033700860337008503370084033700ad
:1031240083033700820337008103370080033700ad
:103134007f0337007e0337007d0337007c033700ad
:103144007e0337005e03370021023700e5003700b5
:10315400ee0037008801370076013700740337002a
:10316400ff01370072033700710337007003370023
:10317400720337001d0337002e033700090337009d
:103184005e0237005d0237005c0237005b023700e5
:103194005a023700590237005802370057023700e5
:1031a40056023700550237006103370060033700c9
:1031b400910137009e0037005d033700450037005a
:1031c400f8003700ee00370059033700610037007c
:1031d40055013700560337005503370054033700b1
:1031e40053033700520337005103370050033700ad
:1031f400600037004e0337004d0337004c0337009f
:103204006e0037004a033700490337006b0137006b
:10321400470337004603370045033700f300370000
:103224004303370042033700410337001b023700d2
:10323400e5023700270237000c033700f402370099
:103244003b033700c50037002d0037003b00370033
:103254002c013700360337002f00370031003700c8
:10326400160037001e0037003103370030033700e3
:1032740045003700200037002d03370022003700b7
:10328400460037002a0337007c0237002803370042
:1032940027033700260337001d00370006013700d7
:1032a40023033700220337002103370001023700cc
:1032b400780037000c0237007f00370078fa0700e7
:1032c4000000e0001d033a001bc480000dc4800010
:1032d4001a033700e66502000000000017033700f8
:1032e40039fb070020cf80000000e0001303320008
:1032f4002bfc070011033700cefa07000f03370039
:10330400bbfc07000d0337009dfc07000b033700cf
:10331400bcfb070009033700f04002000000000076
:103324000603370020cf80000000e00026013200b1
:10333400903e02000000000000033700809c210042
:10334400c1cfb30010c8600061012000a057200065
:10335400f4023700819c2100114078000000a00095
:103364000014a10080487800510120000059200079
:10337400ec023700809c21001034a000c101200021
:10338400e07e2000dc003700809c21001034a10086
:10339400b1012000307d2000d700370020cf80000d
:1033a4000000e00008013200cb62a900c962a90054
:1033b40051012000205c2000cf00370020cf800086
:1033c4000000e00000013200809c210010407800e1
:1033d4007040600004003a0021022000f0e920005f
:1033e400de65020000000000c962a800cb62a900eb
:1033f40041012000705d200098650200000000007b
:10340400f0912800965302000000000021e3a80078
:10341400b00020002262020000000000f10420003d
:10342400810f5000a2003e00d0a228009e00370069
:103434000000e800f007b20010c4880090f907000b
:10344400cff80700000678000c007800e254020070
:103454000000000000a52800b05302000000000096
:103464000c407800825202000000000000a52800f1
:10347400b0530200000000000c40780070540200b9
:1034840000000000f09128009653020000000000a4
:10349400aa0237000000e800f007b20010c4880058
:1034a40077f90700b6f807000080fb006a630200a2
:1034b40000000000e3ff370020cf80000000e000a0
:1034c40005003a0011c0b30001407800125e02000a
:1034d4000000000099023700a1012000b05e200026
:1034e400900237005100200050602000de65020089
:1034f40000000000b6510200000000000004e000db
:10350400fcff32000000fe008c02370070660200ef
:10351400000000000004e00088023200a100200046
:10352400a0602000de6502000000000040062000cc
:103534004863020000000000ea610200000000008d
:10354400b6510200000000000004e000fcff32005d
:1035540081bf2a00014001007802370009f9070001
:103564000006780003003700ea4302000000000070
:103574000c06e9000c00e000fbff3a006f02370084
:1035840000f907000006780003003700d04302006a
:10359400000000000c06e9000c00e000fbff3a000c
:1035a40066023700f7f80700000678000c003700c1
:1035b40061012000406120009865020000000000c5
:1035c4000444020000000000005502000000000056
:1035d400f091280096530200000000000c06e90058
:1035e4000c00e000f2ff3a005402370020cf8000c4
:1035f4000000e00074003200c002a900c202a8006a
:1036040021e3a8002000200048630200000000001d
:10361400a00020002262020000000000011b200024
:10362400810f500016003600900020002262020034
:1036340000000000712b2000810f500010003600a4
:1036440011012000a0622000986502000000000023
:10365400f0912800965302000000000000032000af
:1036640021cf80000088b9000002b000018d210044
:10367400610078000000010040a528000a0037001e
:10368400c002a900c202a90060a628009653020045
:103694000000000021012000b063200098650200b2
:1036a40000000000f0912800965302000000000082
:1036b40021e3a9002102370020cf80000000e000b0
:1036c40041003200010320000180b9002002b00053
:1036d400018d210061007800000001005092280053
:1036e4009653020000000000c002a900c202a90013
:1036f40021012000b0632000986502000000000052
:1037040060ff3700f1002000c036200098650200f9
:1037140000000000306202000000000011002000e0
:10372400b0372000f4ff37003e62020000000000c2
:103734000202370093f807000006780061002000b9
:103744009065200098650200000000000c007800dd
:10375400f25202000000000021002000f065200069
:10376400de650200000000000c0078001c6302000b
:1037740000000000f101370082f80700000678001d
:1037840061002000906520009865020000000000a0
:103794000c007800f252020000000000210020001a
:1037a40030ee2000de650200000000000c0078000e
:1037b4004863020000000000e001370020cf8000d1
:1037c4000000e00003003a00d1012000505a20001c
:1037d400d40137002844020000000000d70137005c
:1037e400e4c3b300844f510001003a008041eb0070
:1037f4008100e8000200370013c0b300110020006c
:1038040000814000f207b200048021006441790085
:103814000204e000f2ff3a004088210003487800e7
:10382400fa8f50000200340011c0b3000148780040
:103834004e8821001004e000c0013a0010c480004a
:103844000000e800f007b20010c48800ccf70700bd
:103854000006780010c4800080007800f107b200f0
:103864000280210062c17800d1c3b300814f5100ae
:103874001b003a000c06e900e20f560035003e003a
:103884000000e800f007b20010c488007861b900b5
:1038940040882100000641008c0078000000eb0005
:1038a4008068eb000000e800f80f5000fcff3a00cd
:1038b40010c4800003003700016e78000000e800a7
:1038c400f007b20001802100e1407800e2c3b300b8
:1038d40082cf5000f8ff3a0010c4880097013700e7
:1038e4000c00e00013003a005e8821001c00200058
:1038f4000c407800825202000000000060a82800fa
:10390400b0530200000000000e007800b053020023
:103914000000000010a128009653020000000000df
:103924000c06e80078074700e40f5600f0ff3a0061
:10393400820137000c00e900e20f500005003e0050
:10394400f091280096530200000000007cc6880015
:103954007a01370010c0b300004f780077013700b8
:103964000000e800f007b20010c4880084f70700e4
:103974000006780042f8070011c48000f107b20085
:1039840000802100e0c0780090c2b30080cf5000d6
:1039940067013a000003200021cf80000088b900ad
:1039a4007c004000018d2100e10078000c007800cb
:1039b40001000100b3fe370024c2b30084cf5100dc
:1039c40001003a008040eb000201e80002003700e9
:1039d40011c0b3001200200080014100f307b200bf
:1039e40004802100e4c179000304e000f2ff3a00fe
:1039f40040882100014878000104e0004f013a00aa
:103a0400710020001066200098650200000000008c
:103a140020c2b300705202000000000013003700ff
:103a240011c48800705202000000000010c480001d
:103a34006c4078000000fb00819c210091407800dc
:103a4400e8c06000020032006a6302000000000067
:103a54000103200022cf80000191b900e800410059
:103a6400028d2100e28078000100010011c4800071
:103a74008100e800f107b2000c8021006cc07800de
:103a840022c2b300824f5000e5ff3a0011c48800ff
:103a940070520200000000007afe3700000320008c
:103aa40021cf80000088b900028d210062007800d7
:103ab400060037000003200021cf80000088b900f1
:103ac4000080e800018d2100610078000000010001
:103ad4001a0137000003200021cf80000088b900bc
:103ae40064004000f7ff37000003200021cf80006e
:103af4000088b90066004000f2ff37007100200022
:103b04001066200098650200000000001cf7070002
:103b14000006780010c480000000e900f007b2003d
:103b240010c4880097f7070000077800a7f707007c
:103b34000000e0004e003200719b210080487800b4
:103b4400f1804000e80f5000020034001154a0003e
:103b5400470037001154a100450037000c007800dd
:103b64009062020000000000809c210002c2b300a9
:103b740090406100710050000104e00004003a002c
:103b840081c0b30090cf100004003a000a0037004f
:103b940002c1b300904f110007003200b0c3b3005c
:103ba4007052020000000000709b21001040780059
:103bb4008252020000000000809c21001040780026
:103bc40068406000040032000c0078006a63020060
:103bd40000000000000678000003200021cf8000d0
:103be4000088b90068004000018d2100e1007800e0
:103bf4000c007800010001000001780000c2b3004d
:103c040082bf9f007052020000000000839c2100cc
:103c140001c4b30013c0600014003200610020002e
:103c240080662000f3b79f00986502000000000042
:103c3400ffb197009341780068c061000fb9970005
:103c440004003200020078006a63020000000000f1
:103c54000001780002007800906202000000000079
:103c640000c2b30070520200000000000e07e90019
:103c74000e00e000b9ff3a0002fe370061002000a8
:103c840080662000986502000000000061f70700cc
:103c9400004678003bf70700000778004bf7070061
:103ca4000000e00008003200719b21008048780089
:103cb400f1804000e80f5000020034001154a000cd
:103cc400010037001154a1000c04e0002d00320063
:103cd40010cf8000c0ef9f008c80fb00209e21004d
:103ce4000108e900270037000003200021cf8000ed
:103cf4000088b9006a004000018d2100610078004d
:103d040000000100819c210091407800e8c060001f
:103d1400020032006a6302000000000090620200a8
:103d240000000000809c210002c2b30090406100aa
:103d3400710050000104e00004003a0081c0b300a7
:103d440090cf100004003a000a00370002c1b3000b
:103d5400904f110007003200b0c3b300705202004c
:103d640000000000709b2100104078008252020085
:103d74000000000000c2b300705202000000000006
:103d84000e07e9000e00e000d7ff3a000c04e00043
:103d9400bcfd3200cfe897000180fb0010cf880003
:103da400b8fd370081002000e0662000de650200d7
:103db400000000000003200021cf80000088b9002b
:103dc4006c0040003fff3700810020006067200046
:103dd400de650200000000000003200021cf800007
:103de4000088b9006e00400036ff3700e100200073
:103df400e0672000de6502000000000000032000f0
:103e040021cf80000088b900700040002dff3700ea
:103e1400e1002000c0682000de6502000000000010
:103e24000003200021cf80000088b9007200400008
:103e340024ff3700c1002000d064200098650200f0
:103e4400000000000003200021cf80000088b9009a
:103e540074004000018d2100610078000000010021
:103e6400005502000000000034003700c5f60700ca
:103e740000067800d1002000a06a200098650200a6
:103e8400000000000c0078009062020000000000b6
:103e9400080037000003200021cf80000088b9000b
:103ea40076004000018d21006100780000000100cf
:103eb4000c06e9000c00e000f6ff3a0071fd370043
:103ec400b0f6070000067800a1002000706b200007
:103ed40098650200000000000e0037000003200077
:103ee40021cf80000088b90078004000018d2100b6
:103ef40061007800000001000080fb000055020012
:103f04000000000000c2b300705202000000000074
:103f14000c06e9000c00e000f0ff3a00010120006b
:103f2400a0692000de6502000000000003003700e5
:103f340011c0b300408821000148780010c48000fb
:103f44000000e800f007b20010c488000000eb0095
:103f5400418821001104e0001200320051012000c8
:103f6400106c2000986502000000000010c480005e
:103f74008b0f500002003e0001c8b3000140400016
:103f84000b405000825202000000000040882100d3
:103f94000048eb00f0912800965302000000000056
:103fa4001000200001c4800012c48000810f510061
:103fb400020032000000e00037fc32001dc488001b
:103fc4000dc48800f5f937005752490054452000c4
:103fd400424954003a2020002a6e6500787420007b
:103fe400636c6f00636b2000285e290020776900f2
:103ff4006c6c200075736500207468006973200080
:1040040076616c0075654e006f206400657669000a
:1040140063652c002074720079202800414c410013
:10402400524d2900205345004152430048206d0061
:10403400616372006f20660069727300744144000a
:1040440044524500535320004d414300524f200039
:1040540020302e004d616300726f20006d656e008c
:10406400754d610063726f00202020002020310014
:1040740057495200452061006464720065737300ff
:104084000d0a200020202a00315749005245200003
:10409400524f4d0020434f004d4d41004e442000ef
:1040a4004d414300524f73003a0d0a002035310050
:1040b4002e52450041442000524f4d00202830002c
:1040c4007833330029202a00666f72002073690058
:1040d4006e676c0065206400657669006365200086
:1040e400627573000d0a200038352e004d415400ce
:1040f40043482000524f4d002028300078353500c9
:1041040029202a00666f6c006c6f770065642000bc
:1041140062792000363462006974200061646400ae
:1041240072657300730d0a0020323000342e530080
:104134004b49500020524f004d2028003078430056
:10414400432920002a666f006c6c6f007765640059
:104154002062790020636f006d6d61006e640d0054
:104164000a20320033362e00414c4100524d2000cb
:10417400534541005243480020283000784543000d
:10418400290d0a0020323400302e530045415200dc
:1041940043482000524f4d0020283000784630001c
:1041a40029414c0041524d002053450041524300e7
:1041b40048202800307845004329530045415200e7
:1041c40043482000283078004630290044657600b2
:1041d4006963650020494400732061007265200012
:1041e40061766100696c6100626c6500206279002f
:1041f400204d410043524f002c2073006565200080
:10420400283029002e52450041442000524f4d00d1
:104214002028300078333300293a20004d415400df
:1042240043482000524f4d00202830007835350097
:1042340029534b0049502000524f4d002028300094
:104244007843430029556e006b6e6f00776e200033
:104254006d616300726f2c002074720079203f003e
:10426400206f720020283000292066006f72200021
:1042740068656c0070425500532052004553450058
:104284005420570061726e00696e67003a202a005c
:1042940053686f00727420006f7220006e6f2000ec
:1042a40070756c006c2d750070202a004e6f200014
:1042b4006465760069636500206465007465630065
:1042c40074656400204453003138530032302000b8
:1042d40048696700682050007265730020446900d3
:1042e40067205400686572006d4453003138420001
:1042f4003230200050726f00672052006573200036
:10430400446967002054680065726d0044533100ad
:1043140038323200204563006f6e20004469670024
:104324002054680065726d00445332003430340008
:10433400204563006f6e7200616d200074696d002a
:1043440065204300686970004453320034333100ff
:1043540020314b002045450050524f004d556e0012
:104364006b6e6f00776e200064657600696365008c
:1043740050574d0020646900736162006c656400ed
:10438400314b48007a2d34002c303000304b48003b
:104394007a205000574d46007265710075656e00b5
:1043a40063792000696e20004b487a002050720027
:1043b40065736300616c65003a505200323a440000
:1043c4007574790020637900636c650020696e0060
:1043d4002025200050574d00206163007469760049
:1043e40065455200524f52003a205000574d20006c
:1043f40061637400697665002c20670020746f0087
:1044040020646900736162006c65410055582000a6
:1044140046726500717565006e6379003a2041004b
:1044240055582000494e500055542f0048492d003e
:104434005a41550058204800494748004155580002
:10444400204c4f0057564f004c544d0045544500e6
:1044540052204d004f444500564f4c0054414700f4
:1044640045205000524f4200453a20005645720004
:10447400726f720028292000406c69006e653a0052
:1044840020407000676d730070616300653a20001e
:104494006279740065732e00546f6f00206c6f0096
:1044a4006e67210053796e00746178002065720094
:1044b400726f72004e6f200045455000524f4d0000
:1044c4004572610073696e0067646f006e65530026
:1044d400617669006e672000746f2000736c6f0052
:1044e400742049006e7661006c69640020736c006e
:1044f4006f744c006f616400696e6700206672001f
:104504006f6d2000736c6f007420450052524f0091
:10451400523a2000636f6d006d616e006420680084
:10452400617320006e6f2000656666006563740029
:104534002068650072654100434b4e0041434b00c7
:104544004932430020535400415254002042490050
:104554005449320043205300544f50002042490034
:104564005449320043206d006f6465003a0d0a001f
:1045740020312e0020536f0066747700617265004d
:104584000d0a2000322e2000486172006477610019
:1045940072655300657420007370650065643a00a9
:1045a4000d0a2000312e20007e354b00487a0d0084
:1045b4000a2032002e207e0035304b00487a0d0050
:1045c4000a2033002e207e00313030004b487a0020
:1045d4000d0a2000342e20007e343000304b480079
:1045e4007a574100524e49004e473a002048410054
:1045f400524457004152450020493200432069008b
:1046040073206200726f6b00656e20006f6e200075
:104614007468690073205000494321002028520027
:1046240045562000413329005365740020737000ff
:10463400656564003a0d0a0020312e0020313000f7
:10464400304b48007a0d0a0020322e00203430000e
:10465400304b48007a0d0a0020332e0020314d00e3
:10466400487a490032432000286d6f0064207300ab
:10467400706429003d28200020302e004d61630025
:10468400726f20006d656e00750d0a0020312e00da
:10469400376269007420610064647200657373009a
:1046a4002073650061726300680d0a0020322e00d9
:1046b4004932430020736e006966660065725300d8
:1046c40065617200636869006e67200049324300c7
:1046d400206164006472650073732000737061006c
:1046e40063652e0020466f00756e640020646500cb
:1046f400766963006573200061743a00536e690043
:1047040066666500722842004153490043295200fd
:104714006561640079612f00412f400020636f00c0
:104724006e7472006f6c7300204155005820700045
:10473400696e61002f412f00402063006f6e74008a
:10474400726f6c007320430053207000696e430045
:104754006f6d6d00616e6400206e6f0074207500d3
:104764007365640020696e0020746800697320001a
:104774006d6f6400655075006c6c2d0075702000c1
:1047840072657300697374006f727300204f460082
:10479400465075006c6c2d007570200072657300b6
:1047a400697374006f727300204f4e0053656c0080
:1047b400662d74006573740020696e0020486900da
:1047c4005a206d006f646500206f6e006c79520092
:1047d4004553450054424f004f544c004f41440050
:1047e4004552410055582000494e500055542f0061
:1047f40048492d005a2c200052454100443a2000db
:10480400504f57004552200053555000504c49001a
:10481400455320004f4e50004f574500522053003f
:10482400555050004c49450053204f004646440023
:104834004154410020535400415445003a2044005f
:10484400454c4100592075007357520049544500a6
:104854003a205200454144003a2043004c4f430063
:104864004b2c200031434c004f434b002c20300094
:104874004441540041204f005554500055542c00dd
:104884002031440041544100204f550054505500fc
:10489400542c200030202a0070696e0020697300b7
:1048a400206e6f0077204800695a43004c4f430044
:1048b4004b20540049434b00533a200052454100d9
:1048c4004420420049543a00205379006e74610038
:1048d4007820650072726f0072206100742063009a
:1048e4006861720020782e002065780069742800c1
:1048f40077697400686f75007420630068616e00e6
:10490400676529006e6f20006d6f64006520630089
:1049140068616e00676523003a204e006f207300c3
:104924006f667400776172006520720065736500bc
:1049340074206f006e207600342c2000757365009f
:10494400207468006520720065736500742062003d
:10495400757474006f6e2e004e6f6e00657869007a
:10496400737465006e74200070726f00746f63005e
:104974006f6c2100782e200065786900740d0a00a0
:10498400496e7600616c690064206300686f690099
:1049940063652c00207472007920610067616900ee
:1049a4006e444500564944003a68740074703a00f5
:1049b4002f2f6400616e670065726f00757370005d
:1049c400726f74006f747900706573002e636f00ea
:1049d4006d2a2d002d2d2d002d2d2d002d2d2d007a
:1049e4002a4f7000656e200064726100696e2000b9
:1049f4006f7574007075740073202800483d48007a
:104a0400692d5a002c204c003d474e0044294e008d
:104a14006f726d00616c20006f75740070757400a6
:104a240073202800483d33002e3376002c204c00a0
:104a34003d474e0044294d005342200073657400e5
:104a44003a204d004f5354002073690067206200e0
:104a5400697420006669720073744c00534220002c
:104a6400736574003a204c00454153005420730090
:104a740069672000626974002066690072737400bb
:104a840020426f006f746c006f61640065722000d7
:104a9400762031002e20480045580d000a203200af
:104aa4002e20440045430d000a2033002e204200ee
:104ab400494e0d000a2034002e2052004157440074
:104ac400697370006c61790020666f00726d61001b
:104ad40074207300657456006f6c74006167650020
:104ae400206d6f006e6974006f7273003a20350098
:104af400563a2000207c2000332e3300563a200002
:104b0400207c2000565055004c4c5500503a200053
:104b14005365740020736500726961006c20700035
:104b24006f72740020737000656564003a20280079
:104b340062707300290d0a0020312e0020333000ea
:104b4400300d0a0020322e002031320030300d00aa
:104b54000a2033002e203200343030000d0a2000a9
:104b6400342e200034383000300d0a0020352e0059
:104b74002039360030300d000a2036002e20310056
:104b840039323000300d0a0020372e00203338002f
:104b9400343030000d0a2000382e2000353736001e
:104ba40030300d000a2039002e203100313532001a
:104bb40030300d000a3130002e20420052472000d0
:104bc40072617700207661006c75650041646a004b
:104bd4007573740020796f0075722000746572001b
:104be4006d696e00616c410072652000796f75001b
:104bf4002073750072653f002043460047313a0038
:104c04002043460047323a00285c2d002f5f5c00a9
:104c14002d2928005c5f2f002d295300656c650049
:104c2400637420006f7574007075740020747900cb
:104c340070653a000d0a2000312e20004f70650087
:104c44006e206400726169006e202800483d4800af
:104c5400692d5a002c204c003d474e0044290d007c
:104c64000a2032002e204e006f726d00616c20000d
:104c740028483d00332e3300562c20004c3d47007d
:104c84004e442900523257002028730070642000db
:104c940068697a00293d2800202030002e4d6100eb
:104ca40063726f00206d65006e750d000a2031007f
:104cb4002e4953004f37380031362d003320410040
:104cc40054520d000a2032002e4953004f37380049
:104cd40031362d00332070006172730065206f003f
:104ce4006e6c790049534f002037380031362d005f
:104cf40033204100545220002852450053455400ab
:104d0400206f6e0020435300290d0a0052455300c2
:104d14004554200048494700482c2000434c4f008c
:104d2400434b2000544943004b2c20005245530070
:104d3400455420004c4f570049534f00203738004a
:104d440031362d003320720065706c007920280004
:104d5400757365007320630075727200656e74006c
:104d6400204c53004220730065747400696e670020
:104d7400293a200050726f00746f63006f6c3a0020
:104d840020736500726961006c33200077697200da
:104d940065322000776972006552460055756e00d1
:104da4006b6e6f00776e5200656164002074790049
:104db40070653a0020746f0020656e0064766100af
:104dc40072696100626c6500206c65006e67740036
:104dd4006844610074612000756e690074733a0060
:104de400206e6f0020696e0064696300617469005d
:104df4006f6e44006174610020756e006974200058
:104e04006c656e0067746800202862006974730022
:104e1400293a200043532000454e4100424c4500ae
:104e24004443530020444900534142004c4544004c
:104e340052335700202873007064200063736c00a1
:104e4400206869007a293d00282029000d0a4400c1
:104e5400697363006f6e6e006563740020616e0099
:104e64007920640065766900636573000d0a430068
:104e74006f6e6e0065637400202856007075200004
:104e8400746f20002b355600292061006e642000c9
:104e940028414400432074006f202b00332e33003c
:104ea4005629430074726c00415558004d4f44001c
:104eb40045204c0045445000554c4c0055502000b2
:104ec400485055004c4c550050204c00565245005b
:104ed40047414400432061006e64200073757000f4
:104ee400706c790035565600505533002e335600f9
:104ef40041444300427573002068690067684200ba
:104f04007573200048692d005a20300042757300e3
:104f1400204869002d5a2000314d4f00444520009f
:104f2400616e640020565200454720004c45440001
:104f340073207300686f75006c6420006265200044
:104f44006f6e2100466f75006e642000206572004c
:104f5400726f7200732e4d004f534900434c4b0047
:104f64004d4953004f435300204f4b00204641000e
:104f7400494c5300657420007370650065643a0001
:104f84000d0a2000312e200033304b00487a0d00ea
:104f94000a2032002e20310032354b00487a0d00b1
:104fa4000a2033002e20320035304b00487a0d00a1
:104fb4000a2034002e2031004d487a00436c6f00e3
:104fc400636b2000706f6c006172690074793a0041
:104fd4000d0a2000312e200049646c0065206c000d
:104fe4006f7720002a646500666175006c740d009b
:104ff4000a2032002e204900646c65002068690094
:1050040067684f007574700075742000636c6f00de
:10501400636b200065646700653a0d000a20310067
:105024002e204900646c650020746f0020616300c9
:1050340074697600650d0a0020322e002041630059
:1050440074697600652074006f206900646c6500e3
:10505400202a640065666100756c7400496e7000f6
:105064007574200073616d00706c650020706800b9
:10507400617365003a0d0a0020312e00204d69004d
:1050840064646c0065202a006465660061756c00c8
:10509400740d0a0020322e0020456e006453500027
:1050a400492028007370640020636b007020730033
:1050b4006b652000736d7000206373006c206800c2
:1050c400697a29003d28200020302e004d616300bc
:1050d400726f20006d656e00750d0a0020312e0080
:1050e400536e690066662000435320006c6f77009e
:1050f4000d0a2000322e53006e696600662061009e
:105104006c6c20007472610066666900632d700027
:10511400202d6600202a4200797465007320640003
:10512400726f7000706564002a464100494c450066
:10513400442c20004e4f200044415400414461005f
:105144007461200062697400732061006e64200041
:1051540070617200697479003a0d0a0020312e00e2
:1051640020382c00204e4f004e4520002a64650054
:10517400666175006c7420000d0a2000322e200038
:10518400382c2000455645004e200d000a203300df
:105194002e2038002c204f00444420000d0a20000b
:1051a400342e2000392c20004e4f4e0045537400fd
:1051b4006f70200062697400733a0d000a20310098
:1051c4002e203100202a640065666100756c74002d
:1051d4000d0a2000322e20003252650063656900fa
:1051e40076652000706f6c006172690074793a0012
:1051f4000d0a2000312e200049646c006520310026
:10520400202a640065666100756c74000d0a200034
:10521400322e200049646c00652030005541520054
:1052240054202800737064002062720067206400b8
:105234006270200073622000727870002068690038
:105244007a293d0028202000302e4d006163720031
:105254006f206d00656e75000d0a2000312e54001c
:1052640072616e007370610072656e00742062007a
:105274007269640067650d000a2032002e4c6900d3
:10528400766520006d6f6e0069746f00720d0a0000
:1052940020332e004272690064676500207769003c
:1052a40074682000666c6f00772063006f6e740072
:1052b400726f6c000a0d2000342e410075746f006b
:1052c40020426100756420004465740065637400c5
:1052d400696f6e0055415200542062007269640087
:1052e4006765520065736500742074006f20650063
:1052f40078697400526177002055410052542000af
:10530400696e70007574550041525400204c490078
:105314005645200044495300504c4100592c20006c
:105324007d2054004f205300544f50004c495600e8
:1053340045204400495350004c4159002053540027
:105344004f5050004544570041524e00494e4700cb
:105354003a207000696e7300206e6f0074206f0035
:1053640070656e002064720061696e002028480038
:10537400695a290020524500564944003a0d0a0052
:10538400496e7600616c690064206300686f69008f
:1053940063652c00207472007920610067616900e4
:1053a4006e6d7300525320004c4f57002c20430065
:1053b4004f4d4d00414e4400204d4f004445520096
:1053c40053204800494748002c20440041544100e0
:1053d400204d4f00444541006464720065737300be
:1053e400206f6600205043004638350037343f00b4
:1053f4005468690073206d006f6465002072650055
:10540400717569007265730020616e00206164002b
:105414006170740065724c0043442000747970001c
:10542400653a0d000a2031002e204800443434002f
:10543400373830002028750073696e0067205000eb
:10544400434638003537340020494f002065780042
:1054540070616e0064657200294c4300442028008a
:10546400747970002061640064722900203d20007a
:1054740028202000302e4d00616372006f206d00e3
:10548400656e75000d0a2000312e4c004344200047
:105494005265730065740d000a2032002e496e00b7
:1054a400697420004c4344000d0a2000332e43004d
:1054b4006c65610072204c0043440d000a203400e6
:1054c4002e43750072736f00722070006f73690051
:1054d40074696f006e206500783a28003429200032
:1054e400300d0a0020362e005772690074652000c2
:1054f4007465730074206e00756d620065727300cc
:10550400206578003a28360029203800300d0a003a
:1055140020372e005772690074652000746573008b
:1055240074206300686172006163740065727300c3
:10553400206578003a283700292038003044690073
:1055440073706c00617920006c696e0065733a00b9
:105554000d0a2000312e200031200d000a203200d7
:105564002e204d00756c740069706c0065494e0006
:10557400495443004c4541005243550052534f0097
:105584005220530045544e006f204100434b2c00e1
:105594002063680065636b002061640061707400bf
:1055a400657243004c4b09004d4f530049094300b9
:1055b40053094d0049534f0050696e0073746100e4
:1055c400746573003a474e00440933002e33560085
:1055d40009352e0030560900414443000956500055
:1055e4005509410055580900500950000950090057
:1055f40049094900092d09004f574400092d0900a4
:105604002d2d090054784400092d090052784400d6
:1056140053434c000953440041092d00092d500007
:105624004743090050474400092d09002d312e003d
:1056340028425200290932002e2852004429090028
:10564400332e28004f52290009342e0028595700c0
:10565400290935002e2847004e290900362e280036
:10566400424c290009372e002850550029093800da
