:020000040000FA
:100000000020040000000000C0220000C022000008
:10001000C0220000C0220000C0220000C022000058
:10002000C0220000C0220000C0220000C022000048
:10003000C0220000C0220000C0220000C022000038
:10004000C0220000C0220000C0220000C022000028
:10005000C0220000C0220000C0220000E006010013
:10006000C0220000C0220000C0220000C022000008
:10007000C0220000C0220000C0220000C0220000F8
:10008000C0220000C0220000C0220000C0220000E8
:10009000C0220000C0220000C0220000C0220000D8
:1000A000C0220000C0220000C0220000C0220000C8
:1000B000C0220000C0220000C0220000C0220000B8
:1000C000C0220000C0220000C0220000C0220000A8
:1000D000C0220000C0220000C0220000C022000098
:1000E000C0220000C0220000C0220000C022000088
:1000F000C0220000C0220000C0220000C022000078
:10010000C0220000C0220000C0220000C022000067
:10011000C0220000C0220000C0220000C022000057
:10012000C0220000C0220000C0220000C022000047
:10013000C0220000C0220000C0220000C022000037
:10014000C0220000C0220000C0220000C022000027
:10015000C0220000C0220000C0220000C022000017
:10016000C0220000C0220000C0220000C022000007
:10017000C0220000C0220000C0220000C0220000F7
:1001800058040100C0220000C0220000C02200006C
:10019000C0220000C0220000C0220000C0220000D7
:1001A000FFFFFF00FFFFFF00FFFFFF00FFFFFF005B
:1001B000FFFFFF00FFFFFF00FFFFFF00FFFFFF004B
:1001C000FFFFFF00FFFFFF00FFFFFF00FFFFFF003B
:1001D000FFFFFF00FFFFFF00FFFFFF00FFFFFF002B
:1001E000FFFFFF00FFFFFF00FFFFFF00FFFFFF001B
:1001F000FFFFFF00FFFFFF00FFFFFF00FFFFFF000B
:10020000FFFFFF00FFFFFF00C0220000C022000030
:10021000C0220000C0220000C0220000C022000056
:10022000C0220000C0220000C0220000C022000046
:10023000C0220000C0220000C0220000C022000036
:10024000C0220000C0220000C0220000C022000026
:10400000EF5123000E7F24000E0188000000000005
:10401000000020000000E00002003200000120004B
:10402000200288000C00070080602F0001002000A3
:1040300011000700000020000000E0000200320034
:1040400000000200000000008203020001000000E6
:104050000040DA000000FE004440A900005E20009D
:104060000000E0000300320000002000A0018800F2
:104070004440A800000006009101880080007800FC
:104080000000EB0015003700E280400032A0B400D1
:104090009101BA00E280400032A0B4009102BA005F
:1040A000E280400032A0B4000002EB00472BDE00AB
:1040B000F507B200602CE10004003A000059EB0063
:1040C0008301E900FDFF3E00040037006128E100A4
:1040D000010032000082EB000B00070011C3BA00A0
:1040E0001101BA000604E00003003A000200E000FB
:1040F000E5FF3A0000000600F607B20096018800CE
:1041000082007800F5FF37003159BA008301E900D9
:104110000C0032002159BA008301E9000800320086
:104120000400E00003003A00E280400032A0B40046
:10413000F5FF370011D9BA008301E900FAFF3A0010
:104140008100E800E180400032A0B40000000600D9
:1041500010D4040000000000DED4040000000000C1
:10416000D0D404000000000064D50400000000006A
:1041700056D5040000000000AA85040000000000DD
:10418000BA85040000000000D08504000000000093
:10419000D2860400000000004087040000000000F8
:1041A0009885040000000000628704000000000001
:1041B0007487040000000000BA87040000000000BB
:1041C0001E88040000000000408804000000000079
:1041D0008489040000000000DE8904000000000063
:1041E000408A040000000000668A0400000000000D
:1041F0004C86040000000000CA8A04000000000091
:10420000E88A040000000000AAD6040000000000B4
:10421000ECBE0400000000001CBF04000000000011
:10422000B851040000000000040704000100000071
:10423000180704000100000030070400010000001E
:1042400046070400010000005C07040001000000B4
:104250008C070400010000007E070400010000003C
:10426000720704000100000074C204000000000096
:1042700092BF04000000000086BF040000000000A0
:10428000E8BF040000000000D4BF040000000000EC
:10429000C6BF040000000000ACBF04000000000026
:1042A000A2BF04000000000060C004000000000085
:1042B000FCBF04000000000066C204000000000013
:1042C000F4780400000000001A79040000000000E7
:1042D00076730400000000001C730400000000005E
:1042E0003879040000000000EA77040000000000B4
:1042F0001E74040000000000B476040000000000FA
:10430000E077040000000000C07904000000000015
:1043100086730400000000003E99040000000000C5
:10432000AE99040000000000B298040000000000F4
:104330004C98040000000000689B0400000000008E
:10434000369A040000000000249B040000000000D6
:104350004C9B040000000000249D040000000000AD
:10436000049A040000000000308C040000000000EB
:10437000FA8B040000000000668C040000000000BE
:10438000A08C040000000000948C040000000000D9
:10439000AE8F0400000000003E8D0400000000000D
:1043A0007C8F040000000000A68F040000000000C5
:1043B000B090040000000000C08C04000000000069
:1043C000C2EC040000000000DCEC0400000000006F
:1043D000B2EC040000000000A8EC040000000000A3
:1043E00020ED04000000000014ED040000000000B7
:1043F00044ED04000000000038ED0400000000005F
:1044000008ED0400000000002CED04000000000096
:10441000F6EC0400000000005AEE0400000000006A
:1044200086ED04000000000040EE040000000000E3
:104430008AEE04000000000050ED040000000000BF
:104440009AF30400000000005CF304000000000088
:10445000D8F30400000000003CF30400000000005A
:1044600030F304000000000040F4040000000000ED
:104470004CF404000000000058F4040000000000A8
:1044800064F404000000000028F4040000000000B0
:1044900034F404000000000016F4040000000000E2
:1044A000B4F4040000000000D8F50400000000008F
:1044B000FAF504000000000070F4040000000000A1
:1044C00088E504000000000078E50400000000001A
:1044D000C2E504000000000062E5040000000000E6
:1044E00070E50400000000003CF004000000000043
:1044F00052F004000000000024F00400000000005E
:10450000C0F004000000000068F00400000000009B
:1045100076F00400000000005C9104000000000040
:1045200034F20400000000002AC80400000000006B
:104530005AC804000000000076C904000000000012
:1045400078C804000000000032CB04000000000026
:1045500034C70400000000000EC804000000000082
:104560001CC8040000000000D2CB040000000000C2
:10457000A807040001000000A007040001000000DB
:104580000040DA000000FE0003F0A200889FBE0099
:104590008A9FBE008C1F780059010700600133001C
:1045A0006450E1004F0032006420E100520032000C
:1045B00003826C0007003B000905D0000306D00011
:1045C000820F54000C065D00020039000200320028
:1045D00089017800030678008582550004003D00BB
:1045E0000003FD008103FD008502EA008B85420087
:1045F000840F720002003B0060001000E080180091
:104600006011B8000005EB007A28E1000A003900CB
:1046100006007800C75DDD00F707B20087807500EF
:104620002D003700828171000A0178006105600069
:104630008180D1000080D3008502E900F9FF3B00B2
:10464000060440008784480002003B006004140018
:10465000E0841C000988A300070032008A817100F1
:1046600082817100610164008904D1000884D30053
:104670008B05E800170037000978A30013003A0003
:104680000B00E000130034008B05E900080444002F
:1046900089844C000A4474000978A3000D003A0094
:1046A0000B00E000070034008B05E900080444001B
:1046B00089844C0001003A000B0020000978A30017
:1046C000F7FF32000001EB00020037008281710029
:1046D0000A017800CF0007000CF0A70001F0A0004D
:1046E000180137006420E10002003A00838F6C005B
:1046F000180133000801BE000200BE00110137009E
:10470000889FBE008A9FBE008C1F7800FC000700B7
:104710000301330003866C006450E1002E00320078
:104720006420E100330032006150E1002F003200CC
:104730006120E1003100320085855500EB07B000B3
:104740000900200008042000050037000804440088
:1047500089844C000A0031000603430087834B0024
:104760000001530081815B00F8FF33000203BE00AB
:104770000800A0000804440089844C00F6FF3900BA
:10478000C639DD00830173000100320013002000F0
:104790008904D1000884D3000998A30005003200E1
:1047A0000800A7000300A0008904D1000884D300FA
:1047B0008B05E8008904D1000884D3000001EB00D8
:1047C0000281D2009300070001F0A1000CF0A700C5
:1047D00001F0A000DB0037006420E100DD003200C2
:1047E0000801BE000200BE00F7FF37006120E100B3
:1047F000D80032006000B800F3FF3700000020004E
:1048000001F82700F0FF3700839F68000100E000F7
:1048100002003D0060001000E08018000300E0008E
:1048200002003D0060011100E08119000001070055
:104830004F00E00002003B0060001000E080180024
:1048400000000600140020000E023700F4FF2F00C5
:104850000C0237000003BE00940007006011B8008E
:104860000470A70007F0A10007F8A30017003A00A2
:104870006509B1000D0032000D00350086022000F0
:104880000628E10003003500030028006000B8009E
:10489000020005000000400081804800020149003C
:1048A000838149008502E900FAFF3A000000060012
:1048B000F88F4200050034008100D1000080D30051
:1048C0008502E800FCFF3A00000006006011B80015
:1048D0008000EB00000005000001BE00730007002F
:1048E0000470A70003F0A10003F8A30013003A002E
:1048F0006509B10010003200090035006928E100A7
:104900000200350001002800000005000000400002
:10491000818048008502E900FCFF3A0000000600A3
:10492000F88F4200050035008100D1000080D300DF
:104930008502E800FCFF3A00000006008000EB0062
:10494000000005004F89DE0082017800E801370091
:10495000889FBE008A9FBE00008270000402710022
:1049600004827100260032000004BE000200BE0076
:104970006011B8006B092000950220000182CF0071
:104980000A0039000541B1000082CF00070039005C
:104990000541B1000982CF00040039000541B10092
:1049A0000882CF00010039000541B10005425200E4
:1049B000120032000A003B00828171006101640034
:1049C0008100D1000080D3008984D3000884D30003
:1049D0008B05E8000442E800F7FF3A0007003700C3
:1049E0000804440089844C0000004800818048008D
:1049F0008B05E9000442E900F9FF3A0005000700D1
:104A00004F05BE004F04BE00000006006011B80054
:104A1000CFFF370081002000618055000B003D0072
:104A20000B00200061FE2F000100E1001D0034009A
:104A300082817100610164008904D1000884D3007F
:104A40000000E800FAFF3A007100200061006400F5
:104A5000030070000200600009003200610444009D
:104A6000E0844C000988A500050032008B05E800B1
:104A70006808E10002003A008904D1000884D300EC
:104A8000F20F20000258E10005003D00C75DDD0087
:104A9000F907B20089807500080078000000060060
:104AA0000BF827008B00780000000500C70ADE0025
:104AB000F107B200F50FB20008003200E1CF42006A
:104AC000020032000170A00024000500810F700078
:104AD000010032000408050044000500810F700049
:104AE00002003A00140005008502E90000004000C1
:104AF00081C04800FCFF3B000170A00024000500BD
:104B00000004BE00E9FF07000003BE000405BE006C
:104B10000200BE00E5FF0700844F7500000006009C
:104B20000200BE006450E100050036006420E10090
:104B3000020036000968A30001003A000800BE0028
:104B40000160A0004F0678004F05BE004F04BE0074
:104B500000000600F0FF2F00F1FF2700F9FF3700EB
:104B6000889FBE008A9FBE008C1F7800E4FF07006C
:104B7000EBFF330003866C006450E1002400320038
:104B80006420E100270032006150E1002200320081
:104B90006120E100210032008B854200EB07B1006B
:104BA0000134B800003AB8000804420089844A0081
:104BB000013AB8000030B8008880400009014A007E
:104BC00004003300000040008180480002014900D9
:104BD0008B05E900C909DD00830170000100320086
:104BE00013002000C814DE004814DD004709DE0071
:104BF0001200B200C808DE000884700085FF0700BC
:104C000001F0A1000CF0A70001F0A000CDFF3700DB
:104C10006120E100CFFF32000801BE000200BE00AB
:104C2000F7FF37006150E100FCFF3A00C9FF370091
:104C30006022B800060220000000D0008180D2006F
:104C40000482D2008582D2000000A000020252003D
:104C500083825A00030031000202420083824A002C
:104C60000000A1000603E900F3FF3A00000006007F
:104C7000EFFF07000400BE0000000600889FBE0092
:104C80008A9FBE0030044200B0844A0030054B00C9
:104C900090854B006000B1000898BE000A90BE00ED
:104CA0000440E10005C8E10006D0E10007D8E100BA
:104CB00002003100680040001008E8004F05BE0007
:104CC0004F04BE0000000600889FBE008A9FBE0001
:104CD0003004BE002005BE000418540005985C0096
:104CE00006185D0007985D00110020000440E100F7
:104CF00005C8E10006D0E10007D8E1000100390055
:104D00008000EB00108810004F05BE004F04BE006D
:104D1000000006001200FA00889FBE008A9FBE00B5
:104D20008C9FBE00E0B79F00F1B79F0082BF9F003D
:104D300093BF9F000605BE000404BE000000EB0008
:104D4000D0B79F00C0B79F00B0B79F00A0B79F002B
:104D500090B79F000006EB005FB19700CFB09700BF
:104D6000820141003FB097000200E00004003D00D6
:104D7000370007007E805700C0FF070003003700A0
:104D8000330007007E805700CFFF0700DFB6970093
:104D90000D00E0000C0035006FB29700FFB29700E5
:104DA0000FBB97009FBB9700100020000100200060
:104DB0006011B80000027200818272000203730069
:104DC000838373001B0007000C06E8000104200029
:104DD000810F5600E0FF3A000D00E00004003D00A6
:104DE0000802BE000A03BE007E805700A3FF070032
:104DF0005FA897000000E00005003A001FB297008E
:104E0000AFB297003FB39700CFB3970009000700F8
:104E10006FB09700FFB097000FB997009FB9970048
:104E20004F06BE004F05BE004F04BE000080FA00D2
:104E3000000006000100070000000600A4B79F0064
:104E4000B5B79F00C6B79F00D7B79F000000060008
:104E50004F09DE0082817100B3B79F004F01DE0071
:104E60008180400082807000A1B79F008FB09700C2
:104E70004F09DE00000040000200700090B79F0064
:104E80007FA897004F01DE00818040008280700083
:104E900081B79F000D0007004F3ADE000000400080
:104EA00004007000F0AF9F000800070004024200F9
:104EB00085824A0006034B0087834B00DFFF070013
:104EC0000802BE000A03BE00000006002FB29700D1
:104ED000BFB297004FB39700DFB397000000060002
:104EE000881F780018002000881F780089FF0700BD
:104EF0008F87E9004F04780000000600801FEB0058
:104F000084FF07008F87E90000000600889FBE002D
:104F10008A9FBE00E00F5000E08F5800E00F59005C
:104F2000E08F59000C003D006044B8006055B800A7
:104F30000000540081805C0002015D0083815D00FF
:104F4000180020001500070008003D0018000700A9
:104F50000004EB00050037000004EB000F00070021
:104F600002003D001200070018002000DCFF0700CF
:104F70000800E000060032006022B8006033B8008C
:104F80000000520081805A0002015B0083815B00B7
:104F90004F05BE004F04BE0000000600E00F5200A7
:104FA000E08F5A00E00F5B00E08F5B00000006001E
:104FB0006044B8006055B8000402540085825C006B
:104FC00006035D0087835D0000000600889FBE0029
:104FD0008A9FBE008C1F7800E00F5000E08F5800C1
:104FE000E00F5900E08F59000D003D006044B8000B
:104FF0006055B8000000540081805C0002015D0033
:1050000083815D001C0020000820E10009A8E10068
:105010000AB0E1000BB8E1000D003D0008003700C8
:105020000006EB00E00F5200E08F5A00E00F5B003B
:10503000E08F5B0006003D006044B8006055B8009A
:105040000402540085825C0006035D0087835D00D6
:10505000AAFF07000C00E000060032006022B80042
:105060006033B8000000520081805A0002015B00EA
:1050700083815B004F0678004F05BE004F04BE00E1
:1050800000000600889FBE008A9FBE00841F780033
:105090009BFE07004F00780011003300F0FF2F0047
:1050A000838F6C0006003B00040565000A00A70022
:1050B0000800370009F0A6001000200008003700A3
:1050C000820F5400838F5C00030039001000200021
:1050D00001003E000000200009F0A7000000EA00E7
:1050E0004F05BE004F04BE000000E00000000600B7
:1050F000881F7800030478000300E00007003D00EB
:1051000060001000E080180060011900E0811900C3
:1051100002003B0001F02D00030037000CFE0700E9
:1051200008F0A70001F0A0004F047800000006007E
:105130008001780002003700B15978000201E900CF
:105140000200E000FCFF3A00000006003E00000004
:1051500008200000080000001B5B00004400000065
:105160001B5B000000440000001B00005B430000CC
:10517000001B00005B3200004B0D000000430000EC
:10518000000000001B5B00003244000000570000DC
:10519000617200006E6900006E6700003A20000036
:1051A0006E6F0000207600006F6C000074610000DC
:1051B00067650000206F00006E2000005670000040
:1051C000756C00006C7500007020000070690000B4
:1051D0006E000000203D000020000000524500004D
:1051E00053450000540D00000A000000436C00000D
:1051F0007574000063680000206500006E670000A1
:1052000061670000656400002121000021000000AA
:105210005652000045470000207400006F6F0000E8
:10522000206C00006F7700002C20000069730000E4
:1052300020740000686500007265000020610000B5
:1052400020730000686F0000727400003F000000CF
:10525000436C000075740000636800002064000067
:1052600069730000656E00006761000067650000FB
:105270006421000021210000002E0000203C0000DD
:10528000002E000020000000546F00002066000087
:10529000696E0000697300006820000073650000FB
:1052A00074750000702C0000207300007461000011
:1052B0007274000020750000702000007468000007
:1052C00065200000706F000077650000722000000C
:1052D00073750000707000006C6900006573000059
:1052E000207700006974000068200000636F0000F0
:1052F0006D6D0000616E0000642000002757000003
:10530000270D00000A000000200000000D0A000028
:105310002800000078000000293E00000042000044
:105320007573000020500000697200006174000075
:105330006520000076340000004300006F6D00001F
:105340006D7500006E690000747900002046000051
:10535000697200006D770000617200006520000036
:10536000763700002E300000202D0000206700005E
:105370006F6F00002E6700006C2F00006743000075
:105380007A5100006E570000200000002028000025
:1053900032340000464A0000323500003647000033
:1053A0004231000030360000200000004133000090
:1053B0000041000035000000554E00004B00000089
:1053C0002900000043460000473000003A2000005A
:1053D00000560000707500003D350000562C00009E
:1053E0002000000056700000753D0000335600009C
:1053F000332C00002000000049090000004F00008D
:105400000900000048090000004C000009000000ED
:10541000456E00007465000072200000726100009B
:1054200077200000766100006C75000065200000A8
:10543000666F00007220000042520000470000002A
:1054400057610000726E0000696E0000673A00004C
:10545000206100006C72000065610000647900004A
:1054600020610000207600006F6C00007461000075
:1054700067650000206F00006E200000567000007D
:10548000756C00006C7500007020000070690000F1
:105490006E0000003157000030310000005E000057
:1054A000BCE20000613F0000DD830000C29C000000
:1054B0007E200000A3FD00001F4100009DC30000EE
:1054C000217F0000FCA20000401E00005F010000E0
:1054D000E3BD00003E60000082DC0000237D000090
:1054E0009FC10000421C0000FEA00000E1BF0000C0
:1054F0005D03000080DE00003C620000BEE00000B2
:10550000025C0000DF810000633D00007C2200009F
:10551000C09E00001D430000A1FF000046180000CF
:10552000FAA40000277900009BC5000084DA00007F
:1055300038660000E5BB000059070000DB8500006D
:1055400067390000BAE4000006580000194700005F
:10555000A5FB000078260000C49A0000653B00000F
:10556000D9870000045A0000B8E60000A7F900003F
:105570001B450000C69800007A240000F8A6000031
:10558000441A000099C70000257B00003A6400001F
:1055900086D800005B050000E7B900008CD200004F
:1055A000306E0000EDB30000510F00004E100000FF
:1055B000F2AC00002F71000093CD0000114F0000ED
:1055C000ADF30000702E0000CC920000D38D0000DF
:1055D0006F310000B2EC00000E500000AFF100008F
:1055E000134D0000CE900000722C00006D330000BF
:1055F000D18F00000C520000B0EE0000326C0000B1
:105600008ED00000530D0000EFB10000F0AE00009E
:105610004C12000091CF00002D730000CA940000CE
:1056200076280000ABF5000017490000085600007E
:10563000B4EA000069370000D58B0000570900006C
:10564000EBB50000366800008AD4000095CB00005E
:1056500029770000F4AA000048160000E9B700000E
:10566000550B000088D60000346A00002B7500003E
:1056700097C900004A140000F6A80000742A000030
:10568000C8960000154B0000A9F70000B6E800001E
:105690000A540000D78900006B3500002E0000007E
:1056A0003A200000000000004C45000054000000BB
:1056B0004946000000540000484500004E0000002C
:1056C000454C000053450000004700004F540000C7
:1056D0004F000000474F00005355000042000000FB
:1056E0005245000054550000524E00000052000088
:1056F000454D000000500000524900004E5400008B
:10570000004900004E5000005554000000460000C3
:105710004F520000005400004F0000004E450000B2
:1057200058540000005200004541000044000000B1
:105730004441000054410000005300005441000067
:105740005254000052000000535400004152000027
:1057500054000000535400004F500000520000005D
:10576000535400004F50000000530000454E00000D
:105770004400000052450000434500004956000027
:1057800045000000434C00004B0000004441000075
:1057900054000000424900005452000045410000FE
:1057A0004400000041440000430000004155000057
:1057B00058500000494E00000050000053550000B2
:1057C00000500000554C00004C55000050000000F7
:1057D000444500004C4100005900000041550000C4
:1057E00058000000465200004551000000440000EF
:1057F00055540000590000004D4100004352000084
:105800004F000000454E0000440000000052000020
:10581000554E0000004C00004953000054000000A9
:105820004558000049540000004400004542000073
:1058300055470000004E00004557000000000000E2
:105840001201000000020000020000000008000039
:10585000D804000000FB000002000000010200006C
:1058600003010000090200004300000002010000E3
:105870000080000064090000040000000001000036
:1058800002020000010000000524000000100000DA
:1058900001040000240200000205000024060000AC
:1058A00000010000052400000101000001070000C4
:1058B00005810000030A0000004000000904000008
:1058C00001000000020A00000000000000070000C4
:1058D0000502000002400000000000000705000073
:1058E00082020000400000000004000003090000E4
:1058F000042A00000344000000610000006E000064
:10590000006700000065000000720000006F0000EA
:10591000007500000073000000200000005000002F
:1059200000720000006F000000740000006F0000B3
:1059300000740000007900000070000000650000A5
:1059400000730000001E000003420000007500000C
:1059500000730000002000000050000000690000FB
:10596000007200000061000000740000006500008B
:10597000002000000056000000340000002000005D
:105980000012000003300000003000000030000072
:105990000030000000300000003000000030000047
:1059A000003100000000000014340000040D00006D
:1059B0008206000040030000A0010000CF000000AC
:1059C0006700000044000000220000007F0000008B
:1059D00042610000756400002064000065740000EE
:1059E00065630000746900006F6E000020730000A2
:1059F000656C00006563000074650000642E0000A3
:105A00002E00000020000000000000000000000048
:105A1000000000002C0100000000000058020000FF
:105A200000000000B0040000000000006009000059
:105A300000000000C01200000000000080250000EF
:105A4000000000004038000000000000004B000093
:105A500000000000807000000000000000960000C0
:105A600000000000C0DA00000000000000E10000BB
:105A70000000000000C200000100000000F400006F
:105A80000100000000E800000300000014340000E2
:105A9000040D00008206000040030000A001000089
:105AA000CF0000007F0000006700000044000000FD
:105AB00022000000415200005431000000000000AC
:105AC0009D2500000D000000290000002057000067
:105AD00000200000520000004E6F00007720000000
:105AE00075730000696E0000672000006F6E000093
:105AF0002D6200006F61000072640000204500000C
:105B000045500000524F00004D2000004932000077
:105B100043200000696E000074650000726600009A
:105B200061630000650000004F6E00002D62000000
:105B30006F610000726400002045000045500000C5
:105B4000524F00004D200000777200006974000081
:105B500065200000707200006F7400006563000033
:105B6000742000006469000073610000626C000032
:105B7000656400000049000032430000310000006D
:105B8000204800007A0000004672000065710000A5
:105B9000756500006E6300006965000073200000F9
:105BA0003C200000314800007A20000061720000B3
:105BB000652000006E6F0000742000007375000007
:105BC000707000006F72000074650000642E0000A9
:105BD00000000000001800001C1D0000436F0000C2
:105BE000756C0000646E000027740000206B0000DC
:105BF0006565000070200000757000000000000066
:105C0000001800001C1D0000030B0000131B000007
:105C100053500000493100000000000030780000BF
:105C200030310000323300003435000036370000D8
:105C3000383900004142000043440000454600005E
:105C40003062000000300000303000002C00000006
:105C500030300000000000000142000050760000DB
:105C600034000000210000000010000000230000AC
:105C7000000F00004240000040050000410200000B
:105C800000310000414C00005300000029000000DA
:105C9000007500006E6B00006E6F0000776E0000F4
:105CA000206D00006F640000650000005049000096
:105CB000433100000000000042420000494F000054
:105CC0003100000058530000563100000000000071
:105CD000080800000808000008000000000000009C
:105CE0005241000057310000000000004E4F0000FC
:105CF000454D0000530000000000000000000000BF
:105D00002900000000000000000000002000FA0050
:105D10000000EB00000F78000000EB0010988900F5
:105D20000000EB000098890001988100210F980085
:105D30000000EB00300F98000000EB00400F9800CF
:105D40000000EB0080A689000000EB00000F980027
:105D5000403023008040EB00014878000000EB0059
:105D6000100F98000000EB00100798000000EB00F7
:105D7000200798000000EB00300798000040EB007F
:105D8000205F98000040EB00305F98000000EB00BF
:105D900060079800140037000000EB0070079800BF
:105DA0000B0037006E009000513023004501DD00EC
:105DB0007E00900000004100008040008040EB0029
:105DC000014878007E0090000000E800700798000D
:105DD0007E009000FF0F5000F2FF34006E00900034
:105DE0000000E800600798006E009000E40F50008B
:105DF000E9FF34000000EB00309D890081A681009E
:105E0000000320000088B900000078008102200013
:105E100080804000C0C62200008040007AD8020086
:105E200000000000B1A6810000402000008060005A
:105E30000000E000040032007100200040652000F6
:105E40001601020001000000608A2A007AD80200D0
:105E50000000000045043700309D81000000E00094
:105E600063003200309D81000000E900309D890010
:105E70000000EB00700798001B00370000988100BD
:105E8000319D81004509DD00FE0090008100410048
:105E90005230230062C17800012023008270780014
:105EA000309D8100C500DD007E0090000080400034
:105EB000513023006140780088DC020000000000BF
:105EC000009881000000E800009889007E009000A2
:105ED0000000E8007007980001988100F00F200092
:105EE0000080600000988900309D8100C500DD00C1
:105EF0007E00900000804000513023006140780017
:105F00000004E000DDFF3A000000EB00309D890056
:105F100038003700404B2300104078006440600098
:105F20000004E0003000320081A681000003200060
:105F30000088B90000007800FA004000C0C62200C6
:105F40000080400010007800000001000004E00024
:105F50002500320081A68100000320000088B900DE
:105F6000000078008102200080804000C0C622002E
:105F7000008040007AD8020000000000608A2A00F9
:105F80007AD802000000000011988100009881007A
:105F9000808F500014003200109881007007980024
:105FA0000D003700012023007E009000008040009B
:105FB0001040780088DC020000000000FE00900025
:105FC000F00F200000806000700798007E009000B5
:105FD0000000E80070079800FE0090000098810023
:105FE000808F5000EFFF3A009016800001003700CC
:105FF00000000000C2DC0200000000000004E0001D
:10600000C4FF3200F6DC0200000000000004E000E3
:10601000030032000ADD020000000000D303370055
:10602000E2DC020000000000405F98004E58900043
:106030000080FB00CF80DE00F2072000030020007C
:10604000820F5000838F58004E033E000060010015
:1060500041033700F40237004F013700490337008E
:10606000D70037000D0337006501370045033700BF
:10607000770037004303370024033700410337001C
:106080004003370021033700110237003D0337007A
:106090006D0137003B0337003A03370039033700FF
:1060A000380337003703370036033700350337002E
:1060B0003403370033033700320337000101370060
:1060C000300337002F0337002E0337002D0337002E
:1060D0002C0337002B0337002A033700290337002E
:1060E000280337002703370026033700250337002E
:1060F000240337002303370022033700210337002E
:10610000200337001F0337001E0337001D0337002D
:106110001C0337001B0337001A033700190337002D
:10612000180337001703370016033700150337002D
:10613000140337001303370012033700110337002D
:10614000100337000F0337000E0337000D0337002D
:106150000C0337000B0337000A033700090337002D
:10616000080337000703370006033700050337002D
:10617000040337000303370002033700010337002D
:1061800000033700FF023700FE023700FD02370030
:10619000FC023700FB023700FA023700F902370031
:1061A000F8023700F7023700F6023700F502370031
:1061B000F4023700F3023700F2023700F102370031
:1061C000F0023700EF023700EE023700ED02370031
:1061D000EC023700EB023700EA023700E902370031
:1061E000E8023700E7023700E6023700E502370031
:1061F000E4023700E3023700E2023700E102370031
:10620000E0023700DF023700DE023700DD02370030
:10621000DC023700DB023700DA023700D902370030
:10622000D8023700D7023700D6023700D502370030
:10623000D4023700D3023700D2023700D102370030
:10624000D0023700CF023700CE0237005C003700A3
:1062500010988100AE089000808F500054003200EA
:1062600000988100AE089000808F50000F003A0027
:10627000009881008000E900F00F2000008060009D
:106280000098890000988100012023000041EB0064
:106290008270780001988100210F9800808A2A007E
:1062A0007AD8020000000000300337000000EB0045
:1062B000600798002E0890008000E900F00F200091
:1062C00000806000200F9800C08A2A007AD802005F
:1062D00000000000AE089000710798002000370011
:1062E0007E0090000000E80001202300E1407800DB
:1062F000022023007E009000000041000148780049
:10630000012023007E0090000080400010407800B3
:106310000004E00007003200012023007E0090000E
:10632000008040001040780088DC0200000000007F
:106330000300370000C2B30088DC02000000000048
:106340006E0090000000E800600798007E0090005A
:106350008000E800F00F20000080600070079800C7
:10636000FE00900000988100808F5000DCFF3A0012
:10637000009881008000E900F00F2000008060009C
:1063800000988900008B2A007AD8020000000000E3
:106390006E009000004078000CDB0200000000005E
:1063A000308B2A007AD8020000000000EF0237008C
:1063B00070C0B30088DC020000000000EB02370070
:1063C00000988100AE089000808F500039003200A4
:1063D0000000EB0060079800AE089000710798007D
:1063E000200037007E0090000000E800012023001C
:1063F000E1407800022023007E0090000000410070
:1064000001487800012023007E00900000804000B9
:10641000104078000004E000070032000120230053
:106420007E009000008040001040780088DC020070
:10643000000000000300370000C2B30088DC020047
:10644000000000006E0090000000E8006007980067
:106450007E0090008000E800F00F200000806000C7
:1064600070079800FE00900000988100808F500017
:10647000DCFF3A00009881008000E900F00F200066
:106480000080600000988900008B2A007AD8020002
:10649000000000006E009000004078000CDB02005D
:1064A00000000000308B2A007AD8020000000000B3
:1064B000AE02370070C0B30088DC020000000000AC
:1064C000AA023700E2DC020000000000405F9800F2
:1064D000CE589000B0C5B30080CF50009C023A0067
:1064E000E2DC020000000000405F98004E5890007F
:1064F0000080FB0011042000810F50005100320089
:1065000011042000810F500007003C0011032000FF
:10651000810F50000E00320041032000810F500017
:10652000130032009102370031042000810F500027
:106530003200320031042000810F5000E3003500AA
:1065400041042000810F5000120032008702370002
:10655000E2DC020000000000405F9800CE5890008E
:10656000E0C7B30080CF5000AE0132000800370012
:10657000E2DC020000000000405F9800CE5890006E
:10658000E0C7B30080CF5000C3013200000000001C
:1065900076023700000000001E089000E40F500053
:1065A00005003400C0F80200000000000000EB000D
:1065B000100F98006D02370010988100AE0890000F
:1065C000808F5000090032002E0890008000E90002
:1065D000F00F200000806000200F9800C08A2A0081
:1065E0007AD80200000000006002370070C0B300DB
:1065F00088DC0200000000005C02370000000000A0
:1066000000988100AE089000808F50000900320091
:106610002E0890008000E800F00F2000008060004D
:10662000200F9800508B2A007AD80200000000004A
:106630004E02370070C0B30088DC0200000000008A
:106640004A023700000000000000EB00400F9800F5
:10665000109881000000E90080007800F00F200011
:1066600000806000700798008C0037000120230034
:106670007E00900000804000104078000004E000A0
:1066800081003A007E0090008000E900F00F2000B9
:106690000080600001202300614078000004E000D9
:1066A000790032004E0890000000E800400F98008A
:1066B000CE0890003E089000808F50007200360097
:1066C0003E0890000000E800300F9800119881000B
:1066D00000988100808F50001200320009003700BE
:1066E00000988100012023000041EB0082707800B7
:1066F000009881008000E900F00F20000080600019
:10670000009889000198810010988100808F5000C6
:10671000F3FF3A0000988100012023000041EB00C4
:10672000827078007E0090008000E900F00F200069
:1067300000806000600798001100370001202300EE
:106740006E00900000804000104078000004E000DF
:1067500006003A006E0090008000E800F00F200074
:1067600000806000000F9800090037006E00900064
:106770008000E900F00F20000080600060079800B2
:10678000EE00900000988100808F5000EBFF3A00EF
:10679000908B2A007AD802000000000081A68100B8
:1067A000000320000088B90000007800810220006A
:1067B00080804000C0C62200008040007AD80200DD
:1067C00000000000B1A681000040200000806000B1
:1067D0000000E0000400320071002000406520004D
:1067E0001601020001000000608A2A007AD8020027
:1067F000000000008E089000610798001700370025
:10680000012023006E0090000080400010407800BE
:1068100088DC0200000000000098810002202300B4
:10682000EE0090008100410011417800012023001A
:1068300082707800009881008000E800F00F20004E
:1068400000806000009889006E0090008000E800E1
:10685000F00F20000080600060079800EE009000BC
:106860007E009000808F5000E5FF3A000098810084
:10687000012023000041EB00827078000198810024
:10688000210F9800090037007E0090008000E90089
:10689000F00F20000080600070079800FE0090005C
:1068A00000988100808F500070FF3A00FE00900039
:1068B00000988100808F5000A7013A0070C0B3009B
:1068C00088DC020000000000A80137000000000082
:1068D0000000EB00400F9800109881000000E900D4
:1068E00080007800F00F20000080600070079800A2
:1068F0008D003700012023007E00900000804000C2
:10690000104078000004E00082003A007E00900011
:106910008000E900F00F20000080600001202300CB
:10692000614078000004E0007A0032004E089000D8
:106930000000E800400F98003E0890008000E90049
:106940004E089000808F500072003A003E08900080
:106950000000E900300F9800119881000098810034
:10696000808F50001200320009003700009881002B
:10697000012023000041EB00827078000098810024
:106980008000E900F00F200000806000009889007E
:106990000198810010988100808F5000F3FF3A0029
:1069A00000988100012023000041EB0082707800F4
:1069B0007E0090008000E900F00F20000080600061
:1069C0006007980011003700012023006E0090003E
:1069D00000804000104078000004E00006003A000B
:1069E0006E0090008000E800F00F20000080600042
:1069F000000F9800090037006E0090008000E90049
:106A0000F00F20000080600060079800EE0090000A
:106A100000988100808F5000EBFF3A00908B2A0095
:106A20007AD802000000000081A681000003200047
:106A30000088B900000078008102200080804000BA
:106A4000C0C62200008040007AD80200000000008A
:106A5000B1A6810000402000008060000000E0003E
:106A60000400320071002000406520001601020081
:106A700001000000608A2A007AD8020000000000AD
:106A80008E0890006107980017003700012023004E
:106A90006E009000008040001040780088DC02000A
:106AA000000000000098810002202300EE0090000A
:106AB000810041001141780001202300827078009C
:106AC000009881008000E800F00F20000080600046
:106AD000009889006E0090008000E800F00F200010
:106AE0000080600060079800EE0090007E0090003B
:106AF000808F5000E5FF3A000098810001202300BC
:106B00000041EB008270780001988100210F98000D
:106B1000090037007E0090008000E900F00F20009F
:106B20000080600070079800FE00900000988100CF
:106B3000808F50006FFF3A00FE00900000988100A7
:106B4000808F500006013A003E089000E10F50008F
:106B500030003A00908B2A007AD802000000000032
:106B600081A68100000320000088B90000007800A1
:106B70008102200080804000C0C6220000804000CA
:106B80007AD8020000000000B1A681000040200079
:106B9000008060000000E00004003200710020006E
:106BA000406520001601020001000000608A2A00F2
:106BB0007AD8020000000000090037000098810028
:106BC000012023000041EB008270780000988100D2
:106BD0008000E900F00F200000806000009889002C
:106BE0000198810010988100808F5000F3FF3A00D7
:106BF00000988100012023000041EB0082707800A2
:106C000001988100210F98000000EB00300F9800E0
:106C1000D600370070C0B30088DC0200000000001E
:106C2000D20037000000000010988100AE089000EC
:106C3000808F50001400320010988100AE08900040
:106C40000080500080007800F00F2000008060007D
:106C500060079800008B2A007AD80200000000002C
:106C60006E009000004078000CDB02000000000085
:106C7000308B2A007AD802000000000011988100B1
:106C8000210F9800B900370070C0B30088DC020003
:106C900000000000B50037000000000000988100EF
:106CA000AE089000808F50001400320001988100DF
:106CB0002E0890000080500080007800F00F200027
:106CC0000080600060079800008B2A007AD80200DC
:106CD000000000006E009000004078000CDB020015
:106CE00000000000F08B2A007AD8020000000000AB
:106CF00001988100210F98009C00370070C0B300FC
:106D000088DC02000000000098003700100020001E
:106D1000000F78000000EB00300F98000098810011
:106D2000012023000041EB00827078000098810070
:106D30008000E800F00F20000080600000988900CB
:106D400001988100210F9800108C2A009ED8020023
:106D500000000000850037001E0890000000E800D9
:106D6000100F98001E089000F40F50007E003A00AB
:106D7000F8CD0200000000000000EB00100F9800AA
:106D800017023700009881008000E800F00F200013
:106D90008080600010988100808F50006800320071
:106DA0004E589000FF4F500065003600CE589000BE
:106DB000E0C7B30080CF500061003E000198810021
:106DC0002E089000808F500013003A004E5890001B
:106DD00088DC020000000000009881004E599000FD
:106DE0000120230082707800009881008000E80074
:106DF000F00F20000080600000988900009881005A
:106E0000012023000041EB0082707800019881008E
:106E1000210F980055003700019881002E0890003E
:106E20000080500080007800F00F2000008060009B
:106E300060079800008B2A007AD80200000000004A
:106E40006E009000004078000CDB020000000000A3
:106E5000F08B2A007AD80200000000000098810020
:106E6000700798001C0037007E0090000000E800CA
:106E700002202300FE0090008100410011417800B3
:106E80000120230082707800012023007E00900002
:106E900000804000104078000004E000090032004B
:106EA000012023007E009000008040001040780008
:106EB00088DC020000000000208C2A007AD8020042
:106EC000000000007E0090008000E900F00F20002C
:106ED0000080600070079800FE0090002E0890006F
:106EE0000001E900F00F200000006100808F5000D9
:106EF000DDFF3A004E58900088DC020000000000E0
:106F0000CE589000022023002E089000000041007F
:106F1000014878002E0890008000E800F00F200063
:106F200000806000200F9800009881008000E80039
:106F3000F00F200000806000009889000B003700EF
:106F400070C0B30088DC02000000000007003700BA
:106F500000000000050037000000000003003700BB
:106F60000000000001003700000000001E00780053
:106F70000000E000B8FB3200009881002007980074
:106F800010988100300798000000EB00000F780097
:106F90000000EB0010079800403023008040EB0019
:106FA00001487800B1A68100004020000080600008
:106FB0000000E0000800320016700200000000002F
:106FC00051002000B0652000A20102000100000075
:106FD00010002000100798000040EB00205F980090
:106FE0000040EB00305F9800640537001098810086
:106FF0000120230061407800405F98004E589000C7
:107000000080FB00CF80DE00E207200003002000AC
:10701000820F5000838F58001B053E000060010066
:107020001D0537001805370017053700160537000E
:107030001505370014053700130537001205370012
:107040001105370010053700130537000E0537000E
:107050000D053700100537000B0537000A0537000E
:107060000905370008053700070537000605370012
:107070000505370004053700030537000205370012
:107080000105370000053700FF043700FE04370014
:10709000FD043700FC043700FB043700FA04370016
:1070A000FD043700D6043700FC02370049013700E1
:1070B0004D0137000F023700FD013700F2043700A1
:1070C000D4023700F0043700EF043700EE04370035
:1070D000F10437007E04370099043700600437005C
:1070E00078033700770337007603370075033700DE
:1070F00074033700730337007203370071033700DE
:10710000700337006F033700DF043700DE043700F9
:1071100018023700E2003700DB0437004700370071
:107120006001370052013700D70437006C00370088
:10713000DC013700D4043700D3043700D204370011
:10714000D1043700D0043700CF043700780037006F
:1071500081003700CC043700CB043700CA04370065
:10716000A7003700C8043700C7043700F60137000E
:10717000C5043700C4043700C30437005F0137007B
:10718000C1043700C0043700BF04370026033700AE
:107190004104370037033700790437005A043700B9
:1071A000B9043700250137002F00370042003700AF
:1071B000AE013700B8003700310037003300370028
:1071C0001600370020003700AF0437004E003700AC
:1071D0006D00370022003700AB0437002400370071
:1071E00075003700A8043700B1033700D20137001B
:1071F000A5043700A40437001F0037007C013700C6
:10720000A1043700A00437009F0437000F033700A4
:10721000C000370021033700E1003700880707006E
:107220000000E0009E043A001098810030079800AA
:107230000098810020079800A2043700B8010200DE
:10724000010000009F043700A509070080A6810007
:107250000000E00094043200F609070099043700AA
:10726000E006070097043700650B07009504370018
:107270003D0B070093043700A80A0700910437006C
:1072800014AF0200000000008E04370080A68100C9
:107290000000E00005003A00D1012000B0682000A5
:1072A000A20102000100000086043700B4AD020014
:1072B0000000000083043700414B23001140780098
:1072C0000000A1000010A1008048780061012000AA
:1072D00000662000A20102000100000079043700CE
:1072E000414B2300114078000000A0000010A100D5
:1072F000804878005101200060672000A201020050
:10730000010000006F043700414B2300114078005A
:107310000000A1000010A00080487800710120004A
:10732000B0452100A2010200010000006504370001
:10733000414B2300114078000000A0000010A00085
:10734000804878007101200020472100A20102003E
:10735000010000005B043700414B2300114078001E
:107360000030A00080487800C1012000408D20003E
:107370001601020001000000108C2A009ED80200B5
:10738000000000004F043700414B230011407800FB
:107390000030A10080487800B1012000908B2000CF
:1073A0001601020001000000108C2A009ED8020085
:1073B000000000004304370080A681000000E000C8
:1073C00005003A00D1012000B0682000A2010200AF
:1073D000010000003B043700E282A900E082A9001E
:1073E00051012000806A2000160102000100000007
:1073F000108C2A009ED802000000000031043700E3
:1074000080A681000000E00005003A00D1012000C4
:10741000B0682000A201020001000000290437002A
:10742000404B230010407800704060000004E000F2
:1074300004003A0021022000D0FB2000A20102003B
:1074400001000000E082A800E282A90041012000C2
:10745000D06B20001601020001000000108C2A00F1
:107460009ED802000000000021E3A8005000200088
:1074700004FC020000000000F1042000810F500015
:1074800003003E00708C2A009ED80200000000001D
:1074900021E3A9000B043700350B0700090437006E
:1074A000109881008000E800F00F2000008060004C
:1074B000109889003C0607003A04070070079800FE
:1074C0007E00900074DB020000000000A08E2A0005
:1074D0007AD80200000000007E0090000040780092
:1074E0000CDB020000000000A08E2A007AD8020007
:1074F000000000007E00900000407800CAD8020022
:1075000000000000108C2A009ED80200000000003D
:10751000EC033700109881008000E800F00F200095
:1075200000806000109889001F0607001D040700F6
:10753000700798007E009000004078000080FB00FB
:1075400098FD020000000000700798007E00900087
:1075500074DB020000000000A08E2A007AD802002E
:10756000000000007E009000004078000CDB02006C
:1075700000000000A08E2A007AD80200000000005F
:107580007E00900000407800CAD802000000000091
:10759000108C2A009ED8020000000000C9033700AA
:1075A00080A681000000E00005003A0011C0B30091
:1075B00010C0B3006CE1020000000000C1033700FE
:1075C000A1012000106D2000A201020001000000B6
:1075D000BC033700E08E2A007AD8020000000000C9
:1075E000BF080700B703370048020200010000008F
:1075F0000004E000AE033200A1002000006F200074
:10760000A2010200010000004006200038FD020037
:107610000000000084FB02000000000000000000E9
:10762000BADC0200000000000004E000FCFF3200B1
:1076300081BF2A0001400100A20337005C0507005A
:107640000000E800600798000200370014B502004F
:10765000000000006E0090000000E9006007980044
:107660006E0090000000E000F8FF3A00950337003C
:107670004F0507000000E80060079800020037008F
:10768000DAB40200000000006E0090000000E90083
:10769000600798006E0090000000E000F8FF3A00DC
:1076A00088033700420507000000E80060079800E3
:1076B0000B00370061012000A06F200016010200BE
:1076C000010000004EB502000000000040D802009A
:1076D00000000000108C2A009ED80200000000006C
:1076E0006E0090000000E900600798006E009000B6
:1076F0000000E000EFFF3A007203370080A681002F
:107700000000E00005003A00D1012000B068200030
:10771000A2010200010000006A033700C922A9008B
:10772000CB22A80021E3A8002000200038FD0200A1
:10773000000000000000EB0004FC0200000000005C
:10774000011B2000810F50001B003600200020008C
:1077500004FC020000000000712B2000810F50008B
:1077600015003600110120000071200016010200F2
:1077700001000000108C2A009ED8020000000000CA
:1077800081A68100000320000088B9000000780075
:107790000102200080804000C0C62200008040001E
:1077A0001000780000000100608F2A009ED80200BF
:1077B000000000000C003700C922A900CB22A9005C
:1077C00080902A009ED802000000000021012000C5
:1077D000107220001601020001000000108C2A0027
:1077E0009ED802000000000021E3A9003503370005
:1077F00080A681000000E00005003A00D1012000D1
:10780000B0682000A2010200010000002D03370033
:1078100081A68100000320000088B90000007800E4
:107820002102200080804000C0C62200008040006D
:10783000100078000000010080922A009ED802000B
:1078400000000000C922A900CB22A90021012000CC
:10785000107220001601020001000000108C2A00A6
:107860009ED802000000000016033700F10020003F
:10787000C0362000160102000100000020FC0200BA
:107880000000000011002000B037200016010200A7
:1078900001000000108C2A009ED8020000000000A9
:1078A0000803370032FC0200000000000503370027
:1078B000BF0407006007980061002000F0732000FB
:1078C00016010200010000006E009000A4DA020020
:1078D000000000002100200050742000A2010200DE
:1078E000010000006E00900060FD0200000000003A
:1078F000F4023700AE040700600798006100200022
:10790000F073200016010200010000006E009000DC
:10791000A4DA020000000000210020001000210075
:10792000A2010200010000006E00900038FD02007C
:1079300000000000E3023700B0A6810000A0A00014
:10794000B0A68900DF02370080A681000000E000B9
:1079500005003A00D1012000B0682000A201020019
:1079600001000000D7023700AAB5020000000000A5
:10797000D40237004030230011C0B3000148780022
:107980001000200070079800100037001198810047
:107990007E00900080804000F00F2000008060009A
:1079A00001202300E1407800E0C3B30080CF500005
:1079B00003003A00403023008040EB00014878008B
:1079C0007E0090000000E800700798001198810088
:1079D0007E00900080804000F00F2000008060005A
:1079E00001202300614078000004E000E7FF3A0036
:1079F000FE00900020022000808F50000300340021
:107A00004030230011C0B30001487800403023000B
:107A1000104078000004A2000004E000A60232003A
:107A2000109881008000E800F00F200000806000C6
:107A300010988900DB0207007007980011988100F8
:107A4000F00F20000080600001202300E14078005A
:107A5000D0C3B30080CF500040003A007E009000B9
:107A60000000E000390034007E009000E50F500077
:107A700036003C00109881008000E800F00F2000E4
:107A800000806000109889007E0090000000E900EE
:107A9000700798000000EB00600798000B003700AB
:107AA0007E009000513023004501DD006E00900003
:107AB00000004100008040008040EB000148780059
:107AC0006E0090000000E800600798006E009000D3
:107AD000FF0F5000F2FF34000000EB006007980039
:107AE000120037001098810001202300E140780047
:107AF0007E00900052302300C501DD006E00900032
:107B00000080410000004100014878006E009000B4
:107B10000000E80060079800109881008000E800ED
:107B2000F00F2000008060001098890010988100FC
:107B300001202300E1407800E0C3B30080CF500073
:107B4000E8FF3A00000000005E02370040302300EA
:107B500011C0B300014878005A0237007E0090003F
:107B60000000E0001B003A000000EB0060079800F6
:107B7000140037006E009000004078000040E800DC
:107B80000CDB020000000000D0932A007AD802002B
:107B900000000000513023006E0090004500DD0021
:107BA000008040007AD8020000000000608A2A00AD
:107BB0009ED80200000000006E0090000000E80067
:107BC000600798006E009000E40F5000E9FF340059
:107BD0003C0237007E0090000000E0000900340005
:107BE0007E009000E50F500006003C00108C2A003B
:107BF0009ED8020000000000FE009000319D890028
:107C0000300237004030230011C0B3000148780033
:107C10002C023700109881008000E800F00F20004F
:107C200000806000109889005E02070040079800FD
:107C30005D04070011988100F00F200000806000B3
:107C400001202300E140780090C2B30080CF5000B3
:107C50000E003A0081A68100000320000088B900D0
:107C600000007800FC004000C0C6220000804000F8
:107C7000900078004E00900001000100108C2A0056
:107C80009ED80200000000000E02370040302300A2
:107C900011C0B300014878000A02370040302300C9
:107CA00011C0B30001487800100020007007980050
:107CB00010003700119881007E0090008080400005
:107CC000F00F20000080600001202300E1407800D8
:107CD00020C2B30080CF500003003A0040302300A0
:107CE0008040EB00014878007E0090000000E80032
:107CF00070079800119881007E00900080804000FD
:107D0000F00F200000806000012023006140780017
:107D10000004E000E7FF3A00403023001040780004
:107D20000004A2000004E000E50132007100200020
:107D300070742000160102000100000020C2B30090
:107D400088DC02000000000021003700119881004B
:107D5000F00F2000008060001098890010988100CA
:107D6000012023006140780088DC02000000000050
:107D70001098810001202300614078000000FB0082
:107D800040079800404B2300104078006840600096
:107D90000004E000040032004E00900098FD020054
:107DA000000000004007980081A681000003200029
:107DB0000088B90000007800E8004000C0C622003A
:107DC00000804000900078004E009000010001000B
:107DD000109881000000E800109889001198810037
:107DE000F00F20000080600001202300E1407800B7
:107DF00020C2B30080CF5000D4FF3A001198810018
:107E0000F00F2000008060001098890020C2B300AD
:107E100088DC020000000000108C2A009ED80200BE
:107E200000000000A701370081A6810000032000A8
:107E30000088B90080007800C0C6220000804000A1
:107E400010007800000001009E01370081A681002B
:107E5000000320000088B900000078008080E8005E
:107E6000C0C6220000804000100078000000010021
:107E70009401370081A68100000320000088B9002A
:107E800000007800E4004000C0C6220000804000EE
:107E900010007800000001008A01370081A68100EF
:107EA000000320000088B90000007800E6004000D0
:107EB000C0C62200008040001000780000000100D1
:107EC000800137007100200070742000160102004C
:107ED00001000000B30107004007980010988100DE
:107EE0000000E9001098890011988100F00F20002F
:107EF00000806000109889002D0307000000E80052
:107F00006007980049030700700F98007E089000F2
:107F10000000E0005C0032007E08900080407800A5
:107F2000304A2300014878007E089000E80F500096
:107F300005003400414B2300114078000050A000A0
:107F40008048780050003700414B230011407800F2
:107F50000050A100804878004B0037004E00900090
:107F600090FC020000000000404B2300104078000D
:107F70000042B2000004E00004003A00304A23004E
:107F800010407800E84F500009003A00404B2300B1
:107F9000104078000042B2000004E0000B00320004
:107FA000304A230010407800F04F500007003200A4
:107FB000B0C3B30088DC020000000000304A230098
:107FC000104078000CDB020000000000404B230052
:107FD00010407800684060000004E00004003200B7
:107FE0004E00900098FD020000000000400798003D
:107FF00081A68100000320000088B90000007800FD
:10800000E8004000C0C622000080400090007800D8
:108010004E009000010001005007980000C2B3001C
:1080200088DC020000000000404B23001040780074
:108030000044B2000004E0001300320061002000A0
:10804000E07420001601020001000000404B2300F4
:1080500010407800684060000004E0000400320036
:108060005E00900098FD020000000000500798009C
:108070005E00900090FC02000000000000C2B3000F
:1080800088DC0200000000006E0090000000E900A3
:10809000600798006E0090000000E000AFFF3A001B
:1080A000108C2A009ED80200000000000501370055
:1080B00061002000E07420001601020001000000B1
:1080C000F5020700305F9800B90207000000E800E1
:1080D00060079800D5020700700F98007E08900096
:1080E0000000E000100032007E0890008040780020
:1080F000304A2300014878007E089000E80F5000C5
:1081000005003400414B2300114078000050A000CE
:108110008048780004003700414B2300114078006C
:108120000050A100804878003E5890000004E00014
:108130003900320070A68100205F98003E58900000
:108140000080FB000000E90070A6890032003700C3
:1081500081A68100000320000088B900000078009B
:10816000EA004000C0C622000080400010007800F5
:108170000000010050079800404B23001040780099
:10818000684060000004E000040032005E009000DF
:1081900098FD020000000000500798005E0090006B
:1081A00090FC020000000000404B230010407800CB
:1081B0000042B2000004E00004003A00304A23000C
:1081C00010407800E84F500009003A00404B23006F
:1081D000104078000042B2000004E0000B003200C2
:1081E000304A230010407800F04F50000700320062
:1081F000B0C3B30088DC020000000000304A230056
:10820000104078000CDB02000000000000C2B30048
:1082100088DC0200000000006E0090000000E90011
:10822000600798006E0090000000E000C8FF3A0070
:108230003E5890000004E000050032002E589000E7
:108240000080FB0070A689000040EB00305F9800C2
:10825000108C2A009ED80200000000009900370010
:108260008100200040752000A201020001000000F2
:1082700081A68100000320000088B900000078007A
:10828000EC004000C0C622000080400010007800D2
:10829000000001008B00370081002000C075200025
:1082A000A20102000100000081A68100000320005D
:1082B0000088B90000007800EE004000C0C622002F
:1082C0000080400010007800000001007D003700B1
:1082D000E100200040762000A20102000100000021
:1082E00081A68100000320000088B900000078000A
:1082F000F0004000C0C6220000804000100078005E
:10830000000001006F003700E1002000207720000E
:10831000A20102000100000081A6810000032000EC
:108320000088B90000007800F2004000C0C62200BA
:10833000008040001000780000000100610037005C
:10834000C10020003073200016010200010000006F
:1083500081A68100000320000088B9000000780099
:10836000F4004000C0C622000080400010007800E9
:108370000000010040D8020000000000510037005A
:108380000B02070060079800D10020000079200050
:1083900016010200010000006E00900090FC020037
:1083A000000000006E0090000000E80060079800E8
:1083B0000900370081A68100000320000088B90071
:1083C00000007800F6004000C0C622000080400097
:1083D00010007800000001006E0090000000E9002D
:1083E000600798006E0090000000E000F1FF3A0086
:1083F000108C2A009ED802000000000031003700D7
:10840000EB0107000000E80060079800A1002000D1
:10841000D079200016010200010000000F00370093
:1084200081A68100000320000088B90000007800C8
:10843000F8004000C0C62200008040001000780014
:10844000000001000080FB0040D802000000000096
:1084500000C2B30088DC0200000000006E00900043
:108460000000E900600798006E0090000000E00046
:10847000EBFF3A000101200000782000A201020079
:10848000010000000F0037004030230011C0B3008E
:10849000014878000B003700000000000900370099
:1084A0000000000007003700000000000500370052
:1084B000000000000300370000000000010037004A
:1084C00000000000109881008000E800F00F2000FC
:1084D0000080600010988900403023001040780030
:1084E0000004E0001F00320051012000707A2000DB
:1084F0001601020001000000BE00900010988100EB
:10850000808F500008003100109881008040780072
:108510003E0090000040780000C050000CDB0200DC
:1085200000000000070037001098810080407800AC
:108530003E0090000040780000C050000CDB0200BC
:1085400000000000403023008040EB00014878002C
:108550001000200010079800108C2A009ED80200FE
:10856000000000001198810000988100808F500069
:1085700002003A0010002000100798001E00900032
:108580000000E00099FA32002E0090001098890057
:108590002E009000009889000000EB00000F78008A
:1085A00016F637000400FA000000EB00000F780018
:1085B0000000EB0010079800119881001E00780061
:1085C00080804000F00F2000008060000120230028
:1085D000E140780000C3B30080CF50003C0034007D
:1085E000119881001E00780080804000F00F20006C
:1085F0000080600001202300E140780090C3B300B8
:1086000080CF500032003C00119881001E0078009D
:1086100080804000F00F20000080600001202300D7
:10862000614078000000FB000003B10010079800D3
:108630001E0FE800110037001E0090006A00B9000C
:108640000000780010079800119881001E00780043
:1086500080804000F00F2000008060000120230097
:10866000614078000000FB000003B1009E00900014
:1086700000804000100798001E0FE800119881004C
:108680001E00780080804000F00F20000080600015
:1086900001202300E1407800F0C2B30080CF5000F9
:1086A0002F013400119881001E0078008080400066
:1086B000F00F20000080600001202300E1407800DE
:1086C00090C3B30080CF5000DBFF34002D01370092
:1086D000119881001E00780080804000F00F20007B
:1086E0000080600001202300E140780000C3B30057
:1086F00080CF500015013A001E0FE800119881004C
:108700001E00780080804000F00F20000080600094
:1087100001202300E140780020C6B30080CF500044
:108720000A003200119881001E007800808040000D
:10873000F00F20000080600001202300E14078005D
:1087400020C4B30080CF500027003A001E0FE8007D
:10875000100037001E009000000040001007980035
:10876000119881001E00780080804000F00F2000EA
:108770000080600001202300614078000000FB00C1
:108780000003B1009E009000008040001007980098
:108790001E0FE800119881001E00780080804000C4
:1087A000F00F20000080600001202300E1407800ED
:1087B00010C3B30080CF5000E6FF32001198810053
:1087C0001E00780080804000F00F200000806000D4
:1087D00001202300E140780000C3B30080CF5000A7
:1087E000DCFF3200E7003700119881001E0078009E
:1087F00080804000F00F20000080600001202300F6
:10880000E140780080C7B30080CF50000A003200FA
:10881000119881001E00780080804000F00F200039
:108820000080600001202300E140780080C5B30093
:1088300080CF500080003A001E0FE8004100370052
:108840001E0090004400DD00100798001198810080
:108850001E00780080804000F00F20000080600043
:1088600001202300E1407800F0C2B30080CF500027
:1088700017003400119881001E00780080804000AD
:10888000F00F20000080600001202300E14078000C
:1088900090C3B30080CF50000D003C0011988100C0
:1088A0001E00780080804000F00F200000806000F3
:1088B00001202300614078000000FB000003B100AC
:1088C0009E00900000804000100798001C003700B8
:1088D000119881001E00780080804000F00F200079
:1088E00000806000129881009E0078000101410024
:1088F000F10F2000810061000220230062C1780096
:1089000001C2B30001417100012023008270780090
:10891000119881001E00780080804000F00F200038
:108920000080600001202300614078000000FB000F
:108930007005B1009E009000008040001007980074
:108940001E0FE800119881001E0078008080400012
:10895000F00F20000080600001202300E14078003B
:10896000F0C2B30080CF50000A003400119881009B
:108970001E00780080804000F00F20000080600022
:1089800001202300E140780090C3B30080CF500065
:10899000ABFF3400119881001E00780080804000F9
:1089A000F00F20000080600001202300E1407800EB
:1089B00000C4B30080CF50000A0034001198810039
:1089C0001E00780080804000F00F200000806000D2
:1089D00001202300E140780060C4B30080CF500044
:1089E00097FF3400119881001E00780080804000BD
:1089F000F00F20000080600001202300E14078009B
:108A000000C6B30080CF5000570034001198810099
:108A10001E00780080804000F00F20000080600081
:108A200001202300E140780060C6B30080CF5000F1
:108A300083FF340053003700119881001E00780036
:108A400080804000F00F20000080600001202300A3
:108A5000E1407800F0C2B30080CF50004400340001
:108A6000119881001E00780080804000F00F2000E7
:108A70000080600001202300E140780090C3B30033
:108A800080CF50003C003C00119881001E0078000F
:108A900080804000F00F2000008060000120230053
:108AA000614078000000FB000003B100100798004F
:108AB000110037001E0090006A00B9000000780025
:108AC00010079800119881001E00780080804000F7
:108AD000F00F20000080600001202300614078003A
:108AE0000000FB000003B1009E00900000804000E9
:108AF000100798001E0FE800119881001E007800F2
:108B000080804000F00F20000080600001202300E2
:108B1000E1407800F0C2B30080CF5000180034006C
:108B2000119881001E00780080804000F00F200026
:108B30000080600001202300E140780090C3B30072
:108B400080CF5000DBFF34000E00370040302300A0
:108B500011C0B300014878000000EB00120037009C
:108B6000000000000700370000000000050037008B
:108B70000000000003003700000000000100370083
:108B800000000000119881001E0078000080400065
:108B90001098890011988100F00F2000008060007B
:108BA000109889001E0090000080FA000000060066
:108BB0000200FA00109881008000E800F00F200009
:108BC0000080600001202300E1407800A0C3B300D2
:108BD00080CF500012003A00109881000080E80019
:108BE0001098890011988100F00F2000008060002B
:108BF000109889006BFE0700000F78001098810024
:108C00000000E9001098890011988100F00F200001
:108C100000806000109889001E0078000100370075
:108C2000100020000080FA00000006000200FA0098
:108C3000109881008000E800F00F200000806000A4
:108C400001202300E1407800B0C3B30080CF500082
:108C50000E003A00109881008080E800F00F20009C
:108C600000806000109889004EFE0700000F780019
:108C7000109881008000E900F00F20000080600063
:108C8000109889001E007800010037000000EB00FA
:108C90000080FA00000006000000FA001098810031
:108CA0008000E800F00F2000008060000120230019
:108CB000E140780080C7B30080CF500007003A0041
:108CC000109881008000E800F00F20000080600014
:108CD0001098890010C0B30031003700109881004F
:108CE0008000E800F00F20000080600001202300D9
:108CF000E140780040C6B30080CF500007003A0042
:108D0000109881008000E800F00F200000806000D3
:108D10001098890020C0B30021003700109881000E
:108D20008000E800F00F2000008060000120230098
:108D3000E140780020C6B30080CF500007003A0021
:108D4000109881008000E800F00F20000080600093
:108D50001098890030C0B3001100370010988100CE
:108D60008000E800F00F2000008060000120230058
:108D7000E140780070C7B30080CF500007003A0090
:108D8000109881008000E800F00F20000080600053
:108D90001098890040C0B300010037000040EB008C
:108DA0000080FA00000006000000FA00050037000D
:108DB000109881008000E800F00F20000080600023
:108DC000109889001098810001202300E14078006C
:108DD00000C2B30080CF5000F5FF32000080FA00DF
:108DE000000006000400FA000000EB0010079800E5
:108DF000109881008000E800F00F200000806000E3
:108E000010988900E8FF0700E6FD070010079800AA
:108E10001E0090000000E00058003A000000EB0047
:108E2000000F7800130037001E0078000040780023
:108E30000040E8000CDB02000000000010942A0053
:108E40007AD80200000000009E0078000003200095
:108E50000088B90000007800810220008080400076
:108E6000C0C62200008040009ED802000000000022
:108E70001E0FE8001E007800EA0F5000EAFF3400E1
:108E800071012000C07B2000A2010200010000004F
:108E9000403023008040EB000148780013002000A0
:108EA000B200200011002000100020000301070084
:108EB0000000E900100798001E009000E20F40003B
:108EC000030032001E009000E10F400005003A0050
:108ED000E1002000307D2000A2010200010000001E
:108EE0005000370081A68100000320000088B900EF
:108EF000000078002102200080804000C0C62200CF
:108F000000804000100078000000010084FB020097
:108F1000000000001E00900080A6890081A681004C
:108F2000000320000088B90000007800FE00400027
:108F3000C0C6220000804000100078000000010040
:108F400080922A009ED80200000000001E009000BF
:108F50000000E00004003200CB02A80040942A0088
:108F60009ED802000000000051002000B0652000E3
:108F7000A2010200010000002A0037001E0090003C
:108F80000000E900100798001E009000EA0F500052
:108F900020003C0081A68100000320000088B90069
:108FA000000078002102200080804000C0C622001E
:108FB00000804000100078000000010084FB0200E7
:108FC000000000001E00900080A6890081A681009C
:108FD000000320000088B90000007800FE00400077
:108FE000C0C6220000804000100078000000010090
:108FF0001E0090000000E00001003200CB02A8003B
:1090000051002000B0652000A20102000100000014
:10901000040037005101200020812000A20102003D
:1090200001000000009881008000E900F00F20009E
:1090300000806000109889000080FA00000006009F
:109040002400FA0010002000000F78001098810022
:109050000000E90080007800F00F20000080600030
:109060001007980042003700012023001E009000E6
:1090700000804000104078000004E00037003A0013
:109080001E0090008000E800F00F200000806000CB
:1090900001202300614078000004E0002F0032002E
:1090A0001E007800004078000CDB02000000000089
:1090B00010942A007AD8020000000000100020005E
:1090C000200798000C0037009E0090002E009000B2
:1090D00080804000F00F200000806000012023000D
:1090E0006140780088DC0200000000002E00900043
:1090F0000000E800200798009E0090002E009000DD
:1091000080804000F00F20000080600001202300DC
:10911000614078000004E000EBFF3A001E00900080
:109120008000E800F00F2000808060001E007800C2
:109130000000400000004700660040000108780081
:109140001E0FE8001E007800EF0F50000D003200E7
:10915000108C2A009ED80200000000001E00900023
:109160008000E900F00F20000080600010079800E8
:109170009E00900010988100808F5000BAFF3A0046
:10918000010037000000000040982A009ED802002D
:10919000000000007100200070822000A201020087
:1091A00001000000130020001E01780011002000C3
:1091B0000000EB0041000700100798001E0090001F
:1091C000E10F4000030032001E0090000000E000AC
:1091D00005003A00108C2A009ED802000000000012
:1091E00010002000330037000000EB00000F780073
:1091F00011003700019881001E0078008080400037
:10920000F00F2000808060001E00900000004000F1
:1092100000004700300090001E014000F00F2000C9
:10922000000061000220230062417800002023003A
:1092300002F078001E0FE8001E00900000004000C1
:1092400000004700300090009E004000F00F20001A
:109250000080600001202300614078000004E000ED
:10926000E4FF3A00009881008000E900F00F200040
:109270000080600010988900119881001E0078001D
:10928000008040008080E800F00F20000080600037
:1092900000988900009881008000E900F00F20000C
:1092A00000806000012023000041EB008270780004
:1092B0000000EB000080FA00000006001A00FA002F
:1092C000100F9800210F9800320F9800430F98005C
:1092D0000000EB00000F78000000EB001007980082
:1092E0000000EB00200798000000EB00300798001A
:1092F00060982A007AD80200000000001E08900042
:109300000000E00004003D00A0982A007AD8020086
:1093100000000000040037001E08900000407800A4
:109320000CDB020000000000C0982A007AD802007E
:10933000000000005C003700E2DC020000000000DA
:10934000004F98000E4890000000FB00ED0F500009
:1093500023003200ED0F500005003C00E80F5000E4
:109360000A003200EA0F50001D00320031003700C1
:10937000D1022000810F50001C0032008107200024
:10938000810F5000260032002A0037001E007800AE
:109390000000E000050032001E0FE900808A2A006C
:1093A0007AD80200000000003F0037003E00900025
:1093B0000000E000060032000000EB0030079800DB
:1093C000808A2A007AD802000000000036003700A8
:1093D00070C0B30088DC02000000000032003700DB
:1093E00010002000100798002F0037001E007800A2
:1093F0000000E00006003A00D0C2B30088DC0200A2
:109400000000000010002000300798002600370000
:1094100070C0B30088DC02000000000022003700AA
:109420004E0890000000E000020032000080EB00D7
:10943000540037008E489000F0C2B30080CF500037
:10944000160034008E48900090C3B30080CF5000C7
:1094500012003C001E007800E30F500006003400AC
:1094600070C0B30088DC0200000000004000200053
:10947000000F78000C0037000E48900088DC0200D6
:10948000000000006C0047001E0040008E48900065
:10949000014878001E0FE8000300370070C0B300D9
:1094A00088DC0200000000001E0090000000E000C8
:1094B000A1FF3200108C2A009ED80200000000009C
:1094C0001E0078000000E00002003A001E08900034
:1094D0002C0037000000EB00200798001E0FE90069
:1094E0009E007800510798000E0037002E00900073
:1094F0006A00B90000007800200798005E00900024
:109500001E00500000004700404890000000FB0093
:109510000003B100AE0090000080400020079800DA
:109520001E0FE9001E0078000000E000EFFF3D0084
:10953000AE0090002E089000808F50000C00350087
:10954000AE0090003E089000808F500008003C0064
:109550003E0090000000E000030032002E0090006A
:109560000000EA00070037002E00900005003700D9
:10957000B101200060FE2000A201020001000000F5
:1095800053FF37000080FA00000006002600FA00B2
:10959000500F9800610F9800720F98000417980000
:1095A00015179800231798000000EB00000F7800B3
:1095B0000000EB00100798006000B800300798002A
:1095C000410798000000EB002007980060982A00EF
:1095D0007AD80200000000005E089000EE089000BB
:1095E000E00F5000E08F580004003D00A0982A00D2
:1095F0007AD8020000000000040037005E089000E6
:10960000EE08900004D9020000000000C0982A0073
:109610007AD80200000000005D003700E2DC0200A2
:1096200000000000204F98002E4890000000FB0032
:10963000ED0F500023003200ED0F500005003C00FC
:10964000E80F50000A003200EA0F50001D003200FF
:1096500032003700D1022000810F50001C00320080
:1096600081072000810F5000260032002B003700B8
:109670001E0078000000E000050032001E0FE90027
:10968000808A2A007AD802000000000040003700DB
:109690002E0090000000E000060032000000EB0009
:1096A00020079800808A2A007AD802000000000073
:1096B0003700370070C0B30088DC020000000000F3
:1096C00033003700100020001007980030003700EA
:1096D0001E0078000000E00006003A00D0C2B3008F
:1096E00088DC020000000000100020002007980025
:1096F0002700370070C0B30088DC020000000000C3
:10970000230037002E1090000000E000030032001C
:109710000080EB008080EB006F003700AE489000C7
:10972000F0C2B30080CF500016003400AE48900065
:1097300090C3B30080CF500012003C001E007800A0
:10974000E90F50000600340070C0B30088DC02004E
:1097500000000000A0002000000F78000C0037007F
:109760002E48900088DC0200000000006E004700D8
:109770001E004000AE489000014878001E0FE8002F
:109780000300370070C0B30088DC02000000000056
:109790001E0090000000E000A0FF3200108C2A00A4
:1097A0009ED80200000000001E0078000000E000CB
:1097B00003003A005E089000EE0890004600370073
:1097C0006000B80030079800410798001E0FE900BC
:1097D0009E007800610798001E0037004E00900040
:1097E0006A00B900000178003E0090006000B900F6
:1097F0000000780000014100BE009000A0002000A1
:109800000008B8000101410082007800300798008C
:109810004107980030079800410798006E009000BB
:109820001E00500000004700604890000000FB0050
:109830000003B100CF80DE003E019000CE01900019
:1098400002004000838048003007980041079800DC
:109850001E0FE9001E0078000000E000DFFF3D0061
:109860007E0890006101B9003E009000CE0090009B
:10987000800F5100818F590012003C003E01900082
:10988000CE0190000E1090009E109000800F5100AD
