:020000040000FA
:100000000020040000000000C0220000C022000008
:10001000C0220000C0220000C0220000C022000058
:10002000C0220000C0220000C0220000C022000048
:10003000C0220000C0220000C0220000C022000038
:10004000C0220000C0220000C0220000C022000028
:10005000C0220000C0220000C0220000C2E2000056
:10006000C0220000C0220000C0220000C022000008
:10007000C0220000C0220000C0220000C0220000F8
:10008000C0220000C0220000C0220000C0220000E8
:10009000C0220000C0220000C0220000C0220000D8
:1000A000C0220000C0220000C0220000C0220000C8
:1000B000C0220000C0220000C0220000C0220000B8
:1000C000C0220000C0220000C0220000C0220000A8
:1000D000C0220000C0220000C0220000C022000098
:1000E000C0220000C0220000C0220000C022000088
:1000F000C0220000C0220000C0220000C022000078
:10010000C0220000C0220000C0220000C022000067
:10011000C0220000C0220000C0220000C022000057
:10012000C0220000C0220000C0220000C022000047
:10013000C0220000C0220000C0220000C022000037
:10014000C0220000C0220000C0220000C022000027
:10015000C0220000C0220000C0220000C022000017
:10016000C0220000C0220000C0220000C022000007
:10017000C0220000C0220000C0220000C0220000F7
:100180007EE10000C0220000C0220000C02200006A
:10019000C0220000C0220000C0220000C0220000D7
:1001A000FFFFFF00FFFFFF00FFFFFF00FFFFFF005B
:1001B000FFFFFF00FFFFFF00FFFFFF00FFFFFF004B
:1001C000FFFFFF00FFFFFF00FFFFFF00FFFFFF003B
:1001D000FFFFFF00FFFFFF00FFFFFF00FFFFFF002B
:1001E000FFFFFF00FFFFFF00FFFFFF00FFFFFF001B
:1001F000FFFFFF00FFFFFF00FFFFFF00FFFFFF000B
:10020000FFFFFF00FFFFFF00C0220000C022000030
:10021000C0220000C0220000C0220000C022000056
:10022000C0220000C0220000C0220000C022000046
:10023000C0220000C0220000C0220000C022000036
:10024000C0220000C0220000C0220000C022000026
:10400000CF5123000E7F24000E0188000000000025
:10401000000020000000E00002003200000120004B
:10402000200288000C000700E0FA2C0001002000AC
:1040300011000700000020000000E0000200320034
:104040000000020000000000D2E0020000000000BA
:104050000040DA000000FE004440A900E05D2000BE
:104060000000E0000300320000002000A0018800F2
:104070004440A800000006009101880080007800FC
:104080000000EB0015003700E280400032A0B400D1
:104090009101BA00E280400032A0B4009102BA005F
:1040A000E280400032A0B4000002EB00472BDE00AB
:1040B000F507B200602CE10004003A000059EB0063
:1040C0008301E900FDFF3E00040037006128E100A4
:1040D000010032000082EB000B00070011C3BA00A0
:1040E0001101BA000604E00003003A000200E000FB
:1040F000E5FF3A0000000600F607B20096018800CE
:1041000082007800F5FF37003159BA008301E900D9
:104110000C0032002159BA008301E9000800320086
:104120000400E00003003A00E280400032A0B40046
:10413000F5FF370011D9BA008301E900FAFF3A0010
:104140008100E800E180400032A0B40000000600D9
:104150000EBC0400000000001ABC040000000000B7
:1041600008BC04000000000014BC040000000000B3
:1041700080BC040000000000F08904000000000082
:104180009A8A040000000000BC8F040000000000B8
:10419000EC8E040000000000A48A0400000000006F
:1041A000E889040000000000748A04000000000098
:1041B000C28A040000000000DA9004000000000041
:1041C0007C8A0400000000008691040000000000CA
:1041D000A6900400000000006C90040000000000A5
:1041E0001E8D040000000000128A04000000000080
:1041F0002C8F040000000000F6890400000000007D
:10420000C88C040000000000BABE040000000000DA
:10421000BEA504000000000090A5040000000000FE
:10422000684B040000000000CCE304000000000024
:10423000BCE3040000000000ACE304000000000048
:104240009CE30400000000008CE304000000000078
:1042500072E304000000000084E30400000000009A
:104260007EE3040000000000CEAD0400000000006A
:1042700088AD04000000000080AD040000000000D4
:10428000ACAD040000000000A0AD04000000000080
:1042900098AD04000000000090AD04000000000094
:1042A0008CAD040000000000AAAE04000000000075
:1042B000B8AD040000000000C6AD0400000000001E
:1042C000C079040000000000D27904000000000062
:1042D0004A76040000000000E475040000000000BD
:1042E000E2790400000000001C7C040000000000D3
:1042F0002677040000000000FA7C040000000000A3
:10430000BC790400000000006C7A0400000000008A
:104310005076040000000000388204000000000015
:10432000DA81040000000000E082040000000000C8
:1043300094830400000000002685040000000000B3
:1043400078800400000000001881040000000000D4
:104350004C810400000000005E81040000000000A9
:104360004C80040000000000CE6904000000000042
:10437000A669040000000000F669040000000000C7
:104380002E6A0400000000001A6A04000000000009
:104390002670040000000000C06A04000000000055
:1043A000666D040000000000766C04000000000050
:1043B000926C0400000000004C6A04000000000041
:1043C00070D204000000000084D20400000000004D
:1043D0006AD204000000000066D204000000000061
:1043E000B2D2040000000000ACD2040000000000C3
:1043F000C4D2040000000000BED20400000000008F
:10440000A4D2040000000000B8D2040000000000A4
:1044100098D2040000000000FCD40400000000005A
:10442000FAD204000000000082D304000000000063
:1044300094D3040000000000CAD204000000000071
:1044400012D8040000000000CCD7040000000000D7
:1044500058D8040000000000BCD704000000000091
:10446000B6D7040000000000B8D804000000000027
:10447000BED8040000000000C4D804000000000002
:10448000CAD8040000000000AAD804000000000000
:10449000B2D80400000000009ED804000000000014
:1044A0000CD9040000000000E0D904000000000066
:1044B000F8D9040000000000D0D80400000000007B
:1044C000A6CC040000000000DECB040000000000C9
:1044D00074CB0400000000001ACA040000000000B1
:1044E00020CA040000000000E8CC04000000000026
:1044F000F4CC040000000000D6CD04000000000051
:104500001CCE04000000000000CD040000000000EC
:1045100006CD040000000000826D040000000000D1
:104520003ECD04000000000084B204000000000042
:10453000A6B20400000000009AB3040000000000CE
:10454000B8B204000000000064B5040000000000E0
:10455000B4B104000000000078B2040000000000C4
:104560007EB2040000000000FEB504000000000060
:10457000E0E3040000000000DCE3040000000000B1
:104580000040DA000000FE0003F0A200889FBE0099
:104590008A9FBE008C1F780059010700600133001C
:1045A0006450E1004F0032006420E100520032000C
:1045B00003826C0007003B000905D0000306D00011
:1045C000820F54000C065D00020039000200320028
:1045D00089017800030678008582550004003D00BB
:1045E0000003FD008103FD008502EA008B85420087
:1045F000840F720002003B0060001000E080180091
:104600006011B8000005EB007A28E1000A003900CB
:1046100006007800C75DDD00F707B20087807500EF
:104620002D003700828171000A0178006105600069
:104630008180D1000080D3008502E900F9FF3B00B2
:10464000060440008784480002003B006004140018
:10465000E0841C000988A300070032008A817100F1
:1046600082817100610164008904D1000884D30053
:104670008B05E800170037000978A30013003A0003
:104680000B00E000130034008B05E900080444002F
:1046900089844C000A4474000978A3000D003A0094
:1046A0000B00E000070034008B05E900080444001B
:1046B00089844C0001003A000B0020000978A30017
:1046C000F7FF32000001EB00020037008281710029
:1046D0000A017800CF0007000CF0A70001F0A0004D
:1046E000180137006420E10002003A00838F6C005B
:1046F000180133000801BE000200BE00110137009E
:10470000889FBE008A9FBE008C1F7800FC000700B7
:104710000301330003866C006450E1002E00320078
:104720006420E100330032006150E1002F003200CC
:104730006120E1003100320085855500EB07B000B3
:104740000900200008042000050037000804440088
:1047500089844C000A0031000603430087834B0024
:104760000001530081815B00F8FF33000203BE00AB
:104770000800A0000804440089844C00F6FF3900BA
:10478000C639DD00830173000100320013002000F0
:104790008904D1000884D3000998A30005003200E1
:1047A0000800A7000300A0008904D1000884D300FA
:1047B0008B05E8008904D1000884D3000001EB00D8
:1047C0000281D2009300070001F0A1000CF0A700C5
:1047D00001F0A000DB0037006420E100DD003200C2
:1047E0000801BE000200BE00F7FF37006120E100B3
:1047F000D80032006000B800F3FF3700000020004E
:1048000001F82700F0FF3700839F68000100E000F7
:1048100002003D0060001000E08018000300E0008E
:1048200002003D0060011100E08119000001070055
:104830004F00E00002003B0060001000E080180024
:1048400000000600140020000E023700F4FF2F00C5
:104850000C0237000003BE00940007006011B8008E
:104860000470A70007F0A10007F8A30017003A00A2
:104870006509B1000D0032000D00350086022000F0
:104880000628E10003003500030028006000B8009E
:10489000020005000000400081804800020149003C
:1048A000838149008502E900FAFF3A000000060012
:1048B000F88F4200050034008100D1000080D30051
:1048C0008502E800FCFF3A00000006006011B80015
:1048D0008000EB00000005000001BE00730007002F
:1048E0000470A70003F0A10003F8A30013003A002E
:1048F0006509B10010003200090035006928E100A7
:104900000200350001002800000005000000400002
:10491000818048008502E900FCFF3A0000000600A3
:10492000F88F4200050035008100D1000080D300DF
:104930008502E800FCFF3A00000006008000EB0062
:10494000000005004F89DE0082017800E801370091
:10495000889FBE008A9FBE00008270000402710022
:1049600004827100260032000004BE000200BE0076
:104970006011B8006B092000950220000182CF0071
:104980000A0039000541B1000082CF00070039005C
:104990000541B1000982CF00040039000541B10092
:1049A0000882CF00010039000541B10005425200E4
:1049B000120032000A003B00828171006101640034
:1049C0008100D1000080D3008984D3000884D30003
:1049D0008B05E8000442E800F7FF3A0007003700C3
:1049E0000804440089844C0000004800818048008D
:1049F0008B05E9000442E900F9FF3A0005000700D1
:104A00004F05BE004F04BE00000006006011B80054
:104A1000CFFF370081002000618055000B003D0072
:104A20000B00200061FE2F000100E1001D0034009A
:104A300082817100610164008904D1000884D3007F
:104A40000000E800FAFF3A007100200061006400F5
:104A5000030070000200600009003200610444009D
:104A6000E0844C000988A500050032008B05E800B1
:104A70006808E10002003A008904D1000884D300EC
:104A8000F20F20000258E10005003D00C75DDD0087
:104A9000F907B20089807500080078000000060060
:104AA0000BF827008B00780000000500C70ADE0025
:104AB000F107B200F50FB20008003200E1CF42006A
:104AC000020032000170A00024000500810F700078
:104AD000010032000408050044000500810F700049
:104AE00002003A00140005008502E90000004000C1
:104AF00081C04800FCFF3B000170A00024000500BD
:104B00000004BE00E9FF07000003BE000405BE006C
:104B10000200BE00E5FF0700844F7500000006009C
:104B20000200BE006450E100050036006420E10090
:104B3000020036000968A30001003A000800BE0028
:104B40000160A0004F0678004F05BE004F04BE0074
:104B500000000600F0FF2F00F1FF2700F9FF3700EB
:104B6000889FBE008A9FBE008C1F7800E4FF07006C
:104B7000EBFF330003866C006450E1002400320038
:104B80006420E100270032006150E1002200320081
:104B90006120E100210032008B854200EB07B1006B
:104BA0000134B800003AB8000804420089844A0081
:104BB000013AB8000030B8008880400009014A007E
:104BC00004003300000040008180480002014900D9
:104BD0008B05E900C909DD00830170000100320086
:104BE00013002000C814DE004814DD004709DE0071
:104BF0001200B200C808DE000884700085FF0700BC
:104C000001F0A1000CF0A70001F0A000CDFF3700DB
:104C10006120E100CFFF32000801BE000200BE00AB
:104C2000F7FF37006150E100FCFF3A00C9FF370091
:104C30006022B800060220000000D0008180D2006F
:104C40000482D2008582D2000000A000020252003D
:104C500083825A00030031000202420083824A002C
:104C60000000A1000603E900F3FF3A00000006007F
:104C7000EFFF07000400BE0000000600889FBE0092
:104C80008A9FBE0030044200B0844A0030054B00C9
:104C900090854B006000B1000898BE000A90BE00ED
:104CA0000440E10005C8E10006D0E10007D8E100BA
:104CB00002003100680040001008E8004F05BE0007
:104CC0004F04BE0000000600889FBE008A9FBE0001
:104CD0003004BE002005BE000418540005985C0096
:104CE00006185D0007985D00110020000440E100F7
:104CF00005C8E10006D0E10007D8E1000100390055
:104D00008000EB00108810004F05BE004F04BE006D
:104D1000000006001200FA00889FBE008A9FBE00B5
:104D20008C9FBE00E0B79F00F1B79F0082BF9F003D
:104D300093BF9F000605BE000404BE000000EB0008
:104D4000D0B79F00C0B79F00B0B79F00A0B79F002B
:104D500090B79F000006EB005FB19700CFB09700BF
:104D6000820141003FB097000200E00004003D00D6
:104D7000370007007E805700C0FF070003003700A0
:104D8000330007007E805700CFFF0700DFB6970093
:104D90000D00E0000C0035006FB29700FFB29700E5
:104DA0000FBB97009FBB9700100020000100200060
:104DB0006011B80000027200818272000203730069
:104DC000838373001B0007000C06E8000104200029
:104DD000810F5600E0FF3A000D00E00004003D00A6
:104DE0000802BE000A03BE007E805700A3FF070032
:104DF0005FA897000000E00005003A001FB297008E
:104E0000AFB297003FB39700CFB3970009000700F8
:104E10006FB09700FFB097000FB997009FB9970048
:104E20004F06BE004F05BE004F04BE000080FA00D2
:104E3000000006000100070000000600A4B79F0064
:104E4000B5B79F00C6B79F00D7B79F000000060008
:104E50004F09DE0082817100B3B79F004F01DE0071
:104E60008180400082807000A1B79F008FB09700C2
:104E70004F09DE00000040000200700090B79F0064
:104E80007FA897004F01DE00818040008280700083
:104E900081B79F000D0007004F3ADE000000400080
:104EA00004007000F0AF9F000800070004024200F9
:104EB00085824A0006034B0087834B00DFFF070013
:104EC0000802BE000A03BE00000006002FB29700D1
:104ED000BFB297004FB39700DFB397000000060002
:104EE000881F780018002000881F780089FF0700BD
:104EF0008F87E9004F04780000000600801FEB0058
:104F000084FF07008F87E90000000600889FBE002D
:104F10008A9FBE00E00F5000E08F5800E00F59005C
:104F2000E08F59000C003D006044B8006055B800A7
:104F30000000540081805C0002015D0083815D00FF
:104F4000180020001500070008003D0018000700A9
:104F50000004EB00050037000004EB000F00070021
:104F600002003D001200070018002000DCFF0700CF
:104F70000800E000060032006022B8006033B8008C
:104F80000000520081805A0002015B0083815B00B7
:104F90004F05BE004F04BE0000000600E00F5200A7
:104FA000E08F5A00E00F5B00E08F5B00000006001E
:104FB0006044B8006055B8000402540085825C006B
:104FC00006035D0087835D0000000600889FBE0029
:104FD0008A9FBE008C1F7800E00F5000E08F5800C1
:104FE000E00F5900E08F59000D003D006044B8000B
:104FF0006055B8000000540081805C0002015D0033
:1050000083815D001C0020000820E10009A8E10068
:105010000AB0E1000BB8E1000D003D0008003700C8
:105020000006EB00E00F5200E08F5A00E00F5B003B
:10503000E08F5B0006003D006044B8006055B8009A
:105040000402540085825C0006035D0087835D00D6
:10505000AAFF07000C00E000060032006022B80042
:105060006033B8000000520081805A0002015B00EA
:1050700083815B004F0678004F05BE004F04BE00E1
:1050800000000600889FBE008A9FBE00841F780033
:105090009BFE07004F00780011003300F0FF2F0047
:1050A000838F6C0006003B00040565000A00A70022
:1050B0000800370009F0A6001000200008003700A3
:1050C000820F5400838F5C00030039001000200021
:1050D00001003E000000200009F0A7000000EA00E7
:1050E0004F05BE004F04BE000000E00000000600B7
:1050F000881F7800030478000300E00007003D00EB
:1051000060001000E080180060011900E0811900C3
:1051100002003B0001F02D00030037000CFE0700E9
:1051200008F0A70001F0A0004F047800000006007E
:105130008001780002003700B15978000201E900CF
:105140000200E000FCFF3A00000006000D0A00002B
:105150002800000078000000293E00000008000040
:1051600020080000000000002E20000000200000A9
:10517000004300006C7500007463000068200000AC
:1051800064690000736500006E67000061670000DD
:10519000656400002121000021000000546F000020
:1051A00020660000696E000069730000682000003E
:1051B0007365000074750000702C000020730000FF
:1051C00074610000727400002075000070200000FF
:1051D0007468000065200000706F000077650000B3
:1051E0007220000073750000707000006C69000090
:1051F00065730000207700006974000068200000DB
:10520000636F00006D6D0000616E0000642000009F
:1052100027570000270D00000A000000427500001B
:105220007320000050690000726100007465000086
:105230002076000034000000436F00006D6D000018
:10524000756E000069740000792000004669000056
:10525000726D00007761000072650000207600002A
:10526000372E0000302000002D200000676F000066
:105270006F2E0000676C00002F670000437A00006B
:10528000516E00005720000000200000283200006E
:10529000344600004A320000353600004742000024
:1052A00031300000362000000041000033000000D3
:1052B00041350000005500004E4B00000029000061
:1052C00000490000090000004F09000000480000EC
:1052D000090000004C0900000043000046470000A0
:1052E000303A00002000000056700000753D0000BC
:1052F000355600002C20000000560000707500009C
:105300003D330000563300002C2000000045000013
:105310006E7400006572000020720000617700006A
:1053200020760000616C00007565000020660000BA
:105330006F7200002042000052470000005700003A
:10534000617200006E6900006E6700003A20000084
:10535000616C00007265000061640000792000004B
:1053600061200000766F00006C740000616700002F
:10537000652000006F6E0000205600007075000070
:105380006C6C00007570000020700000696E0000F9
:10539000003E0000001B00005B440000001B0000FA
:1053A0005B000000440000001B5B000043000000A5
:1053B0001B5B0000324B00000D00000043000000AA
:1053C0001B5B0000324400000057000061720000C7
:1053D0006E6900006E6700003A2000006E6F0000EA
:1053E000207600006F6C00007461000067650000AB
:1053F000206F00006E20000056700000756C0000E9
:105400006C75000070200000706900006E000000E4
:10541000203D0000200000005245000053450000E0
:10542000540D00000A000000436C00007574000079
:1054300063680000206500006E670000616700007F
:105440006564000021210000210000005652000088
:1054500045470000207400006F6F0000206C0000C2
:105460006F7700002C20000069730000207400009A
:105470006865000072650000206100002073000074
:10548000686F0000727400003F0000002E200000D2
:105490003C000000002E0000003A00002000000048
:1054A0003157000030310000005E0000BCE2000017
:1054B000613F0000DD830000C29C00007E200000F0
:1054C000A3FD00001F4100009DC30000217F0000DC
:1054D000FCA20000401E00005F010000E3BD0000D0
:1054E0003E60000082DC0000237D00009FC10000C0
:1054F000421C0000FEA00000E1BF00005D030000B0
:1055000080DE00003C620000BEE00000025C0000A3
:10551000DF810000633D00007C220000C09E00008F
:105520001D430000A1FF000046180000FAA400007F
:10553000277900009BC5000084DA0000386600006F
:10554000E5BB000059070000DB850000673900005B
:10555000BAE400000658000019470000A5FB00004F
:1055600078260000C49A0000653B0000D98700003F
:10557000045A0000B8E60000A7F900001B4500002F
:10558000C69800007A240000F8A60000441A000023
:1055900099C70000257B00003A64000086D800000F
:1055A0005B050000E7B900008CD20000306E0000FF
:1055B000EDB30000510F00004E100000F2AC0000EF
:1055C0002F71000093CD0000114F0000ADF30000DB
:1055D000702E0000CC920000D38D00006F310000CF
:1055E000B2EC00000E500000AFF10000134D0000BF
:1055F000CE900000722C00006D330000D18F0000AF
:105600000C520000B0EE0000326C00008ED00000A2
:10561000530D0000EFB10000F0AE00004C1200008E
:1056200091CF00002D730000CA940000762800007E
:10563000ABF500001749000008560000B4EA00006E
:1056400069370000D58B000057090000EBB500005A
:10565000366800008AD4000095CB0000297700004E
:10566000F4AA000048160000E9B70000550B00003E
:1056700088D60000346A00002B75000097C900002E
:105680004A140000F6A80000742A0000C896000022
:10569000154B0000A9F70000B6E800000A5400000E
:1056A000D78900006B3500005245000054550000BA
:1056B000524E000000000000525500004E00000055
:1056C0004C490000535400000045000058490000B8
:1056D000540000004445000042550000470000000F
:1056E0004E450000570000004C45000054000000EB
:1056F0004946000000540000484500004E000000EC
:10570000454C000053450000004700004F54000086
:105710004F000000474F00005355000042000000BA
:10572000524500004D00000050520000494E00005C
:1057300054000000494E0000505500005400000085
:10574000464F000052000000544F0000004E000081
:10575000455800005400000052450000414400003C
:105760000044000041540000410000005354000078
:105770004152000054520000005300005441000008
:105780005254000000530000544F000050520000DB
:1057900000530000544F000050000000534500002B
:1057A0004E440000005200004543000045490000FF
:1057B00056450000004300004C4B00000044000030
:1057C00041540000004200004954000052450000CE
:1057D000414400000041000044430000004100003B
:1057E00055580000504900004E0000005053000082
:1057F00055000000505500004C4C00005550000072
:1058000000440000454C00004159000000410000E8
:1058100055580000004600005245000051000000AD
:105820004455000054590000004D00004143000061
:10583000524F0000004500004E44000000000000F0
:105840001201000000020000020000000008000039
:10585000D804000000FB000002000000010200006C
:1058600003010000090200004300000002010000E3
:105870000080000064090000040000000001000036
:1058800002020000010000000524000000100000DA
:1058900001040000240200000205000024060000AC
:1058A00000010000052400000101000001070000C4
:1058B00005810000030A0000004000000904000008
:1058C00001000000020A00000000000000070000C4
:1058D0000502000002400000000000000705000073
:1058E00082020000400000000004000003090000E4
:1058F000042A00000344000000610000006E000064
:10590000006700000065000000720000006F0000EA
:10591000007500000073000000200000005000002F
:1059200000720000006F000000740000006F0000B3
:1059300000740000007900000070000000650000A5
:1059400000730000001E000003420000007500000C
:1059500000730000002000000050000000690000FB
:10596000007200000061000000740000006500008B
:10597000002000000056000000340000002000005D
:105980000012000003300000003000000030000072
:105990000030000000300000003000000030000047
:1059A000003100000000000042610000756400004A
:1059B00020640000657400006563000074690000E5
:1059C0006F6E000020730000656C000065630000CE
:1059D00074650000642E00002E000000002000000E
:1059E0000041000052540000310000001434000057
:1059F000040D00008206000040030000A00100002A
:105A0000CF0000007F00000067000000440000009D
:105A10002200000000000000000000002C01000037
:105A2000000000005802000000000000B004000068
:105A3000000000006009000000000000C01200002B
:105A40000000000080250000000000004038000039
:105A500000000000004B000000000000807000000B
:105A6000000000000096000000000000C0DA000006
:105A70000000000000E100000000000000C2000083
:105A80000100000000F400000100000000E8000038
:105A90000300000014340000040D00008206000022
:105AA00040030000A0010000CF00000067000000DC
:105AB00044000000220000007F00000029000000D8
:105AC000002000005700000020520000004E00009F
:105AD0006F77000020750000736900006E6700009A
:105AE000206F00006E2D0000626F000061720000E8
:105AF0006420000045450000505200004F4D00005A
:105B00002049000032430000206900006E7400004C
:105B1000657200006661000063650000004F0000D0
:105B20006E2D0000626F00006172000064200000B2
:105B300045450000505200004F4D00002077000006
:105B4000726900007465000020700000726F000030
:105B50007465000063740000206400006973000035
:105B6000616200006C6500006400000049320000C2
:105B700043310000009D0000250D0000204800007A
:105B80007A00000046720000657100007565000033
:105B90006E63000069650000732000003C20000077
:105BA000314800007A20000061720000652000008A
:105BB0006E6F0000742000007375000070700000AC
:105BC0006F72000074650000642E00000000000089
:105BD000436F0000756C0000646E000027740000C5
:105BE000206B0000656500007020000075700000EB
:105BF0000000000053500000493100000000000088
:105C0000181C00001D0300000B1300001B00000007
:105C1000181C00001D00000030300000302C000077
:105C20000030000030000000306200000030000052
:105C30007830000031320000333400003536000087
:105C4000373800003941000042430000444500005D
:105C500046000000314100004C53000001420000AA
:105C60005076000034000000210000000010000009
:105C700000230000000F000042400000400500002B
:105C80004102000000000000290000000075000033
:105C90006E6B00006E6F0000776E0000206D0000DC
:105CA0006F640000650000005049000043310000AF
:105CB0000000000042420000494F00003100000097
:105CC0005853000056310000000000000808000092
:105CD0000808000008000000000000005241000019
:105CE00057310000000000004E4F0000454D0000FD
:105CF0005300000000000000000000002900000028
:105D00000000000000000000881F78001398810048
:105D100003007800F00FB2000420230064407800F4
:105D2000F1CCB30081404000E8CF500018003E00A5
:105D30000000FB000003B1008300E800F10FB20097
:105D400064C1780006CDB30086424100E9CF52001D
:105D50000C003E008381E8006A00B9000201FB00EC
:105D6000000041000003B10083007800F10FB20091
:105D700064C178008301E80086424100E9CF520007
:105D8000F5FF3600119889004F04780000000600E6
:105D900001C3B300814F50000700320011C0B300AF
:105DA00040302300014878000000EB004F047800E9
:105DB00000000600F6FF37008300E800F10FB20094
:105DC00064C1780025C6B300854F51001E00320023
:105DD00025C4B300854F51001B00320085C7B300B6
:105DE000854F51003800320085C5B300854F510002
:105DF00035003200804251000000EB00E9CF520034
:105E0000E0FF3E000201FB0000FD2F000200400009
:105E10008381E80006CDB3006A00B90000004100AC
:105E20000003B10083007800F10FB20064C1780074
:105E30008301E80086424100E9CF5200D1FF3E00D5
:105E40000201FB00F4FF37008380E800F10FB2008D
:105E500064C1780006CDB300864241000000EB002B
:105E6000E1CF5200C7FF3E00E38141000000400047
:105E70000201FB00020040000003B1008300780033
:105E8000F10FB20064C178008301E800864241004E
:105E9000E1CF5200BBFF3E00000040000201FB00CA
:105EA000020040000003B10083007800F10FB2004F
:105EB00064C178008301E80086424100E1CF5200CE
:105EC000EAFF3600AFFF37008381E8000000EB00F7
:105ED00006CDB300F7CBB300F8C9B3008300780058
:105EE000F10FB20064C1780086424100E9CF520050
:105EF0001300360087424100E5CF52000300360010
:105F000088424100E5CF52009EFF3E000254A000AF
:105F100002F278004400DD007005B1000201FB00D0
:105F2000020040008301E80083007800F10FB20016
:105F300064C1780086424100E9CF5200EDFF3E0087
:105F40004400DD000003B1000201FB00020040003C
:105F50008301E800F4FF3700119881000100E80098
:105F6000F00FB20002202300E24178001000200070
:105F7000A2C3B30082CF510001003200000006002E
:105F80008180E800F10FB200119889005EFF0700E0
:105F9000119881008100E900F10FB2001198890089
:105FA00000000600119881000100E800F00FB20027
:105FB00002202300E24178000000EB00B2C3B300EE
:105FC00082CF510001003200000006008180E8000D
:105FD000F10FB200119889004BFF07001198810062
:105FE0008100E900F10FB20011988900000006005D
:105FF000119881008100E800F10FB2000020230019
:1060000060C1780080C7B300804F51000F0032009C
:1060100040C6B300804F51000800320020C6B300D4
:10602000804F51000B0032000040EB0073C7B300FB
:10603000834F5100030032000000060011988900D0
:106040002000050011988900400005001198890082
:10605000100005001198890030000500109881009B
:1060600002202300E241780001C2B30081CF510039
:1060700006003A000000E800F00FB200E2407800AD
:1060800083CF5000FBFF320010988900000006000B
:10609000EE874700889FBE008A9FBE008C9FBE008F
:1060A0008E1F78000004BE00020578000307780008
:1060B000DCC2B3008DC7B3000BCDB300608A2A00E9
:1060C00060C10200000000000800E000430035004D
:1060D00008407800ECBF020000000000C08A2A00DF
:1060E00060C10200000000000000EB00E0B79F006C
:1060F000F0B79F003EC3020000000000804078001F
:10610000EDCF500016003200EDCF50003D003C00B6
:10611000E8CF500056003200EACF500010003200A5
:106120000BC04000E94F500044003E007FB1970093
:10613000E30F51005A00340070C0B300DEBF02000C
:106140000000000043002000F3B79F003EC30200A0
:106150000000000080407800EDCF5000EAFF3A00D8
:10616000308B2A0040C10200000000007FB0970081
:106170000000E0002A0032008000EB000A0034003A
:106180007A805700FFB09700010240008000EB00CA
:106190006A09B900B000FB000103B1008280400031
:1061A000840F5000FAFF3A00818F540002003C0037
:1061B000810F55004C003D00B101200060FE200021
:1061C0007EDC020000000000608A2A0060C102003C
:1061D000000000000800E000BDFF3D00A08A2A008A
:1061E00060C1020000000000C08A2A0060C10200F5
:1061F000000000000000EB00E0B79F00F0B79F0038
:10620000BCFF37008CCF5000100032008DCF500003
:10621000C3FF3A000E00E000C1FF32000084EB0033
:10622000080078004F0778004F06BE004F05BE00FB
:106230004F04BE00EF00B1000000060070C0B300C4
:10624000DEBF020000000000AAFF37007FB0970009
:106250000000E000F9FF3A000C407800DEBF0200C9
:106260000000000011002000E1B79F00A1FF3700EF
:10627000FFB097000100E00015003A006FB19700F1
:106280000200E000EDFF3200F08A2A0060C1020047
:10629000000000008001EB00E3B79F0095FF37008E
:1062A0000140780081BF9F00DEBF020000000000B7
:1062B0008FB89700814178007A8057007FB19700AE
:1062C000037079000201E800F2B79F0089FF3700F0
:1062D0008100E900F1B79F00F08A2A0060C1020046
:1062E0000000000083FF37006FB197000200E0005C
:1062F000090032000104EA00080078004F07780026
:106300004F06BE004F05BE004F04BE00EF00B100B7
:1063100000000600C9FF3700010078004F07780031
:106320004F06BE004F05BE004F04BE00EF00B10097
:1063300000000600C1FF37001E00FA00889FBE0063
:106340008A9FBE008C9FBE00119881008104E900E5
:10635000F90FB20018002000898F50000E003200A3
:106360000B2023008B0678006BC07C000004E0004B
:1063700005003A000906E800FC0FB2006D407E00FF
:106380000004E00039003A008904E900F90FB20086
:10639000818F5400F4FF3A00708B2A0040C1020044
:1063A0000000000071002000708220007EDC0200EE
:1063B000000000001300200008017800830078002E
:1063C0000000EB0032FF07008000E800E18F500082
:1063D000490036000000400061FD2F008F80400022
:1063E000E101780003007800F00FB2000B202300D9
:1063F0006B4178000204E0004900320004988100FB
:106400000000EB0084004000F10FB20082F578003C
:106410000000E80083004000F10FB2006BC178007B
:106420000204E000F7FF3A000402E900F40FB200B2
:10643000149889000482E80000004200F00FB200C6
:10644000009889000000E900F00FB2008040EB00E6
:10645000817578000000EB004F06BE004F05BE00BE
:106460004F04BE000080FA000000060008407800DB
:10647000ECBF020000000000408B2A0060C1020057
:10648000000000006D407E000004E00009003200C2
:106490000985E800DEBF0200000000000A00780065
:1064A000F00FB2006B4078000A05E8000004E0003D
:1064B000F8FF3A00080044000C01780061FD2F004D
:1064C0008F804000823078000804E800EF0F54000D
:1064D000B1FF3200308B2A0040C1020000000000F2
:1064E000119881008904E900F90FB200818F5400EE
:1064F0009DFF3A00A8FF3700308B2A0040C1020000
:1065000000000000100020004F06BE004F05BE0036
:106510004F04BE000080FA0000000600D3FF3700E1
:106520000000EB00049881000402E900F40FB200BF
:10653000149889000482E80000004200F00FB200C5
:10654000009889000000E900F00FB2008040EB00E5
:10655000817578000000EB00BFFF3700889FBE0008
:106560008A9FBE008C1F7800109881000000E80010
:10657000F00FB2001098890002202300E241780059
:1065800001C2B30081CF510006003A000000E800CC
:10659000F00FB200E240780083CF5000FBFF3200E2
:1065A00010988900D8FD07000000E0003F003A0085
:1065B0000005EB00CCC622000B0320000A40E800D7
:1065C000ECBF020000000000408B2A0060C1020006
:1065D00000000000090320000BD0B9008002B000C9
:1065E000C8C622000000460040C1020000000000B2
:1065F0000A05E800EB0F5500F0FF3A00710120009A
:10660000C07B20007EDC0200000000004030230040
:106610000048EB00130020000A0178008300780096
:10662000030078009AFE07000005E9000000E8007A
:10663000E10F50004C00360080A681000980B900AF
:106640002002B000680078000000010000DA0200BB
:10665000000000008AA6890009D0B900FE044000AD
:1066600068807C0000000100908B2A0040C102007D
:10667000000000000A00E00032003A005100200053
:10668000B06520007EDC0200000000000098810060
:106690000000E900F00FB200109889004F06780062
:1066A0004F05BE004F04BE00000006000004E900D4
:1066B000EA0F540016003C000A03200080A6810067
:1066C0000A80B9002002B000C9C622006900780023
:1066D0000000010000DA02000000000088A6890026
:1066E0000AC5B9007E05450069007D000000010073
:1066F0000800E000E1FF3200CB02A80051002000BA
:10670000B06520007EDC020000000000DFFF3700E3
:1067100051012000208120007EDC020000000000EA
:10672000009881000000E900F00FB2001098890085
:106730004F0678004F05BE004F04BE000000060063
:10674000DAFF3700CB02A800E08C2A0040C102002B
:106750000000000051002000B06520007EDC020037
:1067600000000000C9FF3700E1002000307D20005C
:106770007EDC020000000000009881000000E900BB
:10678000F00FB200109889004F0678004F05BE0048
:106790004F04BE0000000600C4FF3700FA87470020
:1067A000889FBE008A9FBE008C9FBE008E1F78000F
:1067B0000004BE00B4B79F00C5B79F000306780071
:1067C000DAC2B3008BC7B3006110B900D0B79F0025
:1067D000E1B79F00F8B79F0089BF9F00608A2A0039
:1067E00060C10200000000007FB097008FB89700E2
:1067F000E00F5000E08F58004D0035007FB097004B
:106800008FB89700C4C0020000000000C08A2A00B0
:1068100060C10200000000000007EB008006EB00F2
:106820003EC302000000000080447800EDCF540019
:1068300015003200EDCF540046003C00E8CF540074
:106840005E003200EACF54000F00320000CDB300EA
:1068500000C04400E94F50004D003E00E98F560053
:106860005F00340070C0B300DEBF02000000000013
:10687000AD0020003EC3020000000000804478000C
:10688000EDCF5400EBFF3A00308B2A0040C10200EC
:10689000000000000D00E0005F0032006000B80062
:1068A0000D003400A2FD2F000F0141008D064100B4
:1068B0006A0AB9006A00B80081004200B201FB0018
:1068C0000303B1004F9ADE000080410081004A00BE
:1068D0008D0F5100F6FF3A005FB19700EFB19700BE
:1068E000800F5100818F590005003C003FB1970097
:1068F000CFB19700800F5100818F590050003D00AB
:10690000B101200060FE20007EDC020000000000DB
:10691000608A2A0060C10200000000007FB097007A
:106920008FB89700E00F5000E08F5800B3FF3D0094
:10693000A08A2A0060C1020000000000C08A2A006C
:1069400060C10200000000000007EB008006EB00C1
:10695000B3FF37008ACF5400110032008BCF5400B0
:10696000BAFF3A000C00E000B8FF32000084EB00F0
:106970008084EB000800BE004F0778004F06BE0081
:106980004F05BE004F04BE00AF01B100000006007D
:1069900070C0B300DEBF020000000000A0FF37009F
:1069A0000D00E000FAFF3A000A407800DEBF020066
:1069B000000000001E00200099FF37000D00E000DD
:1069C00010003A000E00E000F1FF3200F08A2A00C9
:1069D00060C10200000000000007EB0090FF3700DC
:1069E00009407800DEBF0200000000000941780085
:1069F000A1FD2F008F80400082F07E008D06E80010
:106A000087FF37008D06E900F08A2A0060C1020086
:106A10000000000082FF37007FB497008FBC970012
:106A20000800BE004F0778004F06BE004F05BE00AD
:106A30004F04BE00AF01B10000000600D4FF3700D4
:106A40000E00E0000A00320060041000E08418002C
:106A50000800BE004F0778004F06BE004F05BE007D
:106A60004F04BE00AF01B10000000600C8FF3700B0
:106A70000004BE000800BE004F0778004F06BE00AD
:106A80004F05BE004F04BE00AF01B100000006007C
:106A9000BFFF3700889FBE008A9FBE00E0902A009B
:106AA00040C1020000000000C0912A0060C1020045
:106AB00000000000B0C5B300DEBF0200000000000F
:106AC000190020000004EB00CBC622000A032000BE
:106AD0000800E00007003A0040C9220060C102003F
:106AE000000000000804E8008904E8000800E00055
:106AF000F9FF320000C2B300DEBF02000000000058
:106B00000AC0B9008002B0000080450060C10200E8
:106B100000000000EA8F5400F2FF3600D0C5B30039
:106B2000DEBF020000000000308B2A0040C10200DE
:106B300000000000610020009084200026DC02009C
:106B40000000000090A68100AAC202000000000020
:106B500071002000F0FD200026DC02000000000093
:106B6000A0A68100AAC202000000000050942A00E2
:106B700060C1020000000000A0A68100E10F5000EB
:106B80000F003200E30F50001B003200B0952A00C6
:106B900060C1020000000000F0952A0040C1020020
:106BA00000000000E1012000F08420007EDC0200F3
:106BB000000000004F05BE004F04BE0000000600AC
:106BC00050952A0060C1020000000000F0952A00E4
:106BD00040C1020000000000E1012000F08420001C
:106BE0007EDC0200000000004F05BE004F04BE0026
:106BF00000000600F2FF370080952A0060C1020005
:106C000000000000F0952A0040C1020000000000D2
:106C1000E1012000F08420007EDC02000000000082
:106C20004F05BE004F04BE0000000600E4FF370021
:106C3000D802B60003003A0040962A0060C1040062
:106C40000000000010962A0060C10400000000004F
:106C5000DA02B60003003A00A0962A0060C10400E0
:106C60000000000070962A0060C1040000000000CF
:106C7000A1002000201921007EDC0200000000009D
:106C800061052000703A21007EDC02000000000057
:106C900041022000D03F210026DC0200000000005D
:106CA0000003200081A681000088B9004002B000E6
:106CB000C1C622006100780000000100A100200090
:106CC000601B210026DC02000000000010002000F4
:106CD000D7FF070000102000D5FF070000022000AA
:106CE000D3FF070000012000D1FF07008000200033
:106CF000CFFF070040002000CDFF0700200020004C
:106D0000CBFF0700308B2A0040C1020000000000CA
:106D1000410020000023210026DC020000000000CA
:106D200021E3A8002000200066DA02000000000035
:106D300042C002000000000011002000B037200017
:106D400026DC02000000000090C0B300DEBF02009D
:106D5000000000000000EB0066DA02000000000006
:106D600042C002000000000011002000B0372000E7
:106D700026DC02000000000090C0B300DEBF02006D
:106D8000000000005000200066DA02000000000051
:106D900042C002000000000011002000B0372000B7
:106DA00026DC02000000000090C0B300DEBF02003D
:106DB000000000001000200066DA02000000000061
:106DC00042C002000000000011002000B037200087
:106DD00026DC02000000000090C0B300DEBF02000D
:106DE0000000000021E3A9001000200098FF070028
:106DF0000010200096FF07000002200094FF07000B
:106E00000001200092FF07008000200090FF070093
:106E1000400020008EFF0700200020008CFF0700AC
:106E2000308B2A0040C1040000000000881F780059
:106E3000D0962A0060C1020000000000A17F25005A
:106E400010002000CABF020000000000AAC2020019
:106E50000000000000C2B300DEBF0200000000001E
:106E600051002000C0A3200026DC0200000000002A
:106E7000C17F250010002000CABF020000000000F2
:106E8000AAC20200000000006100200010A420003F
:106E900026DC020000000000E17F25001000200039
:106EA000CABF020000000000AAC2020000000000E9
:106EB000308B2A0040C1020000000000C100200009
:106EC000D08620007EDC02000000000068FF070082
:106ED000CB22AB0092003200110120000071200093
:106EE00026DC020000000000C0C2B300DEBF0200CA
:106EF0000000000000C2B300DEBF0200000000007E
:106F0000E282AB007900320041012000D06B20000A
:106F100026DC020000000000C0C2B300DEBF020099
:106F20000000000000C2B300DEBF0200000000004D
:106F3000E8A2AB0083003200E882AB007D003200A3
:106F4000484B23009840780070C060006200320017
:106F500021022000908720007EDC0200000000005B
:106F60009840780068C060002F003A00B10120000E
:106F7000908B200026DC020000000000C0C2B3009D
:106F8000DEBF02000000000000C2B300DEBF02004E
:106F900000000000B10120000035210026DC0200C5
:106FA00000000000304A230010407800ECBF0200CF
:106FB00000000000308B2A0040C1020000000000E9
:106FC00018447800634064000080FB00E20F50002A
:106FD0002F003200E30F500072003200E10F50002A
:106FE0005E00320051012000606720007EDC02005C
:106FF000000000000003200081A681000088B90085
:107000006002B000C1C622006100780000000100EB
:10701000C1002000D08620007EDC020000000000BD
:107020004F04780000000600C1012000408D2000C0
:1070300026DC020000000000C0C2B300DEBF020078
:107040000000000000C2B300DEBF0200000000002C
:10705000B10120000035210026DC02000000000004
:10706000304A230010407800ECBF0200000000000E
:10707000308B2A0040C10200000000001844780054
:10708000634064000080FB00E20F5000D1FF3A0033
:1070900071012000B04521007EDC020000000000EC
:1070A0000003200081A681000088B9006002B000C2
:1070B000C1C622006100780000000100C10020006C
:1070C000D08620007EDC0200000000004F04780023
:1070D00000000600D4FF3700E1012000B089200045
:1070E0007EDC0200000000009DFF370051012000FF
:1070F000806A200026DC020000000000C0C2B3004D
:10710000DEBF02000000000000C2B300DEBF0200CC
:1071100000000000E8A2AB0087FF3A00090037003A
:10712000210120001072200026DC02000000000077
:107130006DFF3700D0972A0060C1020000000000F8
:107140007FFF370040972A0060C102000000000066
:10715000E882AB007AFF3A00F6FF370061012000B9
:10716000006620007EDC020000000000000320001A
:1071700081A681000088B9006002B000C1C622006B
:107180006100780000000100C1002000D0862000CE
:107190007EDC0200000000004F04780000000600C2
:1071A000A1FF370071012000204721007EDC020092
:1071B000000000000003200081A681000088B900C3
:1071C0006002B000C1C6220061007800000001002A
:1071D000C1002000D08620007EDC020000000000FC
:1071E0004F047800000006008FFF370010988100E0
:1071F0000000E800F00FB200109889000220230080
:10720000E241780001C2B30081CF510006003A008C
:107210000000E800F00FB200E240780083CF500099
:10722000FBFF320010988900B7FA07000000E90060
:10723000E30F500005003E0070A6890021012000E8
:10724000F09120007EDC04000000000040302300AC
:107250000048EB0021022000D08F20007EDC0200DD
:10726000000000008001EB0042002000110020001F
:107270001000200086FB0700E14C23008008E90095
:1072800021012000F09120007EDC040000000000BD
:10729000EEFF3700889FBE008A1F7800109881009B
:1072A0000000E800F00FB2001098890008202300C9
:1072B0006841780001C2B300814F510006003A00D6
:1072C0000000E800F00FB200E840780082CF5000E4
:1072D000FBFF3200109889008BFA07000040E9009C
:1072E000E94F50001D003E00C94C2300804C78003F
:1072F0000045EB002A00320041012000A0A120003F
:107300007EDC02000000000011012000F0332100AB
:107310007EDC02000000000026C302000000000026
:107320000004E000FCFF320090C0B300994F100051
:107330003E0032004EC302000000000008C2B3004D
:107340003EC3020000000000884F5000FCFF3A00DE
:107350004F0578004F04BE000000060040302300B7
:107360000048EB00E10B2000C09520007EDC02000D
:10737000000000008001EB00A200200011002000AE
:107380009000200042FB07000040E900C94C2300A8
:10739000804C78000045EB00E94F5000D6FF3A00E2
:1073A000109881006841780001C2B300814F5100FC
:1073B00006003A000000E800F00FB200E840780054
:1073C00082CF5000FBFF3200109889004EFA070070
:1073D000004578000004E000C7FF3A004130230078
:1073E0008048780070982A0040C102000000000028
:1073F0008001EB00F2FF27008000EB00200220005C
:1074000023FB07000045780041012000A0A12000D7
:107410007EDC02000000000011012000F03321009A
:107420007EDC020000000000BBFF37000A4078004D
:1074300050C30200000000004EC302000000000024
:1074400008C2B300BEFF370080A681000000E00044
:107450003A003200404B230010407800704060003A
:107460002E003200E8A2A800E882A8002000200038
:10747000DCDB02000000000021E3A8005000200037
:1074800066DA02000000000001102000810F5000A9
:107490004D003E0021E3A900109881000000E800A3
:1074A000F00FB2001098890002202300E24178001A
:1074B00001C2B30081CF510006003A000000E8008D
:1074C000F00FB200E240780083CF5000FBFF3200A3
:1074D000109889000CFA0700413023001104E000E5
:1074E0001E003A00E20F500028003200E30F500067
:1074F00043003200E8A2A800E882A8009101200021
:10750000C04F210026DC02000000000081002000A6
:10751000C05121007EDC0400000000002102200098
:10752000D0FB20007EDC02000000000011C0B30090
:10753000403023000148780000000600D1012000FF
:10754000B06820007EDC02000000000011C0B30023
:107550004030230001487800000006008048EB001E
:1075600071052000504A21007EDC0200000000006E
:107570008001EB00320020001100200010002000EC
:10758000C3FA0700E20F5000D8FF3A00E8A2A800B3
:10759000EA82A900E882A9004100200000C620007C
:1075A00026DC02000000000091012000C04F2100F5
:1075B00026DC020000000000710020005051210074
:1075C0007EDC040000000000F0992A0040C10200A7
:1075D0000000000021E3A900109881000000E800ED
:1075E000F00FB2001098890002202300E2417800D9
:1075F00001C2B30081CF5100B0FF3200B5FF3700A8
:10760000E882A800EAA2A900E8A2A90021002000BF
:10761000B0C5200026DC020000000000910120001F
:10762000C04F210026DC0200000000007100200095
:10763000505121007EDC040000000000F487470068
:10764000889FBE008A9FBE008C9FBE008E1F780060
:107650000000EB001098890000988900004D23007D
:107660000008EB00403023000048EB008001EB00F5
:107670005930230002022000C518DD008100E90016
:10768000898040000000EB008068EB000000E8000B
:10769000820F5000FCFF3A008301E800E58F5100A3
:1076A000F5FF3A000000EB00309D89008000EB0000
:1076B0000041EB0082E79F000002EB00E4B79F006F
:1076C0008006EB00CDB79F00DDB79F00BDB79F00E0
:1076D0009DB79F000007EB00CCC6220008202300C6
:1076E0004A4B2300000320000088B9008002B0004C
:1076F0000000460060C102000000000000402000C1
:10770000614D23001100600059003A00909C2A004E
:1077100060C1020000000000309D81000000E00018
:10772000180032000000E900309D89004500DD00AE
:10773000694078000004E0001000320001988100E8
:107740008005EB0000F47800DEBF020000000000BE
:107750008B05E800019881008100E800F10FB2007C
:1077600001988900309D81004500DD000B0040003C
:10777000694078000004E000F2FF3A000000EB00EE
:10778000309D890028C30200000000000004E000D2
:1077900008003A001A417800644061000C003A0089
:1077A0009016800028C30200000000000004E000E2
:1077B000F8FF320046C30200000000000004E000B1
:1077C000330032004CC3020000000000D2FF37003B
:1077D00080A68100040320000480B9007A004000E4
:1077E0006C007800000001000004E000ECFF3200B3
:1077F00080A68100020320000280B9008002B00050
:10780000C4C622000400400060C102000000000065
:10781000909C2A0060C10200000000001B988100BB
:1078200000988100808F5500DDFF320068C07D0028
:10783000DEBF020000000000FB0FB2008B05E80075
:1078400000988100808F5500D5FF320068C07D0010
:10785000DEBF020000000000FB0FB2008B05E80055
:1078600000988100808F5500F0FF3A00CCFF370070
:10787000710020004065200026DC020000000000AE
:10788000909C2A0060C1020000000000A2FF3700A7
:107890003EC3020000000000804578000B80FB0022
:1078A0008000EB00F2072000820F5000E08F5800AC
:1078B00038003600019881000100E800F00FB200A6
:1078C00012988100820F5000CB003200FFCF55008C
:1078D000C9003600E0C7B30080CF5500C6003E00A7
:1078E000818F560072033200F09C2A00F1B79F008E
:1078F00060C1020000000000FFB097000D80500042
:10790000F00FB200ECBF020000000000E09D2A0072
:1079100060C1020000000000019881000D01E90033
:10792000F20FB200810F51000F0032008D0178007C
:107930008B467800810578000B004400E8C07D008C
:107940001140980068C07D000004E00085023A0004
:107950008B05E900FB0FB2008B0F5100F6FF3A00D8
:107960008D457800830678000B407800DEBF02006A
:10797000000000000BF47E008D06E800FD0FB20051
:10798000009881000000E800F00FB2000098890024
:1079900061FF370000600100C1013700B10137000D
:1079A000F1003700C3FF3700830137007301370050
:1079B000D2003700BFFF370034013700BDFF37006A
:1079C000F5003700BBFF3700BAFF3700F200370081
:1079D0008D003700B7FF37006F003700B5FF370065
:1079E000B4FF3700B3FF3700B2FF3700B1FF3700F5
:1079F000B0FF3700AFFF3700AEFF3700ADFF3700F5
:107A0000ACFF3700C6003700AAFF3700A9FF3700D8
:107A1000A8FF3700A7FF3700A6FF3700A5FF3700F4
:107A2000A4FF3700A3FF3700A2FF3700A1FF3700F4
:107A3000A0FF37009FFF37009EFF37009DFF3700F4
:107A40009CFF37009BFF37009AFF370099FF3700F4
:107A500098FF370097FF370096FF370095FF3700F4
:107A600094FF370093FF370092FF370091FF3700F4
:107A700090FF37008FFF37008EFF37008DFF3700F4
:107A80008CFF37008BFF37008AFF370089FF3700F4
:107A900088FF370087FF370086FF370085FF3700F4
:107AA00084FF370083FF370082FF370081FF3700F4
:107AB00080FF37007FFF37007EFF37007DFF3700F4
:107AC0007CFF37007BFF37007AFF370079FF3700F4
:107AD00078FF370077FF370076FF370075FF3700F4
:107AE00074FF370073FF370072FF370071FF3700F4
:107AF00070FF37006FFF37006EFF37006DFF3700F4
:107B00006CFF37006BFF37006AFF370069FF3700F3
:107B100068FF370067FF370066FF370065FF3700F3
:107B200064FF370063FF370062FF370061FF3700F3
:107B300060FF37005FFF37005EFF37005DFF3700F3
:107B40005CFF37005BFF37005AFF370059FF3700F3
:107B500058FF370057FF370056FF370055FF3700F3
:107B600054FF370053FF370052FF370051FF3700F3
:107B700050FF37004FFF37004EFF37004DFF3700F3
:107B80004CFF37004BFF37004AFF370049FF3700F3
:107B900048FF370008013700169881008605E90084
:107BA000FB0FB2000098810080027800808F5500A2
:107BB000110032008001EB0004202300EFB3970096
:107BC000E8C07D000104E0004C013A008B00E900B0
:107BD000F10FB20064C178000204E000030032003B
:107BE0008301E800878F51002C023E008105780058
:107BF000808F5500F2FF3A0070C0B300DEBF020074
:107C000000000000C4FE3700179881008705E900D6
:107C1000FB0FB2000098810080027800808F550031
:107C2000120032008001EB0004202300EFB0970027
:107C30000103E900E8C07D000104E0002A013A00E8
:107C40008B00E900F10FB20064C178000204E0008B
:107C5000030032008301E800830F5300CF0132009C
:107C6000810578008B0F5000F2FF3A00EFB09700CB
:107C7000E18F5000E0FF3A00809D2A0060C10200C1
:107C8000000000000003200081A681000088B900E8
:107C90008002B0000000460060C102000000000049
:107CA00004402000624D2300120062006A023A0084
:107CB000909C2A0060C10200000000000D98810025
:107CC00010988100808F5600070032008040EB0042
:107CD00001F47E008D06E900FD0FB200808F560092
:107CE000FAFF3A000D9889000041EB0002F47E0093
:107CF0000002EB00E4B79F0087FE37000098810088
:107D0000808F5600BCFF32008D06E800FD0FB200E8
:107D1000409D2A0060C10200000000007EFE370086
:107D20003EC3020000000000B1C5B300814F500007
:107D300079FE3A003EC302000000000011C4B30007
:107D4000814F500094FF32008100360031C4B300EF
:107D5000814F5000E9FF3200ABFF39008140E8005D
:107D6000814F50006CFE3A004FB09700E40F500076
:107D7000F7003C0010988100808F56009EFF320073
:107D80008D06E900FD0FB200B09C2A0060C1020020
:107D90000000000060FE37000D9881000040EB00FD
:107DA00000F47E008D06E800FD0FB2000D988900FA
:107DB000308B2A0040C102000000000001988100C1
:107DC00091B79F0012988100B2B79F00020078001F
:107DD00044302300004AEB0001402000624D2300A4
:107DE00092806000CA003A000002EB00E4B79F00F6
:107DF00081E79F000007EB00684178000281FB00EB
:107E00008001EB00E1072000810F5100E08F590055
:107E1000D400360011C0B30042302300014978007D
:107E20000007EB000000E800F00FB2001098890096
:107E3000443023001404E00044023A000198810019
:107E4000810F5000BC0032000E00E000E9FF32005C
:107E50001FB09700109889000098890081A68100C2
:107E6000000320000088B9008002B0000000460036
:107E700060C102000000000000402000614D2300AE
:107E80001100600021FE320079FE37001098810059
:107E9000808F560058FF320000988100808F560076
:107EA000C00132008D06E900FD0FB200B09C2A002F
:107EB00060C1020000000000009881008000EB001B
:107EC000808F5600130032000D017800ADB79F007F
:107ED000810678008205E80068C07D0000747900A2
:107EE0000004E00001003A0000C2B300DEBF02005F
:107EF000000000008D06E8000B017800F20FB200D0
:107F000000988100800F5100F2FF3A008D00780048
:107F1000AFB697000000E900F00FB20000988900AA
:107F2000F09C2A00F1B79F0060C102000000000031
:107F3000FFB0970001407800ECBF02000000000095
:107F4000209D2A0060C1020000000000F2FD370001
:107F5000F0C05000814F50003D003200E3C04000AF
:107F6000814F5000ECFD3A003EC3020000000000CB
:107F7000E1C7B300814F5000E7FD3A000B98810044
:107F80008B8F56001CFF3200F09C2A0060C102005B
:107F9000000000000D805500F00FB200ECBF0200A1
:107FA00000000000E09D2A0060C102000000000007
:107FB0000D988100D8FD370000988100808F560011
:107FC0000DFF32000D0178008000EB00ADB79F007F
:107FD000810678008205E80068C07D0000747900A1
:107FE0000004E00001003A0000C2B300DEBF02005E
:107FF000000000008D06E8000B017800F20FB200CF
:1080000000988100800F5100F2FF3A008D00780047
:10801000AFB697000201E900F20FB20002988900A2
:10802000F09C2A00F1B79F0060C102000000000030
:10803000FFB0970001407800ECBF02000000000094
:10804000209D2A0060C1020000000000B2FD370040
:108050003EC3020000000000E1C7B300814F5000A2
:10806000ADFD3A001B9881008B8F5600E2FE320076
:10807000F09C2A0060C10200000000000B80560046
:10808000F00FB200ECBF020000000000209D2A00AB
:1080900060C10200000000001D9881009EFD3700B5
:1080A0004FB197000201E800C2B79F00F40F5100E2
:1080B00099FD3A0032C80200000000000002EB0007
:1080C000C4B79F0073FA0700109881000000E80011
:1080D000F00FB20010988900443023001404E0002F
:1080E00056FF3200990137008B05E900FB0FB20003
:1080F0008B0F5000CFFE3A00DCFE37008B05E90005
:10810000FB0FB200808F5500ADFE3A00BAFE37007B
:10811000186702000000000051002000B065200038
:108120007EDC0200000000000001EB00E2B79F00CF
:108130000042EB0084E79F001E0020001FB0970064
:10814000109889000098890081A6810044FF3700BB
:10815000C2DD0200000000008000EB00C1B79F00FC
:108160006DFD3700026001002EFF370029FF370048
:1081700028FF370027FF370026FF370025FF37008D
:1081800024FF370023FF370022FF370021FF37008D
:1081900024FF37001FFF37001EFF370021FF370085
:1081A0001CFF37001BFF37001AFF370019FF37008D
:1081B00018FF370017FF370016FF370015FF37008D
:1081C00014FF370013FF370012FF370011FF37008D
:1081D00010FF37000FFF37000EFF37000DFF37008D
:1081E0000CFF37000BFF37000EFF37005703370037
:1081F0006C033700D0033700D6033700EC03370099
:10820000FE03370003FF37000F04370001FF37007C
:1082100000FF3700FFFE370002FF3700160437006B
:108220002E0137003C0137006C0137006B0137002D
:108230006A013700690137006801370067013700BC
:1082400066013700650137006401370063013700BC
:10825000F0FE3700EFFE37007F0237005A0237008A
:10826000ECFE37006102370046023700E7023700B4
:10827000E8FE3700DA023700F3023700E5FE370088
:10828000E4FE3700E3FE3700E2FE3700E1FE370090
:10829000E0FE3700F1023700F9023700DDFE37005B
:1082A000DCFE3700DBFE3700DF013700D9FE370088
:1082B000D8FE3700FC023700D6FE3700D5FE370067
:1082C000D4FE3700FF023700D2FE3700D1FE370060
:1082D000D0FE37007F033700C6043700D2043700D2
:1082E0006B0437007D043700CAFE3700880437006E
:1082F0008F043700920437009A043700A204370035
:10830000A5043700AE013700B5013700E70137009B
:10831000C0FE3700EE013700F801370002023700D7
:10832000BCFE3700EF033700F2033700B9FE370019
:1083300002043700DF043700B6FE3700B5FE370011
:10834000C8043700CB043700B2FE3700B1FE370057
:10835000B0FE3700950437009D043700F601370062
:10836000FE013700F2B79F0083BF9F00DEBF02000F
:1083700000000000009E2A0060C102000000000012
:108380008FB997007FB197008B05E900FB0FB20012
:108390008B0F510068FD3A0071FD3700E6B79F0072
:1083A000870F50000A0032000041EB0002F47A000F
:1083B0008502E900F50FB200858F5300FAFF3A00FD
:1083C000079889000020230002F07B000700780056
:1083D000808F50000700320068C178000204E0007E
:1083E0008B0032008100E900F10FB200808F500055
:1083F000F9FF3A00809D2A0060C1020000000000E1
:108400000003200081A681000088B9008002B0002E
:108410000000460060C10200000000000140200092
:10842000644D2300148060009C003A00909C2A0058
:1084300060C10200000000005FB197008B0F510087
:10844000E0003200DFB6970068C07E00DEBF0200A9
:1084500000000000009881006D707C000000E800C2
:10846000F00FB200009889008D06E800FD0FB20001
:108470008B8F5600F4FF3A00800678000040EB0036
:1084800000F47E008B8F5600A3FC3A00EFB09700FB
:10849000E18F5000D8FD3A00F7FD37006FB197002B
:1084A0000201E800E2B79F00800F53000A0032008B
:1084B0000042EB0004F47A008502E900F50FB200F7
:1084C000850F5300FAFF3A00069889000020230028
:1084D00004707B0006007800808F50000700320097
:1084E00068C178000204E000370032008100E90032
:1084F000F10FB200808F5000F9FF3A00809D2A00F2
:1085000060C10200000000000003200081A681007D
:108510000088B9008002B0000000460060C102007F
:108520000000000002402000614D230011006100A6
:1085300055003A00909C2A0060C102000000000033
:108540005FB297008B0F520098003200DFB69700A1
:1085500068C07E00DEBF02000000000000988100BD
:108560006D707C000000E800F00FB20000988900F8
:108570008D06E800FD0FB2008B8F5600F4FF3A0025
:10858000800678000041EB0002F47E008B8F5600DD
:1085900061FC3A0070C0B300DEBF020000000000C2
:1085A0005DFC37008D06E900FD0FB2000D988900D3
:1085B0000042EB0004F47E00F08A2A0060C1020051
:1085C0000000000054FC37008100E800F10FB20009
:1085D000D1B79F00809D2A0060C10200000000000A
:1085E0000003200081A681000088B9008002B0004D
:1085F0000000460060C102000000000002402000B0
:10860000614D230011006100CAFF32001E003700D7
:108610008100E800F10FB200D1B79F00809D2A00D1
:1086200060C10200000000000003200081A681005C
:108630000088B9008002B0000000460060C102005E
:108640000000000001402000644D23001480600001
:1086500076FF3200110037007100200040652000D5
:1086600026DC020000000000909C2A0060C102008D
:10867000000000000D98810010988100808F560046
:1086800092FD3A0098FD37007100200040652000FF
:1086900026DC020000000000A6FF37007100200069
:1086A0004065200026DC0200000000005FFF37006C
:1086B0000B407800DEBF0200000000000D98810032
:1086C0000BF47E008D06E800FD0FB2000D988900C6
:1086D0000040EB0000F47E000FFC3700C1002000DA
:1086E0003073200026DC02000000000000032000A0
:1086F00081A681000088B900740040006C007800F9
:1087000000000100F4C20200000000000007EB00BE
:1087100010988100C3FD37008100200040752000C3
:108720007EDC0200000000000003200081A6810022
:108730000088B9006C0040006C0078000000010067
:108740000007EB0010988100B6FD370051012000B2
:10875000707A200026DC02000000000010988100E2
:10876000BFB09700808F50000B00310001405000D7
:10877000ECBF02000000000044302300004AEB0080
:10878000308B2A0040C10200000000001E002000C3
:1087900010988100A9FD37006FE19700024050005A
:1087A000ECBF020000000000F3FF37000D988100CD
:1087B0000041EB0002F47E008B8F5600D6FB3A009E
:1087C00074FF37000D9881000040EB0000F47E003C
:1087D0008B8F5600D0FB3A002CFF37007100200031
:1087E0007074200026DC02000000000046F507003F
:1087F00080057800109881000000E900F00FB200B9
:1088000010988900D4F5070000077800E5F5070007
:108810000000E00005003200344A2300004A7800DE
:10882000E80F5000470134001A54A000ADB79F0074
:108830000E00E0005C0032000B007800F8DA020065
:108840000000000001C2B3001AC0600041003A00FD
:1088500084C0B300324A2300924F12000700320056
:10886000B0C3B300DEBF020000000000324A2300A4
:1088700012407800ECBF0200000000001A427800AD
:108880006840620020003A0080A6810002032000B8
:108890000280B90068004000EC0078000B0078000E
:1088A000010001008006780000C2B300DEBF0200B4
:1088B0000000000004C4B3001A40620002003A0045
:1088C0000E07E900DAFF370061002000E0742000A5
:1088D00026DC020000000000414B2300914078009C
:1088E00068C0600027003A000D007800F8DA020046
:1088F0000000000000C2B300DEBF02000000000064
:108900000E07E900CAFF37000B00780000DC020008
:10891000000000008005780080A68100020320008E
:108920000280B90068004000EC0078000B0078007D
:10893000010001008006780000C2B300DEBF020023
:108940000000000004C4B3001A406200DCFF3200E3
:10895000DDFF370001C1B300304A230090CF100083
:10896000C6FF3200B0C3B300DEBF0200000000004B
:10897000324A230012407800ECBF020000000000E1
:10898000BEFF37000D00780000DC02000000000090
:10899000F8DA02000000000000C2B300DEBF0200EF
:1089A00000000000D6FF3700AFB69700308B2A00DA
:1089B00040C10200000000001098810019FD37003E
:1089C00080A681000000E000100032003E9402000A
:1089D000000000000007EB001098810011FD370037
:1089E00055F607000007EB000000E0002D003A00FC
:1089F00012988100B2B79F000200780004988100AD
:108A000094B79F000007EB0006FD3700D10120005E
:108A1000B06820007EDC0200000000000007EB00D0
:108A200010988100FFFC370080A681000000E00064
:108A3000F6FF32009A40780070C0600004003A00EF
:108A400021022000D0FB20007EDC0200000000009C
:108A5000E082A800E282A90041012000D06B200042
:108A600026DC020000000000308B2A0040C102001A
:108A70000000000021E3A8005000200066DA020098
:108A800000000000F1042000810F500003003E00B0
:108A9000509E2A0040C102000000000021E3A9000E
:108AA0000007EB0010988100DEFC3700F9F70700A3
:108AB0000007EB0080A681000000E000F9FF320013
:108AC000DAF807000007EB0010988100D5FC3700AA
:108AD0001A4078000000A1000014A000004D7800AA
:108AE00071012000B04521007EDC02000000000082
:108AF0000007EB0010988100CAFC37001A34A1006F
:108B0000B1012000908B200026DC02000000000054
:108B1000308B2A0040C10200000000000007EB007B
:108B200010988100BFFC37008CF607000007EB00AF
:108B300010988100BBFC37000003200081A6810053
:108B40000088B900660040006C0078000000010059
:108B50000007EB0010988100B2FC370080A681006E
:108B60000000E000B1003A0011C0B30001407800FD
:108B700044B80200000000000007EB0010988100DC
:108B8000A8FC3700F4F40700800578000B00E00033
:108B9000E2FF320061012000A06F200026DC02000D
:108BA00000000000529B020000000000F4C202001E
:108BB00000000000308B2A0040C1020000000000CD
:108BC0008B05E900F1FF37000000E800F00FB2006C
:108BD00001C2B30068417800814F510008003A009B
:108BE0000000E800F00FB200FAFF370086DC020058
:108BF000000000000007EB001098810089FC37009E
:108C00001098890040F40700800578000B00780078
:108C1000D6C202000000000080A02A0060C102004D
:108C2000000000000B407800ECBF020000000000D4
:108C300080A02A0060C10200000000000B40780004
:108C40005CC2020000000000308B2A0040C102001C
:108C500000000000B1FF370013C0B3001200200075
:108C6000E4C3B30080004100F10FB200E8C0780017
:108C70000104E0000700320084CF500002003200FF
:108C80000201E800F7FF37008041EB000201E80035
:108C9000F4FF37004130230083487800240220008D
:108CA000840F51002C003C000007EB000304E0009F
:108CB0005CFC3A000000E800F00FB2001098890058
:108CC000F1B79F0010F4070080057800109881002C
:108CD00000017800F20FB20003202300E341790085
:108CE000D2C3B300FFB0970082CF510023003200FF
:108CF0000B00E00015003A005E3023001B0020004E
:108D00000B407800ECBF02000000000060A42A00C5
:108D100060C10200000000000E00780060C1020087
:108D200000000000909C2A0040C1020000000000EA
:108D30008B05E8000E02B000E68F5500F0FF3A0008
:108D400076FF37001A54A100B8FE37000B01E90086
:108D5000E40F51000400360012C0B30082487800CE
:108D60000007EB002FFC3700308B2A0040C10200C7
:108D7000000000003B9D890068FF37008B05E9007B
:108D8000E48F5500F4FF3E000000E800F00FB20051
:108D900010988900C558DD008100E90089804000F5
:108DA000010178000000EB00030220000069EB00E5
:108DB0000000E800830F5000FCFF3A00109881008B
:108DC000E3C3B30068417800834F510014FC3200C4
:108DD000826878000000E800F00FB200F9FF370069
:108DE0001A4078000000A0000014A100004D780097
:108DF00051012000606720007EDC020000000000BE
:108E00000007EB001098810006FC370052F40700C1
:108E1000800578000B00E00040FF3200BE9A02009F
:108E2000000000008B05E900FAFF3700A1012000D7
:108E3000106D20007EDC0200000000000007EB0047
:108E400010988100F7FB37008CDA02000000000068
:108E50000007EB0010988100F2FB37001A40780001
:108E6000634D700071012000204721007EDC02006C
:108E7000000000000007EB0010988100E9FB3700BC
:108E80001A34A000C1012000408D200026DC020021
:108E900000000000308B2A0040C1020000000000EA
:108EA0000007EB00FFFE370080A681000000E00015
:108EB000D6FE3200AA9B0200000000000007EB0073
:108EC000F8FE370080A681000000E000CFFE3200EF
:108ED000C922A900CB22A80021E3A800200020007D
:108EE000DCDB0200000000000000EB0066DA02009C
:108EF00000000000011B2000810F5000060036001A
:108F00002000200066DA020000000000712B200023
:108F1000810F500077003E00C922A900CB22A90092
:108F200060A22A0040C102000000000021012000D0
:108F30001072200026DC020000000000308B2A00A6
:108F400040C1020000000000D4FE370002F4070018
:108F500080057800A1002000D079200026DC0200E6
:108F6000000000000E0320000B00E0005300320060
:108F700080A681000E80B900780040006C00780067
:108F8000000001000080FB00F4C2020000000000AD
:108F900000C2B300DEBF0200000000008B05E90044
:108FA000F1FF370011C0B300120020008001410022
:108FB000F30FB200E8C179000304E00008003200BA
:108FC00024C2B30084CF5100020032000201E80045
:108FD000F6FF37008040EB000201E800F3FF3700A6
:108FE00042302300014978000007EB000104E00053
:108FF0008CFB3A00710020007074200026DC020017
:109000000000000020C2B300DEBF0200000000002C
:109010000B202300119881008100E800F10FB200BD
:1090200068C0780022C2B300824F5000190032009D
:1090300011988900DEBF0200000000001098810036
:109040006B4078000000FB001A427800E8406200A4
:1090500007003A000103200082A681000191B900B7
:10906000E8004100EC80780001000100E9FF3700D2
:1090700000DC0200000000000103200082A6810045
:109080000191B900E8004100EC8078000100010086
:10909000E0FF37001198890002407800DEBF02002F
:1090A00000000000308B2A0040C1020000000000D8
:1090B0000007EB00109881005AFB370001012000E7
:1090C000007820007EDC0200000000000007EB00BA
:1090D00074FE37000003200081A681000088B900DB
:1090E0006C007800000001000007EB001098810080
:1090F0004CFB3700110120000071200026DC02002B
:1091000000000000308B2A0040C102000000000077
:109110000003200081A681000088B9000002B00091
:109120006C0078000000010040A12A0040C102004C
:109130000000000059FE3700C0A02A0060C10200F4
:10914000000000000007EB0052F6070010988100B5
:10915000DEFB370010DD0200000000000007EB001E
:109160000004E0004FFE3200A1002000006F20004C
:109170007EDC02000000000040062000DCDB020074
:109180000000000000DA02000000000026C3020018
:10919000000000000004E000FCFF320081BF2A0054
:1091A000014001000007EB00109881001DFB370013
:1091B00069F307008005780061002000F07320004B
:1091C00026DC0200000000000B00780074C00200E2
:1091D0000000000021002000100021007EDC0200C1
:1091E000000000000B007800DCDB02000000000043
:1091F0000007EB00109881000AFB370056F30700C8
:109200008005780061002000F073200026DC020059
:10921000000000000B00780074C002000000000095
:1092200021002000507420007EDC020000000000BD
:109230000B007800AEDB0200000000000007EB002E
:1092400010988100F7FA37000000E800F00FB20034
:1092500010988900ACF207001198810002C2B30097
:10926000E8C1780082CF510010003A008100E80088
:10927000F10FB200FAFF3700E10020004076200035
:109280007EDC0200000000000003200081A68100B7
:109290000088B900700040006C00780000000100F8
:1092A0000007EB0010988100DEFA37001198890062
:1092B00001017800F20FB20003202300E34179009E
:1092C00092C2B30082CF51001200320010C0B3002E
:1092D00042302300004978000007EB0001007800CD
:1092E000D0FA3700C1F707000007EB0010988100A3
:1092F000CCFA370080A681000000E000C3FD3200F8
:10930000E282A900E082A90051012000806A2000C9
:10931000FDFD37000103200082A681000191B90004
:10932000FC004100EC80780001000100308B2A0035
:1093300040C1020000000000F8FD3700610020007D
:10934000E074200026DC02000000000028F3070083
:109350008045780000F307000007780011F307004C
:109360000000E00005003200324A23000049780086
:10937000E80F5000D40034001A54A0000B04E000A1
:109380000500320070A6810080E79F000B80FB0083
:10939000E44C2300000AE9000E00E0003100320036
:1093A00080A68100020320000280B9006A0040000C
:1093B0006C007800000001001A427800E84062006A
:1093C00015003A00F8DA02000000000001C2B30004
:1093D0001AC0600017003A0084C0B300324A23006C
:1093E000924F120007003200B0C3B300DEBF02008C
:1093F00000000000324A230012407800ECBF020057
:109400000000000000C2B300DEBF02000000000048
:109410000E07E900E0FF370000DC0200000000005A
:10942000F8DA02000000000001C2B3001AC06000B8
:10943000E9FF320001C1B300304A230090CF100091
:10944000F0FF3200B0C3B300DEBF02000000000036
:10945000324A230012407800ECBF020000000000F6
:10946000E8FF37000B04E000030032000FE2970032
:109470000480FB0070A68900308B2A0040C10200E6
:10948000000000000007EB001098810065FA37002B
:10949000B1F2070080057800D1002000007920009B
:1094A00026DC0200000000000B007800F8DA020061
:1094B000000000000E0320000B00E000EEFF320071
:1094C00080A681000E80B900760040006C00780014
:1094D000000001008B05E900F7FF3700E1002000E4
:1094E000207720007EDC0200000000000003200046
:1094F00081A681000088B900720040006C007800ED
:10950000000001000007EB001098810045FA3700C9
:1095100091F20700800578000B00E00067FE320042
:10952000089B0200000000008B05E900FAFF3700ED
:1095300058F707000007EB001098810039FA370050
:10954000C0CFB3001A4D600061012000006620000A
:109550007EDC0200000000000007EB001098810094
:1095600030FA3700F1002000C036200026DC02006F
:109570000000000074DA020000000000110020006A
:10958000B037200060FD3700AFF707000007EB00A1
:109590001098810023FA3700309702000000000085
:1095A0000007EB00109881001EFA3700000320002E
:1095B00081A681000088B9000080E8006C00780076
:1095C000000001000007EB001098810015FA370039
:1095D0000000E800F00FB20001C2B300684178005B
:1095E000814F510019003A000000E800F00FB2006E
:1095F000FAFF370081002000C07520007EDC0200E9
:10960000000000000003200081A681000088B9004E
:109610006E0040006C007800000001000007EB00C5
:1096200010988100FFF937000003200081A6810017
:109630000088B900640040006C0078000000010060
:109640000007EB0010988100F6F9370010988900A8
:10965000ADF107000080FB0000DC0200000000000C
:1096600069FD370082F507000007EB0010988100C4
:10967000ECF9370080A681000000E000E3FC320036
:10968000010320000180B9002002B0006C007800C6
:1096900000000100908B2A0040C102000000000081
:1096A000C922A900CB22A9002101200010722000AC
:1096B000F6FD3700B1A6810001A0A000B1A6890087
:1096C0000007EB00D7F937001A54A1002BFF370031
:1096D0005752490054452000424954003A20200086
:1096E0002A6E650078742000636C6F00636B200045
:1096F000285E2900207769006C6C20007573650076
:10970000207468006973200076616C0075654E00F6
:109710006F2064006576690063652C002074720018
:1097200079202800414C4100524D2900205345002A
:109730004152430048206D00616372006F20660053
:109740006972730074414400445245005353200031
:109750004D414300524F200020302E004D616300E8
:10976000726F20006D656E00754D610063726F0051
:109770002020200020203100574952004520610060
:1097800064647200657373000D0A200020202A00B3
:109790003157490052452000524F4D0020434F00A1
:1097A0004D4D41004E4420004D414300524F730047
:1097B0003A0D0A00203531002E5245004144200068
:1097C000524F4D00202830007833330029202A00E2
:1097D000666F7200207369006E676C00652064001C
:1097E0006576690063652000627573000D0A2000CC
:1097F00038352E004D41540043482000524F4D0053
:10980000202830007835350029202A00666F6C004A
:109810006C6F770065642000627920003634620046
:10982000697420006164640072657300730D0A003E
:1098300020323000342E53004B49500020524F004C
:109840004D20280030784300432920002A666F000D
:109850006C6C6F00776564002062790020636F0094
:109860006D6D61006E640D000A20320033362E00EB
:10987000414C4100524D20005345410052434800A5
:109880002028300078454300290D0A00203234009A
