:020000040000FA
:100000000020040000000000C0220000C022000008
:10001000C0220000C0220000C0220000C022000058
:10002000C0220000C0220000C0220000C022000048
:10003000C0220000C0220000C0220000C022000038
:10004000C0220000C0220000C0220000C022000028
:10005000C0220000C0220000C02200002AD20000FE
:10006000C0220000C0220000C0220000C022000008
:10007000C0220000C0220000C0220000C0220000F8
:10008000C0220000C0220000C0220000C0220000E8
:10009000C0220000C0220000C0220000C0220000D8
:1000A000C0220000C0220000C0220000C0220000C8
:1000B000C0220000C0220000C0220000C0220000B8
:1000C000C0220000C0220000C0220000C0220000A8
:1000D000C0220000C0220000C0220000C022000098
:1000E000C0220000C0220000C0220000C022000088
:1000F000C0220000C0220000C0220000C022000078
:10010000C0220000C0220000C0220000C022000067
:10011000C0220000C0220000C0220000C022000057
:10012000C0220000C0220000C0220000C022000047
:10013000C0220000C0220000C0220000C022000037
:10014000C0220000C0220000C0220000C022000027
:10015000C0220000C0220000C0220000C022000017
:10016000C0220000C0220000C0220000C022000007
:10017000C0220000C0220000C0220000C0220000F7
:10018000F8D00000C0220000C0220000C022000001
:10019000C0220000C0220000C0220000C0220000D7
:1001A000FFFFFF00FFFFFF00FFFFFF00FFFFFF005B
:1001B000FFFFFF00FFFFFF00FFFFFF00FFFFFF004B
:1001C000FFFFFF00FFFFFF00FFFFFF00FFFFFF003B
:1001D000FFFFFF00FFFFFF00FFFFFF00FFFFFF002B
:1001E000FFFFFF00FFFFFF00FFFFFF00FFFFFF001B
:1001F000FFFFFF00FFFFFF00FFFFFF00FFFFFF000B
:10020000FFFFFF00FFFFFF00C0220000C022000030
:10021000C0220000C0220000C0220000C022000056
:10022000C0220000C0220000C0220000C022000046
:10023000C0220000C0220000C0220000C022000036
:10024000C0220000C0220000C0220000C022000026
:10400000CF5123000E7F24000E0188000000000025
:10401000000020000000E00002003200000120004B
:10402000200288000C00070080CF2B000100200038
:1040300011000700000020000000E0000200320034
:104040000000020000000000CAD0020000000000D2
:104050000040DA000000FE004440A900E05D2000BE
:104060000000E0000300320000002000A0018800F2
:104070004440A800000006009101880080007800FC
:104080000000EB0015003700E280400032A0B400D1
:104090009101BA00E280400032A0B4009102BA005F
:1040A000E280400032A0B4000002EB00472BDE00AB
:1040B000F507B200602CE10004003A000059EB0063
:1040C0008301E900FDFF3E00040037006128E100A4
:1040D000010032000082EB000B00070011C3BA00A0
:1040E0001101BA000604E00003003A000200E000FB
:1040F000E5FF3A0000000600F607B20096018800CE
:1041000082007800F5FF37003159BA008301E900D9
:104110000C0032002159BA008301E9000800320086
:104120000400E00003003A00E280400032A0B40046
:10413000F5FF370011D9BA008301E900FAFF3A0010
:104140008100E800E180400032A0B40000000600D9
:104150009AA9040000000000AAA9040000000000C1
:10416000A2A904000000000092A9040000000000C1
:104170000AAA0400000000007466040000000000A9
:104180000A67040000000000246C04000000000026
:10419000926B04000000000016670400000000009D
:1041A0006C66040000000000E266040000000000ED
:1041B0007267040000000000386D04000000000079
:1041C000EC66040000000000E26D04000000000046
:1041D000066D040000000000CE6C0400000000002A
:1041E000E26904000000000098660400000000007E
:1041F000D26B0400000000007C6604000000000098
:104200008C690400000000002EAC040000000000D7
:10421000FA9F040000000000B29F040000000000AC
:10422000504904000000000040D3040000000000DA
:104230002ED30400000000001CD304000000000086
:104240000AD3040000000000FAD2040000000000BD
:10425000DCD2040000000000F0D2040000000000E6
:10426000E8D20400000000004E9B040000000000A3
:10427000FC9A040000000000F49A04000000000012
:10428000289B0400000000001A9B040000000000AE
:10429000129B040000000000089B040000000000C6
:1042A000029B040000000000329C0400000000009B
:1042B000369B040000000000449B04000000000046
:1042C000027B040000000000167B040000000000D8
:1042D000787804000000000030780400000000003E
:1042E000287B040000000000FC7C040000000000AB
:1042F0000C79040000000000C27D040000000000F2
:10430000FC7A040000000000967B0400000000001E
:1043100080780400000000007882040000000000A3
:104320003082040000000000FE8204000000000053
:1043300092830400000000003285040000000000A9
:10434000FC80040000000000F48304000000000072
:104350009C81040000000000AE8104000000000009
:10436000CE800400000000007A6F0400000000000E
:10437000586F0400000000009C6F04000000000063
:104380009672040000000000A87204000000000003
:104390006C740400000000002E7004000000000097
:1043A0004A72040000000000807204000000000057
:1043B000C871040000000000BA6F04000000000093
:1043C000BEBF040000000000D4BF040000000000D5
:1043D000B6BF040000000000B0BF040000000000F1
:1043E00006C0040000000000FEBF04000000000042
:1043F0001EC004000000000016C004000000000001
:10440000F6BF0400000000000EC004000000000021
:10441000EABF0400000000003AC2040000000000EF
:1044200058C0040000000000D8C0040000000000D4
:10443000ECC004000000000026C0040000000000E2
:10444000A2C704000000000070C7040000000000C4
:10445000D4C704000000000060C704000000000092
:1044600058C704000000000022C80400000000003B
:104470002AC804000000000032C804000000000048
:104480003AC804000000000012C804000000000048
:104490001AC804000000000006C804000000000064
:1044A00080C804000000000046C9040000000000AD
:1044B00060C904000000000042C8040000000000C1
:1044C0009EBB040000000000EEBC040000000000E1
:1044D00092BC04000000000026BA040000000000A6
:1044E00094BA040000000000FCC4040000000000B6
:1044F0000AC5040000000000DAC504000000000046
:1045000024C604000000000018C5040000000000DC
:104510001EC50400000000006672040000000000D8
:1045200058C5040000000000DCA4040000000000E6
:1045300000A5040000000000F0A504000000000039
:1045400014A50400000000007AA704000000000089
:104550002CA4040000000000D0A40400000000000F
:10456000D6A404000000000008A804000000000019
:1045700054D304000000000050D3040000000000E9
:104580000040DA000000FE0003F0A200889FBE0099
:104590008A9FBE008C1F780059010700600133001C
:1045A0006450E1004F0032006420E100520032000C
:1045B00003826C0007003B000905D0000306D00011
:1045C000820F54000C065D00020039000200320028
:1045D00089017800030678008582550004003D00BB
:1045E0000003FD008103FD008502EA008B85420087
:1045F000840F720002003B0060001000E080180091
:104600006011B8000005EB007A28E1000A003900CB
:1046100006007800C75DDD00F707B20087807500EF
:104620002D003700828171000A0178006105600069
:104630008180D1000080D3008502E900F9FF3B00B2
:10464000060440008784480002003B006004140018
:10465000E0841C000988A300070032008A817100F1
:1046600082817100610164008904D1000884D30053
:104670008B05E800170037000978A30013003A0003
:104680000B00E000130034008B05E900080444002F
:1046900089844C000A4474000978A3000D003A0094
:1046A0000B00E000070034008B05E900080444001B
:1046B00089844C0001003A000B0020000978A30017
:1046C000F7FF32000001EB00020037008281710029
:1046D0000A017800CF0007000CF0A70001F0A0004D
:1046E000180137006420E10002003A00838F6C005B
:1046F000180133000801BE000200BE00110137009E
:10470000889FBE008A9FBE008C1F7800FC000700B7
:104710000301330003866C006450E1002E00320078
:104720006420E100330032006150E1002F003200CC
:104730006120E1003100320085855500EB07B000B3
:104740000900200008042000050037000804440088
:1047500089844C000A0031000603430087834B0024
:104760000001530081815B00F8FF33000203BE00AB
:104770000800A0000804440089844C00F6FF3900BA
:10478000C639DD00830173000100320013002000F0
:104790008904D1000884D3000998A30005003200E1
:1047A0000800A7000300A0008904D1000884D300FA
:1047B0008B05E8008904D1000884D3000001EB00D8
:1047C0000281D2009300070001F0A1000CF0A700C5
:1047D00001F0A000DB0037006420E100DD003200C2
:1047E0000801BE000200BE00F7FF37006120E100B3
:1047F000D80032006000B800F3FF3700000020004E
:1048000001F82700F0FF3700839F68000100E000F7
:1048100002003D0060001000E08018000300E0008E
:1048200002003D0060011100E08119000001070055
:104830004F00E00002003B0060001000E080180024
:1048400000000600140020000E023700F4FF2F00C5
:104850000C0237000003BE00940007006011B8008E
:104860000470A70007F0A10007F8A30017003A00A2
:104870006509B1000D0032000D00350086022000F0
:104880000628E10003003500030028006000B8009E
:10489000020005000000400081804800020149003C
:1048A000838149008502E900FAFF3A000000060012
:1048B000F88F4200050034008100D1000080D30051
:1048C0008502E800FCFF3A00000006006011B80015
:1048D0008000EB00000005000001BE00730007002F
:1048E0000470A70003F0A10003F8A30013003A002E
:1048F0006509B10010003200090035006928E100A7
:104900000200350001002800000005000000400002
:10491000818048008502E900FCFF3A0000000600A3
:10492000F88F4200050035008100D1000080D300DF
:104930008502E800FCFF3A00000006008000EB0062
:10494000000005004F89DE0082017800E801370091
:10495000889FBE008A9FBE00008270000402710022
:1049600004827100260032000004BE000200BE0076
:104970006011B8006B092000950220000182CF0071
:104980000A0039000541B1000082CF00070039005C
:104990000541B1000982CF00040039000541B10092
:1049A0000882CF00010039000541B10005425200E4
:1049B000120032000A003B00828171006101640034
:1049C0008100D1000080D3008984D3000884D30003
:1049D0008B05E8000442E800F7FF3A0007003700C3
:1049E0000804440089844C0000004800818048008D
:1049F0008B05E9000442E900F9FF3A0005000700D1
:104A00004F05BE004F04BE00000006006011B80054
:104A1000CFFF370081002000618055000B003D0072
:104A20000B00200061FE2F000100E1001D0034009A
:104A300082817100610164008904D1000884D3007F
:104A40000000E800FAFF3A007100200061006400F5
:104A5000030070000200600009003200610444009D
:104A6000E0844C000988A500050032008B05E800B1
:104A70006808E10002003A008904D1000884D300EC
:104A8000F20F20000258E10005003D00C75DDD0087
:104A9000F907B20089807500080078000000060060
:104AA0000BF827008B00780000000500C70ADE0025
:104AB000F107B200F50FB20008003200E1CF42006A
:104AC000020032000170A00024000500810F700078
:104AD000010032000408050044000500810F700049
:104AE00002003A00140005008502E90000004000C1
:104AF00081C04800FCFF3B000170A00024000500BD
:104B00000004BE00E9FF07000003BE000405BE006C
:104B10000200BE00E5FF0700844F7500000006009C
:104B20000200BE006450E100050036006420E10090
:104B3000020036000968A30001003A000800BE0028
:104B40000160A0004F0678004F05BE004F04BE0074
:104B500000000600F0FF2F00F1FF2700F9FF3700EB
:104B6000889FBE008A9FBE008C1F7800E4FF07006C
:104B7000EBFF330003866C006450E1002400320038
:104B80006420E100270032006150E1002200320081
:104B90006120E100210032008B854200EB07B1006B
:104BA0000134B800003AB8000804420089844A0081
:104BB000013AB8000030B8008880400009014A007E
:104BC00004003300000040008180480002014900D9
:104BD0008B05E900C909DD00830170000100320086
:104BE00013002000C814DE004814DD004709DE0071
:104BF0001200B200C808DE000884700085FF0700BC
:104C000001F0A1000CF0A70001F0A000CDFF3700DB
:104C10006120E100CFFF32000801BE000200BE00AB
:104C2000F7FF37006150E100FCFF3A00C9FF370091
:104C30006022B800060220000000D0008180D2006F
:104C40000482D2008582D2000000A000020252003D
:104C500083825A00030031000202420083824A002C
:104C60000000A1000603E900F3FF3A00000006007F
:104C7000EFFF07000400BE0000000600889FBE0092
:104C80008A9FBE0030044200B0844A0030054B00C9
:104C900090854B006000B1000898BE000A90BE00ED
:104CA0000440E10005C8E10006D0E10007D8E100BA
:104CB00002003100680040001008E8004F05BE0007
:104CC0004F04BE0000000600889FBE008A9FBE0001
:104CD0003004BE002005BE000418540005985C0096
:104CE00006185D0007985D00110020000440E100F7
:104CF00005C8E10006D0E10007D8E1000100390055
:104D00008000EB00108810004F05BE004F04BE006D
:104D1000000006001200FA00889FBE008A9FBE00B5
:104D20008C9FBE00E0B79F00F1B79F0082BF9F003D
:104D300093BF9F000605BE000404BE000000EB0008
:104D4000D0B79F00C0B79F00B0B79F00A0B79F002B
:104D500090B79F000006EB005FB19700CFB09700BF
:104D6000820141003FB097000200E00004003D00D6
:104D7000370007007E805700C0FF070003003700A0
:104D8000330007007E805700CFFF0700DFB6970093
:104D90000D00E0000C0035006FB29700FFB29700E5
:104DA0000FBB97009FBB9700100020000100200060
:104DB0006011B80000027200818272000203730069
:104DC000838373001B0007000C06E8000104200029
:104DD000810F5600E0FF3A000D00E00004003D00A6
:104DE0000802BE000A03BE007E805700A3FF070032
:104DF0005FA897000000E00005003A001FB297008E
:104E0000AFB297003FB39700CFB3970009000700F8
:104E10006FB09700FFB097000FB997009FB9970048
:104E20004F06BE004F05BE004F04BE000080FA00D2
:104E3000000006000100070000000600A4B79F0064
:104E4000B5B79F00C6B79F00D7B79F000000060008
:104E50004F09DE0082817100B3B79F004F01DE0071
:104E60008180400082807000A1B79F008FB09700C2
:104E70004F09DE00000040000200700090B79F0064
:104E80007FA897004F01DE00818040008280700083
:104E900081B79F000D0007004F3ADE000000400080
:104EA00004007000F0AF9F000800070004024200F9
:104EB00085824A0006034B0087834B00DFFF070013
:104EC0000802BE000A03BE00000006002FB29700D1
:104ED000BFB297004FB39700DFB397000000060002
:104EE000881F780018002000881F780089FF0700BD
:104EF0008F87E9004F04780000000600801FEB0058
:104F000084FF07008F87E90000000600889FBE002D
:104F10008A9FBE00E00F5000E08F5800E00F59005C
:104F2000E08F59000C003D006044B8006055B800A7
:104F30000000540081805C0002015D0083815D00FF
:104F4000180020001500070008003D0018000700A9
:104F50000004EB00050037000004EB000F00070021
:104F600002003D001200070018002000DCFF0700CF
:104F70000800E000060032006022B8006033B8008C
:104F80000000520081805A0002015B0083815B00B7
:104F90004F05BE004F04BE0000000600E00F5200A7
:104FA000E08F5A00E00F5B00E08F5B00000006001E
:104FB0006044B8006055B8000402540085825C006B
:104FC00006035D0087835D0000000600889FBE0029
:104FD0008A9FBE008C1F7800E00F5000E08F5800C1
:104FE000E00F5900E08F59000D003D006044B8000B
:104FF0006055B8000000540081805C0002015D0033
:1050000083815D001C0020000820E10009A8E10068
:105010000AB0E1000BB8E1000D003D0008003700C8
:105020000006EB00E00F5200E08F5A00E00F5B003B
:10503000E08F5B0006003D006044B8006055B8009A
:105040000402540085825C0006035D0087835D00D6
:10505000AAFF07000C00E000060032006022B80042
:105060006033B8000000520081805A0002015B00EA
:1050700083815B004F0678004F05BE004F04BE00E1
:1050800000000600889FBE008A9FBE00841F780033
:105090009BFE07004F00780011003300F0FF2F0047
:1050A000838F6C0006003B00040565000A00A70022
:1050B0000800370009F0A6001000200008003700A3
:1050C000820F5400838F5C00030039001000200021
:1050D00001003E000000200009F0A7000000EA00E7
:1050E0004F05BE004F04BE000000E00000000600B7
:1050F000881F7800030478000300E00007003D00EB
:1051000060001000E080180060011900E0811900C3
:1051100002003B0001F02D00030037000CFE0700E9
:1051200008F0A70001F0A0004F047800000006007E
:105130008001780002003700B15978000201E900CF
:105140000200E000FCFF3A00000006000D0A00002B
:105150002800000078000000293E00000008000040
:1051600020080000000000002E20000000200000A9
:10517000004300006C7500007463000068200000AC
:1051800064690000736500006E67000061670000DD
:10519000656400002121000021000000546F000020
:1051A00020660000696E000069730000682000003E
:1051B0007365000074750000702C000020730000FF
:1051C00074610000727400002075000070200000FF
:1051D0007468000065200000706F000077650000B3
:1051E0007220000073750000707000006C69000090
:1051F00065730000207700006974000068200000DB
:10520000636F00006D6D0000616E0000642000009F
:1052100027570000270D00000A000000427500001B
:105220007320000050690000726100007465000086
:105230002076000034000000436F00006D6D000018
:10524000756E000069740000792000004669000056
:10525000726D00007761000072650000207600002A
:10526000372E0000302000002D200000676F000066
:105270006F2E0000676C00002F670000437A00006B
:10528000516E00005720000000200000283200006E
:10529000344600004A320000353600004742000024
:1052A00031300000362000000041000033000000D3
:1052B00041350000005500004E4B00000029000061
:1052C00000490000090000004F09000000480000EC
:1052D000090000004C0900000043000046470000A0
:1052E000303A00002000000056700000753D0000BC
:1052F000355600002C20000000560000707500009C
:105300003D330000563300002C2000000045000013
:105310006E7400006572000020720000617700006A
:1053200020760000616C00007565000020660000BA
:105330006F7200002042000052470000005700003A
:10534000617200006E6900006E6700003A20000084
:10535000616C00007265000061640000792000004B
:1053600061200000766F00006C740000616700002F
:10537000652000006F6E0000205600007075000070
:105380006C6C00007570000020700000696E0000F9
:10539000003E0000001B00005B440000001B0000FA
:1053A0005B000000440000001B5B000043000000A5
:1053B0001B5B0000324B00000D00000043000000AA
:1053C0001B5B0000324400000057000061720000C7
:1053D0006E6900006E6700003A2000006E6F0000EA
:1053E000207600006F6C00007461000067650000AB
:1053F000206F00006E20000056700000756C0000E9
:105400006C75000070200000706900006E000000E4
:10541000203D0000200000005245000053450000E0
:10542000540D00000A000000436C00007574000079
:1054300063680000206500006E670000616700007F
:105440006564000021210000210000005652000088
:1054500045470000207400006F6F0000206C0000C2
:105460006F7700002C20000069730000207400009A
:105470006865000072650000206100002073000074
:10548000686F0000727400003F0000002E200000D2
:105490003C000000002E0000003A00002000000048
:1054A0003157000030310000005E0000BCE2000017
:1054B000613F0000DD830000C29C00007E200000F0
:1054C000A3FD00001F4100009DC30000217F0000DC
:1054D000FCA20000401E00005F010000E3BD0000D0
:1054E0003E60000082DC0000237D00009FC10000C0
:1054F000421C0000FEA00000E1BF00005D030000B0
:1055000080DE00003C620000BEE00000025C0000A3
:10551000DF810000633D00007C220000C09E00008F
:105520001D430000A1FF000046180000FAA400007F
:10553000277900009BC5000084DA0000386600006F
:10554000E5BB000059070000DB850000673900005B
:10555000BAE400000658000019470000A5FB00004F
:1055600078260000C49A0000653B0000D98700003F
:10557000045A0000B8E60000A7F900001B4500002F
:10558000C69800007A240000F8A60000441A000023
:1055900099C70000257B00003A64000086D800000F
:1055A0005B050000E7B900008CD20000306E0000FF
:1055B000EDB30000510F00004E100000F2AC0000EF
:1055C0002F71000093CD0000114F0000ADF30000DB
:1055D000702E0000CC920000D38D00006F310000CF
:1055E000B2EC00000E500000AFF10000134D0000BF
:1055F000CE900000722C00006D330000D18F0000AF
:105600000C520000B0EE0000326C00008ED00000A2
:10561000530D0000EFB10000F0AE00004C1200008E
:1056200091CF00002D730000CA940000762800007E
:10563000ABF500001749000008560000B4EA00006E
:1056400069370000D58B000057090000EBB500005A
:10565000366800008AD4000095CB0000297700004E
:10566000F4AA000048160000E9B70000550B00003E
:1056700088D60000346A00002B75000097C900002E
:105680004A140000F6A80000742A0000C896000022
:10569000154B0000A9F70000B6E800000A5400000E
:1056A000D78900006B3500005245000054550000BA
:1056B000524E000000000000525500004E00000055
:1056C0004C490000535400000045000058490000B8
:1056D000540000004445000042550000470000000F
:1056E0004E450000570000004C45000054000000EB
:1056F0004946000000540000484500004E000000EC
:10570000454C000053450000004700004F54000086
:105710004F000000474F00005355000042000000BA
:10572000524500004D00000050520000494E00005C
:1057300054000000494E0000505500005400000085
:10574000464F000052000000544F0000004E000081
:10575000455800005400000052450000414400003C
:105760000044000041540000410000005354000078
:105770004152000054520000005300005441000008
:105780005254000000530000544F000050520000DB
:1057900000530000544F000050000000534500002B
:1057A0004E440000005200004543000045490000FF
:1057B00056450000004300004C4B00000044000030
:1057C00041540000004200004954000052450000CE
:1057D000414400000041000044430000004100003B
:1057E00055580000504900004E0000005053000082
:1057F00055000000505500004C4C00005550000072
:1058000000440000454C00004159000000410000E8
:1058100055580000004600005245000051000000AD
:105820004455000054590000004D00004143000061
:10583000524F0000004500004E44000000000000F0
:105840001201000000020000020000000008000039
:10585000D804000000FB000002000000010200006C
:1058600003010000090200004300000002010000E3
:105870000080000064090000040000000001000036
:1058800002020000010000000524000000100000DA
:1058900001040000240200000205000024060000AC
:1058A00000010000052400000101000001070000C4
:1058B00005810000030A0000004000000904000008
:1058C00001000000020A00000000000000070000C4
:1058D0000502000002400000000000000705000073
:1058E00082020000400000000004000003090000E4
:1058F000042A00000344000000610000006E000064
:10590000006700000065000000720000006F0000EA
:10591000007500000073000000200000005000002F
:1059200000720000006F000000740000006F0000B3
:1059300000740000007900000070000000650000A5
:1059400000730000001E000003420000007500000C
:1059500000730000002000000050000000690000FB
:10596000007200000061000000740000006500008B
:10597000002000000056000000340000002000005D
:105980000012000003300000003000000030000072
:105990000030000000300000003000000030000047
:1059A000003100000000000042610000756400004A
:1059B00020640000657400006563000074690000E5
:1059C0006F6E000020730000656C000065630000CE
:1059D00074650000642E00002E000000002000000E
:1059E0000041000052540000310000001434000057
:1059F000040D00008206000040030000A00100002A
:105A0000CF0000007F00000067000000440000009D
:105A10002200000000000000000000002C01000037
:105A2000000000005802000000000000B004000068
:105A3000000000006009000000000000C01200002B
:105A40000000000080250000000000004038000039
:105A500000000000004B000000000000807000000B
:105A6000000000000096000000000000C0DA000006
:105A70000000000000E100000000000000C2000083
:105A80000100000000F400000100000000E8000038
:105A90000300000014340000040D00008206000022
:105AA00040030000A0010000CF00000067000000DC
:105AB00044000000220000007F00000029000000D8
:105AC000002000005700000020520000004E00009F
:105AD0006F77000020750000736900006E6700009A
:105AE000206F00006E2D0000626F000061720000E8
:105AF0006420000045450000505200004F4D00005A
:105B00002049000032430000206900006E7400004C
:105B1000657200006661000063650000004F0000D0
:105B20006E2D0000626F00006172000064200000B2
:105B300045450000505200004F4D00002077000006
:105B4000726900007465000020700000726F000030
:105B50007465000063740000206400006973000035
:105B6000616200006C6500006400000049320000C2
:105B700043310000009D0000250D0000204800007A
:105B80007A00000046720000657100007565000033
:105B90006E63000069650000732000003C20000077
:105BA000314800007A20000061720000652000008A
:105BB0006E6F0000742000007375000070700000AC
:105BC0006F72000074650000642E00000000000089
:105BD000436F0000756C0000646E000027740000C5
:105BE000206B0000656500007020000075700000EB
:105BF0000000000053500000493100000000000088
:105C0000181C00001D0300000B1300001B00000007
:105C1000181C00001D00000030300000302C000077
:105C20000030000030000000306200000030000052
:105C30007830000031320000333400003536000087
:105C4000373800003941000042430000444500005D
:105C500046000000314100004C53000001420000AA
:105C60005076000034000000210000000010000009
:105C700000230000000F000042400000400500002B
:105C80004102000000000000290000000075000033
:105C90006E6B00006E6F0000776E0000206D0000DC
:105CA0006F640000650000005049000043310000AF
:105CB0000000000042420000494F00003100000097
:105CC0005853000056310000000000000808000092
:105CD0000808000008000000000000005241000019
:105CE00057310000000000004E4F0000454D0000FD
:105CF0005300000000000000000000002900000028
:105D00000000000000000000889FBE008A9FBE00C7
:105D10008C1F7800139881000380FB000120230072
:105D200061407800F1CCB30081404000E8CF5000E2
:105D30001A003E000000FB000003B1008300E800F1
:105D40008180FB000220230062C1780004CDB300F3
:105D50000442410011002000E94F520078003E004B
:105D6000F80F20000720230006CDB3006A02B90017
:105D70000200FB00040040000003B1008100E800C5
:105D8000038140000801610067417900064241003B
:105D9000E94F5200F5FF36006900370001C3B30038
:105DA000814F500061003A000300E8000080FB00D2
:105DB000012023006141780020C6B300804F5100CC
:105DC0000B003A000380E8000080FB000120230064
:105DD0006141780004CDB300044241000000EB00B3
:105DE00021002000E14F520005003600540037002A
:105DF00020C4B300804F510010003A00F1FF37007B
:105E0000F70F20000620230005CDB300000040005E
:105E10000201FB00020040000003B1008100E80025
:105E2000038140000701610066417900054241009D
:105E3000E14F5200F5FF36004100370080C7B30044
:105E4000804F51000A00320080C5B300804F5100DE
:105E50001F003A00090037004400DD000003B100D4
:105E60000201FB00020040008100E8000B00370047
:105E70000000EB0021002000020037000000EB00D2
:105E800021002000F90F20000720230008CDB300D7
:105E9000FACBB3000BC2B300FCC9B30003824000CD
:105EA0000902620067417A0088424100E9CF52004E
:105EB000E9FF36008A424100E5CF52002800360053
:105EC0000C434100E54F5300250036001C0037000D
:105ED00004CDB300044241000000EB00110020009B
:105EE000E94F520016003E000200FB000003B10023
:105EF000F80F20000720230006CDB3006A02B90086
:105F00000200FB00040040000003B1008100E80033
:105F100003814000080161006741790006424100A9
:105F2000E94F5200F5FF36000500370011C0B300FD
:105F300040302300014878000000EB0004003700E7
:105F400012988100828040008180FB0011988900B6
:105F50004F0678004F05BE004F04BE00000006004B
:105F60000B41710082737A004400DD007005B100BE
:105F70000201FB0002004000BBFF3700881F7800D1
:105F8000119881000100E8000080FB00022023003E
:105F9000E241780010002000A2C3B30082CF51007C
:105FA00009003A008180E800F80F20008880600036
:105FB0001198890054FF0700119881008100E900C1
:105FC00008846000189889004F04780000000600DB
:105FD000881F7800119881000100E8000080FB0014
:105FE00002202300E24178000000EB00B2C3B300BE
:105FF00082CF510009003A008180E800F80F2000AC
:1060000088806000119889003FFF07001198810087
:106010008100E90008846000189889004F04780026
:1060200000000600129881000201E8000281FB00D6
:1060300000202300E040790080C7B30080CF5000EB
:1060400003003A001298890010C0B3001200370014
:1060500040C6B30080CF500003003A001298890078
:1060600020C0B3000C00370020C6B30080CF500022
:1060700003003A001298890030C0B30006003700D0
:106080000040EB0073C7B30083CF500002003A001A
:106090001298890040C0B3000000060010988100EB
:1060A000012023006141780001C2B300814F5100FB
:1060B00009003A00F40F200003202300014178007A
:1060C0000000E80004006000E340780082CF500048
:1060D000FBFF32001098890000000600F08747009F
:1060E000889FBE008A9FBE008C9FBE008E1F7800D6
:1060F000F0B79F00E1B79F00D2B79F000307780079
:106100000ACDB300DBC2B3008BF79F008DC7B3008D
:10611000608A2A00C6AE020000000000FFB09700AF
:106120000100E00004003D00A08A2A00C6AE020083
:1061300000000000030037006FE8970084AD020004
:1061400000000000C08A2A00C6AE02000000000065
:106150000006EB008004EB0096B002000000000097
:1061600000447800ED4F50004000320005003C0034
:10617000E84F500008003200EA4F500025003A0076
:106180003A0037008B4F5000150032008D4F500001
:1061900020003A001D0037000900E0000500320031
:1061A0008904E900F08A2A00C6AE0200000000005F
:1061B000E9FF37000C00E00005003200F08A2A00F9
:1061C000C6AE0200000000000006EB00E2FF370050
:1061D00070C0B30076AD020000000000DEFF3700A3
:1061E0000900E00005003A000FF0970076AD0200CC
:1061F000000000001C002000D7FF370070C0B30073
:1062000076AD020000000000D3FF37000E00E00072
:1062100036003A000A404000E94F50000F003E00AF
:10622000E38F54000500340070C0B30076AD020067
:106230000000000049002000C7FF37000840780038
:1062400076AD020000000000884078007C80570096
:1062500001F07C008904E800BFFF370070C0B30084
:1062600076AD020000000000BBFF3700308B2A0033
:10627000A6AE0200000000000900E0001F0032008E
:106280000900E9008000EB00080033007C80570023
:10629000890440006A09B900B000FB000103B100A5
:1062A00082804000890F5000FAFF3A006FB09700DB
:1062B000810F500008003C005FB09700810F500034
:1062C000050035000C00E0000B0032000100EA0080
:1062D000F0B79F0009003700B101200060FE2000E8
:1062E000DACC02000000000089FF37008080EB005C
:1062F000F1B79F0001003700F1B79F007FB0970012
:106300004F0778004F06BE004F05BE004F04BE0089
:106310000F01B100000006001E00FA00889FBE00B9
:106320008A9FBE008C9FBE00109881000004E90087
:106330000884FB001D002000880F50002B00320055
:1063400009202300FB0F200069407C000004E000CE
:1063500021003A000806E8000B06660069407E004E
:106360000004E0001C0032000D40780084AD020003
:1063700000000000408B2A00C6AE020000000000B2
:1063800069407E000004E000080032000885E80053
:1063900076AD0200000000000B0065006940780047
:1063A0000A05E8000004E000F9FF3A000D8046000D
:1063B0000C01780061FD2F008F8040008230780052
:1063C0008D06E800EF8F560008003200308B2A005F
:1063D000A6AE0200000000000804E9000B046400FF
:1063E00010988100800F5400D7FF3A00708B2A006C
:1063F000A6AE0200000000007100200070822000A4
:10640000DACC020000000000130020000D0178002B
:10641000830078000000EB0030FF07008000E800F8
:10642000E18F50000B0036000000400061FD2F009E
:106430008F804000E10278000580FB0001202300EE
:10644000E14078000000EB000104E00006003A00A3
:1064500012003700308B2A00A6AE020000000000B8
:10646000100020001C003700069881000000EB009F
:10647000F30F200002202300060240000302620006
:1064800001717A000000E800850040008380600010
:10649000E2C078000104E000F7FF3A0002988100B2
:1064A0000201E900F10F200001016100129889004A
:1064B0000281E800000041000100600000988900AE
:1064C0000000E900810060000041EB000020230093
:1064D00002F078000000EB004F06BE004F05BE0042
:1064E0004F04BE000080FA0000000600889FBE0036
:1064F0008A9FBE008C1F7800109881000000E80081
:106500000080FB0010988900E4FE0700FEFD0700F4
:106510000000E00042003A000004EB000903200004
:10652000CAC622000840E80084AD02000000000056
:10653000408B2A00C6AE02000000000009C0B9006E
:106540008002B0000A004000A6AE02000000000079
:106550000804E800EB0F5400F2FF3A00710120003C
:10656000C07B2000DACC0200000000004030230095
:106570000048EB0013002000B200200083007800E8
:1065800003007800D5FE07008004E9000000E80061
:10659000E10F500005003E00E1002000307D2000AA
:1065A000DACC0200000000003B003700084D230059
:1065B000180078000B0320000B80B9002002B00007
:1065C000CCC622006C0078000000010078C90200EF
:1065D00000000000090C78000BCDB9007E054500D5
:1065E0006C007D0000000100908B2A00A6AE020026
:1065F000000000000900E00004003200CB02A80007
:10660000E08C2A00A6AE020000000000510020002D
:10661000B0652000DACC0200000000001E00370048
:106620000004E900EA0F540017003C00094D230064
:10663000190078000A0320000A80B9002002B00087
:10664000CBC622006B0078000000010078C9020070
:1066500000000000880C78000AC0B9007E054000E8
:106660006B007D00000001000800E0000100320026
:10667000CB02A80051002000B0652000DACC020057
:10668000000000000400370051012000208120009C
:10669000DACC020000000000009881000000E90050
:1066A0000080FB00109889004F0678004F05BE005F
:1066B0004F04BE0000000600FC874700889FBE0014
:1066C0008A9FBE008C9FBE008E1F78000004BE0013
:1066D000A4B79F00B5B79F00030578000CCDB300A9
:1066E000DDC2B3008DF79F006110B900C0B79F00F5
:1066F000D1B79F00E8B79F00F9B79F00608A2A00D2
:10670000C6AE0200000000006FB09700FFB0970017
:10671000E00F5000E08F580004003D00A08A2A00DE
:10672000C6AE020000000000040037006FB0970002
:10673000FFB097003EAE020000000000C08A2A00B1
:10674000C6AE0200000000000007EB008005EB0071
:1067500096B002000000000000447800ED4F5000A9
:106760004200320005003C00E84F500009003200B2
:10677000EA4F500026003A003C0037008D4F500091
:106780001600320081C7B300814F500020003A004C
:106790001D0037000B00E000050032008B05E9000A
:1067A000F08A2A00C6AE020000000000E8FF3700B1
:1067B0000E00E00005003200F08A2A00C6AE02009A
:1067C000000000000007EB00E1FF370070C0B300DD
:1067D00076AD020000000000DDFF37000B00E00096
:1067E00005003A000FF0970076AD020000000000AF
:1067F0001E002000D6FF370070C0B30076AD020047
:1068000000000000D2FF37000A00E00040003A001C
:106810000C404000E94F500010003E00E98F550049
:106820000500340070C0B30076AD02000000000027
:10683000AB002000C6FF37000840780076AD0200AC
:10684000000000000841780081FD2F008F8040008B
:1068500082F07D008B05E800BDFF370070C0B300FB
:1068600076AD020000000000B9FF3700308B2A002F
:10687000A6AE0200000000000B00E000290032007C
:106880000B01E9006000B8000D00330082FD2F000D
:106890000F0141008B0541006A0AB9006A00B80087
:1068A00081004200B201FB000303B1004F9ADE00F9
:1068B0000080410081004A008B0F5100F6FF3A0032
:1068C0004FB19700DFB19700800F5100818F5900C1
:1068D0000A003C002FB19700BFB19700800F510014
:1068E000818F5900050035000E00E0000B003200DA
:1068F00060041000E08418000C003700B101200093
:1069000060FE2000DACC0200000000007BFF3700B0
:106910000084EB008084EB00040037000004BE001C
:10692000020037006FB49700FFB497000800BE0064
:106930004F0778004F06BE004F05BE004F04BE0053
:10694000CF01B10000000600889FBE008A9FBE00F4
:10695000E0902A00A6AE020000000000C0912A00CC
:10696000C6AE020000000000B0C5B30076AD020064
:1069700000000000190020000004EB000A032000C2
:10698000CBC62200020037000804E8008904E800B2
:106990000800E0003D00320000C2B30076AD020006
:1069A000000000000AC0B9008002B0000B004000E7
:1069B000C6AE020000000000EA8F5400F2FF36006D
:1069C000D0C5B30076AD020000000000308B2A0075
:1069D000A6AE0200000000006100200090842000AC
:1069E0007ECC02000000000090A68100FAAF0200F9
:1069F0000000000071002000F0FD20007ECC0200AD
:106A000000000000484D230018007800FAAF020093
:106A10000000000050942A00C6AE020000000000F2
:106A200018007800E10F500003003200E30F50001F
:106A300009003A000400370050952A00C6AE020053
:106A4000000000000700370080952A00C6AE020053
:106A50000000000003003700B0952A00C6AE020017
:106A600000000000F0952A00A6AE02000000000021
:106A7000E1012000F0842000DACC020000000000D8
:106A80004F05BE004F04BE00000006000AC0B9005A
:106A90008002B0000B004000C6AE02000000000003
:106AA000B9FF3700D802B6000400320010962A0061
:106AB000C6AE0200000000000300370040962A0026
:106AC000C6AE02000000000000000600DA02B600B8
:106AD0000400320070962A00C6AE020000000000DA
:106AE00003003700A0962A00C6AE02000000000096
:106AF00000000600A100200020192100DACC0200CD
:106B00000000000061052000703A2100DACC02008C
:106B10000000000041022000D03F21007ECC020096
:106B2000000000000003200081A681000088B90059
:106B30004002B000C1C622006100780000000100E0
:106B4000A1002000601B21007ECC0200000000009C
:106B500010002000D3FF070000102000D1FF070025
:106B600000022000CFFF070000012000CDFF07003A
:106B700080002000CBFF070040002000C9FF070075
:106B800020002000C7FF0700308B2A00A6AE0200BD
:106B90000000000041002000002321007ECC020004
:106BA0000000000021E3A80020002000D4C902005A
:106BB00000000000D0AD0200000000001100200025
:106BC000B03720007ECC02000000000090C0B3006F
:106BD00076AD0200000000000000EB00D4C9020006
:106BE00000000000D0AD02000000000011002000F5
:106BF000B03720007ECC02000000000090C0B3003F
:106C000076AD02000000000050002000D4C9020050
:106C100000000000D0AD02000000000011002000C4
:106C2000B03720007ECC02000000000090C0B3000E
:106C300076AD02000000000010002000D4C9020060
:106C400000000000D0AD0200000000001100200094
:106C5000B03720007ECC02000000000090C0B300DE
:106C600076AD02000000000021E3A9001000200022
:106C700096FF07000010200094FF0700000220008C
:106C800092FF07000001200090FF07008000200015
:106C90008EFF0700400020008CFF0700200020002E
:106CA0008AFF0700308B2A00A6AE02000000000019
:106CB00000000600D0962A00C6AE020000000000C8
:106CC000A17F25001000200060AD02000000000040
:106CD000FAAF02000000000000C2B30076AD02006F
:106CE0000000000051002000C0A320007ECC020064
:106CF00000000000C17F25001000200060AD0200F0
:106D000000000000FAAF0200000000006100200057
:106D100010A420007ECC020000000000E17F2500CE
:106D20001000200060AD020000000000FAAF020079
:106D300000000000308B2A00A6AE02000000000018
:106D4000C1002000D0862000DACC02000000000044
:106D500068FF0700CB22AB000500320011012000C4
:106D6000007120007ECC020000000000040037000B
:106D700021012000107220007ECC020000000000E3
:106D8000C0C2B30076AD02000000000000C2B30034
:106D900076AD020000000000E282AB000500320088
:106DA00041012000D06B20007ECC020000000000DA
:106DB0000400370051012000806A20007ECC0200D0
:106DC00000000000C0C2B30076AD02000000000069
:106DD00000C2B30076AD020000000000E8A2AB00E4
:106DE00003003A0040972A00C6AE020000000000EF
:106DF000E882AB0003003A00D0972A00C6AE02003A
:106E000000000000404B23001040780070406000FC
:106E1000050032002102200090872000DACC020019
:106E20000000000004003700E1012000B0892000CC
:106E3000DACC020000000000404B23001040780034
:106E40006840600005003A00B1012000908B2000EE
:106E50007ECC02000000000004003700C1012000C9
:106E6000408D20007ECC020000000000C0C2B300B4
:106E700076AD02000000000000C2B30076AD020053
:106E800000000000B1012000003521007ECC02008E
:106E900000000000304A23001040780084AD02005A
:106EA00000000000308B2A00A6AE020000000000A7
:106EB000404B230010407800634060000080FB00DE
:106EC000E20F50000E003200E30F500011003200BC
:106ED000E10F5000050032005101200060672000E2
:106EE000DACC0200000000000E0037006101200033
:106EF00000662000DACC0200000000000900370024
:106F000071012000B0452100DACC02000000000031
:106F1000040037007101200020472100DACC020074
:106F2000000000000003200081A681000088B90055
:106F30006002B000C1C622006100780000000100BC
:106F4000C1002000D0862000DACC02000000000042
:106F500000000600109881000000E8000080FB009F
:106F6000109889004DFC070067FB07008000E900CE
:106F7000E38F500003003E00E14C23008008E9004D
:106F80000D003700403023000048EB0021022000B4
:106F9000D08F2000DACC0200000000008001EB005E
:106FA0004200200011002000100020004BFC0700D0
:106FB000E14C23008008E90021012000F09120002D
:106FC000DACC02000000000000000600881F7800F4
:106FD000109881000000E8000080FB0010988900F4
:106FE0002EFC070048FB07000040E900E94F500075
:106FF00003003E00C14C2300804878000D0037009C
:10700000403023000048EB00E10B2000C095200039
:10701000DACC0200000000008001EB00A20020009A
:1070200011002000900020002CFC0700C14C230020
:107030008048E9000044EB00C04C230091C0B3003D
:1070400090CF100010003A0014FC07002EFB070040
:10705000004478000804E0000B003A0040302300B0
:107060000048EB0070982A00A6AE02000000000065
:107070008001EB00F2FF27008000EB0020022000DF
:1070800016FC07000044780041012000A0A1200068
:10709000DACC02000000000011012000F0332100D2
:1070A000DACC0200000000007EB002000000000008
:1070B0000004E000FCFF3200C04C230091C0B3008C
:1070C00090CF100003003A0008407800AEB00200F4
:1070D00000000000ACB002000000000008C2B300D5
:1070E00096B0020000000000884F5000FCFF3A00FC
:1070F0004F0478000000060080A681000000E00038
:1071000008003A00D1012000B0682000DACC02006B
:107110000000000011C0B300403023000148780097
:107120006B003700404B2300104078007040600037
:1071300008003A0021022000D0FB2000DACC020037
:107140000000000011C0B300403023000148780067
:107150005F003700E8A2A800E882A8002000200015
:1071600010CB02000000000021E3A8005000200026
:10717000D4C902000000000001102000810F50005F
:1071800003003600F0992A00A6AE020000000000BD
:1071900021E3A900109881000000E8000080FB00B6
:1071A00010988900BDFB0700D7FA07004130230083
:1071B0001104E0000B003200010078000048EB00F1
:1071C00071052000504A2100DACC020000000000C6
:1071D0008001EB0032002000110020001000200090
:1071E000BEFB0700E20F50000F003200E30F50001B
:1071F0001D003200E10F50002B003A00E8A2A80069
:10720000E882A80091012000C04F21007ECC02003E
:107210000000000081002000C0512100DACC0200F3
:10722000000000002A003700E8A2A800EA82A900B6
:10723000E882A9004100200000C620007ECC0200A8
:107240000000000091012000C04F21007ECC020010
:10725000000000007100200050512100DACC020033
:10726000000000001A003700E882A800EAA2A90086
:10727000E8A2A90021002000B0C520007ECC0200B9
:107280000000000091012000C04F21007ECC0200D0
:10729000000000007100200050512100DACC0200F3
:1072A000000000000A003700E8A2A800E882A80059
:1072B00091012000C04F21007ECC020000000000A0
:1072C00081002000C0512100DACC02000000000043
:1072D00000000600F2874700889FBE008A9FBE001C
:1072E0008C9FBE008E1F78000000EB001098890074
:1072F0000098890080A689004130230080487800EA
:107300000002EB00563023008002EB008041EB00CE
:107310000202200007003700836878000000E800C0
:10732000820F5000FCFF3A000402E800E50F520013
:1073300005003200C520DD008100E90086804000A4
:1073400005007800F4FF37000000EB00309D890055
:10735000B0E79F008000EB00F1B79F0081BF9F0066
:10736000E1B79F00B1B79F00C1B79F00A1B79F00D1
:10737000D1B79F0000417800A2E79F0000032000E2
:1073800082A681000091B90041C92200010041009C
:10739000C6AE02000000000000402000614D230046
:1073A00011006000040032007100200040652000E0
:1073B0007ECC020000000000909C2A00C6AE0200B5
:1073C000000000005A302300092023004C4B23000A
:1073D000309D81000000E000400032000000E90024
:1073E000309D8900C500DD00EAC078000104E0009E
:1073F000130032000004EB000298810081747900D0
:107400004500DD00080040006A40780076AD0200CB
:10741000000000000804E800009881000000E80077
:107420000080FB0000988900309D8100C500DD00D0
:1074300088804000EAC078000104E000EEFF3A00D6
:107440000000EB00309D8900240037009C4178004B
:1074500064C061001F0032001B0078000E80B9007C
:107460007A004000C4C622006400780000000100D9
:107470000004E000170032001B0078000E80B90005
:107480008002B000C6C6220006004000C6AE020060
:1074900000000000909C2A00C6AE02000000000020
:1074A0001898810000988100800F54000900320074
:1074B000FD0F200069407C0076AD02000000000056
:1074C0000D0464000804E80000988100800F540057
:1074D000F8FF3A0090168000020037000B4D2300A1
:1074E0000E03200082B00200000000000004E00053
:1074F000D6FF3200A2B00200000000000004E0004D
:1075000003003200AAB0020000000000B0FF370004
:1075100096B0020000000000004478000880FB00E4
:107520008000EB00F2072000820F5000E08F58002F
:107530008F023E0000600100830237003B023700EB
:107540000A0137008A023700BA0037004D023700BF
:107550001D013700860237007700370084023700AC
:107560005E02370082023700810237005B0237007B
:10757000920137007E023700220137007C0237007B
:107580007B0237007A023700790237007802370031
:107590007702370076023700750237007402370031
:1075A00073023700CB0037007102370070023700DA
:1075B0006F0237006E0237006D0237006C02370031
:1075C0006B0237006A023700690237006802370031
:1075D0006702370066023700650237006402370031
:1075E0006302370062023700610237006002370031
:1075F0005F0237005E0237005D0237005C02370031
:107600005B0237005A023700590237005802370030
:107610005702370056023700550237005402370030
:107620005302370052023700510237005002370030
:107630004F0237004E0237004D0237004C02370030
:107640004B0237004A023700490237004802370030
:107650004702370046023700450237004402370030
:107660004302370042023700410237004002370030
:107670003F0237003E0237003D0237003C02370030
:107680003B0237003A023700390237003802370030
:107690003702370036023700350237003402370030
:1076A0003302370032023700310237003002370030
:1076B0002F0237002E0237002D0237002C02370030
:1076C0002B0237002A023700290237002802370030
:1076D0002702370026023700250237002402370030
:1076E0002302370022023700210237002002370030
:1076F0001F0237001E0237001D0237001C02370030
:107700001B0237001A02370019023700180237002F
:10771000170237001602370015023700140237002F
:10772000130237001202370011023700100237002F
:107730000F0237003F003700109881008FB9970083
:10774000808F51003700320000988100808F5100F7
:107750000A003A000300E9000080FB0080BF9F00A0
:10776000009889000042EB0084747800F08A2A00B7
:10777000C6AE02000000000015FF37000FBB9700E7
:107780000600E9000080FB0080BF9F00B09C2A003B
:10779000C6AE020000000000009881008005EB00EA
:1077A0008FB89700808F500011003200FD0F20002D
:1077B0000104E80069407C0080F478000004E000E7
:1077C0000300320076AD0200000000000300370025
:1077D00000C2B30076AD0200000000008B05E80097
:1077E0008D00640000988100808F5000F0FF3A0007
:1077F0000000E9000080FB0000988900F09C2A004E
:10780000C6AE0200000000000B40780084AD02000C
:1078100000000000209D2A00C6AE0200000000000B
:10782000EBFE370070C0B30076AD02000000000030
:10783000E7FE3700009881000FB99700800F5100D4
:1078400020003200820078008005EB00FD0F200050
:107850000104E80069407C0080F478000004E00046
:107860000300320076AD0200000000000300370084
:1078700000C2B30076AD0200000000008B05E800F6
:107880008D00640000988100808F5000F0FF3A0066
:107890000000E9000080FB0000988900F09C2A00AD
:1078A000C6AE0200000000000B40780084AD02006C
:1078B00000000000209D2A00C6AE0200000000006B
:1078C000C3FE370070C0B30076AD020000000000B8
:1078D000BFFE370096B0020000000000B1C5B30043
:1078E000814F5000BAFE3A0096B00200000000003E
:1078F00011C4B300814F50004200320007003E0027
:10790000F0C05000814F50000C003200E3C0400036
:10791000814F5000AEFE3A000E00370031C4B30074
:10792000814F500028003200A40039008140E80057
:10793000814F5000A6FE3A000C00370096B00200BE
:1079400000000000E1C7B300814F5000A0FE3A00E4
:107950003601370096B0020000000000E1C7B30016
:10796000814F50009AFE3A0046013700EFB1970070
:10797000E48F51000500340058CC020000000000E4
:107980000002EB00E4B79F0091FE370010988100E1
:107990000FBB9700800F5300070032000600E9007C
:1079A0000080FB0080BF9F00B09C2A00C6AE020092
:1079B0000000000086FE370070C0B30076AD020004
:1079C0000000000082FE3700009881008FB8970009
:1079D000808F5000070032000100E8000080FB00AB
:1079E00080BF9F00409D2A00C6AE0200000000003C
:1079F00077FE370070C0B30076AD020000000000D3
:107A000073FE3700159881000504E9000884FB0027
:107A10008805780002988100820F540063003200CC
:107A20000002EB00F00F20007FB39700E9407C00DC
:107A30000104E00058003A008800E90080806000FE
:107A4000E9C178000304E000530032000402E800BA
:107A5000860F520050003600810178007FB29700F7
:107A60000402E800F4B79F00828F52000900320040
:107A7000F00F20000043EB00867479000201E9005A
:107A800000016100828F5200FAFF3A0002988900DB
:107A90008674790002988100828F510010003200B4
:107AA00069C07900F30F20000004E00008003A00EC
:107AB0000300370069C078000004E00004003A00C9
:107AC0008100E8008180FB00B1B79F00040037000F
:107AD0008100E90083806000828F5000F5FF3A004A
:107AE000809D2A00C6AE02000000000000032000B6
:107AF00082A681000091B90040C922000001410026
:107B000002007800C6AE0200000000000040200025
:107B1000614D23001100600004003200710020005C
:107B2000406520007ECC020000000000909C2A00EE
:107B3000C6AE0200000000003FB09700880F500062
:107B40000E00320080067800FE0F200069C07E0023
:107B500076AD020000000000009881006DF07C000E
:107B60000000E8000E006000009889008D06E80023
:107B70008E866600888F5600F4FF3A0002988100D6
:107B800082BF9F008041EB0083747900828F550093
:107B90000FFE3A00050037000804E9000004640005
:107BA00088057800820F5400A0FF3A0070C0B3002F
:107BB00076AD02000000000005FE37001698810037
:107BC0000604E9000884FB0088057800029881001B
:107BD000820F5400640032000002EB00F00F20001E
:107BE000FFB097008102E900E9407C000104E00059
:107BF00058003A008800E90080806000E9C1780000
:107C00000304E000530032000402E800848F5200B5
:107C100050003A00810178007FB297000402E90029
:107C2000F4B79F00820F530009003200F00F2000CC
:107C30000042EB00847479000201E9000001610058
:107C4000820F5300FAFF3A00029889008474790089
:107C500002988100828F51001000320069C07900C3
:107C6000F30F20000004E00008003A000300370092
:107C700069C078000004E00004003A008100E800D8
:107C80008180FB00B1B79F00040037008100E9004C
:107C900083806000810F5100F5FF3A00809D2A002B
:107CA000C6AE0200000000000003200082A6810092
:107CB0000091B90040C92200000141000200780093
:107CC000C6AE02000000000000402000614D23000D
:107CD00011006000040032007100200040652000A7
:107CE0007ECC020000000000909C2A00C6AE02007C
:107CF000000000003FB39700880F53000E003200D1
:107D000086067800FE0F200069C07E0076AD020076
:107D100000000000009881006DF07C000000E80089
:107D20000E006000009889008D06E8008E866600CF
:107D3000888F5600F4FF3A000298810082BF9F00AE
:107D40008041EB00837479008B0F5100A0FD3A0055
:107D5000050037000804E900000464008805780085
:107D6000820F5400A0FF3A007FB29700E10F52004B
:107D70002A003A00809D2A00C6AE020000000000E2
:107D80000003200082A681000091B90041C92200B1
:107D900001004100C6AE02000000000000402000CB
:107DA000614D2300110060000400320071002000CA
:107DB000406520007ECC020000000000909C2A005C
:107DC000C6AE0200000000000698810086BF9F003A
:107DD00010988100800F53000A003200F20F20003B
:107DE000860078008041EB0083F478008100E90090
:107DF00082806000810F5000FAFF3A0081BF9F002F
:107E0000019889000043EB000FBA970086747A004E
:107E10000000EB00F0B79F006DFD370070C0B300AD
:107E200076AD02000000000069FD3700189881005F
:107E30008FB89700888F50000E003200F09C2A0007
:107E4000C6AE0200000000000FB997000800510004
:107E50000080FB0084AD020000000000209D2A008D
:107E6000C6AE0200000000001398810083BF9F008F
:107E700057FD370070C0B30076AD0200000000006F
:107E800053FD3700089881000FBA9700880F520001
:107E90000E003200F09C2A00C6AE02000000000076
:107EA0000FBB9700060054000080FB0084AD020069
:107EB00000000000E09D2A00C6AE020000000000A5
:107EC0000098810080BF9F0041FD370070C0B30063
:107ED00076AD0200000000003DFD370000988100F3
:107EE000012023000041EB00827078000000E800D0
:107EF0000080FB0080BF9F0000988900308B2A0023
:107F0000A6AE02000000000003988100A3B79F0006
:107F100014988100C4B79F00403023000043EB0059
:107F20000648780000402000614D230011006000E9
:107F30005D003A00F0B79F0086407800B1E79F00EF
:107F4000D0B79F00630037006FB197000201E800CF
:107F5000E2B79F00F40F51001DFD3A003CB2020051
:107F6000000000008001EB00E3B79F00C101370073
:107F70000B9881008B00E8008180FB001098810045
:107F8000808F500044003200FF4F54004200360002
:107F9000E0C7B300804F54003F003E000FBA970087
:107FA0008B0F52000C003A000840780076AD0200BA
:107FB0000000000000988100887478000000E8004C
:107FC0000080FB0080BF9F00009889000043EB0009
:107FD00086747800FEFC3700F09C2A00C6AE0200D2
:107FE000000000008FB8970001805500FD0F2000B1
:107FF0000D00600084AD020000000000E09D2A003A
:10800000C6AE0200000000000B9881000FB9970077
:108010000200E9008D0660008D8F550010003200CF
:10802000FE0F20000B804400E9C17D001340980042
:1080300069C07D000004E0000500320076AD02005A
:1080400000000000009E2A00C6AE020000000000F2
:108050008B05E9008E8565008D8F5500F1FF3A0094
:108060000840780076AD0200000000000FBA9700CB
:1080700088747A008400E800F00F2000808060009F
:1080800081BF9F00019881008100E80000806000AE
:1080900000988900CEFC370070C0B30076AD0200B6
:1080A00000000000CAFC3700686402000000000005
:1080B00051002000B0652000DACC02000000000072
:1080C0000003EB00F6B79F000040EB00B0E79F0015
:1080D000700437001098810001202300614178006E
:1080E0000281FB008001EB00E1072000810F5100BD
:1080F000E08F590037043E00026001003904370068
:1081000034043700330437003204370031043700B9
:10811000300437002F0437002E0437002D043700B9
:108120002C0437002F0437002A04370029043700B5
:108130002C043700270437002604370025043700B5
:1081400024043700230437002204370021043700B9
:10815000200437001F0437001E0437001D043700B9
:108160001C0437001B0437001A04370019043700B9
:1081700018043700170437001604370019043700B5
:10818000F70337009D023700370137003B01370006
:10819000EB013700D90137000E04370073023700B6
:1081A0000C0437000B0437000A0437000D043700B5
:1081B000AC033700C303370092033700E8023700EF
:1081C000E7023700E6023700E5023700E402370035
:1081D000E3023700E2023700E1023700E002370035
:1081E000DF023700FB033700FA033700F8013700DE
:1081F000DB003700F703370049003700450137003F
:108200003B013700F30337006C003700B80137003B
:10821000F0033700EF033700EE033700ED033700BC
:10822000EC033700EB033700780037007F0037009E
:10823000E8033700E7033700E6033700A100370003
:10824000E4033700E3033700D1013700E1033700CF
:10825000E0033700DF03370042013700DD0337005A
:10826000DC033700DB0337009E0237007103370061
:10827000AB023700A103370086033700D503370070
:108280001201370031003700440037008A013700FF
:10829000B1003700330037003500370016003700D3
:1082A00022003700CB0337004E003700690037004B
:1082B00024003700C7033700260037006F0037005F
:1082C000C403370003033700AE013700C103370092
:1082D000C0033700210037005C013700BD033700C1
:1082E000BC033700BB03370085023700B5003700F9
:1082F00093023700CF00370007F807000001EB00BA
:10830000D2B79F000000E000B8033A001398810044
:10831000C3B79F0004988100A4B79F00B303370040
:10832000E4CC020000000000B003370086F907002B
:1083300080A681000000E000AC0332005DFA070077
:10834000AA03370069F80700A80337001FFB0700DE
:10835000A6033700FFFA0700A4033700E5F907007A
:10836000A203370006940200000000009F033700BC
:1083700080A681000000E00005003A00D101200045
:10838000B0682000DACC020000000000970337003C
:108390008A9102000000000094033700404B230044
:1083A000C1CFB30010C8600061012000006620004A
:1083B000DACC0200000000008C033700414B2300A0
:1083C000114078000000A0000014A100804878004F
:1083D0005101200060672000DACC0200000000009C
:1083E00082033700414B2300114078000000A100B8
:1083F0000014A0008048780071012000B0452100E1
:10840000DACC02000000000078033700404B230064
:108410001043780063487300710120002047210059
:10842000DACC02000000000070033700404B23004C
:108430001034A000C1012000408D20007ECC02003D
:1084400000000000308B2A00A6AE020000000000F1
:1084500066033700404B23001034A100B101200017
:10846000908B20007ECC020000000000308B2A00A0
:10847000A6AE0200000000005C03370080A6810069
:108480000000E00005003A00D1012000B0682000A3
:10849000DACC02000000000054033700E282A90099
:1084A000E082A90051012000806A20007ECC0200F9
:1084B00000000000308B2A00A6AE02000000000081
:1084C0004A03370080A681000000E00005003A0062
:1084D000D1012000B0682000DACC020000000000CA
:1084E00042033700404B230010407800704060008A
:1084F00004003A0021022000D0FB2000DACC020068
:1085000000000000E082A800E282A90041012000F2
:10851000D06B20007ECC020000000000308B2A00CF
:10852000A6AE02000000000021E3A80050002000D9
:10853000D4C9020000000000F1042000810F5000A7
:1085400003003E00509E2A00A6AE0200000000007C
:1085500021E3A90025033700E7FA070023033700CA
:108560000000E8000080FB0010988900CBF60700AF
:10857000E5F50700000478000800780026B0020046
:108580000000000080A02A00C6AE0200000000002B
:108590000840780084AD02000000000080A02A009E
:1085A000C6AE02000000000008407800A8AF02003C
:1085B00000000000308B2A00A6AE02000000000080
:1085C0000A0337000000E8000080FB0010988900D3
:1085D000B2F60700CCF507000080FB003ACB0200A2
:1085E00000000000000478000800780026B00200B7
:1085F0000000000080A02A00C6AE020000000000BB
:108600000840780084AD02000000000080A02A002D
:10861000C6AE02000000000008407800A8AF0200CB
:1086200000000000308B2A00A6AE0200000000000F
:10863000EE02370080A681000000E00005003A004D
:1086400011C0B30001407800B2B702000000000082
:10865000E6023700A1012000106D2000DACC0200F4
:1086600000000000E1023700C0A02A00C6AE0200F0
:1086700000000000B4F80700DC02370070CD0200F3
:10868000000000000004E000D8023200A100200039
:10869000006F2000DACC020000000000400620003D
:1086A00010CB02000000000078C9020000000000AA
:1086B0007EB00200000000000004E000FCFF320079
:1086C00081BF2A0001400100C80237002BF60700D5
:1086D00000047800030037008897020000000000C3
:1086E0000804E9000800E000FBFF3A00BF02370081
:1086F00022F60700000478000300370054970200B8
:10870000000000000804E9000800E000FBFF3A0058
:10871000B602370019F6070000047800A96F2000A0
:108720003A8B2A000C003700610120000900780014
:108730007ECC020000000000BC9702000000000098
:1087400044B00200000000000A007800A6AE02005B
:10875000000000000804E9000800E000F2FF3A0011
:10876000A202370080A681000000E00005003A0068
:10877000D1012000B0682000DACC02000000000027
:108780009A023700C922A900CB22A80021E3A80041
:108790002000200010CB0200000000000000EB00D1
:1087A000D4C9020000000000011B2000810F50000E
:1087B0001800360020002000D4C90200000000008C
:1087C000712B2000810F5000120036001101200093
:1087D000007120007ECC020000000000308B2A00D7
:1087E000A6AE0200000000000003200081A6810068
:1087F0000088B9000002B000C1C622006100780004
:108800000000010040A12A00A6AE02000000000006
:108810000C003700C922A900CB22A90060A22A00BF
:10882000A6AE02000000000021012000107220000E
:108830007ECC020000000000308B2A00A6AE0200B1
:108840000000000021E3A9006802370080A6810033
:108850000000E00005003A00D1012000B0682000CF
:10886000DACC0200000000006002370001032000A3
:108870000180B9002002B000C1C62200610078006A
:1088800000000100908B2A00A6AE0200000000004C
:10889000C922A900CB22A9002101200010722000CA
:1088A0007ECC020000000000308B2A00A6AE020041
:1088B000000000004D023700F1002000C03620000B
:1088C0007ECC020000000000E2C9020000000000AF
:1088D00011002000B03720007ECC02000000000014
:1088E000308B2A00A6AE0200000000003F023700D5
:1088F000F0C90200000000003C0237009FF50700AD
:108900000004780061002000F07320007ECC02009B
:108910000000000008007800F8AD02000000000030
:108920002100200050742000DACC0200000000007A
:1089300008007800E2CA0200000000002B023700A5
:108940008EF507000004780061002000F07320001D
:108950007ECC02000000000008007800F8AD0200A4
:10896000000000002100200010002100DACC0200ED
:10897000000000000800780010CB0200000000009A
:108980001A023700604D230010A0A0001702370024
:1089900080A681000000E00005003A00D10120001F
:1089A000B0682000DACC0200000000000F0237009F
:1089B00008980200000000000C02370084CF51002C
:1089C00001003A002FE197008100E8000500370020
:1089D00012C0B30011002000F60F20000520230074
:1089E000E4C3B3008081400086816100E5C1790065
:1089F0000304E000F1FF3A0043302300824978008D
:108A000023022000838F50000400340011C0B30003
:108A10004030230001487800F40137000204E000F0
:108A2000F2013A000000E800F90F200009006000A0
:108A300010988900B4F407000004780010988100B1
:108A4000890460000120230061C17C00D1C3B30010
:108A5000814F510022003A008800E900E48F500065
:108A60001B003E000000E8000080FB001098890019
:108A7000C540DD00402E23008080400001017800C9
:108A80000000EB00030220000042EB0004697800C4
:108A90000000E800830F5000FBFF3A0010988100AF
:108AA00005202300E4C3B300F30F200003003700C8
:108AB000826878000000E8000300600065417800EB
:108AC000844F5100FAFF3A0010988900C70137001F
:108AD00011C0B3004030230001487800C3013700C3
:108AE0000800E00015003A0059302300180020006B
:108AF0006AA42A009B9C2A000840780084AD0200EA
:108B0000000000000A007800C6AE0200000000006D
:108B100009007800C6AE0200000000000B007800DB
:108B2000A6AE0200000000000804E8000902B00040
:108B3000E60F5400F0FF3A00AC0137000800E900EE
:108B4000E40F500005003E00308B2A00A6AE020064
:108B500000000000389D8900A401370011C0B30057
:108B60004030230001487800A00137000000E800F1
:108B7000F80F2000080060001098890062F40700D8
:108B80008004780045F50700109881000804600013
:108B900000202300E0407C0090C2B30080CF500052
:108BA0000C003A000003200081A681000088B90073
:108BB0007C004000C1C62200E10078000900780076
:108BC00001000100308B2A00A6AE02000000000068
:108BD0008601370011C0B3004030230001487800FF
:108BE0008201370026C2B30086CF510001003A004F
:108BF000AFE097000201E8000400370011C0B300A5
:108C000012002000F50F2000042023008001410005
:108C100085816100E4C179000304E000F1FF3A00BE
:108C200040302300014878000104E0006F013A0061
:108C300071002000707420007ECC02000000000053
:108C400020C2B30076AD020000000000FA0F200041
:108C5000082023004B4B2300094D2300CCC62200E3
:108C6000110037001198890076AD02000000000065
:108C700010988100684078000000FB001B417800DC
:108C8000E8406100020032003ACB02000000000020
:108C900019017800010320000191B9006801410029
:108CA000EC00790001000100119881008100E800CA
:108CB0008A80600068C0780023C2B300834F5000F0
:108CC000E8FF3A00119889000340780076AD020071
:108CD00000000000308B2A00A6AE02000000000059
:108CE000420137000003200081A681000088B900FE
:108CF000C2C6220062007800000001003B0137007C
:108D00000003200081A681000088B9000080E800EF
:108D1000C1C6220061007800000001003301370065
:108D20000003200081A681000088B9006400400093
:108D3000C1C6220061007800000001002B0137004D
:108D40000003200081A681000088B9006600400071
:108D5000C1C6220061007800000001002301370035
:108D600071002000707420007ECC02000000000022
:108D7000E5F3070000047800109881000000E90086
:108D80000080FB00109889007CF4070080057800C3
:108D90008FF407000000E00009003200314A230090
:108DA00080487800E80F50000300340071804000D4
:108DB0001054A00002003700404B23001054A100C3
:108DC000494B2300718654000D4D23000E032000F3
:108DD0003A0037000800780056CA02000000000080
:108DE00004C2B3001940620004003A0086C0B30018
:108DF0009C4F130004003A000900370000C1B30083
:108E00009C4F100006003200B0C3B30076AD0200E4
:108E1000000000001C40780084AD0200000000004B
:108E20009940780068C060000400320008007800B3
:108E30003ACB020000000000000478001D0078001A
:108E40000E80B90068004000C2C62200E20078002F
:108E500008007800010001000005780000C2B3009E
:108E600076AD02000000000003C4B30019C0610029
:108E70001100320061002000E07420007ECC02006E
:108E800000000000194278006840620004003200CF
:108E90000A0078003ACB02000000000000057800CC
:108EA0000A00780056CA02000000000000C2B300A9
:108EB00076AD0200000000008B05E9000B00E00029
:108EC000C4FF3A00308B2A00A6AE0200000000006A
:108ED000C600370061002000E07420007ECC020054
:108EE000000000004FF407000045780023F407005D
:108EF0000004780036F407000000E00009003200AA
:108F0000314A230080487800E80F50000300340005
:108F1000718040001054A00002003700404B230035
:108F20001054A1000A04E00005003200E04C2300C8
:108F300010437800B6E79F008A80FB000108E90033
:108F40000B4D23000D032000CEC622004C4B230006
:108F5000F1045600200037001B0078000D80B90096
:108F60006A0040006E007800000001001C4178009B
:108F7000E8406100020032003ACB0200000000002D
:108F800056CA02000000000003C2B3001CC061000A
:108F900004003A0084C0B300994F120004003A0064
:108FA0000900370006C1B300994F130006003200D4
:108FB000B0C3B30076AD0200000000001940780095
:108FC00084AD02000000000000C2B30076AD0200D4
:108FD000000000000804E9000800E000DEFF3A009D
:108FE0000A04E00003003200BFE097000180FB00AC
:108FF00070A68900308B2A00A6AE02000000000097
:109000007A0037008100200040752000DACC020091
:10901000000000000003200081A681000088B90044
:109020006C004000C1C62200610078000000010011
:109030006E00370081002000C0752000DACC0200ED
:10904000000000000003200081A681000088B90014
:109050006E004000C1C622006100780000000100DF
:1090600062003700E100200040762000DACC0200E8
:10907000000000000003200081A681000088B900E4
:1090800070004000C1C622006100780000000100AD
:1090900056003700E100200020772000DACC0200E3
:1090A000000000000003200081A681000088B900B4
:1090B00072004000C1C6220061007800000001007B
:1090C0004A003700C1002000307320007ECC02002F
:1090D000000000000003200081A681000088B90084
:1090E00074004000C1C62200610078000000010049
:1090F00044B00200000000003C0037009FF307006E
:1091000000047800D1002000007920007ECC02000D
:10911000000000000800780056CA020000000000AD
:10912000094D2300CAC622000700370099007800C5
:10913000000320000088B900760040006A00780033
:10914000000001000804E9000800E000F7FF3A0011
:10915000308B2A00A6AE020000000000230037007A
:1091600086F3070000047800A1002000D0792000D9
:109170007ECC020000000000094D2300CAC6220078
:109180000D00370099007800000320000088B90026
:10919000780040006A007800000001000080FB00B9
:1091A00044B002000000000000C2B30076AD02002F
:1091B000000000000804E9000800E000F1FF3A00A8
:1091C0000101200000782000DACC0200000000003D
:1091D0000600370011C0B30040302300014878007A
:1091E000020037000001EB00D2B79F001098810009
:1091F0000000E8000080FB00109889004030230048
:109200001004E0001800320051012000707A2000A4
:109210007ECC02000000000010988100CFB19700C2
:10922000808F5100040031000340500084AD0200E3
:1092300000000000040037000FEA970004405000CF
:1092400084AD020000000000403023000043EB002A
:1092500006487800308B2A00A6AE0200000000000D
:1092600010002000D0B79F00009881001198810065
:10927000808F500007003200DFB097000100E0004F
:1092800094FB32002FB19700129889000298890050
:109290003AF8370013002000D3B79F00F9FF3700DA
:1092A0005752490054452000424954003A202000BA
:1092B0002A6E650078742000636C6F00636B200079
:1092C000285E2900207769006C6C200075736500AA
:1092D000207468006973200076616C0075654E002B
:1092E0006F2064006576690063652C00207472004D
:1092F00079202800414C4100524D2900205345005F
:109300004152430048206D00616372006F20660087
:109310006972730074414400445245005353200065
:109320004D414300524F200020302E004D6163001C
:10933000726F20006D656E00754D610063726F0085
:109340002020200020203100574952004520610094
:1093500064647200657373000D0A200020202A00E7
:109360003157490052452000524F4D0020434F00D5
:109370004D4D41004E4420004D414300524F73007B
:109380003A0D0A00203531002E524500414420009C
:10939000524F4D00202830007833330029202A0016
:1093A000666F7200207369006E676C006520640050
:1093B0006576690063652000627573000D0A200000
:1093C00038352E004D41540043482000524F4D0087
:1093D000202830007835350029202A00666F6C007F
:1093E0006C6F77006564200062792000363462007B
:1093F000697420006164640072657300730D0A0073
:1094000020323000342E53004B49500020524F0080
:109410004D20280030784300432920002A666F0041
:109420006C6C6F00776564002062790020636F00C8
:109430006D6D61006E640D000A20320033362E001F
:10944000414C4100524D20005345410052434800D9
:109450002028300078454300290D0A0020323400CE
:10946000302E53004541520043482000524F4D00DA
:10947000202830007846300029414C0041524D00F0
:1094800020534500415243004820280030784500D1
:1094900043295300454152004348200028307800BA
:1094A0004630290044657600696365002049440020
:1094B000732061007265200061766100696C610053
:1094C000626C650020627900204D410043524F00DC
:1094D0002C20730065652000283029002E5245009D
:1094E00041442000524F4D00202830007833330093
:1094F000293A20004D41540043482000524F4D006E
:10950000202830007835350029534B004950200081
:10951000524F4D00202830007843430029556E00FB
:109520006B6E6F00776E20006D616300726F2C00B0
:109530002074720079203F00206F720020283000D4
:10954000292066006F72200068656C00704255002B
:1095500053205200455345005420570061726E005D
:10956000696E67003A202A0053686F007274200009
:109570006F7220006E6F200070756C006C2D75008E
:1095800070202A004E6F20006465760069636500D4
:1095900020646500746563007465640020445300B2
:1095A000313853003230200048696700682050008D
:1095B000726573002044690067205400686572007A
:1095C0006D445300313842003230200050726F0039
:1095D00067205200657320004469670020546800CA
:1095E00065726D004453310038323200204563000B
:1095F0006F6E2000446967002054680065726D003A
:109600004453320034303400204563006F6E7200E2
:10961000616D200074696D00652043006869700009
:10962000445332003433310020314B002045450093
:1096300050524F004D556E006B6E6F00776E2000DC
:10964000646576006963650050574D0020646900C9
:10965000736162006C656400314B48007A2D340000
:109660002C303000304B48007A205000574D4600D7
:109670007265710075656E0063792000696E200067
:109680004B487A002050720065736300616C65007E
:109690003A505200323A44007574790020637900E0
:1096A000636C650020696E002025200050574D0036
:1096B000206163007469760065455200524F520084
:1096C0003A205000574D20006163740069766500B0
:1096D0002C20670020746F002064690073616200B1
:1096E0006C65410055582000467265007175650033
:1096F0006E6379003A20410055582000494E5000D1
:1097000055542F0048492D005A4155005820480013
:109710004947480041555800204C4F0057564F00CC
:109720004C544D004554450052204D004F444500D7
:10973000564F4C005441470045205000524F4200C4
:10974000453A200056457200726F720028292000A9
:10975000406C69006E653A0020407000676D7300D0
:1097600070616300653A20006279740065732E00B1
:10977000546F6F00206C6F006E67210053796E008C
:109780007461780020657200726F72004E6F200065
:1097900045455000524F4D004572610073696E009F
:1097A00067646F006E655300617669006E67200024
:1097B000746F2000736C6F00742049006E76610036
:1097C0006C69640020736C006F744C006F616400FE
:1097D000696E6700206672006F6D2000736C6F0009
:1097E0007420450052524F00523A2000636F6D00C2
:1097F0006D616E0064206800617320006E6F200050
:1098000065666600656374002068650072654100E6
:10981000434B4E0041434B00493243002053540018
:109820004152540020424900544932004320530021
:10983000544F5000204249005449320043206D00EB
:109840006F6465003A0D0A0020312E0020536F002E
:1098500066747700617265000D0A2000322E2000C8
:10986000486172006477610072655300657420007E
:109870007370650065643A000D0A2000312E2000E7
:109880007E354B00487A0D000A2032002E207E00E3
